S01800004C696E65626F7454656D706C617465312E73726563D2
S11300000C94CA010C94EB010C9436030C949303E6
S11300100C94EB010C94EB010C94EB010C94EB01AC
S11300200C94EB010C94EB010C94EB010C94EB019C
S11300300C94EB010C94EB010C94330E0C94EB0137
S11300400C94B30E0C94EB010C94EB010C94EB01A7
S11300500C94EB010C94EB010C94EB010C94EB016C
S11300600C94EB010C94EB010C94EB010C94EB015C
S11300700C94EB010C94EB010C94EB010C94EB014C
S11300800C94EB010C94EB010C94EB010C94EB013C
S11300900C94EB010C94EB010C94EB010C94EB012C
S11300A00C94EB010C94EB010C94EB010C94F40311
S11300B00C9459040C94EB010C94F9050C94EB0189
S11300C00C94EB010C94EB010C94EB010C94EB01FC
S11300D00C94EB010C94EB010C94EB010C94EB01EC
S11300E00C94EB010C94EB010C94EB010C94EB01DC
S11300F00C94EB010C94EB010C94EB010C94EB01CC
S11301000C94EB010C94EB010C94EB010C94EB01BB
S11301100C94EB010C94EB010C94EB010C94EB01AB
S11301200C94EB010C94EB010C94EB010C94EB019B
S11301300C94EB010C94EB010C94EB010C94EB018B
S11301400C94EB010C94EB010C94EB010C94EB017B
S11301500C94EB010C94EB010C94EB010C94EB016B
S11301600C94EB010C94EB010C94EB010C94EB015B
S11301700C94EB010C94EB010C94EB010C94EB014B
S11301800C94EB010C94EB010C94EB010C94EB013B
S11301900C94EB010C94EB010C94EB010C94EB012B
S11301A00C94EB010C94EB010C94EB010C94EB011B
S11301B00C94EB010C94EB010C94EB010C94EB010B
S11301C00C94EB010C94EB010C94EB010C94EB01FB
S11301D00C94EB010C94EB010C94EB010C94EB01EB
S11301E00C94EB010C94EB010C94EB010C94EB01DB
S11301F00C94EB010C94EB010C94EB010763423675
S1130200B79BD8A71A39685618AEBAAB558C1D3CA3
S1130210B7CC5763BD6DEDFD753EF6177231BF0067
S11302200000803F08000000BE922449123EABAAA1
S1130230AA2ABECDCCCC4C3E00000080BEABAAAAFC
S1130240AA3E00000000BF000000803F0000000044
S113025000084178D3BB4387D1133D190E3CC3BD7D
S11302604282AD2B3E68EC8276BED98FE1A93E4C2A
S113027080EFFFBE01C4FF7F3F00000000000C942C
S113028082210C9415160C94B91C0C94B0080C948F
S11302908B086E616E00696E660000407A10F35A36
S11302A000A0724E18090010A5D4E80000E87648B2
S11302B0170000E40B54020000CA9A3B000000E15E
S11302C0F505000080969800000040420F000000F1
S11302D0A08601000000102700000000E8030000D1
S11302E000006400000000000A000000000001009B
S11302F0000000002C76D888DC674F0823DFC1DFBC
S1130300AE59E1B1B796E5E3E453C63AE6519976BE
S113031096E8E6C28426EB898C9B62ED407C6FFCF8
S1130320EFBC9C9F40F2BAA56FA5F490055A2AF73A
S11303305C936B6CF9676DC11BFCE0E40D47FEF543
S113034020E6B500D0ED902E0300943577050080AB
S1130350841E080000204E0A000000C80C3333330A
S1130360330F986E12831141EF8D2114893BE655AA
S113037016CFFEE6DB18D1844B381BF77C1D901D8D
S1130380A4BBE424203284725E228100C9F124ECEF
S1130390A1E53D2711241FBECFEFCDBFDFE9DEBFAE
S11303A000E00CBF1BE2A0E0B0E2EAEDF1E600E001
S11303B00BBF02C007900D92A23FB107D9F72CE200
S11303C0A2EFBBE201C01D92A33CB207E1F70E9479
S11303D00E1C0C94EB300C940000CF93DF93CDB73C
S11303E0DEB70000DF91CF910895CF93DF93CDB7AF
S11303F0DEB780E296E028EFFC01228380E296E0FB
S113040028E5FC01238B80E296E028E5FC01248B9F
S113041080E296E028E5FC01258B80E296E028E561
S1130420FC01268B80E296E028E5FC01278B000086
S1130430DF91CF910895CF93DF931F921F92CDB791
S1130440DEB789839A8389819A8160E070E00E9493
S11304502F0200000F900F90DF91CF910895CF935A
S1130460DF9300D01F92CDB7DEB789839A836B8365
S11304707C831092F22B1092F32B26C080EA9AE030
S113048029813A81F9012081FC012083000080EA5E
S11304909AE0FC018181882F90E080749927892B50
S11304A0B1F380EA9AE020E4FC01218389819A81F6
S11304B0019689839A838091F22B9091F32B019674
S11304C08093F22B9093F32B89819A81FC01808194
S11304D0882369F02091F22B3091F32B8B819C813E
S11304E0281739075CF28B819C81892B39F2000033
S11304F02496CDBFDEBFDF91CF910895CF93DF93D4
S11305001F921F92CDB7DEB789839A8380E197E269
S11305108093F42B9093F52B1092F62B73C080915B
S1130520F42B9091F52B9C0189819A81B9010E9449
S11305306E2BCB01AC019A01ADECBCEC0E94962B66
S1130540969587959695879596958795880F991F83
S11305509C01220F331F220F331F820F931F9A0116
S1130560281B390BC901892B21F48091F62B882390
S1130570D9F1E0EAFAE08091F42B9091F52B9C01FB
S113058089819A81B9010E946E2BCB01AC019A0139
S1130590ADECBCEC0E94962B969587959695879525
S11305A096958795880F991F9C01220F331F220F60
S11305B0331F820F931F9A01281B390BC901805DD9
S11305C08083000080EA9AE0FC018181882F90E01A
S11305D080749927892BB1F380EA9AE020E4FC0126
S11305E0218381E08093F62B8091F42B9091F52B5D
S11305F02AE030E0B9010E94822BCB018093F42BD6
S11306009093F52B8091F42B9091F52B18161906E5
S11306100CF485CF00000F900F90DF91CF910895D7
S1130620CF93DF93CDB7DEB780E296E027E0FC01FD
S1130630218380E096E020E8FC01218380E296E0BB
S113064020E4FC01208B80E296E020E4FC01218B75
S113065080E296E020E4FC01228B80E096E020E436
S1130660FC01278B0000DF91CF9108951F920F9218
S113067000903F000F92112400903B000F922F93A3
S11306803F938F939F93EF93FF93CF93DF931F92A7
S1130690CDB7DEB780E496E0FC018085898389814B
S11306A0882F90E080749927892B99F08981882379
S11306B01CF48FEF9FEF02C081E090E02091F72BB4
S11306C03091F82B820F931F8093F72B9093F82B84
S11306D012C0898188231CF481E090E002C08FEF6E
S11306E09FEF2091F72B3091F82B820F931F80936B
S11306F0F72B9093F82B80E496E021E0FC0124870B
S113070000000F90DF91CF91FF91EF919F918F9116
S11307103F912F910F9000923B000F9000923F0069
S11307200F901F9018951F920F9200903F000F9208
S1130730112400903B000F922F933F938F939F932C
S1130740EF93FF93CF93DF931F92CDB7DEB780E48F
S113075096E0FC018085898389818823BCF48981A2
S1130760882F90E080749927892B19F081E090E01C
S113077002C08FEF9FEF2091F72B3091F82B820F5F
S1130780931F8093F72B9093F82B16C08981882FA1
S113079090E080749927892B19F08FEF9FEF02C0A6
S11307A081E090E02091F72B3091F82B820F931F7A
S11307B08093F72B9093F82B80E496E022E0FC01E1
S11307C0248700000F90DF91CF91FF91EF919F91CB
S11307D08F913F912F910F9000923B000F900092C8
S11307E03F000F901F9018951F920F9200903F00AA
S11307F00F92112400903B000F922F933F938F93FD
S11308009F93EF93FF93CF93DF931F92CDB7DEB700
S113081080E896E0FC01808589838981882F90E0B7
S113082080719927892BB9F08981882F90E0807293
S11308309927892B19F08FEF9FEF02C081E090E098
S11308402091F92B3091FA2B820F931F8093F92B6F
S11308509093FA2B16C08981882F90E08072992793
S1130860892B19F081E090E002C08FEF9FEF209177
S1130870F92B3091FA2B820F931F8093F92B9093CD
S1130880FA2B80E896E021E0FC01248700000F9019
S1130890DF91CF91FF91EF919F918F913F912F9194
S11308A00F9000923B000F9000923F000F901F901A
S11308B018951F920F9200903F000F921124009000
S11308C03B000F922F933F938F939F93EF93FF934C
S11308D0CF93DF931F92CDB7DEB780E896E0FC019B
S11308E0808589838981882F90E080729927892B5C
S11308F0B9F08981882F90E080719927892B19F0AC
S113090081E090E002C08FEF9FEF2091F92B3091AE
S1130910FA2B820F931F8093F92B9093FA2B16C016
S11309208981882F90E080719927892B19F08FEFA6
S11309309FEF02C081E090E02091F92B3091FA2BD7
S1130940820F931F8093F92B9093FA2B80E896E003
S113095022E0FC01248700000F90DF91CF91FF91EA
S1130960EF919F918F913F912F910F9000923B00B7
S11309700F9000923F000F901F901895CF93DF9334
S1130980CDB7DEB780E496E020E2FC0121830000CD
S1130990DF91CF910895CF93DF931F92CDB7DEB748
S11309A089838981882331F080E496E020E2FC0188
S11309B0258305C080E496E020E2FC012683000044
S11309C00F90DF91CF9108958BEC8093520088E0D3
S11309D0809350008091510083FFFCCF82EC809380
S11309E0550088E1809350008091510084FFFCCF32
S11309F088ED84BF84E08093400080E00895CF9325
S1130A00DF93CDB7DEB71092042C80E896E028E19E
S1130A10FC01208B80E896E028E1FC01218B80EA30
S1130A2094E028E7FC01218380EA94E023E2FC01BE
S1130A30258380EA94E021E0FC0124830000DF9117
S1130A40CF910895CF93DF931F92CDB7DEB780EA9D
S1130A5094E0FC01848189838981882F90E08470EB
S1130A609927892B21F084E08093052C03C083E02F
S1130A708093052C80EA94E029812860FC0124837A
S1130A801092042C00000F90DF91CF910895CF9322
S1130A90DF9300D01F92CDB7DEB78091002C8983FD
S1130AA08091012C8A8380EA94E0FC018481882F60
S1130AB090E080719927892B59F080EA94E023E033
S1130AC0FC01238385E08093052C1092042C34C010
S1130AD09091022C89819817C0F42091FC2B3091BD
S1130AE0FD2B8091022C882F90E0820F931FFC0134
S1130AF080818B8380EA94E02B81FC0127838091A1
S1130B00022C8F5F8093022C17C09091032C8A8152
S1130B10981750F48091FB2B81608C8380EA94E0D9
S1130B202C81FC01268308C080EA94E023E0FC01C8
S1130B30238381E00E94E90500002496CDBFDEBF37
S1130B40DF91CF910895CF93DF931F921F92CDB77A
S1130B50DEB78091032C8032C0F480EA94E0FC017B
S1130B60878189832091FE2B3091FF2B8091032C68
S1130B70882F90E0820F931F2981FC0120838091AC
S1130B80032C8F5F8093032C08C080EA94E023E059
S1130B90FC01238382E00E94E9058091012C8A8371
S1130BA09091032C8A81981730F480EA94E022E033
S1130BB0FC01238308C080EA94E027E0FC0123833E
S1130BC081E00E94E90500000F900F90DF91CF9122
S1130BD00895CF93DF931F92CDB7DEB789838981C0
S1130BE08093052C1092042C00000F90DF91CF917C
S1130BF008951F920F9200903F000F9211240090CD
S1130C003B000F922F933F934F935F936F937F9388
S1130C108F939F93AF93BF93EF93FF93CF93DF9300
S1130C201F92CDB7DEB780EA94E0FC01848189830A
S1130C308981882F90E088709927892B39F48981DC
S1130C40882F90E084709927892B19F00E9422053F
S1130C5013C08981882F90E080749927892B19F01B
S1130C600E94470509C0898188231CF40E94A305BA
S1130C7003C086E00E94E9058091042C00000F90D7
S1130C80DF91CF91FF91EF91BF91AF919F918F91A0
S1130C907F916F915F914F913F912F910F900092AF
S1130CA03B000F9000923F000F901F901895CF9338
S1130CB0DF93CDB7DEB72B97CDBFDEBF80E896E0DC
S1130CC028E0FC01218380E896E024E0FC012283F3
S1130CD080EA9AE0FC01138280EA9AE028E1FC01B0
S1130CE0248380EA9AE023E0FC01258340E052EC6F
S1130CF061E070E0CE0101960E94A50680EA9AE0C8
S1130D002A813B81FC01268380EA9AE02981422FD3
S1130D104295407F2A813B81232F33272F70242B38
S1130D20FC01278386E090E28093BF2C9093C02C33
S1130D3086E090E28093BD2C9093BE2C00002B960D
S1130D40CDBFDEBFDF91CF910895CF92DF92EF92B6
S1130D50FF92CF93DF93CDB7DEB7E097CDBFDEBF71
S1130D608BA79CA74DA75EA76FA778AB88E29BE6ED
S1130D70AEE6BEE48FA398A7A9A7BAA788E29BE62C
S1130D80AEE6BEE489839A83AB83BC8389EF8D830B
S1130D90A8C18D81082E000C990BAA0BBB0BBC01BA
S1130DA0CD010E942725DC01CB019C01AD0160E04F
S1130DB070E080E090E40E944926DC01CB018C873E
S1130DC09D87AE87BF878D8188230CF494C020E073
S1130DD030E040E851E46C857D858E859F850E94D6
S1130DE0DC25DC01CB016C017D016DA57EA58FA501
S1130DF098A90E942525DC01CB019C01AD01C70106
S1130E00B6010E94DC25DC01CB019C01AD0160E050
S1130E1074E284EF9BE40E948424DC01CB0120E093
S1130E2030E040E85FE3BC01CD010E941224DC0104
S1130E30CB01888B998BAA8BBB8B20E030E0A90176
S1130E40688979898A899B890E947F2488230CF484
S1130E5042C120E030EF4FE755E4688979898A89F7
S1130E609B890E94D72518160CF435C120E030E088
S1130E7040E05FE3688979898A899B890E94132409
S1130E80DC01CB01BC01CD010E94F624DC01CB01C5
S1130E908E839F8320E030E040E851E46C857D85BB
S1130EA08E859F850E94DC25DC01CB016C017D01D0
S1130EB08E819F810196CC01A0E0B0E0BC01CD0100
S1130EC00E942525DC01CB019C01AD01C701B601BF
S1130ED00E94DC25DC01CB019C01AD0160E074E2E1
S1130EE084EF9BE40E948424DC01CB0188879987EA
S1130EF0AA87BB8798C06DA57EA58FA598A90E94D7
S1130F002525DC01CB0120E030E040E851E4BC01C0
S1130F10CD010E94DC25DC01CB019C01AD0160E028
S1130F2074E284EF9BE40E948424DC01CB0120E082
S1130F3030E040E85FE3BC01CD010E941224DC01F3
S1130F40CB012C853D854E855F85BC01CD010E947A
S1130F508424DC01CB018C8B9D8BAE8BBF8B20E07A
S1130F6030E0A9016C897D898E899F890E947F2444
S1130F7088230CF4B2C020E030EF4FE755E46C89CD
S1130F807D898E899F890E94D72518160CF4A5C0E7
S1130F9020E030E040E05FE36C897D898E899F89A1
S1130FA00E941324DC01CB01BC01CD010E94F62474
S1130FB0DC01CB018E839F838E819F81CC01A0E0D5
S1130FC0B0E0BC01CD010E942525DC01CB012C85BC
S1130FD03D854E855F85BC01CD010E94DC25DC0189
S1130FE0CB0120E030E040E85FE3BC01CD010E948A
S1130FF01324DC01CB0120E030E040E851E4BC01E3
S1131000CD010E94DC25DC01CB019C01AD0160E037
S113101074E284EF9BE40E948424DC01CB01888782
S11310209987AA87BB876DA57EA58FA598A90E94DD
S11310302525DC01CB019C01AD01688579858A8574
S11310409B850E941224DC01CB01BF77888F998F86
S1131050AA8FBB8F6DA57EA58FA598A90E94252573
S1131060DC01CB019C01AD01688D798D8A8D9B8D4E
S11310700E948424DC01CB018C8F9D8FAE8FBF8FA7
S113108029813A814B815C81688D798D8A8D9B8D14
S11310900E947F24882314F5888D998DAA8DBB8D99
S11310A089839A83AB83BC838D8188A38E819F813E
S11310B089A39AA3888D998DAA8DBB8D8BA39CA39C
S11310C0ADA3BEA38C8D9D8DAE8DBF8D8FA398A730
S11310D0A9A7BAA703C0000001C000008D818F5FDB
S11310E08D838D8188300CF454CE8BA59CA52BE088
S11310F0FE01B096DC0101900D922A95E1F78BA5D3
S11311009CA5E096CDBFDEBFDF91CF91FF90EF901D
S1131110DF90CF900895CF93DF9300D0CDB7DEB7A3
S113112089836A837B8380EA9AE02981FC01208396
S1131130000080EA9AE0FC018181882F90E08074AD
S11311409927892BB1F380EA9AE020E4FC012183FA
S113115080E090E02396CDBFDEBFDF91CF9108956C
S1131160CF93DF931F921F92CDB7DEB789839A8303
S1131170000080EA9AE0FC0181818823D4F780EAA8
S11311809AE0FC018081882F90E00F900F90DF910E
S1131190CF910895CF93DF93CDB7DEB72E97CDBF10
S11311A0DEBF8D879E871D821E820E94551280910C
S11311B00E2C882329F40E94300A81E080930E2C9F
S11311C08D859E85892B41F084E090E02D853E85B8
S11311D0820F931F8D879E878D859E85892B09F4A9
S11311E0B8C08D859E858F3F9F4308F0B2C086E0CE
S11311F09CE28B839C838091062C9091072C89839D
S11312009A830BC089819A818B839C8389819A817B
S1131210FC018081918189839A8389819A81FC016F
S1131220228133818D859E852817390738F4898179
S11312309A81FC0180819181892B21F789819A818E
S11312408A509C4209F485C08B819C81FC012081D9
S1131250318184E090E0820F931F8D839E83898186
S11312609A81FC01208131818B819C81FC01208346
S1131270318389819A81FC01228133818D859E8508
S1131280281B390B84E090E0880F991F821793077D
S113129008F04EC029813A818D859E85820F931F67
S11312A089879A8789819A81FC01228133818D857E
S11312B09E85281B390B89859A85FC0122833383FB
S11312C089819A812D853E85FC012283338389851A
S11312D09A85FC01828193818B879C8786E09CE2BE
S11312E08F83988707C08F819885FC0180819181C5
S11312F08F8398878F819885FC0180819181FC017F
S1131300228133818B859C852817390760F38F816F
S11313109885FC012081318189859A85FC0120838F
S113132031838F81988529853A85FC012083318317
S1131330209114203091152089819A81FC018281A9
S11313409381A901481B590BCA01809314209093DF
S113135015200E9462128D819E81892B11F40E94B6
S1131360EA188D819E812E96CDBFDEBFDF91CF918D
S11313700895CF93DF93CDB7DEB72A97CDBFDEBFF5
S113138089879A8789859A858B839C8389859A85A1
S1131390892B09F453C084E090E0919581959109DB
S11313A02B813C81820F931F8B839C838B819C8137
S11313B08D839E830E9455128D819E81FC018281C2
S11313C093818F83988786E09CE289839A8307C000
S11313D089819A81FC018081918189839A838981A1
S11313E09A81FC0180819181FC01228133818F816A
S11313F098852817390760F389819A81FC01208137
S113140031818D819E81FC012083318389819A8180
S11314102D813E81FC01208331838D819E81FC01DD
S1131420228133818091142090911520820F931F83
S113143080931420909315200E94621200002A9633
S1131440CDBFDEBFDF91CF910895CF93DF93CDB7AA
S1131450DEB78091142090911520DF91CF910895EB
S1131460CF93DF9300D01F92CDB7DEB78091B72C16
S11314709091B82C019689839A8389819A8180936B
S1131480062C9093072C1092082C1092092C8FEFA5
S11314909FE380930C2C90930D2C10920A2C1092A5
S11314A00B2C89819A818B839C838B819C812FEF68
S11314B03FE3FC01228333838B819C812AE03CE25D
S11314C0FC012083318300002496CDBFDEBFDF9171
S11314D0CF910895CF93DF931F921F92CDB7DEB7BC
S11314E089839A8389819A819C012D5F3F4F8981E9
S11314F09A81FC012183328389819A812FEF3FEF06
S1131500FC012383348389819A819C012D5F3F4FA1
S113151089819A81FC012583368389819A819C0182
S11315202D5F3F4F89819A81FC0127833087898110
S11315309A81FC01108200000F900F90DF91CF91EF
S11315400895CF93DF931F921F92CDB7DEB789839F
S11315509A8389819A81FC011086118600000F907C
S11315600F90DF91CF910895CF93DF9300D000D0F7
S1131570CDB7DEB78B839C836D837E838B819C8107
S1131580FC018181928189839A838D819E81298145
S11315903A81FC012283338389819A81FC0124816D
S11315A035818D819E81FC012483358389819A81D3
S11315B0FC01848195812D813E81FC01228333834A
S11315C089819A812D813E81FC01248335838D811B
S11315D09E812B813C81FC01208731878B819C81FA
S11315E0FC01808121E0280F8B819C81FC012083F8
S11315F000002696CDBFDEBFDF91CF910895CF9333
S1131600DF93CDB7DEB72897CDBFDEBF8D839E8332
S11316106F8378878F819885FC01808191818B838A
S11316209C838B819C81019641F48D819E81FC0178
S11316308781908589839A831AC08D819E810396C0
S113164089839A8307C089819A81FC01828193816D
S113165089839A8389819A81FC0182819381FC0127
S1131660208131818B819C818217930760F7898166
S11316709A81FC01228133818F819885FC01228328
S113168033838F819885FC01828193812F813885F2
S1131690FC01248335838F81988529813A81FC015B
S11316A02483358389819A812F813885FC012283A3
S11316B033838F8198852D813E81FC01208731877A
S11316C08D819E81FC01808121E0280F8D819E8186
S11316D0FC01208300002896CDBFDEBFDF91CF91AF
S11316E00895CF93DF9300D01F92CDB7DEB78B83DD
S11316F09C838B819C81FC018085918589839A835D
S11317008B819C81FC01828193812B813C81F90135
S113171024813581FC01248335838B819C81FC01E8
S1131720848195812B813C81F90122813381FC01E3
S11317302283338389819A81FC01218132818B81C7
S11317409C812817390751F48B819C81FC012481E9
S1131750358189819A81FC01218332838B819C812B
S1131760FC011086118689819A81FC0180812FEF0A
S1131770280F89819A81FC01208389819A81FC0147
S113178080812496CDBFDEBFDF91CF910895CF93A2
S1131790DF93CDB7DEB72897CDBFDEBF8B839C83A5
S11317A06D837E834F8358878B819C8121E1FC016B
S11317B020838B819C8101978B839C838B819C816B
S11317C022E2FC0120838B819C8101978B839C8383
S11317D08B819C8123E3FC0120838B819C81019775
S11317E08B839C838D819E8189839A8329818B81BC
S11317F09C81FC0120838B819C8101978B839C833A
S113180089819A81892F992789839A8329818B8158
S11318109C81FC0120838B819C8101978B839C8319
S113182089819A81892F992789839A8329818B8138
S11318309C81FC0120838B819C8101978B839C83F9
S11318408B819C81FC0110828B819C8101978B830D
S11318509C838B819C8120E8FC0120838B819C816B
S113186001978B839C838B819C81FC0110828B81EB
S11318709C8101978B839C838B819C8122E0FC015A
S113188020838B819C8101978B839C838B819C819A
S113189023E0FC0120838B819C8101978B839C83B3
S11318A08B819C8124E0FC0120838B819C810197A6
S11318B08B839C838B819C8125E0FC0120838B811D
S11318C09C8101978B839C838B819C8126E0FC0106
S11318D020838B819C8101978B839C838B819C814A
S11318E027E0FC0120838B819C8101978B839C835F
S11318F08B819C8128E0FC0120838B819C81019752
S11319008B839C838B819C8129E0FC0120838B81C8
S11319109C8101978B839C838B819C8120E1FC01BA
S113192020838B819C8101978B839C838B819C81F9
S113193021E1FC0120838B819C8101978B839C8313
S11319408B819C8122E1FC0120838B819C81019706
S11319508B839C838B819C8123E1FC0120838B817D
S11319609C8101978B839C838B819C8124E1FC0166
S113197020838B819C8101978B839C838B819C81A9
S113198025E1FC0120838B819C8101978B839C83BF
S11319908B819C8126E1FC0120838B819C810197B2
S11319A08B839C838B819C8127E1FC0120838B8129
S11319B09C8101978B839C838B819C8128E1FC0112
S11319C020838B819C8101978B839C838B819C8159
S11319D029E1FC0120838B819C8101978B839C836B
S11319E08B819C8120E2FC0120838B819C81019767
S11319F08B839C838B819C8121E2FC0120838B81DE
S1131A009C8101978B839C838B819C8122E2FC01C6
S1131A1020838B819C8101978B839C838B819C8108
S1131A2023E2FC0120838B819C8101978B839C831F
S1131A308F81988589839A8329818B819C81FC017C
S1131A4020838B819C8101978B839C8389819A81DC
S1131A50892F992789839A8329818B819C81FC0111
S1131A6020838B819C8101978B839C838B819C81B8
S1131A7026E2FC0120838B819C8101978B839C83CC
S1131A808B819C8127E2FC0120838B819C810197BF
S1131A908B839C838B819C8128E2FC0120838B8136
S1131AA09C8101978B839C838B819C8129E2FC011F
S1131AB020838B819C8101978B839C838B819C8168
S1131AC020E3FC0120838B819C8101978B839C8381
S1131AD08B819C8121E3FC0120838B819C81019774
S1131AE08B839C838B819C812896CDBFDEBFDF9145
S1131AF0CF910895CF93DF93CDB7DEB70E94090E3F
S1131B00A0910F2CB091102CCD91CDBFDD91DEBFF3
S1131B10FF91EF91DF91CF91BF91AF919F918F9101
S1131B207F916F915F914F913F912F911F910F91F1
S1131B30FF90EF90DF90CF90BF90AF909F908F90E9
S1131B407F906F905F904F903F902F901F900F90D9
S1131B500FBE0F90089581E0DF91CF9108950F9209
S1131B600FB6F8940F921F9211242F923F924F9226
S1131B705F926F927F928F929F92AF92BF92CF9219
S1131B80DF92EF92FF920F931F932F933F934F9304
S1131B905F936F937F938F939F93AF93BF93CF93F1
S1131BA0DF93EF93FF93A0910F2CB091102C0DB6FF
S1131BB00D920EB60D920E94BB14A0910F2CB09101
S1131BC0102CCD91CDBFDD91DEBFFF91EF91DF9160
S1131BD0CF91BF91AF919F918F917F916F915F91C1
S1131BE04F913F912F911F910F91FF90EF90DF90B4
S1131BF0CF90BF90AF909F908F907F906F905F90A9
S1131C004F903F902F901F900F900FBE0F9008950C
S1131C100000CF93DF93CDB7DEB780E098E02FEFDD
S1131C203FEFFC0120A731A780E098E021E0FC0110
S1131C30208380E098E020E4FC01218380E098E0A8
S1131C4021E0FC01268380E098E021E0FC01278369
S1131C5080E098E020E03DE7FC0126A337A30000E4
S1131C60DF91CF9108950F920FB6F8940F921F92BF
S1131C7011242F923F924F925F926F927F928F9294
S1131C809F92AF92BF92CF92DF92EF92FF920F9307
S1131C901F932F933F934F935F936F937F938F93F0
S1131CA09F93AF93BF93CF93DF93EF93FF93A09151
S1131CB00F2CB091102C0DB60D920EB60D9280E043
S1131CC098E0FC0186A197A19C0140E050E080913E
S1131CD0B32C9091B42CA091B52CB091B62C820F5A
S1131CE0931FA41FB51F8093B32C9093B42CA0937F
S1131CF0B52CB093B62C0E94C6130E94BB14A091BD
S1131D000F2CB091102CCD91CDBFDD91DEBFFF9192
S1131D10EF91DF91CF91BF91AF919F918F917F917F
S1131D206F915F914F913F912F911F910F91FF9070
S1131D30EF90DF90CF90BF90AF909F908F907F9067
S1131D406F905F904F903F902F901F900F900FBE19
S1131D500F9018950000CF93DF93CDB7DEB7000046
S1131D60DF91CF9108950F920FB6F8940F921F92BE
S1131D7011242F923F924F925F926F927F928F9293
S1131D809F92AF92BF92CF92DF92EF92FF920F9306
S1131D901F932F933F934F935F936F937F938F93EF
S1131DA09F93AF93BF93CF93DF93EF93FF93A09150
S1131DB00F2CB091102C0DB60D920EB60D9280E042
S1131DC098E02FEF3FEFFC0120A731A70E94BB143E
S1131DD0A0910F2CB091102CCD91CDBFDD91DEBF21
S1131DE0FF91EF91DF91CF91BF91AF919F918F912F
S1131DF07F916F915F914F913F912F911F910F911F
S1131E00FF90EF90DF90CF90BF90AF909F908F9016
S1131E107F906F905F904F903F902F901F900F9006
S1131E200FBE0F90189500008F929F92AF92BF92B1
S1131E30CF92DF92EF92FF920F931F93CF93DF9392
S1131E40CDB7DEB76097CDBFDEBF8E839F83688733
S1131E5079874A875B872C873D870E87EF86F88AC8
S1131E608A859B850E94CA088C839D838C819D8171
S1131E70892BB9F080E390E00E94CA0889839A8391
S1131E8089819A81892B41F089819A812C813D81B4
S1131E90FC01278B308F07C08C819D810E94B9097A
S1131EA002C019821A8289819A81892B09F18A8553
S1131EB09B85CC01A0E0B0E009811A814F85588947
S1131EC02C853D8568857985EE81FF81812C912C57
S1131ED058016A01EE8489019C01AD01CF010E9481
S1131EE08B0F89819A810E94721081E08B8302C0DA
S1131EF08FEF8B838B816096CDBFDEBFDF91CF9157
S1131F001F910F91FF90EF90DF90CF90BF90AF9013
S1131F109F908F9008958F929F92AF92BF92CF928D
S1131F20DF92EF920F931F93CF93DF93CDB7DEB77A
S1131F306497CDBFDEBF8C839D836E837F832887A8
S1131F4039874A875B870C871D87EE86CF86D88AB8
S1131F50A98ABA8A8B8A9C8A8E819F81892B31F4C3
S1131F6060E673E086E190E20E94F81A28853985DC
S1131F7089899A89FC018789908DA90165EA70E0B5
S1131F800E94B72F89899A89FC012789308D888519
S1131F9099850197820F931F8A839B83198221C09D
S1131FA08981882F90E02981222F30E04E815F8142
S1131FB0240F351FF901408129893A89820F931F23
S1131FC04996FC0140838981882F90E02E813F81CE
S1131FD0820F931FFC018081882339F089818F5FF0
S1131FE0898389818830E0F201C0000089899A8957
S1131FF0FC0110A28E858A3010F089E08E878989D1
S11320009A892E85FC01268B89899A892E85FC0163
S113201023A389899A89FC0114A289899A89029641
S11320200E94A10A89899A890C960E94A10A898929
S11320309A8929893A89FC01208731878E85882FDE
S113204090E02AE030E0281B390B89899A89FC0149
S11320502487358789899A8929893A89FC01228BC1
S1132060338B89899A89FC0115A216A289899A89D8
S1132070FC0117A210A611A612A689899A89FC014F
S113208013A614A615A616A689899A89FC0117A673
S11320904C855D852C813D818A819B81B9010E949B
S11320A0C70B9C0189899A89FC01208331838F8520
S11320B09889892B39F08F85988929893A89FC0177
S11320C02083318300006496CDBFDEBFDF91CF91C2
S11320D01F910F91EF90DF90CF90BF90AF909F90A2
S11320E08F900895CF93DF931F921F92CDB7DEB7E1
S11320F089839A830FB6F8940F9280919D2C8F5FF9
S113210080939D2C80910F2C9091102C892B69F435
S113211089819A8180930F2C9093102C80919D2C0F
S11321208130C9F40E94281616C08091A12C8823FE
S113213091F480910F2C9091102CFC0126898981B7
S11321409A81FC018689821730F089819A81809373
S11321500F2C9093102C8091A52C8F5F8093A52C2D
S11321602091A52C89819A81FC0121A389819A81DE
S1132170FC0196898091A02C891730F489819A8179
S1132180FC0186898093A02C89819A81AC014E5FE1
S11321905F4F89819A81FC018689282F30E0C9012B
S11321A0880F991F880F991F880F991F820F931FFB
S11321B08F5E934DBA010E94B40A0F900FBE8091B6
S11321C0A12C882371F080910F2C9091102CFC018C
S11321D0268989819A81FC018689281710F40E9436
S11321E0AF0D00000F900F90DF91CF910895CF9322
S11321F0DF9300D0CDB7DEB78A839B8319828A81AF
S11322009B81892BA1F08091AA2C882331F060E274
S113221075E086E190E20E94F81A0E9455128A81C4
S11322209B8160E00E946E180E94621289838981FA
S1132230882311F40E94AF0D00002396CDBFDEBFAA
S1132240DF91CF910895CF93DF93CDB7DEB72B976E
S1132250CDBFDEBF8A879B878A859B858A839B83C4
S11322608A819B81892B31F46CE475E086E190E2EC
S11322700E94F81A80910F2C9091102C2A813B8196
S11322802817390711F4198252C00FB6F8940F9227
S11322908A819B81FC01828593858C839D838091B7
S11322A07D2C90917E2C8E839F8380917F2C9091A6
S11322B0802C888799870F900FBE2C813D818E8159
S11322C09F812817390739F02C813D8188859985AC
S11322D02817390719F482E0898329C08C819D81EC
S11322E084599C42B1F48A819B81FC01848995893B
S11322F0892B61F48A819B81FC0187A5813019F4C3
S113230082E0898314C083E0898311C082E08983D9
S11323100EC08C819D818A589C4221F08C819D81C4
S1132320892B19F484E0898302C081E0898389813F
S11323302B96CDBFDEBFDF91CF910895CF93DF936E
S113234000D01F92CDB7DEB78B839C830FB6F89471
S11323500F928B819C81892B29F480910F2C909171
S1132360102C02C08B819C8189839A8389819A81F4
S113237002960E94710B89819A81FC018489958956
S1132380892B29F089819A810C960E94710B89818D
S11323909A810296BC0184E99CE20E94B40A898174
S11323A09A81FC0187A5813021F489819A81FC01FD
S11323B017A60F900FBE8091A12C882339F00FB679
S11323C0F8940F920E942B180F900FBE80910F2C3F
S11323D09091102C29813A8128173907F1F48091C2
S11323E0A12C882369F08091AA2C882331F068EC11
S11323F076E086E190E20E94F81A0E94AF0D0DC0CB
S11324009091942C80919D2C981729F410920F2C64
S11324101092102C02C00E94BB1400002496CDBF61
S1132420DEBFDF91CF910895EF92FF920F93CF9388
S1132430DF931F92CDB7DEB70F2EF8EAEF2EFCE242
S1132440FF2EF02D00E020E030E040E051E06AE2B1
S113245070E285E196E10E94140F898389818130BD
S113246099F4F8948FEF9FEF8093A62C9093A72C68
S113247081E08093A12C10929E2C10929F2C0E949C
S1132480AB0E0E947A0D09C089818F3F31F467E059
S113249078E086E190E20E94F81A00000F90DF9144
S11324A0CF910F91FF90EF900895CF93DF93CDB725
S11324B0DEB78091AA2C8F5F8093AA2C0000DF9155
S11324C0CF910895CF93DF9300D01F92CDB7DEB79D
S11324D019821A821B828091AA2C882331F46CE61B
S11324E078E086E190E20E94F81A0FB6F8940F9211
S11324F08091AA2C81508093AA2C8091AA2C8823A5
S113250009F077C080919D2C882309F472C049C0DA
S11325108091862C9091872CFC01868197818983F8
S11325209A8389819A810C960E94710B89819A8180
S113253002960E94710B89819A81FC01968980918F
S1132540A02C891730F489819A81FC0186898093B3
S1132550A02C89819A81AC014E5F5F4F89819A8159
S1132560FC018689282F30E0C901880F991F880F44
S1132570991F880F991F820F931F8F5E934DBA0185
S11325800E94B40A89819A81FC01268980910F2CCA
S11325909091102CFC018689281718F081E0809313
S11325A0A32C8091812C882309F0B2CF89819A8150
S11325B0892B11F00E942B188091A22C8C838C8182
S11325C0882379F00E94C613882319F081E0809350
S11325D0A32C8C8181508C838C81882399F7109251
S11325E0A22C8091A32C882321F081E08B830E946C
S11325F0AF0D0F900FBE8B812496CDBFDEBFDF9150
S1132600CF910895CF93DF93CDB7DEB72797CDBF92
S1132610DEBF8B839C836D834E835F8319828AE044
S11326208A830E94551280919D2C9D81981708F4ED
S1132630A4C08A8181508A838A81282F30E0C9010D
S1132640880F991F880F991F880F991F820F931F56
S1132650BC016F5E734D8981882F90E082959295BD
S1132660907F9827807F98272B813C81820F931F2E
S113267041E00E944717982F8981890F89838A81B5
S11326808823B9F660917D2C70917E2C8981882FE6
S113269090E082959295907F9827807F98272B8150
S11326A03C81820F931F42E00E944717982F898133
S11326B0890F898360917F2C7091802C8981882F68
S11326C090E082959295907F9827807F98272B8120
S11326D03C81820F931F42E00E944717982F898103
S11326E0890F89838981882F90E082959295907FC4
S11326F09827807F98272B813C81820F931F44E089
S11327006AE87CE20E944717982F8981890F8983A0
S11327108981882F90E082959295907F9827807F79
S113272098272B813C81820F931F43E064E97CE26C
S11327300E944717982F8981890F89838E819F81F1
S1132740892BD9F080E098E0FC0180A191A19C0143
S113275040E050E08091B32C9091B42CA091B52C22
S1132760B091B62C820F931FA41FB51F2E813F81F9
S1132770F90180839183A283B3830E9462128981C9
S11327802796CDBFDEBFDF91CF910895CF93DF931E
S1132790CDB7DEB72997CDBFDEBF19828091AA2CB1
S11327A0882309F0D6C080919E2C90919F2C01968D
S11327B08A839B838A819B8180939E2C90939F2CF8
S11327C08A819B81892B49F580917D2C90917E2C67
S11327D0FC018081882331F066E67AE086E190E2AC
S11327E00E94F81A80917D2C90917E2C8C839D837D
S11327F080917F2C9091802C80937D2C90937E2CC3
S11328008C819D8180937F2C9093802C8091A42C2B
S11328108F5F8093A42C0E942B188091A62C9091FA
S1132820A72C2A813B812817390708F478C08091A6
S11328307D2C90917E2CFC018081882339F48FEFCC
S11328409FEF8093A62C9093A72C69C080917D2C38
S113285090917E2CFC0185819681FC018681978173
S11328608E839F838E819F81FC01828193818887DF
S113287099872A813B81888599852817390738F4F7
S1132880888599858093A62C9093A72C48C08E8127
S11328909F8102960E94710B8E819F81FC01848925
S11328A09589892B29F08E819F810C960E94710B4A
S11328B08E819F81FC0196898091A02C891730F428
S11328C08E819F81FC0186898093A02C8E819F81BB
S11328D0AC014E5F5F4F8E819F81FC018689282F5A
S11328E030E0C901880F991F880F991F880F991F1D
S11328F0820F931F8F5E934DBA010E94B40A8E819A
S11329009F81FC01268980910F2C9091102CFC0151
S11329108689281708F48BCF81E0898388CF80913A
S11329200F2C9091102CFC018689282F30E0C901CE
S1132930880F991F880F991F880F991F820F931F63
S11329408F5E934DFC018081823040F081E0898369
S113295005C08091A22C8F5F8093A22C8091A32C20
S1132960882311F081E0898389812996CDBFDEBF58
S1132970DF91CF910895AF92BF92CF92DF92EF9201
S1132980FF920F931F93CF93DF93CDB7DEB72997B1
S1132990CDBFDEBF8091AA2C882321F081E08093F3
S11329A0A32C34C11092A32C80E098E0FC0180A1F8
S11329B091A19C0140E050E08091B32C9091B42C03
S11329C0A091B52CB091B62C820F931FA41FB51FF4
S11329D08093AF2C9093B02CA093B12CB093B22CD5
S11329E02091AF2C3091B02C4091B12C5091B22C4D
S11329F08091AB2C9091AC2CA091AD2CB091AE2CCD
S1132A0082179307A407B50750F560910F2C7091B6
S1132A10102CFB0127A130A541A552A5E090AF2CB5
S1132A20F090B02C0091B12C1091B22C8091AB2C71
S1132A309091AC2CA091AD2CB091AE2C57016801B3
S1132A40A81AB90ACA0ADB0AD601C501820F931F64
S1132A50A41FB51FFB0187A390A7A1A7B2A78091CC
S1132A60AF2C9091B02CA091B12CB091B22C80934A
S1132A70AB2C9093AC2CA093AD2CB093AE2C809146
S1132A800F2C9091102CFC018789908D8A839B8355
S1132A9085EA95EADC018C839D83AE83BF838A81BA
S1132AA09B81FC0120813181428153818C819D81F4
S1132AB0AE81BF81281739074A075B0799F58A81D8
S1132AC09B810496FC0120813181428153818C8158
S1132AD09D81AE81BF81281739074A075B0711F52D
S1132AE08A819B810896FC01208131814281538136
S1132AF08C819D81AE81BF81281739074A075B0706
S1132B0089F48A819B810C96FC0120813181428168
S1132B1053818C819D81AE81BF81281739074A0773
S1132B205B0771F080910F2C9091102C9C01275E13
S1132B303F4F80910F2C9091102CB9010E94EA19FB
S1132B408091A02C89830CC08981882331F46CE89E
S1132B507BE086E190E20E94F81A898181508983A2
S1132B608981282F30E0C901880F991F880F991F88
S1132B70880F991F820F931F8F5E934DFC018081F4
S1132B80882311F38981282F30E0C901880F991F08
S1132B90880F991F880F991F820F931F8F5E934D83
S1132BA08887998788859985FC0181819281FC01B8
S1132BB02281338188859985FC012183328388852C
S1132BC09985FC012181328188859985039628178E
S1132BD0390769F488859985FC0181819281FC011A
S1132BE02281338188859985FC01218332838885FC
S1132BF09985FC0181819281FC0186819781809372
S1132C000F2C9093102C89818093A02C000029967E
S1132C10CDBFDEBFDF91CF911F910F91FF90EF9059
S1132C20DF90CF90BF90AF900895CF93DF931F9222
S1132C301F92CDB7DEB789839A830E946A1680916A
S1132C40112C823010F00E94AF0D0E94E218F5CFD3
S1132C50CF93DF931F92CDB7DEB7198213C089815A
S1132C60282F30E0C901880F991F880F991F880FFA
S1132C70991F820F931F8F5E934D0E946A0A898168
S1132C808F5F898389818A3050F38BE69CE20E94AE
S1132C906A0A84E79CE20E946A0A81E89CE20E9434
S1132CA06A0A8AE89CE20E946A0A84E99CE20E9419
S1132CB06A0A8BE69CE280937D2C90937E2C84E7B9
S1132CC09CE280937F2C9093802C00000F90DF91E6
S1132CD0CF910895CF93DF931F921F92CDB7DEB7A4
S1132CE021C00FB6F8940F9280918F2C9091902C64
S1132CF0FC018681978189839A8389819A810296CE
S1132D000E94710B80919D2C815080939D2C809109
S1132D10932C81508093932C0F900FBE89819A81BC
S1132D200E9412188091932C8823D9F600000F90EA
S1132D300F90DF91CF910895CF93DF93CDB7DEB796
S1132D402897CDBFDEBF8B839C836D837E834F83A7
S1132D5028878B819C81892B29F480910F2C909159
S1132D60102C02C08B819C8189839A838D819E81E2
S1132D7029813A81FC012083318389819A819C01D4
S1132D80275E3F4F8D819E81FC012283338389819D
S1132D909A81FC0126898D819E81FC01268389818B
S1132DA09A81FC012789308D8D819E81FC012487C5
S1132DB0358789819A81FC0121A18D819E81FC0145
S1132DC0248389819A81FC0123A18D819E81FC0148
S1132DD0278389819A81FC0187A190A5A1A5B2A529
S1132DE02D813E81F90180879187A287B3878885E9
S1132DF0853039F180910F2C9091102C29813A81E2
S1132E002817390729F48D819E81FC01158222C07F
S1132E108D819E812885FC01258388858330D1F4AA
S1132E200E94551289819A81FC0184899589892B94
S1132E3029F08D819E8122E0FC0125830E9462128B
S1132E4009C089819A810E942311282F8D819E8136
S1132E50FC0125838F81882371F089819A81FC018B
S1132E608789908D0E94E7179C018D819E81FC01CA
S1132E702687378705C08D819E81FC0116861786BB
S1132E8000002896CDBFDEBFDF91CF910895CF9388
S1132E90DF93CDB7DEB72E97CDBFDEBF8A879B8782
S1132EA06C877D874E8719828C859D85FC01808186
S1132EB0882309F485C08C859D858A839B838A81B8
S1132EC09B81FC0181819281FC01228133818A8171
S1132ED09B81FC01218332838A819B81FC012181B6
S1132EE032818A819B8103962817390769F48A8184
S1132EF09B81FC0181819281FC01228133818A8141
S1132F009B81FC01218332838A819B81FC01818125
S1132F109281FC01868197818C839D838C859D851C
S1132F208E839F838E819F81FC0181819281FC012C
S1132F30228133818E819F81FC01218332838E81A2
S1132F409F81FC01218132818E819F810396281704
S1132F50390769F48E819F81FC0181819281FC0192
S1132F60228133818E819F81FC01218332838E8172
S1132F709F81FC0181819281FC01868197818887F0
S1132F8099878981882F90E082959295907F9827E0
S1132F90807F98272A853B85B901680F791F88852A
S1132FA099852E8541E00E949C1689818F5F8983D3
S1132FB0288539858C819D812817390709F0AECF82
S1132FC089812E96CDBFDEBFDF91CF910895CF9337
S1132FD0DF9300D000D0CDB7DEB78D839E831982F6
S1132FE01A821B821C8210C08D819E8101968D8362
S1132FF09E8389819A81AB81BC810196A11DB11DFB
S113300089839A83AB83BC838D819E81FC018081FB
S1133010853A51F389819A812696CDBFDEBFDF912F
S1133020CF910895CF93DF931F921F92CDB7DEB750
S113303089839A8389819A81FC018789908D0E9472
S1133040B90989819A810E94B90900000F900F90F3
S1133050DF91CF910895CF93DF931F921F92CDB745
S1133060DEB780917D2C90917E2CFC018081882399
S113307039F48FEF9FEF8093A62C9093A72C15C063
S113308080917D2C90917E2CFC0185819681FC01A0
S11330908681978189839A8389819A81FC018281BF
S11330A093818093A62C9093A72C00000F900F90EF
S11330B0DF91CF910895CF93DF931F921F92CDB7E5
S11330C0DEB780910F2C9091102C89839A8389818B
S11330D09A810F900F90DF91CF910895CF93DF9352
S11330E0CDB7DEB72797CDBFDEBF8D839E836F83B9
S11330F080919E2C90919F2C89839A8380910F2C90
S11331009091102C02960E94710B8D819E810196E4
S113311071F48F81882359F080910F2C9091102C99
S11331200296BC0184E99CE20E94B40A44C029814D
S11331303A818D819E81820F931F8B839C83809122
S11331400F2C9091102C2B813C81FC012283338322
S11331502B813C8189819A812817390778F48091E1
S11331600F2C9091102C9C012E5F3F4F80917F2C4F
S11331709091802CB9010E94FF0A1DC080910F2CF0
S11331809091102C9C012E5F3F4F80917D2C90914B
S11331907E2CB9010E94FF0A8091A62C9091A72C45
S11331A02B813C812817390730F48B819C818093D3
S11331B0A62C9093A72C00002796CDBFDEBFDF91ED
S11331C0CF910895CF93DF93CDB7DEB70000DF91A1
S11331D0CF910895CF93DF93CDB7DEB76C97CDBF72
S11331E0DEBFF89489E590E20E941B0280E096E03D
S11331F020E8FC01218380E096E020E8FC0125839F
S113320080E090E0A8ECB2E489839A83AB83BC832A
S113321020E030E04AEF55E469817A818B819C811A
S11332200E94DC25DC01CB018B8B9C8BAD8BBE8B90
S113323020E030E040E85FE36B897C898D899E89DA
S11332400E947F2488232CF481E090E08F8B988F58
S11332503FC020E03FEF4FE757E46B897C898D89BD
S11332609E890E94D72518164CF520E030E040E2F4
S113327051E469817A818B819C810E94DC25DC0187
S1133280CB01BC01CD010E94F624DC01CB018F8B64
S1133290988F0FC080E293E0898F9A8F898D9A8DE1
S11332A00197F1F7898F9A8F8F89988D01978F8B6A
S11332B0988F8F89988D892B69F714C06B897C89C5
S11332C08D899E890E94F624DC01CB018F8B988F17
S11332D08F89988D8B8F9C8F8B8D9C8D0197F1F7A7
S11332E08B8F9C8F80E096E020E8FC01268380E0B1
S11332F090E0A8ECB2E48D839E83AF83B88720E08E
S113330030E04AEF55E46D817E818F8198850E947B
S1133310DC25DC01CB0189879A87AB87BC8720E059
S113332030E040E85FE369857A858B859C850E945F
S11333307F2488232CF481E090E08D879E873FC012
S113334020E03FEF4FE757E469857A858B859C85BC
S11333500E94D72518164CF520E030E040E251E4F5
S11333606D817E818F8198850E94DC25DC01CB01F3
S1133370BC01CD010E94F624DC01CB018D879E8720
S11333800FC080E293E08F87988B8F85988901978F
S1133390F1F78F87988B8D859E8501978D879E8702
S11333A08D859E85892B69F714C069857A858B85FF
S11333B09C850E94F624DC01CB018D879E878D8538
S11333C09E85898B9A8B89899A890197F1F7898BD4
S11333D09A8B11CFCF93DF93CDB7DEB7A097CDBF34
S11333E0DEBF8D8F9E8F6F8F78A3F89480E096E078
S11333F020E8FC0121838BE790E20E941B028F8D61
S113340098A16AE070E00E942F0283E990E20E9492
S11334101B0280E096E020E8FC01258380E090E038
S1133420AAEFB3E489839A83AB83BC8320E030E0C2
S11334304AEF55E469817A818B819C810E94DC2565
S1133440DC01CB018B8B9C8BAD8BBE8B20E030E001
S113345040E85FE36B897C898D899E890E947F2483
S113346088232CF481E090E08F8B988F3FC020E07C
S11334703FEF4FE757E46B897C898D899E890E94D1
S1133480D72518164CF520E030E040E251E469817C
S11334907A818B819C810E94DC25DC01CB01BC01FB
S11334A0CD010E94F624DC01CB018F8B988F0FC0D5
S11334B080E293E0898F9A8F898D9A8D0197F1F735
S11334C0898F9A8F8F89988D01978F8B988F8F8989
S11334D0988D892B69F714C06B897C898D899E89A5
S11334E00E94F624DC01CB018F8B988F8F89988DF5
S11334F08B8F9C8F8B8D9C8D0197F1F78B8F9C8F7D
S113350080E096E020E8FC01268380E090E0AAEFCA
S1133510B3E48D839E83AF83B88720E030E04AEF25
S113352055E46D817E818F8198850E94DC25DC01C4
S1133530CB0189879A87AB87BC8720E030E040E8DD
S11335405FE369857A858B859C850E947F24882327
S11335502CF481E090E08D879E873FC020E03FEF10
S11335604FE757E469857A858B859C850E94D7252A
S113357018164CF520E030E040E251E46D817E8184
S11335808F8198850E94DC25DC01CB01BC01CD0133
S11335900E94F624DC01CB018D879E870FC080E258
S11335A093E08F87988B8F8598890197F1F78F87A0
S11335B0988B8D859E8501978D879E878D859E85A9
S11335C0892B69F714C069857A858B859C850E944F
S11335D0F624DC01CB018D879E878D859E85898BA2
S11335E09A8B89899A890197F1F7898B9A8B11CFE4
S11335F0CF93DF93CDB7DEB7A097CDBFDEBF8D8F5E
S11336009E8F6F8F78A3F89480E096E020E8FC0109
S1133610218386E990E20E941B028D8D9E8D64E6D3
S113362070E00E942F0286EA90E20E941B028F8DB6
S113363098A10E947E0283E990E20E941B0280E02E
S113364096E020E8FC01258380E090E0A8ECB2E459
S113365089839A83AB83BC8320E030E04AEF55E44E
S113366069817A818B819C810E94DC25DC01CB01FC
S11336708B8B9C8BAD8BBE8B20E030E040E85FE30E
S11336806B897C898D899E890E947F2488232CF4F0
S113369081E090E08F8B988F3FC020E03FEF4FE7B1
S11336A057E46B897C898D899E890E94D7251816D9
S11336B04CF520E030E040E251E469817A818B816D
S11336C09C810E94DC25DC01CB01BC01CD010E9460
S11336D0F624DC01CB018F8B988F0FC080E293E03E
S11336E0898F9A8F898D9A8D0197F1F7898F9A8F97
S11336F08F89988D01978F8B988F8F89988D892BBF
S113370069F714C06B897C898D899E890E94F6248F
S1133710DC01CB018F8B988F8F89988D8B8F9C8F39
S11337208B8D9C8D0197F1F78B8F9C8F80E096E0B9
S113373020E8FC01268380E090E0AAEFB3E48D83C7
S11337409E83AF83B88720E030E04AEF55E46D8173
S11337507E818F8198850E94DC25DC01CB018987DD
S11337609A87AB87BC8720E030E040E85FE3698557
S11337707A858B859C850E947F2488232CF481E0A4
S113378090E08D879E873FC020E03FEF4FE757E4EE
S113379069857A858B859C850E94D72518164CF5FA
S11337A020E030E040E251E46D817E818F81988594
S11337B00E94DC25DC01CB01BC01CD010E94F62472
S11337C0DC01CB018D879E870FC080E293E08F8759
S11337D0988B8F8598890197F1F78F87988B8D85C2
S11337E09E8501978D879E878D859E85892B69F798
S11337F014C069857A858B859C850E94F624DC013A
S1133800CB018D879E878D859E85898B9A8B89892F
S11338109A890197F1F7898B9A8B11CFCF93DF9314
S1133820CDB7DEB72E97CDBFDEBF80E090E40E9417
S1133830A52B8093B72C9093B82C8091B72C9091A2
S1133840B82C892B09F4FFCF0E94E4040E94570688
S11338500E94FF040E94F5010E9410030E94BE040E
S11338600E94ED0181E00E94CB0480EA90E027E011
S1133870FC012283789480E090E0A0E2B1E48983A3
S11338809A83AB83BC8320E030E04AEF55E469813E
S11338907A818B819C810E94DC25DC01CB018D83A4
S11338A09E83AF83B88720E030E040E85FE36D811A
S11338B07E818F8198850E947F2488232CF481E067
S11338C090E089879A873FC020E03FEF4FE757E4B5
S11338D06D817E818F8198850E94D72518164CF5BD
S11338E020E030E040E251E469817A818B819C815F
S11338F00E94DC25DC01CB01BC01CD010E94F62431
S1133900DC01CB0189879A870FC080E293E08B8723
S11339109C878B859C850197F1F78B879C8789858C
S11339209A85019789879A8789859A85892B69F76A
S113393014C06D817E818F8198850E94F624DC01FC
S1133940CB0189879A8789859A858D879E878D85FE
S11339509E850197F1F78D879E870E9401210E9421
S1133960141280E090E02E96CDBFDEBFDF91CF91A0
S11339700895CF93DF93CDB7DEB72897CDBFDEBFD1
S11339808D839E836F8378878D819E8189839A83BB
S11339908F8198858B839C8389819A81FC012485FE
S11339A035858B819C81FC01848595852817390791
S11339B018F48FEF9FEF12C089819A81FC0124854E
S11339C035858B819C81FC018485958582179307BD
S11339D018F481E090E002C080E090E02896CDBF2A
S11339E0DEBFDF91CF910895CF93DF93CDB7DEB7DC
S11339F0C554D140CDBFDEBFCE01069640E050E0B5
S1133A0064E10E940213882F90E08A839B836A8179
S1133A107B81CE01069629EB3CE140E150E00E9417
S1133A200D2D81EB90E20E945D308EEB90E20E94BE
S1133A305D3080E090E0DC012B2F2F932A2F2F9311
S1133A40292F2F938F938BEC90E2892F8F938BECFC
S1133A5090E28F930E9443300F900F900F900F903D
S1133A600F900F908FEF9FE0A0E0B0E02B2F2F93EB
S1133A702A2F2F93292F2F938F938AEE90E2892F49
S1133A808F938AEE90E28F930E9443300F900F90B1
S1133A900F900F900F900F9080E090E1A0E0B0E0C5
S1133AA02B2F2F932A2F2F93292F2F938F9387E038
S1133AB091E2892F8F9387E091E28F930E944330A4
S1133AC00F900F900F900F900F900F908FEF9FE13A
S1133AD0A0E0B0E02B2F2F932A2F2F93292F2F9381
S1133AE08F9381E291E2892F8F9381E291E28F9308
S1133AF00E9443300F900F900F900F900F900F90F3
S1133B0080E090E2A0E0B0E02B2F2F932A2F2F9398
S1133B10292F2F938F9389E391E2892F8F9389E340
S1133B2091E28F930E9443300F900F900F900F906B
S1133B300F900F9080E090E2892F8F9380E090E2C5
S1133B408F9381E591E2892F8F9381E591E28F93A1
S1133B500E9443300F900F900F900F9081EF9BE2E3
S1133B60292F2F938F938AE691E2892F8F938AE6E8
S1133B7091E28F930E9443300F900F900F900F901B
S1133B8082EF9BE2892F8F9382EF9BE28F9381E8F0
S1133B9091E2892F8F9381E891E28F930E944330C1
S1133BA00F900F900F900F9082EC9CE2292F2F938F
S1133BB08F9389E991E2892F8F9389E991E28F9319
S1133BC00E9443300F900F900F900F908091B72C6C
S1133BD09091B82C292F2F938F938FEA91E2892FFC
S1133BE08F938FEA91E28F930E9443300F900F904E
S1133BF00F900F901982CDC08981882F90E0829513
S1133C009295907F9827807F98279E012F5F3F4F42
S1133C10820F931F0796FC0180819181292F2F9396
S1133C208F9388EC91E2892F8F9388EC91E28F93A4
S1133C300E9443300F900F900F900F908981882F2E
S1133C4090E082959295907F9827807F98279E0197
S1133C502F5F3F4F820F931F4196FC01808191811A
S1133C60292F2F938F9389ED91E2892F8F9389EDDB
S1133C7091E28F930E9443300F900F900F900F901A
S1133C808981882F90E082959295907F9827807FF4
S1133C9098279E012F5F3F4F820F931F0596FC01CB
S1133CA0808191810497292F2F938F9380EF91E244
S1133CB0892F8F9380EF91E28F930E9443300F906E
S1133CC00F900F900F908981882F90E082959295A4
S1133CD0907F9827807F98279E012F5F3F4F820F08
S1133CE0931F0596FC0180819181292F2F938F9337
S1133CF089E092E2892F8F9389E092E28F930E9468
S1133D0043300F900F900F900F908981882F90E08F
S1133D1082959295907F9827807F98279E012F5FA8
S1133D203F4F820F931F0596FC018081918102977A
S1133D30FC018081918104978C839D838981882FE4
S1133D4090E082959295907F9827807F98279E0196
S1133D502F5F3F4F820F931F0596FC018081918155
S1133D609C018C819D81820F931F0197292F2F9392
S1133D708F9380E292E2892F8F9380E292E28F9375
S1133D800E9443300F900F900F900F9089818F5FA6
S1133D9089838981282F30E08A819B8128173907FC
S1133DA00CF42ACF8091B72C9091B82C8150904C70
S1133DB0292F2F938F9385E392E2892F8F9385E3A5
S1133DC092E28F930E9443300F900F900F900F90C8
S1133DD08091B72C9091B82C905C292F2F938F93BE
S1133DE08CE492E2892F8F938CE492E28F930E9469
S1133DF043300F900F900F900F908FEF9FE9A0E04A
S1133E00B0E02B2F2F932A2F2F93292F2F938F93AB
S1133E108EE692E2892F8F938EE692E28F930E9430
S1133E2043300F900F900F900F900F900F908FEFE3
S1133E309FE9A0E0B0E02B2F2F932A2F2F93292F57
S1133E402F938F9381E992E2892F8F9381E992E2F4
S1133E508F930E9443300F900F900F900F900F900C
S1133E600F908EEB90E20E945D300000CB5BDE4F42
S1133E70CDBFDEBFDF91CF910895CF93DF93CDB750
S1133E80DEB7E297CDBFDEBF89AB6AAB89A98A876B
S1133E9089A9882F90E044E6489F9001499F300DFE
S1133EA01124C9018B879C8789A9482F50E020E100
S1133EB037E2429FC001439F900D529F900D112401
S1133EC0092E000CAA0BBB0B8D879E87AF87B88B7E
S1133ED0198216C08981882F90E029A9220F322FD8
S1133EE0330F330F320F2981432F420F9E012F5E70
S1133EF03F4F820F931FFC01408389818F5F898329
S1133F008981803138F30E945B188A839B83BE01C8
S1133F106F5D7F4F8A819B8125E041E00E949C1662
S1133F208FA598A98C839D838C819D818E839F838B
S1133F30CE010A968887998788EA92E20E945D30CA
S1133F408AEA92E20E945D3089A9882F90E0292FA5
S1133F502F938F9384ED92E2892F8F9384ED92E2D5
S1133F608F930E9443300F900F900F900F908AEA26
S1133F7092E20E945D3080E093E20E945D308A818B
S1133F809B81292F2F938F938BE193E2892F8F931A
S1133F908BE193E28F930E9443300F900F900F9028
S1133FA00F908BA19CA1292F2F938F9386E693E2E8
S1133FB0892F8F9386E693E28F930E9443300F906C
S1133FC00F900F900F908AE793E20E945D308F81EB
S1133FD08F938E818F938D818F938C818F938FE8B4
S1133FE093E2892F8F938FE893E28F930E9443305B
S1133FF00F900F900F900F900F900F9089858F93D3
S113400088858F938AEC93E2892F8F938AEC93E2CD
S11340108F930E9443300F900F900F900F9081EF79
S113402093E20E945D308A85282F30E0CE010A9603
S1134030432F4F932F93292F2F938F9382E194E251
S1134040892F8F9382E194E28F930E9443300F90E3
S11340500F900F900F900F900F902B853C85CE0101
S11340600B96432F4F932F93292F2F938F9382E4F3
S113407094E2892F8F9382E494E28F930E944330D9
S11340800F900F900F900F900F900F908D859E853D
S1134090AF85B8899E01235F3F4F4B2F4F934A2F23
S11340A04F93492F4F938F93832F8F93822F8F9307
S11340B082E794E2892F8F9382E794E28F930E94A0
S11340C043308DB79EB70896CDBFDEBF8989282FB0
S11340D030E0CE014196432F4F932F93292F2F93F6
S11340E08F9383EA94E2892F8F9383EA94E28F93E8
S11340F00E9443300F900F900F900F900F900F90ED
S113410088A1282F30E0CE0141960F96432F4F937C
S11341102F93292F2F938F9386ED94E2892F8F93DA
S113412086ED94E28F930E9443300F900F900F908E
S11341300F900F900F9089E095E20E945D3089A95D
S1134140823040F082E295E20E945D308BE595E298
S11341500E945D308BE895E20E945D3088EA95E22A
S11341600E945D308A819B81292F2F938F9381ED4B
S113417095E2892F8F9381ED95E28F930E944330CE
S11341800F900F900F900F908EEE95E20E945D308D
S113419080E296E20E945D3089E496E20E945D30FE
S11341A08AE796E20E945D308AEA92E20E945D30DC
S11341B0000099A98AA9981730F489A98F5F6AA980
S11341C00E943D1F17C08AA9882F90E0292F2F93A2
S11341D08F9380EB96E2892F8F9380EB96E28F93F7
S11341E00E9443300F900F900F900F908EEE96E246
S11341F00E945D300000E296CDBFDEBFDF91CF911B
S11342000895EF92FF920F93CF93DF93CDB7DEB76C
S1134210E12CF12C04E020E030E040E054E061E1E6
S113422077E282E891E20E94140F0000DF91CF91BF
S11342300F91FF90EF900895CF93DF93CDB7DEB742
S11342402797CDBFDEBF8E839F8319821A8281E0B8
S113425090E08B839C831D828E819F81FC018081F1
S11342608D3229F58FEF9FEF8B839C8381E08D83C3
S11342701EC089819A81880F991F9C01220F331FC8
S1134280220F331F280F391F8D81882F90E04E8114
S11342905F81840F951FFC018081882F90E0C09777
S11342A0820F931F89839A838D818F5F8D838D8184
S11342B0882F90E02E813F81820F931FFC01808123
S11342C0882371F08D81882F90E02E813F81820FA9
S11342D0931FFC018081882F90E0C0970A9748F2D1
S11342E029813A818B819C81289FA001299F500DAF
S11342F0389F500D1124CA012796CDBFDEBFDF9130
S1134300CF9108950F931F93CF93DF93CDB7DEB76B
S1134310E997CDBFDEBF88AF99AF19821A821B829D
S113432086E197E20E945D308CE497E20E945D3062
S11343308FE597E20E945D308AE897E20E945D3043
S11343408FEA97E20E945D308BEB97E2892F8F937F
S11343508BEB97E28F930E9443300F900F908091E4
S1134360BD2C9091BE2C0E94C92F8D838D818D30E0
S113437021F08D818A3009F0F5C18A81882309F4FE
S113438028C28A81882F90E09E01205F3F4F820FD0
S1134390931FFC01108288EA92E20E945D30CE01F4
S11343A040960E941C218E839F838B81882371F504
S11343B08E819F81019759F481E08B8383EC97E28E
S11343C00E945D308BEE97E20E945D30C9C18E8100
S11343D09F81029759F482E08B838DE398E20E94D7
S11343E05D3088E698E20E945D30BAC18E819F817B
S11343F0892B39F48FE998E20E945D3000001C8219
S113440000C281EB98E20E945D30AAC18B818130A9
S113441009F03CC18E819F81019609F583ED98E2F4
S11344200E945D301B828CE497E20E945D308FE530
S113443097E20E945D308AE897E20E945D308FEA3D
S113444097E20E945D308BEB97E2892F8F938BEB81
S113445097E28F930E9443300F900F9081C18E8119
S11344609F81892B59F483EF98E20E945D300E946A
S1134470F41C8DE099E20E945D3072C18E819F81AF
S1134480181619060CF0F4C08E819F818031974272
S11344900CF0EEC00E94250A888799878981082F2D
S11344A010E08E819F810E94CA08AC01C801880F68
S11344B0991F9E012F5F3F4F820F931F8396FC012C
S11344C0408351838981882F90E0880F991F9E0132
S11344D02F5F3F4F820F931F8396FC018081918150
S11344E0892B09F49DC00E94250A8A879B87288509
S11344F039858A859B85A901481B590BCA018C877C
S11345009D878E819F812C853D85F901E81BF90BE0
S1134510CF018E879F878981882F90E02F812F93E9
S11345202E812F93292F2F938F9381E699E2892F40
S11345308F9381E699E28F930E9443300F900F90FE
S11345400F900F900F900F908981882F90E0880F23
S1134550991F9E012F5F3F4F820F931F8396FC018B
S113456080819181292F2F938F9382E899E2892F5B
S11345708F9382E899E28F930E9443300F900F90BB
S11345800F900F9089858F9388858F938BE999E29B
S1134590892F8F938BE999E28F930E9443300F9078
S11345A00F900F900F908B858F938A858F938EEB4E
S11345B099E2892F8F938EEB99E28F930E94433077
S11345C00F900F900F900F908F858F938E858F9300
S11345D08D858F938C858F938FED99E2892F8F939F
S11345E08FED99E28F930E9443300F900F900F90BC
S11345F00F900F900F9089818F5F898389818A3012
S113460050F089E19AE20E945D3019828BEE97E2C4
S11346100E945D30A5C08BEE97E20E945D30A0C081
S11346208F818F938E818F938DE39AE2892F8F935D
S11346308DE39AE28F930E9443300F900F900F9076
S11346400F900E94250A292F2F938F9388E69AE2D0
S1134650892F8F9388E69AE28F930E9443300F90BC
S11346600F900F900F908BEE97E20E945D3078C010
S11346708E819F8199232CF482E89AE20E945D3016
S11346806FC08EEB9AE20E945D306AC08B818230EB
S113469009F066C08E819F81892B09F583ED98E22C
S11346A00E945D301B828CE497E20E945D308FE5AE
S11346B097E20E945D308AE897E20E945D308FEABB
S11346C097E20E945D308BEB97E2892F8F938BEBFF
S11346D097E28F930E9443300F900F9041C08E81D8
S11346E09F81181619065CF58E819F810B973CF506
S11346F08F818F938E818F938FEE9AE2892F8F9380
S11347008FEE9AE28F930E9443300F900F900F9098
S11347100F9087E19BE20E945D3084E690E00E9466
S1134720F7108E81682F81E00E943D1F86E59BE291
S11347300E945D3088E698E20E945D3011C08E814F
S11347409F81992324F08E819F810B972CF08AE717
S11347509BE20E945D3004C084EB9BE20E945D30CA
S11347601A8237C08D81883019F08D818F3791F48A
S11347708A81882371F18A8181508A838EEE9BE23B
S1134780892F8F938EEE9BE28F930E9443300F907C
S11347900F901FC08D81882F90E0C0970A9718F062
S11347A08D818D32B1F48A81833198F48A8191E0CC
S11347B0980F9A83882F90E09E01205F3F4F820FCD
S11347C0931F2D81FC0120838D81882F90E00E940E
S11347D057308AE090E00E94F710C1CD8C81882F79
S11347E090E0880F991F9E012F5F3F4F820F931F08
S11347F08396FC01808191810E94B9098C818F5F2D
S11348008C839C818981981748F380E090E00E9412
S11348109E110000E996CDBFDEBFDF91CF911F91BD
S11348200F9108955058BB27AA270E942A240C945C
S11348309D250E948F2538F00E94962520F039F49A
S11348409F3F19F426F40C948C250EF4E095E7FBB5
S11348500C948625E92F0E94AE2558F3BA176207F7
S113486073078407950720F079F4A6F50C94D025F6
S11348700EF4E0950B2EBA2FA02D0B01B901900177
S11348800C01CA01A0011124FF27591B99F0593FBB
S113489050F4503E68F11A16F040A22F232F342F03
S11348A04427585FF3CF469537952795A795F04051
S11348B05395C9F77EF41F16BA0B620B730B840B66
S11348C0BAF09150A1F0FF0FBB1F661F771F881F1E
S11348D0C2F70EC0BA0F621F731F841F48F4879576
S11348E077956795B795F7959E3F08F0B0CF939568
S11348F0880F08F09927EE0F9795879508950E94E1
S1134900622508F481E008950E9498240C949D2562
S11349100E94962558F00E948F2540F029F45F3FAD
S113492029F00C94862551110C94D1250C948C25D6
S11349300E94AE2568F39923B1F3552391F3951B97
S1134940550BBB27AA2762177307840738F09F5FAC
S11349505F4F220F331F441FAA1FA9F335D00E2E19
S11349603AF0E0E832D091505040E695001CCAF786
S11349702BD0FE2F29D0660F771F881FBB1F261749
S113498037074807AB07B0E809F0BB0B802DBF0120
S1134990FF2793585F4F3AF09E3F510578F00C94EF
S11349A086250C94D1255F3FE4F3983ED4F3869595
S11349B077956795B795F7959F5FC9F7880F911D10
S11349C09695879597F90895E1E0660F771F881FFC
S11349D0BB1F621773078407BA0720F0621B730BAF
S11349E0840BBA0BEE1F88F7E09508950E94B62554
S11349F088F09F5798F0B92F9927B751B0F0E1F09C
S1134A00660F771F881F991F1AF0BA95C9F714C04B
S1134A10B13091F00E94D025B1E008950C94D025D6
S1134A20672F782F8827B85F39F0B93FCCF3869584
S1134A3077956795B395D9F73EF4909580957095E1
S1134A4061957F4F8F4F9F4F0895E89409C097FB5E
S1134A503EF490958095709561957F4F8F4F9F4F51
S1134A609923A9F0F92F96E9BB279395F695879595
S1134A7077956795B795F111F8CFFAF4BB0F11F458
S1134A8060FF1BC06F5F7F4F8F4F9F4F16C08823FF
S1134A9011F096E911C0772321F09EE8872F762F35
S1134AA005C0662371F096E8862F70E060E02AF076
S1134AB09A95660F771F881FDAF7880F9695879562
S1134AC097F90895990F0008550FAA0BE0E8FEEF37
S1134AD016161706E807F907C0F012161306E407BE
S1134AE0F50798F0621B730B840B950B39F40A26B7
S1134AF061F0232B242B252B21F408950A2609F495
S1134B00A140A6958FEF811D811D089597F99F6798
S1134B1080E870E060E008959FEF80EC0895002441
S1134B200A941616170618060906089500240A940E
S1134B3012161306140605060895092E0394000C94
S1134B4011F4882352F0BB0F40F4BF2B11F460FF23
S1134B5004C06F5F7F4F8F4F9F4F089557FD90584C
S1134B60440F551F59F05F3F71F04795880F97FB2D
S1134B70991F61F09F3F79F08795089512161306E7
S1134B801406551FF2CF4695F1DF08C01616170616
S1134B901806991FF1CF869571056105089408954B
S1134BA0E894BB2766277727CB0197F908950E94DD
S1134BB0622508F48FEF08950E94EF250C949D253B
S1134BC00E948F2538F00E94962520F0952311F03D
S1134BD00C9486250C948C2511240C94D1250E94C8
S1134BE0AE2570F3959FC1F3950F50E0551F629F5A
S1134BF0F001729FBB27F00DB11D639FAA27F00D32
S1134C00B11DAA1F649F6627B00DA11D661F829F58
S1134C102227B00DA11D621F739FB00DA11D621F3D
S1134C20839FA00D611D221F749F3327A00D611D5A
S1134C30231F849F600D211D822F762F6A2F11243C
S1134C409F5750409AF0F1F088234AF0EE0FFF1F6F
S1134C50BB1F661F771F881F91505040A9F79E3FC6
S1134C60510580F00C9486250C94D1255F3FE4F324
S1134C70983ED4F3869577956795B795F795E7951C
S1134C809F5FC1F7FE2B880F911D9695879597F925
S1134C900895FA01EE0FFF1F309621053105A1F1A9
S1134CA06115710561F48038BFE39B0749F168948D
S1134CB09038810561F08038BFEF9B0741F099235C
S1134CC04AF5FF3FE1053105210519F1E8940894FF
S1134CD0E795D901AA2329F4AB2FBE2FF85FD0F3AF
S1134CE010C0FF5F70F4A695E0F7F73950F019F0A3
S1134CF0FF3A38F49F779F930DD00F9007FC90589C
S1134D00089546F00C948C2560E070E080E89FE301
S1134D1008954FE79F775F934F933F932F930E949C
S1134D2044272F913F914F915F910E94DC250C9471
S1134D30A12629F416F00C9486250C94D0250C9405
S1134D408C250E94B625A8F39638A0F707F80F9291
S1134D50E8942BE33AEA48EB5FE70E94F2250F92CE
S1134D600F920F924DB75EB70F920E948C27ECEF13
S1134D70F1E00E94D3264F915F91EF91FF91E59569
S1134D80EE1FFF1F49F0FE57E0684427EE0F441F53
S1134D90FA95E1F74195550B0E9406270F9007FEFF
S1134DA00C94FA260895DF93CF931F930F93FF92E9
S1134DB0EF92DF927B018C01689406C0DA2EEF013A
S1134DC00E94EF25FE01E894A59125913591459126
S1134DD05591A6F3EF010E942A24FE019701A80130
S1134DE0DA9469F7DF90EF90FF900F911F91CF91C4
S1134DF0DF9108959B01AC0160E070E080E89FE3DF
S1134E000C9484240C9486250C94C0270E94B62507
S1134E10D8F39923C9F3940F511DA3F39150504033
S1134E2094F059F0882332F0660F771F881F915051
S1134E305040C1F79E3F51052CF7880F911D969560
S1134E40879597F908955F3FACF0983E9CF0BB2797
S1134E50869577956795B79508F4B1609395C1F7F2
S1134E60BB0F58F711F460FFE8CF6F5F7F4F8F4F90
S1134E709F4FE3CF0C94D12516F00C94C0270C94CB
S1134E808C2568940C9486250E94B625A8F3992352
S1134E90C1F3AEF3DF93CF931F930F93FF92C92F08
S1134EA0DD2788232AF02197660F771F881FDAF7FA
S1134EB020E030E040E85FEB9FE3883920F0803E5B
S1134EC038F021968F770E941324E4E2F2E004C0C4
S1134ED00E941324E1E5F2E00E94D3268B01BE0177
S1134EE0EC01FB2E6F5771097595771F880B990B91
S1134EF00E94272528E132E741E35FE30E94EF2582
S1134F00AF2D9801AE01FF900F911F91CF91DF91CA
S1134F100E942A240C949D25FA01DC01AA0FBB1FD0
S1134F209B01AC01BF5728F422273327442750782C
S1134F3020C0B75190F4AB2F0024469537952795A0
S1134F40011CA395D2F3002071F0220F331F441FDC
S1134F50B395DAF30ED00C94122461307105A0E8F5
S1134F608A07B94630F49B01AC0166277727882766
S1134F709078309621F020833183428353830895BF
S1134F809F3F31F0915020F4879577956795B795B9
S1134F90880F911D9695879597F908952F923F92C2
S1134FA04F925F926F927F928F929F92AF92BF9235
S1134FB0CF92DF92EF92FF920F931F93CF93DF93E1
S1134FC0CDB7DEB76097CDBFDEBF7C011B016A01A0
S1134FD0FC0116821782838181FF44C39E012F5FE7
S1134FE03F4F3901F7019381F10193FD859193FFBF
S1134FF081911F01882309F431C3853239F493FD6B
S1135000859193FF81911F01853239F4B70190E0B6
S11350100E94073056016501E5CF10E0512C912C18
S1135020FFE1F915D8F08B3279F038F4803279F059
S11350308332A1F4F92DF0612EC08D3261F08033FA
S113504069F4292D21602DC0392D3260932E892DCC
S11350508460982E2AC0E92DE86015C097FC2DC005
S113506020ED280F2A3088F496FE06C03AE0139FFC
S1135070200D1124122F19C08AE0589E200D1124EE
S1135080522EE92DE0629E2E10C08E3231F496FC31
S1135090E5C2F92DF0649F2E08C08C3621F4292D29
S11350A02068922E02C0883641F4F10193FD859167
S11350B093FF81911F018111B3CF9BEB980F933024
S11350C020F4992D9061805E07C09BE9980F93307E
S11350D008F066C1992D9F7E96FF16E09F73992E66
S11350E0853619F49064992E08C0863621F4392F38
S11350F03068932E02C01111115097FE07C01C3363
S113510050F444244394410E27E00BC0183038F087
S113511027E017E005C027E09CE3492E02C0212FB9
S1135120412C560184E0A80EB11CF6016081718106
S113513082819381042DA3010E94D42E6C01F981F4
S1135140FC87F0FF02C0F3FF06C091FC06C092FE8C
S113515006C000E205C00DE203C00BE201C000E09E
S11351608C858C7019F001115AC29BC297FE10C035
S11351704C0CFC85F4FF04C08A81813309F44A9401
S1135180141474F528E0241578F588E0482E2CC012
S113519096FC2AC0812F90E08C159D059CF03CEF75
S11351A0C3163FEFD30674F0892D8068982E0AC089
S11351B0E2E0F0E0EC0FFD1FE10FF11D8081803390
S11351C019F411501111F4CF97FE0EC044244394E6
S11351D0410E812F90E0C816D9062CF41C1904C086
S11351E04424439401C010E097FE06C01C141D041F
S11351F034F4C601019605C085E090E002C081E068
S113520090E001110196112331F0212F30E02F5F3E
S11352103F4F820F931F252D30E08217930714F41C
S1135220581A01C0512C892D897049F4552039F040
S1135230B70180E290E00E9407305A94F7CF002330
S113524029F0B701802F90E00E94073093FC09C039
S1135250552039F0B70180E390E00E9407305A945A
S1135260F7CF97FE4CC04601D7FE02C0812C912C8B
S1135270C60188199909F301E80FF91FED87FE8724
S11352809601241931092F87388B012F10E01195CD
S1135290019511093FEF8316930629F4B7018EE2B5
S11352A090E00E940730C814D9044CF08F85988987
S11352B08815990524F4ED85FE85818101C080E37C
S11352C0F1E08F1A91082D853E852F5F3F4F2D8782
S11352D03E87801691062CF0B70190E00E940730BB
S11352E0D9CFC814D90441F49A81963320F4953364
S11352F019F43C8534FF81E3B70190E04EC08A8104
S1135300813319F09C859F7E9C87B70190E00E94B1
S11353100730111105C094FC18C085E690E017C051
S1135320B7018EE290E00E9407301E5F82E001E048
S1135330080FF301E80FF11D8081B70190E00E948E
S11353400730802F0113F3CFE6CF85E490E0B70157
S11353500E940730D7FC06C0C114D10441F4EC8587
S1135360E4FF05C0D194C194D1088DE201C08BE261
S1135370B70190E00E94073080E32AE0C216D1040E
S11353802CF08F5FFAE0CF1AD108F7CFB70190E085
S11353900E940730B701C601C0960E94073054C16D
S11353A0833631F0833779F0833509F056C020C055
S11353B0560132E0A30EB11CF6018081898301E01D
S11353C010E0630112C05601F2E0AF0EB11CF60109
S11353D0C080D18096FE03C0612F70E002C06FEFE1
S11353E07FEFC6010E94BE2F8C01F92DFF7714C0F8
S11353F0560122E0A20EB11CF601C080D18096FEB7
S113540003C0612F70E002C06FEF7FEFC6010E94FE
S1135410AC2F8C01F92DF0689F2EF3FD1AC0852D59
S113542090E008171907A8F4B70180E290E00E9401
S113543007305A94F4CFF60197FC859197FE819139
S11354406F01B70190E00E94073051105A94015047
S113545011090115110579F7F7C0843611F0893661
S113546061F5560197FE09C024E0A20EB11CF601B5
S113547060817181828193810AC0F2E0AF0EB11C18
S1135480F60160817181072E000C880B990BF92DB0
S1135490FF769F2E97FF09C0909580957095619532
S11354A07F4F8F4F9F4FF0689F2E2AE030E0A3017B
S11354B00E948D30C82EC6183FC0092D853721F4AF
S11354C00F7E2AE030E01DC0097F8F3691F018F47A
S11354D0883559F0C3C0803719F0883711F0BEC041
S11354E0006104FF09C0046007C094FE08C00660A0
S11354F006C028E030E005C020E130E002C020E131
S113550032E0560107FF09C084E0A80EB11CF60181
S1135510608171818281938108C0F2E0AF0EB11C79
S1135520F6016081718180E090E0A3010E948D30DA
S1135530C82EC6180F77902E96FE0BC0092D0E7F2D
S1135540C11650F494FE0AC092FC08C0092D0E7EC8
S113555005C0DC2C092D03C0DC2C01C0D12E04FFB6
S11355600DC0FE01EC0DF11D8081803311F4097E24
S113557009C002FF06C0D394D39404C0802F867858
S113558009F0D39403FD11C000FF06C01C2DD514EF
S113559080F4150D1D190DC0D51458F4B70180E21F
S11355A090E00E940730D394F7CFD51410F45D181F
S11355B001C0512C04FF10C0B70180E390E00E94A9
S11355C0073002FF17C001FD03C088E790E002C066
S11355D088E590E0B7010CC0802F867859F001FF70
S11355E002C08BE201C080E207FD8DE2B70190E0CA
S11355F00E940730C11638F4B70180E390E00E949E
S113560007301150F7CFCA94F301EC0DF11D8081DE
S1135610B70190E00E940730C110F5CF15C0F4E047
S1135620F51560F584E0581A93FE1FC0011127C0D8
S11356302C8523FF2AC002E912E0392D3071932E04
S1135640F8018491811124C0552009F4E4CCB701F8
S113565080E290E00E9407305A94F6CFF7018681E9
S1135660978126C08FEF9FEF23C0B70180E290E0BF
S11356700E9407305A945110F8CFD8CF512CB7015B
S1135680802F90E00E940730D3CF06E912E0D5CFF7
S113569091108052B70190E00E9407300F5F1F4FB6
S11356A0CFCF23E0251510F483E0BDCF512CC0CF1C
S11356B06096CDBFDEBFDF91CF911F910F91FF9018
S11356C0EF90DF90CF90BF90AF909F908F907F909E
S11356D06F905F904F903F902F900895AA1BBB1B33
S11356E051E107C0AA1FBB1FA617B70710F0A61BDE
S11356F0B70B881F991F5A95A9F780959095BC01FF
S1135700CD01089597FB072E16F4009407D077FD7A
S113571009D00E946E2B07FC05D03EF4909581952C
S11357209F4F0895709561957F4F0895A29FB00192
S1135730B39FC001A39F700D811D1124911DB29FC1
S1135740700D811D1124911D08950F931F93CF9304
S1135750DF938230910510F482E090E0E091BB2C5D
S1135760F091BC2C20E030E0A0E0B0E0309719F1DB
S1135770408151810281138148175907C8F0841769
S1135780950769F4109731F012960C9312971396BB
S11357901C9327C00093BB2C1093BC2C22C0211552
S11357A0310519F04217530718F49A01BD01EF01AE
S11357B0DF01F801DBCF21153105F9F0281B390B86
S11357C02430310580F48A819B816115710521F0B3
S11357D0FB018283938304C08093BB2C9093BC2CE5
S11357E0FE01329644C0FE01E20FF31F81939193B0
S11357F022503109288339833AC02091B92C309141
S1135800BA2C232B41F420910220309103202093C1
S1135810B92C3093BA2C209100203091012021150D
S1135820310541F42DB73EB7409104205091052035
S1135830241B350BE091B92CF091BA2CE217F30735
S1135840A0F42E1B3F0B2817390778F0AC014E5FEC
S11358505F4F2417350748F04E0F5F1F4093B92C54
S11358605093BA2C8193919302C0E0E0F0E0CF0111
S1135870DF91CF911F910F910895CF93DF930097FC
S113588009F481C0FC01329712821382A091BB2CCF
S1135890B091BC2C109781F420813181820F931F29
S11358A02091B92C3091BA2C2817390751F5E0937F
S11358B0B92CF093BA2C67C0ED0120E030E0CE178C
S11358C0DF0740F44A815B819E0141155105F1F0E7
S11358D0EA01F5CFC283D38340815181840F951FA0
S11358E0C817D90759F488819981840F951F0296A6
S11358F0808391838A819B818283938321153105DF
S113590029F4E093BB2CF093BC2C3DC0E901EA835D
S1135910FB8349915991C40FD51FEC17FD0761F41E
S113592080819181840F951F0296E9018883998370
S1135930828193818A839B83E0E0F0E012968D91CB
S11359409C911397009719F0FD01DC01F7CF8D911D
S11359509C9111979D012E5F3F4F820F931F2091C1
S1135960B92C3091BA2C2817390769F4309729F4E7
S11359701092BB2C1092BC2C02C012821382A093F2
S1135980B92CB093BA2CDF91CF910895DC01FB01BF
S11359908C9190819D938193415051091416150661
S11359A0BCF30895CF92DF92EF92FF920F931F936F
S11359B0CF93DF937C016B01D42FC52F8901F901AB
S11359C019956D2F7C2F97FF10C0C601F80119950A
S11359D097FF02C0C60118C06D2F7C2FC701F801C4
S11359E0199597FD0FC0C7010FC0C601F80119959D
S11359F0181619067CF36D2F7C2FC701F801199531
S1135A0097FDF1CF8D2F9C2FDF91CF911F910F9197
S1135A10FF90EF90DF90CF9008952F923F924F9296
S1135A205F926F927F928F929F92AF92BF92CF922A
S1135A30DF92EF92FF920F931F93CF93DF93CDB733
S1135A40DEB72A97CDBFDEBF8C017B0149875A8719
S1135A50690129853A85200F311F29833A8337E06C
S1135A60E316F10470F569807A8049855A85E49ECD
S1135A705001E59EB00CF49EB00C1124A00EB11E92
S1135A806A147B0408F07AC173010E151F0528F00F
S1135A9089859A85680E791EF3CF4701E985FA85D1
S1135AA08E1A9F0AB701C401F60119951816190632
S1135AB07CF749855A85B401C7010E94C62C74013C
S1135AC0E4CFC7019695879529853A85829F500131
S1135AD0839FB00C929FB00C1124A00EB11EA7019D
S1135AE0415051094B835C8357E0E516F10409F4F6
S1135AF04CC08B819C81829F3001839F700C929F4C
S1135B00700C1124600E711E99E2E916F104A8F1DB
S1135B10C70143E0969587954A95E1F7829F400136
S1135B20839F900C929F900C11241401220C331C1F
S1135B30A801420D531DB801680D791D9601C801D5
S1135B400E94D22C2C01A501480D591D91948194D9
S1135B5091089601B501C501880D991D0E94D22CAA
S1135B605C01B301680D791D9601A301C30182197B
S1135B7093090E94D22C3C0101C028019601A30183
S1135B80B501C2010E94D22C5C0149855A85B50138
S1135B90C8010E94C62C69807A802B813C8149858A
S1135BA05A85249FF001259FF00D349FF00D112498
S1135BB0ED83FE835F01A00EB11E460D571D4B837E
S1135BC05C832501130119821A828B809C8089854C
S1135BD09A85881A990AA814B90408F450C0B8011F
S1135BE0C401F601199518161906C4F1892B71F42C
S1135BF049855A85B401C1010E94C62C89859A85BC
S1135C00280E391EE1E0F0E0E983FA832B813C8120
S1135C1049855A85240F351F2B833C83D6CFB80181
S1135C20C501F6011995950149855A85241B350B43
S1135C302F83388797FD16C0892B71F449855A85BF
S1135C40B201C5010E94C62C29853A85421A530A1D
S1135C5041E050E049835A83AF80B884A814B90462
S1135C60F0F60DC049855A85B501C4010E94C62CC1
S1135C70AF80B88441E050E049835A83C7CF89811B
S1135C809A81892B09F44FC06D807E8029853A85DD
S1135C90620E731E600E711E7401E218F308A101F6
S1135CA0401B510BE416F5060CF4A7011416150657
S1135CB034F4B401641B750BC8010E94C62CA20104
S1135CC04A195B095A01A3014419550989859A8522
S1135CD0481B590BA416B50608F4A501141615069D
S1135CE034F4B301641B750BC4010E94C62CE9850E
