S01800004C696E65626F7454656D706C617465312E73726563D2
S11300000C94CA010C94EB010C9436030C949303E6
S11300100C94EB010C94EB010C94EB010C94EB01AC
S11300200C94EB010C94EB010C94EB010C94EB019C
S11300300C94EB010C94EB010C94330E0C94EB0137
S11300400C94B30E0C94EB010C94EB010C94EB01A7
S11300500C94EB010C94EB010C94EB010C94EB016C
S11300600C94EB010C94EB010C94EB010C94EB015C
S11300700C94EB010C94EB010C94EB010C94EB014C
S11300800C94EB010C94EB010C94EB010C94EB013C
S11300900C94EB010C94EB010C94EB010C94EB012C
S11300A00C94EB010C94EB010C94EB010C94F40311
S11300B00C9459040C94EB010C94F9050C94EB0189
S11300C00C94EB010C94EB010C94EB010C94EB01FC
S11300D00C94EB010C94EB010C94EB010C94EB01EC
S11300E00C94EB010C94EB010C94EB010C94EB01DC
S11300F00C94EB010C94EB010C94EB010C94EB01CC
S11301000C94EB010C94EB010C94EB010C94EB01BB
S11301100C94EB010C94EB010C94EB010C94EB01AB
S11301200C94EB010C94EB010C94EB010C94EB019B
S11301300C94EB010C94EB010C94EB010C94EB018B
S11301400C94EB010C94EB010C94EB010C94EB017B
S11301500C94EB010C94EB010C94EB010C94EB016B
S11301600C94EB010C94EB010C94EB010C94EB015B
S11301700C94EB010C94EB010C94EB010C94EB014B
S11301800C94EB010C94EB010C94EB010C94EB013B
S11301900C94EB010C94EB010C94EB010C94EB012B
S11301A00C94EB010C94EB010C94EB010C94EB011B
S11301B00C94EB010C94EB010C94EB010C94EB010B
S11301C00C94EB010C94EB010C94EB010C94EB01FB
S11301D00C94EB010C94EB010C94EB010C94EB01EB
S11301E00C94EB010C94EB010C94EB010C94EB01DB
S11301F00C94EB010C94EB010C94EB010763423675
S1130200B79BD8A71A39685618AEBAAB558C1D3CA3
S1130210B7CC5763BD6DEDFD753EF6177231BF0067
S11302200000803F08000000BE922449123EABAAA1
S1130230AA2ABECDCCCC4C3E00000080BEABAAAAFC
S1130240AA3E00000000BF000000803F0000000044
S113025000084178D3BB4387D1133D190E3CC3BD7D
S11302604282AD2B3E68EC8276BED98FE1A93E4C2A
S113027080EFFFBE01C4FF7F3F00000000000C942C
S1130280AB1F0C9415160C94A61C0C94B0080C947B
S11302908B086E616E00696E660000407A10F35A36
S11302A000A0724E18090010A5D4E80000E87648B2
S11302B0170000E40B54020000CA9A3B000000E15E
S11302C0F505000080969800000040420F000000F1
S11302D0A08601000000102700000000E8030000D1
S11302E000006400000000000A000000000001009B
S11302F0000000002C76D888DC674F0823DFC1DFBC
S1130300AE59E1B1B796E5E3E453C63AE6519976BE
S113031096E8E6C28426EB898C9B62ED407C6FFCF8
S1130320EFBC9C9F40F2BAA56FA5F490055A2AF73A
S11303305C936B6CF9676DC11BFCE0E40D47FEF543
S113034020E6B500D0ED902E0300943577050080AB
S1130350841E080000204E0A000000C80C3333330A
S1130360330F986E12831141EF8D2114893BE655AA
S113037016CFFEE6DB18D1844B381BF77C1D901D8D
S1130380A4BBE424203284725E228100C9F124ECEF
S1130390A1E53D2711241FBECFEFCDBFDFE9DEBFAE
S11303A000E00CBF15E2A0E0B0E2ECE8FCE500E000
S11303B00BBF02C007900D92A434B107D9F726E20F
S11303C0A4E4B5E201C01D92A531B207E1F70E9491
S11303D0FB1B0C94442E0C940000CF93DF93CDB7F9
S11303E0DEB70000DF91CF910895CF93DF93CDB7AF
S11303F0DEB780E296E028EFFC01228380E296E0FB
S113040028E5FC01238B80E296E028E5FC01248B9F
S113041080E296E028E5FC01258B80E296E028E561
S1130420FC01268B80E296E028E5FC01278B000086
S1130430DF91CF910895CF93DF931F921F92CDB791
S1130440DEB789839A8389819A8160E070E00E9493
S11304502F0200000F900F90DF91CF910895CF935A
S1130460DF9300D01F92CDB7DEB789839A836B8365
S11304707C83109244251092452526C080EA9AE098
S113048029813A81F9012081FC012083000080EA5E
S11304909AE0FC018181882F90E080749927892B50
S11304A0B1F380EA9AE020E4FC01218389819A81F6
S11304B0019689839A8380914425909145250196DC
S11304C0809344259093452589819A81FC018081FC
S11304D0882369F020914425309145258B819C81A6
S11304E0281739075CF28B819C81892B39F2000033
S11304F02496CDBFDEBFDF91CF910895CF93DF93D4
S11305001F921F92CDB7DEB789839A8380E197E269
S113051080934625909347251092482573C0809177
S11305204625909147259C0189819A81B9010E94B1
S1130530C728CB01AC019A01ADECBCEC0E94EF28BA
S1130540969587959695879596958795880F991F83
S11305509C01220F331F220F331F820F931F9A0116
S1130560281B390BC901892B21F480914825882344
S1130570D9F1E0EAFAE080914625909147259C0163
S113058089819A81B9010E94C728CB01AC019A01E3
S1130590ADECBCEC0E94EF289695879596958795CF
S11305A096958795880F991F9C01220F331F220F60
S11305B0331F820F931F9A01281B390BC901805DD9
S11305C08083000080EA9AE0FC018181882F90E01A
S11305D080749927892BB1F380EA9AE020E4FC0126
S11305E0218381E080934825809146259091472579
S11305F02AE030E0B9010E94DB28CB018093462534
S11306009093472580914625909147251816190601
S11306100CF485CF00000F900F90DF91CF910895D7
S1130620CF93DF93CDB7DEB780E296E027E0FC01FD
S1130630218380E096E020E8FC01218380E296E0BB
S113064020E4FC01208B80E296E020E4FC01218B75
S113065080E296E020E4FC01228B80E096E020E436
S1130660FC01278B0000DF91CF9108951F920F9218
S113067000903F000F92112400903B000F922F93A3
S11306803F938F939F93EF93FF93CF93DF931F92A7
S1130690CDB7DEB780E496E0FC018085898389814B
S11306A0882F90E080749927892B99F08981882379
S11306B01CF48FEF9FEF02C081E090E02091492568
S11306C030914A25820F931F8093492590934A25A0
S11306D012C0898188231CF481E090E002C08FEF6E
S11306E09FEF2091492530914A25820F931F8093D3
S11306F0492590934A2580E496E021E0FC01248773
S113070000000F90DF91CF91FF91EF919F918F9116
S11307103F912F910F9000923B000F9000923F0069
S11307200F901F9018951F920F9200903F000F9208
S1130730112400903B000F922F933F938F939F932C
S1130740EF93FF93CF93DF931F92CDB7DEB780E48F
S113075096E0FC018085898389818823BCF48981A2
S1130760882F90E080749927892B19F081E090E01C
S113077002C08FEF9FEF2091492530914A25820FC7
S1130780931F8093492590934A2516C08981882F09
S113079090E080749927892B19F08FEF9FEF02C0A6
S11307A081E090E02091492530914A25820F931FE2
S11307B08093492590934A2580E496E022E0FC0149
S11307C0248700000F90DF91CF91FF91EF919F91CB
S11307D08F913F912F910F9000923B000F900092C8
S11307E03F000F901F9018951F920F9200903F00AA
S11307F00F92112400903B000F922F933F938F93FD
S11308009F93EF93FF93CF93DF931F92CDB7DEB700
S113081080E896E0FC01808589838981882F90E0B7
S113082080719927892BB9F08981882F90E0807293
S11308309927892B19F08FEF9FEF02C081E090E098
S113084020914B2530914C25820F931F80934B258B
S113085090934C2516C08981882F90E08072992747
S1130860892B19F081E090E002C08FEF9FEF209177
S11308704B2530914C25820F931F80934B259093E9
S11308804C2580E896E021E0FC01248700000F90CD
S1130890DF91CF91FF91EF919F918F913F912F9194
S11308A00F9000923B000F9000923F000F901F901A
S11308B018951F920F9200903F000F921124009000
S11308C03B000F922F933F938F939F93EF93FF934C
S11308D0CF93DF931F92CDB7DEB780E896E0FC019B
S11308E0808589838981882F90E080729927892B5C
S11308F0B9F08981882F90E080719927892B19F0AC
S113090081E090E002C08FEF9FEF20914B25309162
S11309104C25820F931F80934B2590934C2516C032
S11309208981882F90E080719927892B19F08FEFA6
S11309309FEF02C081E090E020914B2530914C253F
S1130940820F931F80934B2590934C2580E896E06B
S113095022E0FC01248700000F90DF91CF91FF91EA
S1130960EF919F918F913F912F910F9000923B00B7
S11309700F9000923F000F901F901895CF93DF9334
S1130980CDB7DEB780E496E020E2FC0121830000CD
S1130990DF91CF910895CF93DF931F92CDB7DEB748
S11309A089838981882331F080E496E020E2FC0188
S11309B0258305C080E496E020E2FC012683000044
S11309C00F90DF91CF9108958BEC8093520088E0D3
S11309D0809350008091510083FFFCCF82EC809380
S11309E0550088E1809350008091510084FFFCCF32
S11309F088ED84BF84E08093400080E00895CF9325
S1130A00DF93CDB7DEB71092562580E896E028E153
S1130A10FC01208B80E896E028E1FC01218B80EA30
S1130A2094E028E7FC01218380EA94E023E2FC01BE
S1130A30258380EA94E021E0FC0124830000DF9117
S1130A40CF910895CF93DF931F92CDB7DEB780EA9D
S1130A5094E0FC01848189838981882F90E08470EB
S1130A609927892B21F084E08093572503C083E0E4
S1130A708093572580EA94E029812860FC0124832F
S1130A801092562500000F90DF91CF910895CF93D7
S1130A90DF9300D01F92CDB7DEB7809152258983B2
S1130AA0809153258A8380EA94E0FC018481882F15
S1130AB090E080719927892B59F080EA94E023E033
S1130AC0FC01238385E0809357251092562534C07A
S1130AD09091542589819817C0F420914E25309126
S1130AE04F2580915425882F90E0820F931FFC019D
S1130AF080818B8380EA94E02B81FC0127838091A1
S1130B0054258F5F8093542517C0909155258A8171
S1130B10981750F480914D2581608C8380EA94E08D
S1130B202C81FC01268308C080EA94E023E0FC01C8
S1130B30238381E00E94E90500002496CDBFDEBF37
S1130B40DF91CF910895CF93DF931F921F92CDB77A
S1130B50DEB7809155258032C0F480EA94E0FC0130
S1130B608781898320915025309151258091552585
S1130B70882F90E0820F931F2981FC0120838091AC
S1130B8055258F5F8093552508C080EA94E023E0C3
S1130B90FC01238382E00E94E905809153258A8326
S1130BA0909155258A81981730F480EA94E022E0E8
S1130BB0FC01238308C080EA94E027E0FC0123833E
S1130BC081E00E94E90500000F900F90DF91CF9122
S1130BD00895CF93DF931F92CDB7DEB789838981C0
S1130BE0809357251092562500000F90DF91CF91E6
S1130BF008951F920F9200903F000F9211240090CD
S1130C003B000F922F933F934F935F936F937F9388
S1130C108F939F93AF93BF93EF93FF93CF93DF9300
S1130C201F92CDB7DEB780EA94E0FC01848189830A
S1130C308981882F90E088709927892B39F48981DC
S1130C40882F90E084709927892B19F00E9422053F
S1130C5013C08981882F90E080749927892B19F01B
S1130C600E94470509C0898188231CF40E94A305BA
S1130C7003C086E00E94E9058091562500000F908C
S1130C80DF91CF91FF91EF91BF91AF919F918F91A0
S1130C907F916F915F914F913F912F910F900092AF
S1130CA03B000F9000923F000F901F901895CF9338
S1130CB0DF93CDB7DEB72B97CDBFDEBF80E896E0DC
S1130CC028E0FC01218380E896E024E0FC012283F3
S1130CD080EA9AE0FC01138280EA9AE028E1FC01B0
S1130CE0248380EA9AE023E0FC01258340E052EC6F
S1130CF061E070E0CE0101960E94A50680EA9AE0C8
S1130D002A813B81FC01268380EA9AE02981422FD3
S1130D104295407F2A813B81232F33272F70242B38
S1130D20FC01278386E090E280931126909312269B
S1130D3086E090E280930F269093102600002B9675
S1130D40CDBFDEBFDF91CF910895CF92DF92EF92B6
S1130D50FF92CF93DF93CDB7DEB7E097CDBFDEBF71
S1130D608BA79CA74DA75EA76FA778AB88E29BE6ED
S1130D70AEE6BEE48FA398A7A9A7BAA788E29BE62C
S1130D80AEE6BEE489839A83AB83BC8389EF8D830B
S1130D90A8C18D81082E000C990BAA0BBB0BBC01BA
S1130DA0CD010E948022DC01CB019C01AD0160E0F9
S1130DB070E080E090E40E94A223DC01CB018C87E8
S1130DC09D87AE87BF878D8188230CF494C020E073
S1130DD030E040E851E46C857D858E859F850E94D6
S1130DE03523DC01CB016C017D016DA57EA58FA5AA
S1130DF098A90E947E22DC01CB019C01AD01C701B0
S1130E00B6010E943523DC01CB019C01AD0160E0F9
S1130E1074E284EF9BE40E94DD21DC01CB0120E03D
S1130E2030E040E85FE3BC01CD010E946B21DC01AE
S1130E30CB01888B998BAA8BBB8B20E030E0A90176
S1130E40688979898A899B890E94D82188230CF42E
S1130E5042C120E030EF4FE755E4688979898A89F7
S1130E609B890E94302318160CF435C120E030E031
S1130E7040E05FE3688979898A899B890E946C21B3
S1130E80DC01CB01BC01CD010E944F22DC01CB016E
S1130E908E839F8320E030E040E851E46C857D85BB
S1130EA08E859F850E943523DC01CB016C017D0179
S1130EB08E819F810196CC01A0E0B0E0BC01CD0100
S1130EC00E947E22DC01CB019C01AD01C701B60169
S1130ED00E943523DC01CB019C01AD0160E074E28A
S1130EE084EF9BE40E94DD21DC01CB018887998794
S1130EF0AA87BB8798C06DA57EA58FA598A90E94D7
S1130F007E22DC01CB0120E030E040E851E4BC016A
S1130F10CD010E943523DC01CB019C01AD0160E0D1
S1130F2074E284EF9BE40E94DD21DC01CB0120E02C
S1130F3030E040E85FE3BC01CD010E946B21DC019D
S1130F40CB012C853D854E855F85BC01CD010E947A
S1130F50DD21DC01CB018C8B9D8BAE8BBF8B20E024
S1130F6030E0A9016C897D898E899F890E94D821EE
S1130F7088230CF4B2C020E030EF4FE755E46C89CD
S1130F807D898E899F890E94302318160CF4A5C090
S1130F9020E030E040E05FE36C897D898E899F89A1
S1130FA00E946C21DC01CB01BC01CD010E944F22C7
S1130FB0DC01CB018E839F838E819F81CC01A0E0D5
S1130FC0B0E0BC01CD010E947E22DC01CB012C8566
S1130FD03D854E855F85BC01CD010E943523DC0132
S1130FE0CB0120E030E040E85FE3BC01CD010E948A
S1130FF06C21DC01CB0120E030E040E851E4BC018D
S1131000CD010E943523DC01CB019C01AD0160E0E0
S113101074E284EF9BE40E94DD21DC01CB0188872C
S11310209987AA87BB876DA57EA58FA598A90E94DD
S11310307E22DC01CB019C01AD01688579858A851E
S11310409B850E946B21DC01CB01BF77888F998F30
S1131050AA8FBB8F6DA57EA58FA598A90E947E221D
S1131060DC01CB019C01AD01688D798D8A8D9B8D4E
S11310700E94DD21DC01CB018C8F9D8FAE8FBF8F51
S113108029813A814B815C81688D798D8A8D9B8D14
S11310900E94D821882314F5888D998DAA8DBB8D43
S11310A089839A83AB83BC838D8188A38E819F813E
S11310B089A39AA3888D998DAA8DBB8D8BA39CA39C
S11310C0ADA3BEA38C8D9D8DAE8DBF8D8FA398A730
S11310D0A9A7BAA703C0000001C000008D818F5FDB
S11310E08D838D8188300CF454CE8BA59CA52BE088
S11310F0FE01B096DC0101900D922A95E1F78BA5D3
S11311009CA5E096CDBFDEBFDF91CF91FF90EF901D
S1131110DF90CF900895CF93DF9300D0CDB7DEB7A3
S113112089836A837B8380EA9AE02981FC01208396
S1131130000080EA9AE0FC018181882F90E08074AD
S11311409927892BB1F380EA9AE020E4FC012183FA
S113115080E090E02396CDBFDEBFDF91CF9108956C
S1131160CF93DF931F921F92CDB7DEB789839A8303
S1131170000080EA9AE0FC0181818823D4F780EAA8
S11311809AE0FC018081882F90E00F900F90DF910E
S1131190CF910895CF93DF93CDB7DEB72E97CDBF10
S11311A0DEBF8D879E871D821E820E94551280910C
S11311B06025882329F40E94300A81E08093602509
S11311C08D859E85892B41F084E090E02D853E85B8
S11311D0820F931F8D879E878D859E85892B09F4A9
S11311E0B8C08D859E858F3F9F4308F0B2C088E5C7
S11311F095E28B839C83809158259091592589830E
S11312009A830BC089819A818B839C8389819A817B
S1131210FC018081918189839A8389819A81FC016F
S1131220228133818D859E852817390738F4898179
S11312309A81FC0180819181892B21F789819A818E
S11312408C55954209F485C08B819C81FC012081D9
S1131250318184E090E0820F931F8D839E83898186
S11312609A81FC01208131818B819C81FC01208346
S1131270318389819A81FC01228133818D859E8508
S1131280281B390B84E090E0880F991F821793077D
S113129008F04EC029813A818D859E85820F931F67
S11312A089879A8789819A81FC01228133818D857E
S11312B09E85281B390B89859A85FC0122833383FB
S11312C089819A812D853E85FC012283338389851A
S11312D09A85FC01828193818B879C8788E595E2BE
S11312E08F83988707C08F819885FC0180819181C5
S11312F08F8398878F819885FC0180819181FC017F
S1131300228133818B859C852817390760F38F816F
S11313109885FC012081318189859A85FC0120838F
S113132031838F81988529853A85FC012083318317
S1131330209114203091152089819A81FC018281A9
S11313409381A901481B590BCA01809314209093DF
S113135015200E9462128D819E81892B11F40E94B6
S1131360D7188D819E812E96CDBFDEBFDF91CF91A0
S11313700895CF93DF93CDB7DEB72A97CDBFDEBFF5
S113138089879A8789859A858B839C8389859A85A1
S1131390892B09F453C084E090E0919581959109DB
S11313A02B813C81820F931F8B839C838B819C8137
S11313B08D839E830E9455128D819E81FC018281C2
S11313C093818F83988788E595E289839A8307C000
S11313D089819A81FC018081918189839A838981A1
S11313E09A81FC0180819181FC01228133818F816A
S11313F098852817390760F389819A81FC01208137
S113140031818D819E81FC012083318389819A8180
S11314102D813E81FC01208331838D819E81FC01DD
S1131420228133818091142090911520820F931F83
S113143080931420909315200E94621200002A9633
S1131440CDBFDEBFDF91CF910895CF93DF93CDB7AA
S1131450DEB78091142090911520DF91CF910895EB
S1131460CF93DF9300D01F92CDB7DEB780910926CA
S113147090910A26019689839A8389819A8180931F
S113148058259093592510925A2510925B258FEF79
S11314909FE380935E2590935F2510925C251092C4
S11314A05D2589819A818B839C838B819C812FEF1D
S11314B03FE3FC01228333838B819C812CE535E25D
S11314C0FC012083318300002496CDBFDEBFDF9171
S11314D0CF910895CF93DF931F921F92CDB7DEB7BC
S11314E089839A8389819A819C012D5F3F4F8981E9
S11314F09A81FC012183328389819A812FEF3FEF06
S1131500FC012383348389819A819C012D5F3F4FA1
S113151089819A81FC012583368389819A819C0182
S11315202D5F3F4F89819A81FC0127833087898110
S11315309A81FC01108200000F900F90DF91CF91EF
S11315400895CF93DF931F921F92CDB7DEB789839F
S11315509A8389819A81FC011086118600000F907C
S11315600F90DF91CF910895CF93DF9300D000D0F7
S1131570CDB7DEB78B839C836D837E838B819C8107
S1131580FC018181928189839A838D819E81298145
S11315903A81FC012283338389819A81FC0124816D
S11315A035818D819E81FC012483358389819A81D3
S11315B0FC01848195812D813E81FC01228333834A
S11315C089819A812D813E81FC01248335838D811B
S11315D09E812B813C81FC01208731878B819C81FA
S11315E0FC01808121E0280F8B819C81FC012083F8
S11315F000002696CDBFDEBFDF91CF910895CF9333
S1131600DF93CDB7DEB72897CDBFDEBF8D839E8332
S11316106F8378878F819885FC01808191818B838A
S11316209C838B819C81019641F48D819E81FC0178
S11316308781908589839A831AC08D819E810396C0
S113164089839A8307C089819A81FC01828193816D
S113165089839A8389819A81FC0182819381FC0127
S1131660208131818B819C818217930760F7898166
S11316709A81FC01228133818F819885FC01228328
S113168033838F819885FC01828193812F813885F2
S1131690FC01248335838F81988529813A81FC015B
S11316A02483358389819A812F813885FC012283A3
S11316B033838F8198852D813E81FC01208731877A
S11316C08D819E81FC01808121E0280F8D819E8186
S11316D0FC01208300002896CDBFDEBFDF91CF91AF
S11316E00895CF93DF9300D01F92CDB7DEB78B83DD
S11316F09C838B819C81FC018085918589839A835D
S11317008B819C81FC01828193812B813C81F90135
S113171024813581FC01248335838B819C81FC01E8
S1131720848195812B813C81F90122813381FC01E3
S11317302283338389819A81FC01218132818B81C7
S11317409C812817390751F48B819C81FC012481E9
S1131750358189819A81FC01218332838B819C812B
S1131760FC011086118689819A81FC0180812FEF0A
S1131770280F89819A81FC01208389819A81FC0147
S113178080812496CDBFDEBFDF91CF910895CF93A2
S1131790DF93CDB7DEB72897CDBFDEBF8B839C83A5
S11317A06D837E834F8358878B819C8121E1FC016B
S11317B020838B819C8101978B839C838B819C816B
S11317C022E2FC0120838B819C8101978B839C8383
S11317D08B819C8123E3FC0120838B819C81019775
S11317E08B839C838D819E8189839A8329818B81BC
S11317F09C81FC0120838B819C8101978B839C833A
S113180089819A81892F992789839A8329818B8158
S11318109C81FC0120838B819C8101978B839C8319
S113182089819A81892F992789839A8329818B8138
S11318309C81FC0120838B819C8101978B839C83F9
S11318408B819C81FC0110828B819C8101978B830D
S11318509C838B819C8120E8FC0120838B819C816B
S113186001978B839C838B819C81FC0110828B81EB
S11318709C8101978B839C838B819C8122E0FC015A
S113188020838B819C8101978B839C838B819C819A
S113189023E0FC0120838B819C8101978B839C83B3
S11318A08B819C8124E0FC0120838B819C810197A6
S11318B08B839C838B819C8125E0FC0120838B811D
S11318C09C8101978B839C838B819C8126E0FC0106
S11318D020838B819C8101978B839C838B819C814A
S11318E027E0FC0120838B819C8101978B839C835F
S11318F08B819C8128E0FC0120838B819C81019752
S11319008B839C838B819C8129E0FC0120838B81C8
S11319109C8101978B839C838B819C8120E1FC01BA
S113192020838B819C8101978B839C838B819C81F9
S113193021E1FC0120838B819C8101978B839C8313
S11319408B819C8122E1FC0120838B819C81019706
S11319508B839C838B819C8123E1FC0120838B817D
S11319609C8101978B839C838B819C8124E1FC0166
S113197020838B819C8101978B839C838B819C81A9
S113198025E1FC0120838B819C8101978B839C83BF
S11319908B819C8126E1FC0120838B819C810197B2
S11319A08B839C838B819C8127E1FC0120838B8129
S11319B09C8101978B839C838B819C8128E1FC0112
S11319C020838B819C8101978B839C838B819C8159
S11319D029E1FC0120838B819C8101978B839C836B
S11319E08B819C8120E2FC0120838B819C81019767
S11319F08B839C838B819C8121E2FC0120838B81DE
S1131A009C8101978B839C838B819C8122E2FC01C6
S1131A1020838B819C8101978B839C838B819C8108
S1131A2023E2FC0120838B819C8101978B839C831F
S1131A308F81988589839A8329818B819C81FC017C
S1131A4020838B819C8101978B839C8389819A81DC
S1131A50892F992789839A8329818B819C81FC0111
S1131A6020838B819C8101978B839C838B819C81B8
S1131A7026E2FC0120838B819C8101978B839C83CC
S1131A808B819C8127E2FC0120838B819C810197BF
S1131A908B839C838B819C8128E2FC0120838B8136
S1131AA09C8101978B839C838B819C8129E2FC011F
S1131AB020838B819C8101978B839C838B819C8168
S1131AC020E3FC0120838B819C8101978B839C8381
S1131AD08B819C8121E3FC0120838B819C81019774
S1131AE08B839C838B819C812896CDBFDEBFDF9145
S1131AF0CF910895CF93DF93CDB7DEB70E94090E3F
S1131B00A0916125B0916225CD91CDBFDD91DEBF5D
S1131B10FF91EF91DF91CF91BF91AF919F918F9101
S1131B207F916F915F914F913F912F911F910F91F1
S1131B30FF90EF90DF90CF90BF90AF909F908F90E9
S1131B407F906F905F904F903F902F901F900F90D9
S1131B500FBE0F90089581E0DF91CF9108950F9209
S1131B600FB6F8940F921F9211242F923F924F9226
S1131B705F926F927F928F929F92AF92BF92CF9219
S1131B80DF92EF92FF920F931F932F933F934F9304
S1131B905F936F937F938F939F93AF93BF93CF93F1
S1131BA0DF93EF93FF93A0916125B09162250DB669
S1131BB00D920EB60D920E94BB14A0916125B091B6
S1131BC06225CD91CDBFDD91DEBFFF91EF91DF9115
S1131BD0CF91BF91AF919F918F917F916F915F91C1
S1131BE04F913F912F911F910F91FF90EF90DF90B4
S1131BF0CF90BF90AF909F908F907F906F905F90A9
S1131C004F903F902F901F900F900FBE0F9008950C
S1131C100000CF93DF93CDB7DEB780E098E02FEFDD
S1131C203FEFFC0120A731A780E098E021E0FC0110
S1131C30208380E098E020E4FC01218380E098E0A8
S1131C4021E0FC01268380E098E021E0FC01278369
S1131C5080E098E020E03DE7FC0126A337A30000E4
S1131C60DF91CF9108950F920FB6F8940F921F92BF
S1131C7011242F923F924F925F926F927F928F9294
S1131C809F92AF92BF92CF92DF92EF92FF920F9307
S1131C901F932F933F934F935F936F937F938F93F0
S1131CA09F93AF93BF93CF93DF93EF93FF93A09151
S1131CB06125B09162250DB60D920EB60D9280E0AD
S1131CC098E0FC0186A197A19C0140E050E080913E
S1131CD0052690910626A0910726B0910826820F2A
S1131CE0931FA41FB51F8093052690930626A093E7
S1131CF00726B09308260E94C6130E94BB14A09125
S1131D006125B0916225CD91CDBFDD91DEBFFF91FC
S1131D10EF91DF91CF91BF91AF919F918F917F917F
S1131D206F915F914F913F912F911F910F91FF9070
S1131D30EF90DF90CF90BF90AF909F908F907F9067
S1131D406F905F904F903F902F901F900F900FBE19
S1131D500F9018950000CF93DF93CDB7DEB7000046
S1131D60DF91CF9108950F920FB6F8940F921F92BE
S1131D7011242F923F924F925F926F927F928F9293
S1131D809F92AF92BF92CF92DF92EF92FF920F9306
S1131D901F932F933F934F935F936F937F938F93EF
S1131DA09F93AF93BF93CF93DF93EF93FF93A09150
S1131DB06125B09162250DB60D920EB60D9280E0AC
S1131DC098E02FEF3FEFFC0120A731A70E94BB143E
S1131DD0A0916125B0916225CD91CDBFDD91DEBF8B
S1131DE0FF91EF91DF91CF91BF91AF919F918F912F
S1131DF07F916F915F914F913F912F911F910F911F
S1131E00FF90EF90DF90CF90BF90AF909F908F9016
S1131E107F906F905F904F903F902F901F900F9006
S1131E200FBE0F90189500008F929F92AF92BF92B1
S1131E30CF92DF92EF92FF920F931F93CF93DF9392
S1131E40CDB7DEB76097CDBFDEBF8E839F83688733
S1131E5079874A875B872C873D870E87EF86F88AC8
S1131E608A859B850E94CA088C839D838C819D8171
S1131E70892BB9F080E390E00E94CA0889839A8391
S1131E8089819A81892B41F089819A812C813D81B4
S1131E90FC01278B308F07C08C819D810E94B9097A
S1131EA002C019821A8289819A81892B09F18A8553
S1131EB09B85CC01A0E0B0E009811A814F85588947
S1131EC02C853D8568857985EE81FF81812C912C57
S1131ED058016A01EE8489019C01AD01CF010E9481
S1131EE08B0F89819A810E94721081E08B8302C0DA
S1131EF08FEF8B838B816096CDBFDEBFDF91CF9157
S1131F001F910F91FF90EF90DF90CF90BF90AF9013
S1131F109F908F9008958F929F92AF92BF92CF928D
S1131F20DF92EF920F931F93CF93DF93CDB7DEB77A
S1131F306497CDBFDEBF8C839D836E837F832887A8
S1131F4039874A875B870C871D87EE86CF86D88AB8
S1131F50A98ABA8A8B8A9C8A8E819F81892B31F4C3
S1131F6060E673E086E190E20E94E51A28853985EF
S1131F7089899A89FC018789908DA90165EA70E0B5
S1131F800E94102D89899A89FC012789308D8885C2
S1131F9099850197820F931F8A839B83198221C09D
S1131FA08981882F90E02981222F30E04E815F8142
S1131FB0240F351FF901408129893A89820F931F23
S1131FC04996FC0140838981882F90E02E813F81CE
S1131FD0820F931FFC018081882339F089818F5FF0
S1131FE0898389818830E0F201C0000089899A8957
S1131FF0FC0110A28E858A3010F089E08E878989D1
S11320009A892E85FC01268B89899A892E85FC0163
S113201023A389899A89FC0114A289899A89029641
S11320200E94A10A89899A890C960E94A10A898929
S11320309A8929893A89FC01208731878E85882FDE
S113204090E02AE030E0281B390B89899A89FC0149
S11320502487358789899A8929893A89FC01228BC1
S1132060338B89899A89FC0115A216A289899A89D8
S1132070FC0117A210A611A612A689899A89FC014F
S113208013A614A615A616A689899A89FC0117A673
S11320904C855D852C813D818A819B81B9010E949B
S11320A0C70B9C0189899A89FC01208331838F8520
S11320B09889892B39F08F85988929893A89FC0177
S11320C02083318300006496CDBFDEBFDF91CF91C2
S11320D01F910F91EF90DF90CF90BF90AF909F90A2
S11320E08F900895CF93DF931F921F92CDB7DEB7E1
S11320F089839A830FB6F8940F928091EF258F5FAE
S11321008093EF258091612590916225892B69F454
S113211089819A8180936125909362258091EF252E
S11321208130C9F40E94281616C08091F3258823B3
S113213091F48091612590916225FC012689898121
S11321409A81FC018689821730F089819A81809373
S11321506125909362258091F7258F5F8093F72501
S11321602091F72589819A81FC0121A389819A8193
S1132170FC0196898091F225891730F489819A812E
S1132180FC0186898093F22589819A81AC014E5F96
S11321905F4F89819A81FC018689282F30E0C9012B
S11321A0880F991F880F991F880F991F820F931FFB
S11321B08D599A4DBA010E94B40A0F900FBE8091B6
S11321C0F325882371F08091612590916225FC01AB
S11321D0268989819A81FC018689281710F40E9436
S11321E0AF0D00000F900F90DF91CF910895CF9322
S11321F0DF9300D0CDB7DEB78A839B8319828A81AF
S11322009B81892BA1F08091FC25882331F060E229
S113221075E086E190E20E94E51A0E9455128A81D7
S11322209B8160E00E945B180E946212898389810D
S1132230882311F40E94AF0D00002396CDBFDEBFAA
S1132240DF91CF910895CF93DF93CDB7DEB72B976E
S1132250CDBFDEBF8A879B878A859B858A839B83C4
S11322608A819B81892B31F46CE475E086E190E2EC
S11322700E94E51A80916125909162252A813B8113
S11322802817390711F4198252C00FB6F8940F9227
S11322908A819B81FC01828593858C839D838091B7
S11322A0CF259091D0258E839F838091D1259091C5
S11322B0D225888799870F900FBE2C813D818E810E
S11322C09F812817390739F02C813D8188859985AC
S11322D02817390719F482E0898329C08C819D81EC
S11322E0865E9542B1F48A819B81FC01848995893B
S11322F0892B61F48A819B81FC0187A5813019F4C3
S113230082E0898314C083E0898311C082E08983D9
S11323100EC08C819D818C5D954221F08C819D81C4
S1132320892B19F484E0898302C081E0898389813F
S11323302B96CDBFDEBFDF91CF910895CF93DF936E
S113234000D01F92CDB7DEB78B839C830FB6F89471
S11323500F928B819C81892B29F480916125909126
S1132360622502C08B819C8189839A8389819A81A9
S113237002960E94710B89819A81FC018489958956
S1132380892B29F089819A810C960E94710B89818D
S11323909A810296BC0186EE95E20E94B40A898174
S11323A09A81FC0187A5813021F489819A81FC01FD
S11323B017A60F900FBE8091F325882339F00FB62E
S11323C0F8940F920E942B180F900FBE80916125F4
S11323D09091622529813A8128173907F1F4809177
S11323E0F325882369F08091FC25882331F068EC7B
S11323F076E086E190E20E94E51A0E94AF0D0DC0DE
S11324009091E6258091EF25981729F41092612583
S11324101092622502C00E94BB1400002496CDBF16
S1132420DEBFDF91CF910895EF92FF920F93CF9388
S1132430DF931F92CDB7DEB70F2EFAEFEF2EF5E242
S1132440FF2EF02D00E020E030E040E051E06AE2B1
S113245070E285E196E10E94140F898389818130BD
S113246099F4F8948FEF9FEF8093F8259093F925D2
S113247081E08093F3251092F0251092F1250E94BB
S1132480AB0E0E947A0D09C089818F3F31F467E059
S113249078E086E190E20E94E51A00000F90DF9157
S11324A0CF910F91FF90EF900895CF93DF93CDB725
S11324B0DEB78091FC258F5F8093FC250000DF91BF
S11324C0CF910895CF93DF9300D01F92CDB7DEB79D
S11324D019821A821B828091FC25882331F46CE6D0
S11324E078E086E190E20E94E51A0FB6F8940F9224
S11324F08091FC2581508093FC258091FC258823C4
S113250009F077C08091EF25882309F472C049C08F
S11325108091D8259091D925FC0186819781898362
S11325209A8389819A810C960E94710B89819A8180
S113253002960E94710B89819A81FC01968980918F
S1132540F225891730F489819A81FC018689809368
S1132550F22589819A81AC014E5F5F4F89819A810E
S1132560FC018689282F30E0C901880F991F880F44
S1132570991F880F991F820F931F8D599A4DBA0185
S11325800E94B40A89819A81FC012689809161257F
S113259090916225FC018689281718F081E08093C8
S11325A0F5258091D325882309F0B2CF89819A81BA
S11325B0892B11F00E942B188091F4258C838C8137
S11325C0882379F00E94C613882319F081E0809350
S11325D0F5258C8181508C838C81882399F7109206
S11325E0F4258091F525882321F081E08B830E94D6
S11325F0AF0D0F900FBE8B812496CDBFDEBFDF9150
S1132600CF910895CF93DF93CDB7DEB72797CDBF92
S1132610DEBF8B839C836D834E835F8319828AE044
S11326208A830E9455128091EF259D81981708F4A2
S1132630A4C08A8181508A838A81282F30E0C9010D
S1132640880F991F880F991F880F991F820F931F56
S1132650BC016D597A4D8981882F90E082959295BD
S1132660907F9827807F98272B813C81820F931F2E
S113267041E00E944717982F8981890F89838A81B5
S11326808823B9F66091CF257091D0258981882F50
S113269090E082959295907F9827807F98272B8150
S11326A03C81820F931F42E00E944717982F898133
S11326B0890F89836091D1257091D2258981882FD2
S11326C090E082959295907F9827807F98272B8120
S11326D03C81820F931F42E00E944717982F898103
S11326E0890F89838981882F90E082959295907FC4
S11326F09827807F98272B813C81820F931F44E089
S11327006CED75E20E944717982F8981890F8983A0
S11327108981882F90E082959295907F9827807F79
S113272098272B813C81820F931F43E066EE75E26C
S11327300E944717982F8981890F89838E819F81F1
S1132740892BD9F080E098E0FC0180A191A19C0143
S113275040E050E08091052690910626A09107263E
S1132760B0910826820F931FA41FB51F2E813F81AD
S1132770F90180839183A283B3830E9462128981C9
S11327802796CDBFDEBFDF91CF910895CF93DF931E
S1132790CDB7DEB72997CDBFDEBF19828091FC2566
S11327A0882309F0D6C08091F0259091F1250196F7
S11327B08A839B838A819B818093F0259093F12562
S11327C08A819B81892B49F58091CF259091D025D1
S11327D0FC018081882331F066E67AE086E190E2AC
S11327E00E94E51A8091CF259091D0258C839D83FA
S11327F08091D1259091D2258093CF259093D02597
S11328008C819D818093D1259093D2258091F6254A
S11328108F5F8093F6250E942B188091F825909164
S1132820F9252A813B812817390708F478C080915B
S1132830CF259091D025FC018081882339F48FEF36
S11328409FEF8093F8259093F92569C08091CF2557
S11328509091D025FC0185819681FC018681978128
S11328608E839F838E819F81FC01828193818887DF
S113287099872A813B81888599852817390738F4F7
S1132880888599858093F8259093F92548C08E8191
S11328909F8102960E94710B8E819F81FC01848925
S11328A09589892B29F08E819F810C960E94710B4A
S11328B08E819F81FC0196898091F225891730F4DD
S11328C08E819F81FC0186898093F2258E819F8170
S11328D0AC014E5F5F4F8E819F81FC018689282F5A
S11328E030E0C901880F991F880F991F880F991F1D
S11328F0820F931F8D599A4DBA010E94B40A8E819A
S11329009F81FC0126898091612590916225FC01BB
S11329108689281708F48BCF81E0898388CF80913A
S1132920612590916225FC018689282F30E0C90138
S1132930880F991F880F991F880F991F820F931F63
S11329408D599A4DFC018081823040F081E0898369
S113295005C08091F4258F5F8093F4258091F5253F
S1132960882311F081E0898389812996CDBFDEBF58
S1132970DF91CF910895AF92BF92CF92DF92EF9201
S1132980FF920F931F93CF93DF93CDB7DEB72997B1
S1132990CDBFDEBF8091FC25882321F081E08093A8
S11329A0F52534C11092F52580E098E0FC0180A162
S11329B091A19C0140E050E080910526909106266B
S11329C0A0910726B0910826820F931FA41FB51F5C
S11329D08093012690930226A0930326B0930426A5
S11329E0209101263091022640910326509104261D
S11329F08091FD259091FE25A091FF25B0910026A0
S1132A0082179307A407B50750F56091612570916B
S1132A106225FB0127A130A541A552A5E09001261E
S1132A20F090022600910326109104268091FD2542
S1132A309091FE25A091FF25B091002657016801D1
S1132A40A81AB90ACA0ADB0AD601C501820F931F64
S1132A50A41FB51FFB0187A390A7A1A7B2A78091CC
S1132A60012690910226A0910326B091042680931A
S1132A70FD259093FE25A093FF25B0930026809119
S1132A80612590916225FC018789908D8A839B83BF
S1132A9085EA95EADC018C839D83AE83BF838A81BA
S1132AA09B81FC0120813181428153818C819D81F4
S1132AB0AE81BF81281739074A075B0799F58A81D8
S1132AC09B810496FC0120813181428153818C8158
S1132AD09D81AE81BF81281739074A075B0711F52D
S1132AE08A819B810896FC01208131814281538136
S1132AF08C819D81AE81BF81281739074A075B0706
S1132B0089F48A819B810C96FC0120813181428168
S1132B1053818C819D81AE81BF81281739074A0773
S1132B205B0771F080916125909162259C01275E7D
S1132B303F4F8091612590916225B9010E94D71978
S1132B408091F22589830CC08981882331F46CE853
S1132B507BE086E190E20E94E51A898181508983B5
S1132B608981282F30E0C901880F991F880F991F88
S1132B70880F991F820F931F8D599A4DFC018081F4
S1132B80882311F38981282F30E0C901880F991F08
S1132B90880F991F880F991F820F931F8D599A4D83
S1132BA08887998788859985FC0181819281FC01B8
S1132BB02281338188859985FC012183328388852C
S1132BC09985FC012181328188859985039628178E
S1132BD0390769F488859985FC0181819281FC011A
S1132BE02281338188859985FC01218332838885FC
S1132BF09985FC0181819281FC0186819781809372
S1132C0061259093622589818093F225000029969D
S1132C10CDBFDEBFDF91CF911F910F91FF90EF9059
S1132C20DF90CF90BF90AF900895CF93DF931F9222
S1132C301F92CDB7DEB789839A830E946A1680916A
S1132C406325823010F00E94AF0D0E94CF18F5CF9B
S1132C50CF93DF931F92CDB7DEB7198213C089815A
S1132C60282F30E0C901880F991F880F991F880FFA
S1132C70991F820F931F8D599A4D0E946A0A898168
S1132C808F5F898389818A3050F38DEB95E20E94AE
S1132C906A0A86EC95E20E946A0A83ED95E20E9434
S1132CA06A0A8CED95E20E946A0A86EE95E20E9419
S1132CB06A0A8DEB95E28093CF259093D02586EC1C
S1132CC095E28093D1259093D22500000F90DF9157
S1132CD0CF910895CF93DF931F921F92CDB7DEB7A4
S1132CE021C00FB6F8940F928091E1259091E225CE
S1132CF0FC018681978189839A8389819A810296CE
S1132D000E94710B8091EF2581508093EF25809173
S1132D10E52581508093E5250F900FBE89819A8126
S1132D200E9412188091E5258823D9F600000F909F
S1132D300F90DF91CF910895CF93DF93CDB7DEB796
S1132D402897CDBFDEBF8B839C836D837E834F83A7
S1132D5028878B819C81892B29F48091612590910E
S1132D60622502C08B819C8189839A838D819E8197
S1132D7029813A81FC012083318389819A819C01D4
S1132D80275E3F4F8D819E81FC012283338389819D
S1132D909A81FC0126898D819E81FC01268389818B
S1132DA09A81FC012789308D8D819E81FC012487C5
S1132DB0358789819A81FC0121A18D819E81FC0145
S1132DC0248389819A81FC0123A18D819E81FC0148
S1132DD0278389819A81FC0187A190A5A1A5B2A529
S1132DE02D813E81F90180879187A287B3878885E9
S1132DF0853039F1809161259091622529813A814C
S1132E002817390729F48D819E81FC01158222C07F
S1132E108D819E812885FC01258388858330D1F4AA
S1132E200E94551289819A81FC0184899589892B94
S1132E3029F08D819E8122E0FC0125830E9462128B
S1132E4009C089819A810E942311282F8D819E8136
S1132E50FC0125838F81882371F089819A81FC018B
S1132E608789908D0E94E7179C018D819E81FC01CA
S1132E702687378705C08D819E81FC0116861786BB
S1132E8000002896CDBFDEBFDF91CF910895CF9388
S1132E90DF93CDB7DEB72E97CDBFDEBF8A879B8782
S1132EA06C877D874E8719828C859D85FC01808186
S1132EB0882309F485C08C859D858A839B838A81B8
S1132EC09B81FC0181819281FC01228133818A8171
S1132ED09B81FC01218332838A819B81FC012181B6
S1132EE032818A819B8103962817390769F48A8184
S1132EF09B81FC0181819281FC01228133818A8141
S1132F009B81FC01218332838A819B81FC01818125
S1132F109281FC01868197818C839D838C859D851C
S1132F208E839F838E819F81FC0181819281FC012C
S1132F30228133818E819F81FC01218332838E81A2
S1132F409F81FC01218132818E819F810396281704
S1132F50390769F48E819F81FC0181819281FC0192
S1132F60228133818E819F81FC01218332838E8172
S1132F709F81FC0181819281FC01868197818887F0
S1132F8099878981882F90E082959295907F9827E0
S1132F90807F98272A853B85B901680F791F88852A
S1132FA099852E8541E00E949C1689818F5F8983D3
S1132FB0288539858C819D812817390709F0AECF82
S1132FC089812E96CDBFDEBFDF91CF910895CF9337
S1132FD0DF9300D000D0CDB7DEB78D839E831982F6
S1132FE01A821B821C8210C08D819E8101968D8362
S1132FF09E8389819A81AB81BC810196A11DB11DFB
S113300089839A83AB83BC838D819E81FC018081FB
S1133010853A51F389819A812696CDBFDEBFDF912F
S1133020CF910895CF93DF931F921F92CDB7DEB750
S113303089839A8389819A81FC018789908D0E9472
S1133040B90989819A810E94B90900000F900F90F3
S1133050DF91CF910895CF93DF931F921F92CDB745
S1133060DEB78091CF259091D025FC018081882303
S113307039F48FEF9FEF8093F8259093F92515C0CD
S11330808091CF259091D025FC0185819681FC010A
S11330908681978189839A8389819A81FC018281BF
S11330A093818093F8259093F92500000F900F9059
S11330B0DF91CF910895CF93DF93CDB7DEB72797F4
S11330C0CDBFDEBF8D839E836F838091F025909169
S11330D0F12589839A8380916125909162250296D6
S11330E00E94710B8D819E81019671F48F818823DA
S11330F059F080916125909162250296BC0186EE7B
S113310095E20E94B40A44C029813A818D819E814E
S1133110820F931F8B839C838091612590916225FC
S11331202B813C81FC01228333832B813C81898167
S11331309A812817390778F4809161259091622546
S11331409C012E5F3F4F8091D1259091D225B901EA
S11331500E94FF0A1DC080916125909162259C0107
S11331602E5F3F4F8091CF259091D025B9010E94C9
S1133170FF0A8091F8259091F9252B813C8128172D
S1133180390730F48B819C818093F8259093F9253D
S113319000002796CDBFDEBFDF91CF910895CF9376
S11331A0DF93CDB7DEB70000DF91CF910895CF93C1
S11331B0DF93CDB7DEB76C97CDBFDEBFF89489E55A
S11331C090E20E941B0280E096E020E8FC0121834B
S11331D080E096E020E8FC01258380E090E0A8EC04
S11331E0B2E489839A83AB83BC8320E030E04AEF66
S11331F055E469817A818B819C810E943523DC01AD
S1133200CB018B8B9C8BAD8BBE8B20E030E040E8F8
S11332105FE36B897C898D899E890E94D8218823EC
S11332202CF481E090E08F8B988F3FC020E03FEF3B
S11332304FE757E46B897C898D899E890E943023EE
S113324018164CF520E030E040E251E469817A81BF
S11332508B819C810E943523DC01CB01BC01CD0113
S11332600E944F22DC01CB018F8B988F0FC080E22C
S113327093E0898F9A8F898D9A8D0197F1F7898FC1
S11332809A8F8F89988D01978F8B988F8F89988DBE
S1133290892B69F714C06B897C898D899E890E946A
S11332A04F22DC01CB018F8B988F8F89988D8B8F68
S11332B09C8F8B8D9C8D0197F1F78B8F9C8F80E079
S11332C096E020E8FC01268380E090E0A8ECB2E4DC
S11332D08D839E83AF83B88720E030E04AEF55E4C6
S11332E06D817E818F8198850E943523DC01CB011D
S11332F089879A87AB87BC8720E030E040E85FE3AA
S113330069857A858B859C850E94D82188232CF435
S113331081E090E08D879E873FC020E03FEF4FE73C
S113332057E469857A858B859C850E94302318161D
S11333304CF520E030E040E251E46D817E818F81E4
S113334098850E943523DC01CB01BC01CD010E948C
S11333504F22DC01CB018D879E870FC080E293E072
S11333608F87988B8F8598890197F1F78F87988B32
S11333708D859E8501978D879E878D859E85892B5A
S113338069F714C069857A858B859C850E944F22D4
S1133390DC01CB018D879E878D859E85898B9A8BD9
S11333A089899A890197F1F7898B9A8B11CFCF93E9
S11333B0DF93CDB7DEB7A097CDBFDEBF8D8F9E8FD5
S11333C06F8F78A3F89480E096E020E8FC012183D5
S11333D08BE790E20E941B028F8D98A16AE070E057
S11333E00E942F0283E990E20E941B0280E096E093
S11333F020E8FC01258380E090E0AAEFB3E4898310
S11334009A83AB83BC8320E030E04AEF55E46981C2
S11334107A818B819C810E943523DC01CB018B8BCB
S11334209C8BAD8BBE8B20E030E040E85FE36B8982
S11334307C898D899E890E94D82188232CF481E07F
S113344090E08F8B988F3FC020E03FEF4FE757E429
S11334506B897C898D899E890E94302318164CF5CE
S113346020E030E040E251E469817A818B819C81E3
S11334700E943523DC01CB01BC01CD010E944F2207
S1133480DC01CB018F8B988F0FC080E293E0898F92
S11334909A8F898D9A8D0197F1F7898F9A8F8F89E9
S11334A0988D01978F8B988F8F89988D892B69F7C9
S11334B014C06B897C898D899E890E944F22DC010E
S11334C0CB018F8B988F8F89988D8B8F9C8F8B8D51
S11334D09C8D0197F1F78B8F9C8F80E096E020E81C
S11334E0FC01268380E090E0AAEFB3E48D839E8301
S11334F0AF83B88720E030E04AEF55E46D817E81E8
S11335008F8198850E943523DC01CB0189879A87B6
S1133510AB87BC8720E030E040E85FE369857A85CB
S11335208B859C850E94D82188232CF481E090E02F
S11335308D879E873FC020E03FEF4FE757E46985C2
S11335407A858B859C850E94302318164CF520E0E3
S113355030E040E251E46D817E818F8198850E9444
S11335603523DC01CB01BC01CD010E944F22DC01DB
S1133570CB018D879E870FC080E293E08F87988B65
S11335808F8598890197F1F78F87988B8D859E8514
S113359001978D879E878D859E85892B69F714C039
S11335A069857A858B859C850E944F22DC01CB013D
S11335B08D879E878D859E85898B9A8B89899A892B
S11335C00197F1F7898B9A8B11CFCF93DF93CDB706
S11335D0DEB7A097CDBFDEBF8D8F9E8F6F8F78A390
S11335E0F89480E096E020E8FC01218386E990E2EB
S11335F00E941B028D8D9E8D64E670E00E942F0256
S113360086EA90E20E941B028F8D98A10E947E029E
S113361083E990E20E941B0280E096E020E8FC012E
S1133620258380E090E0A8ECB2E489839A83AB839D
S1133630BC8320E030E04AEF55E469817A818B81D4
S11336409C810E943523DC01CB018B8B9C8BAD8B41
S1133650BE8B20E030E040E85FE36B897C898D8994
S11336609E890E94D82188232CF481E090E08F8BDE
S1133670988F3FC020E03FEF4FE757E46B897C8988
S11336808D899E890E94302318164CF520E030E085
S113369040E251E469817A818B819C810E943523C7
S11336A0DC01CB01BC01CD010E944F22DC01CB0126
S11336B08F8B988F0FC080E293E0898F9A8F898DCA
S11336C09A8D0197F1F7898F9A8F8F89988D019739
S11336D08F8B988F8F89988D892B69F714C06B898C
S11336E07C898D899E890E944F22DC01CB018F8BBE
S11336F0988F8F89988D8B8F9C8F8B8D9C8D019744
S1133700F1F78B8F9C8F80E096E020E8FC01268304
S113371080E090E0AAEFB3E48D839E83AF83B88703
S113372020E030E04AEF55E46D817E818F819885F9
S11337300E943523DC01CB0189879A87AB87BC873C
S113374020E030E040E85FE369857A858B859C85DD
S11337500E94D82188232CF481E090E08D879E87F5
S11337603FC020E03FEF4FE757E469857A858B85BA
S11337709C850E94302318164CF520E030E040E28E
S113378051E46D817E818F8198850E943523DC010F
S1133790CB01BC01CD010E944F22DC01CB018D87FE
S11337A09E870FC080E293E08F87988B8F859889DE
S11337B00197F1F78F87988B8D859E8501978D876B
S11337C09E878D859E85892B69F714C069857A85C6
S11337D08B859C850E944F22DC01CB018D879E87BF
S11337E08D859E85898B9A8B89899A890197F1F7B2
S11337F0898B9A8B11CFCF93DF93CDB7DEB72E97FA
S1133800CDBFDEBF80E090E40E94FE2880930926AD
S113381090930A268091092690910A26892B09F40F
S1133820FFCF0E94E4040E9457060E94FF040E94F6
S1133830F5010E9410030E94BE040E94ED0181E084
S11338400E94CB0480EA90E027E0FC012283789474
S113385080E090E0A0E2B1E489839A83AB83BC83E7
S113386020E030E04AEF55E469817A818B819C81C4
S11338700E943523DC01CB018D839E83AF83B887FF
S113388020E030E040E85FE36D817E818F819885A0
S11338900E94D82188232CF481E090E089879A87BC
S11338A03FC020E03FEF4FE757E46D817E818F8179
S11338B098850E94302318164CF520E030E040E251
S11338C051E469817A818B819C810E943523DC01DA
S11338D0CB01BC01CD010E944F22DC01CB018987C1
S11338E09A870FC080E293E08B879C878B859C85A9
S11338F00197F1F78B879C8789859A85019789873A
S11339009A8789859A85892B69F714C06D817E8190
S11339108F8198850E944F22DC01CB0189879A8789
S113392089859A858D879E878D859E850197F1F778
S11339308D879E870E942A1F0E94141280E090E0C7
S11339402E96CDBFDEBFDF91CF910895CF93DF9345
S1133950CDB7DEB72897CDBFDEBF8D839E836F833F
S113396078878D819E8189839A838F8198858B83C3
S11339709C8389819A81FC01248535858B819C8176
S1133980FC01848595852817390718F48FEF9FEF7C
S113399012C089819A81FC01248535858B819C81A3
S11339A0FC01848595858217930718F481E090E0E3
S11339B002C080E090E02896CDBFDEBFDF91CF91BA
S11339C00895CF93DF93CDB7DEB7C554D140CDBFB3
S11339D0DEBFCE01069640E050E064E10E9402138F
S11339E0882F90E08A839B836A817B81CE0106962F
S11339F026EA3CE140E150E00E94662A81EB90E235
S1133A000E94B62D8EEB90E20E94B62D80E090E0ED
S1133A10DC012B2F2F932A2F2F93292F2F938F9352
S1133A208BEC90E2892F8F938BEC90E28F930E9422
S1133A309C2D0F900F900F900F900F900F908FEF81
S1133A409FE0A0E0B0E02B2F2F932A2F2F93292F54
S1133A502F938F938AEE90E2892F8F938AEE90E2D0
S1133A608F930E949C2D0F900F900F900F900F90AA
S1133A700F9080E090E1A0E0B0E02B2F2F932A2F4D
S1133A802F93292F2F938F9387E091E2892F8F9380
S1133A9087E091E28F930E949C2D0F900F900F90DE
S1133AA00F900F900F908FEF9FE1A0E0B0E02B2FCD
S1133AB02F932A2F2F93292F2F938F9381E291E213
S1133AC0892F8F9381E291E28F930E949C2D0F9016
S1133AD00F900F900F900F900F9080E090E2A0E075
S1133AE0B0E02B2F2F932A2F2F93292F2F938F93CF
S1133AF089E391E2892F8F9389E391E28F930E9466
S1133B009C2D0F900F900F900F900F900F9080E0CE
S1133B1090E2892F8F9380E090E28F9381E591E288
S1133B20892F8F9381E591E28F930E949C2D0F90B2
S1133B300F900F900F9083E495E2292F2F938F938A
S1133B408AE691E2892F8F938AE691E28F930E940D
S1133B509C2D0F900F900F900F9084E495E2892F85
S1133B608F9384E495E28F9381E891E2892F8F9378
S1133B7081E891E28F930E949C2D0F900F900F90FB
S1133B800F9084E196E2292F2F938F9389E991E294
S1133B90892F8F9389E991E28F930E949C2D0F9036
S1133BA00F900F900F908091092690910A26292F4B
S1133BB02F938F938FEA91E2892F8F938FEA91E26B
S1133BC08F930E949C2D0F900F900F900F9019824D
S1133BD0CDC08981882F90E082959295907F982717
S1133BE0807F98279E012F5F3F4F820F931F079678
S1133BF0FC0180819181292F2F938F9388EC91E28E
S1133C00892F8F9388EC91E28F930E949C2D0F90C3
S1133C100F900F900F908981882F90E08295929554
S1133C20907F9827807F98279E012F5F3F4F820FB8
S1133C30931F4196FC0180819181292F2F938F93AB
S1133C4089ED91E2892F8F9389ED91E28F930E9400
S1133C509C2D0F900F900F900F908981882F90E0EA
S1133C6082959295907F9827807F98279E012F5F59
S1133C703F4F820F931F0596FC0180819181049729
S1133C80292F2F938F9380EF91E2892F8F9380EFC9
S1133C9091E28F930E949C2D0F900F900F900F90A4
S1133CA08981882F90E082959295907F9827807FD4
S1133CB098279E012F5F3F4F820F931F0596FC01AB
S1133CC080819181292F2F938F9389E092E2892F0C
S1133CD08F9389E092E28F930E949C2D0F900F9016
S1133CE00F900F908981882F90E082959295907F14
S1133CF09827807F98279E012F5F3F4F820F931F45
S1133D000596FC01808191810297FC01808191815B
S1133D1004978C839D838981882F90E08295929566
S1133D20907F9827807F98279E012F5F3F4F820FB7
S1133D30931F0596FC01808191819C018C819D815A
S1133D40820F931F0197292F2F938F9380E292E282
S1133D50892F8F9380E292E28F930E949C2D0F9083
S1133D600F900F900F9089818F5F89838981282F0D
S1133D7030E08A819B81281739070CF42ACF80917F
S1133D80092690910A268150904C292F2F938F93C6
S1133D9085E392E2892F8F9385E392E28F930E94C9
S1133DA09C2D0F900F900F900F9080910926909169
S1133DB00A26905C292F2F938F938CE492E2892F0B
S1133DC08F938CE492E28F930E949C2D0F900F901E
S1133DD00F900F908FEF9FE9A0E0B0E02B2F2F936F
S1133DE02A2F2F93292F2F938F938EE692E2892FD8
S1133DF08F938EE692E28F930E949C2D0F900F90EA
S1133E000F900F900F900F908FEF9FE9A0E0B0E01C
S1133E102B2F2F932A2F2F93292F2F938F9381E9C1
S1133E2092E2892F8F9381E992E28F930E949C2DD5
S1133E300F900F900F900F900F900F908EEB90E2D9
S1133E400E94B62D0000CB5BDE4FCDBFDEBFDF91FD
S1133E50CF910895EF92FF920F93CF93DF93CDB755
S1133E60DEB7E12CF12C04E020E030E040E054E047
S1133E7068EA72E28BEA9FE10E94140F0000DF916E
S1133E80CF910F91FF90EF900895CF93DF93CDB72B
S1133E90DEB72797CDBFDEBF8E839F8319821A8238
S1133EA081E090E08B839C831D828E819F81FC0145
S1133EB080818D3229F58FEF9FEF8B839C8381E086
S1133EC08D831EC089819A81880F991F9C01220FBE
S1133ED0331F220F331F280F391F8D81882F90E045
S1133EE04E815F81840F951FFC018081882F90E0B3
S1133EF0C097820F931F89839A838D818F5F8D83EF
S1133F008D81882F90E02E813F81820F931FFC01C9
S1133F108081882371F08D81882F90E02E813F81EC
S1133F20820F931FFC018081882F90E0C0970A972D
S1133F3048F229813A818B819C81289FA001299F85
S1133F40500D389F500D1124CA012796CDBFDEBFF6
S1133F50DF91CF9108950F931F93CF93DF93CDB744
S1133F60DEB7E897CDBFDEBF8FAB98AF19821A8258
S1133F708DEA92E20E94B62D84EE92E20E94B62D62
S1133F8080910F26909110260E94222D8C838C8183
S1133F908D3021F08C818A3009F03DC18A818823DB
S1133FA009F470C18A81882F90E09E01215F3F4F00
S1133FB0820F931FFC0110828BE293E20E94B62DC4
S1133FC0CE010F960E94451F8D839E838D819E8115
S1133FD0019649F48DE293E20E94B62D0E94E11C01
S1133FE000001B8267C18D819E81892B59F484E472
S1133FF093E20E94B62D0E94E11C8EE593E20E949A
S1134000B62D07C18D819E81181619060CF0F4C0D7
S11340108D819E81803197420CF0EEC00E94250A6A
S11340208F8398878981082F10E08D819E810E945B
S1134030CA08AC01C801880F991F9E012F5F3F4F2A
S1134040820F931F8296FC01408351838981882FBC
S113405090E0880F991F9E012F5F3F4F820F931F9F
S11340608296FC0180819181892B09F49DC00E9474
S1134070250A89879A872F81388589859A85A90198
S1134080481B590BCA018B879C878D819E812B8588
S11340903C85F901E81BF90BCF018D879E87898147
S11340A0882F90E02E812F932D812F93292F2F93EA
S11340B08F9387EA93E2892F8F9387EA93E28F9312
S11340C00E949C2D0F900F900F900F900F900F90C7
S11340D08981882F90E0880F991F9E012F5F3F4FA1
S11340E0820F931F8296FC0180819181292F2F9347
S11340F08F9388EC93E2892F8F9388EC93E28F93CC
S11341000E949C2D0F900F900F900F9088858F9395
S11341108F818F9381EE93E2892F8F9381EE93E2C7
S11341208F930E949C2D0F900F900F900F908A8573
S11341308F9389858F9384E094E2892F8F9384E011
S113414094E28F930E949C2D0F900F900F900F90EC
S11341508E858F938D858F938C858F938B858F938D
S113416085E294E2892F8F9385E294E28F930E94F3
S11341709C2D0F900F900F900F900F900F908981AE
S11341808F5F898389818A3050F08FE594E20E94A1
S1134190B62D198284EE92E20E94B62D3AC084EEC6
S11341A092E20E94B62D35C08E818F938D818F93BC
S11341B083E894E2892F8F9383E894E28F930E949B
S11341C09C2D0F900F900F900F900E94250A292F7D
S11341D02F938F938EEA94E2892F8F938EEA94E241
S11341E08F930E949C2D0F900F900F900F9084EE50
S11341F092E20E94B62D0DC08D819E8199232CF4EC
S113420088EC94E20E94B62D04C08EE095E20E94F0
S1134210B62D1A8237C08C81883019F08C818F3783
S113422091F48A81882371F18A8181508A838FE392
S113423095E2892F8F938FE395E28F930E949C2DB3
S11342400F900F901FC08C81882F90E0C0970A9721
S113425018F08C818D32B1F48A81833198F48A818B
S113426091E0980F9A83882F90E09E01215F3F4F41
S1134270820F931F2C81FC0120838C81882F90E076
S11342800E94B02D8AE090E00E94F71079CE8B81D5
S1134290882F90E0880F991F9E012F5F3F4F820F58
S11342A0931F8296FC01808191810E94B9098B81C0
S11342B08F5F8B839B818981981748F380E090E01E
S11342C00E949E110000E896CDBFDEBFDF91CF9122
S11342D01F910F9108955058BB27AA270E9483214C
S11342E00C94F6220E94E82238F00E94EF2220F07B
S11342F039F49F3F19F426F40C94E5220EF4E0956A
S1134300E7FB0C94DF22E92F0E94072358F3BA1726
S1134310620773078407950720F079F4A6F50C94D7
S113432029230EF4E0950B2EBA2FA02D0B01B90111
S113433090010C01CA01A0011124FF27591B99F017
S1134340593F50F4503E68F11A16F040A22F232F23
S1134350342F4427585FF3CF469537952795A79573
S1134360F0405395C9F77EF41F16BA0B620B730B1A
S1134370840BBAF09150A1F0FF0FBB1F661F771F8B
S1134380881FC2F70EC0BA0F621F731F841F48F440
S1134390879577956795B795F7959E3F08F0B0CFC9
S11343A09395880F08F09927EE0F979587950895B0
S11343B00E94BB2208F481E008950E94F1210C942C
S11343C0F6220E94EF2258F00E94E82240F029F4DD
S11343D05F3F29F00C94DF2251110C942A230C9492
S11343E0E5220E94072368F39923B1F3552391F33F
S11343F0951B550BBB27AA2762177307840738F050
S11344009F5F5F4F220F331F441FAA1FA9F335D0AC
S11344100E2E3AF0E0E832D091505040E695001C60
S1134420CAF72BD0FE2F29D0660F771F881FBB1F1A
S1134430261737074807AB07B0E809F0BB0B802DF8
S1134440BF01FF2793585F4F3AF09E3F510578F024
S11344500C94DF220C942A235F3FE4F3983ED4F3B8
S1134460869577956795B795F7959F5FC9F7880FF8
S1134470911D9695879597F90895E1E0660F771F4A
S1134480881FBB1F621773078407BA0720F0621BDB
S1134490730B840BBA0BEE1F88F7E09508950E9406
S11344A00F2388F09F5798F0B92F9927B751B0F090
S11344B0E1F0660F771F881F991F1AF0BA95C9F7A4
S11344C014C0B13091F00E942923B1E008950C94F6
S11344D02923672F782F8827B85F39F0B93FCCF3A9
S11344E0869577956795B395D9F73EF49095809521
S11344F0709561957F4F8F4F9F4F0895E89409C041
S113450097FB3EF490958095709561957F4F8F4F02
S11345109F4F9923A9F0F92F96E9BB279395F69518
S1134520879577956795B795F111F8CFFAF4BB0F96
S113453011F460FF1BC06F5F7F4F8F4F9F4F16C0FA
S1134540882311F096E911C0772321F09EE8872F84
S1134550762F05C0662371F096E8862F70E060E040
S11345602AF09A95660F771F881FDAF7880F9695B9
S1134570879597F90895990F0008550FAA0BE0E85D
S1134580FEEF16161706E807F907C0F01216130611
S1134590E407F50798F0621B730B840B950B39F451
S11345A00A2661F0232B242B252B21F408950A26B7
S11345B009F4A140A6958FEF811D811D089597F9F7
S11345C09F6780E870E060E008959FEF80EC0895B5
S11345D000240A94161617061806090608950024DE
S11345E00A9412161306140605060895092E039458
S11345F0000C11F4882352F0BB0F40F4BF2B11F4CC
S113460060FF04C06F5F7F4F8F4F9F4F089557FD2A
S11346109058440F551F59F05F3F71F04795880F2C
S113462097FB991F61F09F3F79F0879508951216C3
S113463013061406551FF2CF4695F1DF08C016166F
S113464017061806991FF1CF869571056105089420
S11346500895E894BB2766277727CB0197F9089537
S11346600E94BB2208F48FEF08950E9448230C9403
S1134670F6220E94E82238F00E94EF2220F09523CF
S113468011F00C94DF220C94E52211240C942A23BB
S11346900E94072370F3959FC1F3950F50E0551FB7
S11346A0629FF001729FBB27F00DB11D639FAA2783
S11346B0F00DB11DAA1F649F6627B00DA11D661FD2
S11346C0829F2227B00DA11D621F739FB00DA11DF3
S11346D0621F839FA00D611D221F749F3327A00DAD
S11346E0611D231F849F600D211D822F762F6A2F49
S11346F011249F5750409AF0F1F088234AF0EE0FAE
S1134700FF1FBB1F661F771F881F91505040A9F7DA
S11347109E3F510580F00C94DF220C942A235F3FC6
S1134720E4F3983ED4F3869577956795B795F79516
S1134730E7959F5FC1F7FE2B880F911D969587958E
S113474097F90895FA01EE0FFF1F30962105310500
S1134750A1F16115710561F48038BFE39B0749F14C
S113476068949038810561F08038BFEF9B0741F071
S113477099234AF5FF3FE1053105210519F1E89434
S11347800894E795D901AA2329F4AB2FBE2FF85F2B
S1134790D0F310C0FF5F70F4A695E0F7F73950F03E
S11347A019F0FF3A38F49F779F930DD00F9007FCD0
S11347B09058089546F00C94E52260E070E080E89B
S11347C09FE308954FE79F775F934F933F932F9312
S11347D00E949D242F913F914F915F910E94352318
S11347E00C94FA2329F416F00C94DF220C94292358
S11347F00C94E5220E940F23A8F39638A0F707F83B
S11348000F92E8942BE33AEA48EB5FE70E944B23CC
S11348100F920F920F924DB75EB70F920E94E5244C
S1134820ECEFF1E00E942C244F915F91EF91FF9106
S1134830E595EE1FFF1F49F0FE57E0684427EE0F91
S1134840441FFA95E1F74195550B0E945F240F90A0
S113485007FE0C9453240895DF93CF931F930F9373
S1134860FF92EF92DF927B018C01689406C0DA2EEE
S1134870EF010E944823FE01E894A591259135910A
S113488045915591A6F3EF010E948321FE01970102
S1134890A801DA9469F7DF90EF90FF900F911F91D0
S11348A0CF91DF9108959B01AC0160E070E080E856
S11348B09FE30C94DD210C94DF220C9419250E94B3
S11348C00F23D8F39923C9F3940F511DA3F39150E7
S11348D0504094F059F0882332F0660F771F881FF8
S11348E091505040C1F79E3F51052CF7880F911D00
S11348F09695879597F908955F3FACF0983E9CF0A4
S1134900BB27869577956795B79508F4B16093951D
S1134910C1F7BB0F58F711F460FFE8CF6F5F7F4F0B
S11349208F4F9F4FE3CF0C942A2316F00C94192534
S11349300C94E52268940C94DF220E940F23A8F3C0
S11349409923C1F3AEF3DF93CF931F930F93FF9299
S1134950C92FDD2788232AF02197660F771F881F28
S1134960DAF720E030E040E85FEB9FE3883920F09D
S1134970803E38F021968F770E946C21E4E2F2E0C9
S113498004C00E946C21E1E5F2E00E942C248B011A
S1134990BE01EC01FB2E6F5771097595771F880BCB
S11349A0990B0E94802228E132E741E35FE30E94F1
S11349B04823AF2D9801AE01FF900F911F91CF9125
S11349C0DF910E9483210C94F622FA01DC01AA0FE4
S11349D0BB1F9B01AC01BF5728F422273327442770
S11349E0507820C0B75190F4AB2F002446953795EA
S11349F02795011CA395D2F3002071F0220F331FD9
S1134A00441FB395DAF30ED00C946B216130710519
S1134A10A0E88A07B94630F49B01AC0166277727E2
S1134A2088279078309621F0208331834283538302
S1134A3008959F3F31F0915020F4879577956795BD
S1134A40B795880F911D9695879597F908952F929C
S1134A503F924F925F926F927F928F929F92AF920A
S1134A60BF92CF92DF92EF92FF920F931F93CF9357
S1134A70DF93CDB7DEB76097CDBFDEBF7C011B01EE
S1134A806A01FC0116821782838181FF44C39E015F
S1134A902F5F3F4F3901F7019381F10193FD859118
S1134AA093FF81911F01882309F431C3853239F4BE
S1134AB093FD859193FF81911F01853239F4B701EC
S1134AC090E00E94602D56016501E5CF10E0512C65
S1134AD0912CFFE1F915D8F08B3279F038F480325B
S1134AE079F08332A1F4F92DF0612EC08D3261F09A
S1134AF0803369F4292D21602DC0392D3260932E25
S1134B00892D8460982E2AC0E92DE86015C097FC91
S1134B102DC020ED280F2A3088F496FE06C03AE016
S1134B20139F200D1124122F19C08AE0589E200DC6
S1134B301124522EE92DE0629E2E10C08E3231F4E3
S1134B4096FCE5C2F92DF0649F2E08C08C3621F442
S1134B50292D2068922E02C0883641F4F10193FD7C
S1134B60859193FF81911F018111B3CF9BEB980F26
S1134B70933020F4992D9061805E07C09BE9980FD3
S1134B80933008F066C1992D9F7E96FF16E09F73BF
S1134B90992E853619F49064992E08C0863621F42E
S1134BA0392F3068932E02C01111115097FE07C09F
S1134BB01C3350F444244394410E27E00BC01830B6
S1134BC038F027E017E005C027E09CE3492E02C037
S1134BD0212F412C560184E0A80EB11CF6016081FE
S1134BE0718182819381042DA3010E942D2C6C017B
S1134BF0F981FC87F0FF02C0F3FF06C091FC06C0F8
S1134C0092FE06C000E205C00DE203C00BE201C043
S1134C1000E08C858C7019F001115AC29BC297FE7A
S1134C2010C04C0CFC85F4FF04C08A81813309F464
S1134C304A94141474F528E0241578F588E0482E75
S1134C402CC096FC2AC0812F90E08C159D059CF009
S1134C503CEFC3163FEFD30674F0892D8068982E7D
S1134C600AC0E2E0F0E0EC0FFD1FE10FF11D8081CE
S1134C70803319F411501111F4CF97FE0EC044245F
S1134C804394410E812F90E0C816D9062CF41C19C8
S1134C9004C04424439401C010E097FE06C01C14D1
S1134CA01D0434F4C601019605C085E090E002C0FD
S1134CB081E090E001110196112331F0212F30E0C1
S1134CC02F5F3F4F820F931F252D30E082179307EC
S1134CD014F4581A01C0512C892D897049F45520B7
S1134CE039F0B70180E290E00E94602D5A94F7CF2A
S1134CF0002329F0B701802F90E00E94602D93FCDF
S1134D0009C0552039F0B70180E390E00E94602D7E
S1134D105A94F7CF97FE4CC04601D7FE02C0812CAF
S1134D20912CC60188199909F301E80FF91FED8741
S1134D30FE879601241931092F87388B012F10E043
S1134D401195019511093FEF8316930629F4B701D4
S1134D508EE290E00E94602DC814D9044CF08F8537
S1134D6098898815990524F4ED85FE85818101C013
S1134D7080E3F1E08F1A91082D853E852F5F3F4F28
S1134D802D873E87801691062CF0B70190E00E9493
S1134D90602DD9CFC814D90441F49A81963320F4F4
S1134DA0953319F43C8534FF81E3B70190E04EC09C
S1134DB08A81813319F09C859F7E9C87B70190E09E
S1134DC00E94602D111105C094FC18C085E690E086
S1134DD017C0B7018EE290E00E94602D1E5F82E052
S1134DE001E0080FF301E80FF11D8081B70190E0A5
S1134DF00E94602D802F0113F3CFE6CF85E490E06D
S1134E00B7010E94602DD7FC06C0C114D10441F43F
S1134E10EC85E4FF05C0D194C194D1088DE201C0B2
S1134E208BE2B70190E00E94602D80E32AE0C21675
S1134E30D1042CF08F5FFAE0CF1AD108F7CFB70175
S1134E4090E00E94602DB701C601C0960E94602DBB
S1134E5054C1833631F0833779F0833509F056C075
S1134E6020C0560132E0A30EB11CF6018081898373
S1134E7001E010E0630112C05601F2E0AF0EB11C74
S1134E80F601C080D18096FE03C0612F70E002C09D
S1134E906FEF7FEFC6010E94172D8C01F92DFF776C
S1134EA014C0560122E0A20EB11CF601C080D180CC
S1134EB096FE03C0612F70E002C06FEF7FEFC60162
S1134EC00E94052D8C01F92DF0689F2EF3FD1AC068
S1134ED0852D90E008171907A8F4B70180E290E047
S1134EE00E94602D5A94F4CFF60197FC859197FEA9
S1134EF081916F01B70190E00E94602D51105A9486
S1134F00015011090115110579F7F7C0843611F024
S1134F10893661F5560197FE09C024E0A20EB11C42
S1134F20F60160817181828193810AC0F2E0AF0E43
S1134F30B11CF60160817181072E000C880B990B5E
S1134F40F92DFF769F2E97FF09C090958095709557
S1134F5061957F4F8F4F9F4FF0689F2E2AE030E07E
S1134F60A3010E94E62DC82EC6183FC0092D85371F
S1134F7021F40F7E2AE030E01DC0097F8F3691F0C6
S1134F8018F4883559F0C3C0803719F0883711F008
S1134F90BEC0006104FF09C0046007C094FE08C0DD
S1134FA0066006C028E030E005C020E130E002C021
S1134FB020E132E0560107FF09C084E0A80EB11CCD
S1134FC0F601608171818281938108C0F2E0AF0EA5
S1134FD0B11CF6016081718180E090E0A3010E9420
S1134FE0E62DC82EC6180F77902E96FE0BC0092DFD
S1134FF00E7FC11650F494FE0AC092FC08C0092D1D
S11350000E7E05C0DC2C092D03C0DC2C01C0D12E82
S113501004FF0DC0FE01EC0DF11D8081803311F4FD
S1135020097E09C002FF06C0D394D39404C0802F24
S1135030867809F0D39403FD11C000FF06C01C2D2F
S1135040D51480F4150D1D190DC0D51458F4B701ED
S113505080E290E00E94602DD394F7CFD51410F431
S11350605D1801C0512C04FF10C0B70180E390E02B
S11350700E94602D02FF17C001FD03C088E790E085
S113508002C088E590E0B7010CC0802F867859F003
S113509001FF02C08BE201C080E207FD8DE2B7018F
S11350A090E00E94602DC11638F4B70180E390E0CF
S11350B00E94602D1150F7CFCA94F301EC0DF11D3D
S11350C08081B70190E00E94602DC110F5CF15C01A
S11350D0F4E0F51560F584E0581A93FE1FC0011141
S11350E027C02C8523FF2AC002E912E0392D307134
S11350F0932EF8018491811124C0552009F4E4CC45
S1135100B70180E290E00E94602D5A94F6CFF70137
S11351108681978126C08FEF9FEF23C0B70180E27D
S113512090E00E94602D5A945110F8CFD8CF512CA2
S1135130B701802F90E00E94602DD3CF06E912E0E2
S1135140D5CF91108052B70190E00E94602D0F5F7F
S11351501F4FCFCF23E0251510F483E0BDCF512C92
S1135160C0CF6096CDBFDEBFDF91CF911F910F916D
S1135170FF90EF90DF90CF90BF90AF909F908F9073
S11351807F906F905F904F903F902F900895AA1B4F
S1135190BB1B51E107C0AA1FBB1FA617B70710F01E
S11351A0A61BB70B881F991F5A95A9F78095909550
S11351B0BC01CD01089597FB072E16F4009407D087
S11351C077FD09D00E94C72807FC05D03EF49095CE
S11351D081959F4F0895709561957F4F0895A29F83
S11351E0B001B39FC001A39F700D811D1124911DB7
S11351F0B29F700D811D1124911D08950F931F936B
S1135200CF93DF938230910510F482E090E0E09137
S11352100D26F0910E2620E030E0A0E0B0E03097BB
S113522019F1408151810281138148175907C8F04F
S11352308417950769F4109731F012960C9312971E
S113524013961C9327C000930D2610930E2622C09C
S11352502115310519F04217530718F49A01BD01BD
S1135260EF01DF01F801DBCF21153105F9F0281B2F
S1135270390B2430310580F48A819B8161157105D5
S113528021F0FB018283938304C080930D269093C5
S11352900E26FE01329644C0FE01E20FF31F8193F5
S11352A0919322503109288339833AC020910B26E7
S11352B030910C26232B41F42091022030910320BD
S11352C020930B2630930C2620910020309101204E
S11352D02115310541F42DB73EB74091042050917A
S11352E00520241B350BE0910B26F0910C26E217C8
S11352F0F307A0F42E1B3F0B2817390778F0AC01F5
S11353004E5F5F4F2417350748F04E0F5F1F4093E1
S11353100B2650930C268193919302C0E0E0F0E0B9
S1135320CF01DF91CF911F910F910895CF93DF9318
S1135330009709F481C0FC01329712821382A09174
S11353400D26B0910E26109781F420813181820FB1
S1135350931F20910B2630910C262817390751F5FD
S1135360E0930B26F0930C2667C0ED0120E030E0BB
S1135370CE17DF0740F44A815B819E014115510538
S1135380F1F0EA01F5CFC283D38340815181840FC8
S1135390951FC817D90759F488819981840F951FDF
S11353A00296808391838A819B81828393832115D2
S11353B0310529F4E0930D26F0930E263DC0E90152
S11353C0EA83FB8349915991C40FD51FEC17FD075C
S11353D061F480819181840F951F0296E90188838D
S11353E09983828193818A839B83E0E0F0E0129623
S11353F08D919C911397009719F0FD01DC01F7CF73
S11354008D919C9111979D012E5F3F4F820F931FA9
S113541020910B2630910C262817390769F4309710
S113542029F410920D2610920E2602C012821382C5
S1135430A0930B26B0930C26DF91CF910895DC0145
S1135440FB018C9190819D938193415051091416D5
S11354501506BCF30895CF92DF92EF92FF920F935B
S11354601F93CF93DF937C016B01D42FC52F890148
S1135470F90119956D2F7C2F97FF10C0C601F80113
S1135480199597FF02C0C60118C06D2F7C2FC70164
S1135490F801199597FD0FC0C7010FC0C601F801A7
S11354A01995181619067CF36D2F7C2FC701F80186
S11354B0199597FDF1CF8D2F9C2FDF91CF911F91DF
S11354C00F91FF90EF90DF90CF9008952F923F922D
S11354D04F925F926F927F928F929F92AF92BF9200
S11354E0CF92DF92EF92FF920F931F93CF93DF93AC
S11354F0CDB7DEB72A97CDBFDEBF8C017B014987CC
S11355005A87690129853A85200F311F29833A83F7
S113551037E0E316F10470F569807A8049855A858D
S1135520E49E5001E59EB00CF49EB00C1124A00E34
S1135530B11E6A147B0408F07AC173010E151F05AD
S113554028F089859A85680E791EF3CF4701E9858D
S1135550FA858E1A9F0AB701C401F6011995181627
S113556019067CF749855A85B401C7010E941F2A90
S11355707401E4CFC7019695879529853A85829F62
S11355805001839FB00C929FB00C1124A00EB11E49
S1135590A701415051094B835C8357E0E516F104A0
S11355A009F44CC08B819C81829F3001839F700CD5
S11355B0929F700C1124600E711E99E2E916F10499
S11355C0A8F1C70143E0969587954A95E1F7829F34
S11355D04001839F900C929F900C11241401220C83
S11355E0331CA801420D531DB801680D791D9601A5
S11355F0C8010E942B2A2C01A501480D591D919424
S1135600819491089601B501C501880D991D0E94E8
S11356102B2A5C01B301680D791D9601A301C30116
S1135620821993090E942B2A3C0101C0280196018A
S1135630A301B501C2010E942B2A5C0149855A8548
S1135640B501C8010E941F2A69807A802B813C81A0
S113565049855A85249FF001259FF00D349FF00D54
S11356601124ED83FE835F01A00EB11E460D571D6C
S11356704B835C832501130119821A828B809C80E1
S113568089859A85881A990AA814B90408F450C01F
S1135690B801C401F601199518161906C4F1892B2D
S11356A071F449855A85B401C1010E941F2A898574
S11356B09A85280E391EE1E0F0E0E983FA832B8114
S11356C03C8149855A85240F351F2B833C83D6CFD3
S11356D0B801C501F6011995950149855A85241B20
S11356E0350B2F83388797FD16C0892B71F44985B4
S11356F05A85B201C5010E941F2A29853A85421A9A
S1135700530A41E050E049835A83AF80B884A81417
S1135710B904F0F60DC049855A85B501C4010E944B
S11357201F2AAF80B88441E050E049835A83C7CF31
S113573089819A81892B09F44FC06D807E802985E7
S11357403A85620E731E600E711E7401E218F3082E
S1135750A101401B510BE416F5060CF4A701141625
S1135760150634F4B401641B750BC8010E941F2A8A
S1135770A2014A195B095A01A301441955098985F3
S11357809A85481B590BA416B50608F4A5011416EE
S1135790150634F4B301641B750BC4010E941F2A5F
S11357A0E985FA85EE15FF0548F4C701BF010E949B
S11357B0C7289601AF01C8010E94662A29853A8547
S11357C02A153B05A0F583010A191B09C501B90176
S11357D00E94C7287B0196CEE985FA85EE9E50018A
S11357E0EF9EB00CFE9EB00C1124A00EB11E6A14E4
S11357F07B04E8F473010E151F0528F089859A854A
S1135800680E791EF4CF4701E985FA858E1A9F0A3E
S1135810B701C401F6011995181619067CF74985D4
S11358205A85B401C7010E941F2A7401E4CF2A9645
S1135830CDBFDEBFDF91CF911F910F91FF90EF900D
S1135840DF90CF90BF90AF909F908F907F906F909C
S11358505F904F903F902F900895283008F027E0F4
S11358603327DA01990F311D87FD91600096610598
S1135870710539F432602E5F3D9330E32A95E1F7E8
S113588008959F3F30F080387105610509F03C5F51
S11358903C5F3D93913008F08068911DDF93CF9376
S11358A01F930F93FF92EF92192F987F9695E92FEC
S11358B096959695E90FFF27EC50FD4F99273327CE
S11358C0EE24FF24A701E70105900894079428F427
S11358D0360FE71EF81E491F511D660F771F881FDC
S11358E0991F0694A1F70590079428F4E70EF81E73
S11358F0491F561FC11D770F881F991F661F0694E5
S1135900A1F70590079428F4F80E491F561FC71FE6
S1135910D11D880F991F661F771F0694A1F7059064
S1135920079420F4490F561FC71FD81F990F661FED
S1135930771F881F0694A9F784911095177041F07A
S1135940D695C79557954795F794E7941A95C1F757
S1135950EAE9F2E068941590159135916591959175
S113596005907FE27395E118F10A430B560BC90BBE
S1135970D009C0F7E10CF11E431F561FC91FD01DEB
S11359807EF4703311F48A95E6CFE894015030F038
S1135990080F0AF40027021708F4202F2395022F7A
S11359A07A3328F079E37D932A95E9F710C07D9343
S11359B02A9589F6069497956795379517951794C0
S11359C0E118F10A430B560BC90BD00998F0239543
S11359D07E9173957A3308F070E37C932013B8F7C3
S11359E07E9170617D9330F0839571E37D9370E3D4
S11359F02A95E1F71124EF90FF900F911F91CF9119
S1135A00DF91992787FD90950895FC0105906150D9
S1135A1070400110D8F7809590958E0F9F1F0895C0
S1135A20DC0101C06D9341505040E0F70895FC0142
S1135A306150704001900110D8F7809590958E0FB9
S1135A409F1F0895CF93DF93EC012B8120FF33C078
S1135A5026FF0AC02F7B2B838E819F8101968E8324
S1135A609F838A8190E029C022FF0FC0E881F981D9
S1135A708081082E000C990B009719F420622B8367
S1135A801AC03196E883F9830EC0EA85FB8519951F
S1135A9097FF09C02B81019611F080E201C080E1DB
S1135AA0822B8B8308C02E813F812F5F3F4F2E8333
S1135AB03F83992702C08FEF9FEFDF91CF91089525
S1135AC00F931F93CF93DF93FB01238121FD03C029
S1135AD08FEF9FEF2CC022FF16C04681578124818F
S1135AE035814217530744F4A081B1819D012F5F92
S1135AF03F4F208331838C93268137812F5F3F4F23
S1135B002683378314C08B01EC01FB010084F185EB
S1135B10E02D1995892BE1F6D80116968D919C916B
S1135B201797019616968D939C931797CE01DF9144
S1135B30CF911F910F910895CF93DF93CDB7DEB727
S1135B40AE014A5F5F4FFA0161917191AF0180919B
S1135B501126909112260E942725DF91CF91089556
S1135B6060911126709112260C94602D0F931F934F
S1135B70CF93DF93E0911126F0911226238121FF28
S1135B801BC08C01D0E0C0E0F80181918F016091CD
S1135B90112670911226DB011896ED91FC9119974C
S1135BA0882331F01995892B79F3DFEFCFEFECCF10
S1135BB08AE01995892B19F08FEF9FEF02C08D2F82
S1135BC09C2FDF91CF911F910F910895FA01AA277D
S1135BD0283051F1203181F1E8946F936E7F6E5F2C
S1135BE07F4F8F4F9F4FAF4FB1E03ED0B4E03CD0DA
S1135BF0670F781F891F9A1FA11D680F791F8A1FBD
S1135C00911DA11D6A0F711D811D911DA11D20D023
S1135C1009F468943F912AE0269F11243019305DDD
S1135C203193DEF6CF010895462F4770405D4193CE
S1135C30B3E00FD0C9F7F6CF462F4F70405D4A331B
S1135C4018F0495D31FD4052419302D0A9F7EACFE3
S1135C50B4E0A6959795879577956795BA95C9F712
S1135C6000976105710508959B01AC010A2E069405
S1135C705795479537952795BA95C9F7620F731FBE
S10F5C80841F951FA01D0895F894FFCF09
S1135C8C00001526200000000003000000008B0813
S1135C9CB0080000FF3F2E2E2F4672656552544FFC
S1135CAC532F7461736B732E630049444C45000984
S1135CBC25630925750925750925750D0A0009251E
S1135CCC6C750909256C7525250D0A0009256C755B
S1135CDC09093C3125250D0A004552524F523A20F0
