S01800004C696E65626F7454656D706C617465312E73726563D2
S11300000C94C4010C94E5010C9469020C94C6028E
S11300100C94E5010C94E5010C94E5010C94E501C4
S11300200C94E5010C94E5010C94E5010C94E501B4
S11300300C94E5010C94E5010C94E5010C94E501A4
S11300400C94E5010C94E5010C94E5010C94E50194
S11300500C94E5010C94E5010C94E5010C94E50184
S11300600C94E5010C94E5010C94E5010C94E50174
S11300700C94E5010C94E5010C94E5010C94E50164
S11300800C94E5010C94E5010C94E5010C94E50154
S11300900C94E5010C94E5010C94E5010C94E50144
S11300A00C94E5010C94E5010C94E5010C942703F0
S11300B00C948C030C94E5010C94E2050C94E5017A
S11300C00C94E5010C94E5010C94E5010C94E50114
S11300D00C94E5010C94E5010C94E5010C94E50104
S11300E00C94E5010C94E5010C94E5010C94E501F4
S11300F00C94E5010C94E5010C94E5010C94E501E4
S11301000C94E5010C94E5010C94E5010C94E501D3
S11301100C94E5010C94E5010C94E5010C94E501C3
S11301200C94E5010C94E5010C94E5010C94E501B3
S11301300C94E5010C94E5010C94E5010C94E501A3
S11301400C94E5010C94E5010C94E5010C94E50193
S11301500C94E5010C94E5010C94E5010C94E50183
S11301600C94E5010C94E5010C94E5010C94E50173
S11301700C94E5010C94E5010C94E5010C94E50163
S11301800C94E5010C94E5010C94E5010C94E50153
S11301900C94E5010C94E5010C94E5010C94E50143
S11301A00C94E5010C94E5010C94E5010C94E50133
S11301B00C94E5010C94E5010C94E5010C94E50123
S11301C00C94E5010C94E5010C94E5010C94E50113
S11301D00C94E5010C94E5010C94E5010C94E50103
S11301E00C94E5010C94E5010C94E5010C94E501F3
S11301F00C94E5010C94E5010C94E5010763423687
S1130200B79BD8A71A39685618AEBAAB558C1D3CA3
S1130210B7CC5763BD6DEDFD753EF6177231BF0067
S11302200000803F08000000BE922449123EABAAA1
S1130230AA2ABECDCCCC4C3E00000080BEABAAAAFC
S1130240AA3E00000000BF000000803F0000000044
S113025000084178D3BB4387D1133D190E3CC3BD7D
S11302604282AD2B3E68EC8276BED98FE1A93E4C2A
S113027080EFFFBE01C4FF7F3F00000000000C942C
S113028099080C9474086E616E00696E66000040F3
S11302907A10F35A00A0724E18090010A5D4E80091
S11302A000E87648170000E40B54020000CA9A3BA9
S11302B0000000E1F505000080969800000040422F
S11302C00F000000A08601000000102700000000BD
S11302D0E803000000006400000000000A000000C1
S11302E000000100000000002C76D888DC674F086D
S11302F023DFC1DFAE59E1B1B796E5E3E453C63A73
S1130300E651997696E8E6C28426EB898C9B62EDE9
S1130310407C6FFCEFBC9C9F40F2BAA56FA5F490A3
S1130320055A2AF75C936B6CF9676DC11BFCE0E41A
S11303300D47FEF520E6B500D0ED902E0300943570
S113034077050080841E080000204E0A000000C8C3
S11303500C333333330F986E12831141EF8D211414
S1130360893BE65516CFFEE6DB18D1844B381BF7E4
S11303707C1D901DA4BBE424203284725E22810083
S1130380C9F124ECA1E53D2711241FBECFEFCDBF59
S1130390DFE9DEBF00E00CBF10E2A0E0B0E2E2E47F
S11303A0F5E200E00BBF02C007900D92A834B1073C
S11303B0D9F720E2A8E4B0E201C01D92A038B20748
S11303C0E1F70E94D0080C949F120C940000CF9384
S11303D0DF93CDB7DEB70000DF91CF910895CF93BF
S11303E0DF93CDB7DEB780E296E028EFFC012283ED
S11303F080E296E028E5FC01238B80E296E028E584
S1130400FC01248B80E296E028E5FC01258B80E248
S113041096E028E5FC01268B80E296E028E5FC01C5
S1130420278B0000DF91CF910895CF93DF93CDB751
S1130430DEB780E296E027E0FC01218380E096E0CD
S113044020E8FC01218380E296E020E4FC01208B7B
S113045080E296E020E4FC01218B80E296E020E437
S1130460FC01228B80E096E020E4FC01278B000055
S1130470DF91CF910895CF93DF931F92CDB7DEB76D
S1130480898380E296E020E236E0F9012481322F6C
S1130490387F29812770232BFC01248380E096E098
S11304A020E036E0F9012481422F4F772981222F61
S11304B030E02870332722953295307F3227207F11
S11304C03227242BFC01248300000F90DF91CF916D
S11304D008951F920F9200903F000F9211240090F4
S11304E03B000F922F933F938F939F93EF93FF9330
S11304F0CF93DF931F92CDB7DEB780E496E0FC0183
S1130500808589838981882F90E080749927892B3D
S113051099F0898188231CF48FEF9FEF02C081E05A
S113052090E02091482030914920820F931F8093BE
S113053048209093492012C0898188231CF481E0CB
S113054090E002C08FEF9FEF209148203091492026
S1130550820F931F809348209093492080E496E073
S113056021E0FC01248700000F90DF91CF91FF91DF
S1130570EF919F918F913F912F910F9000923B00AB
S11305800F9000923F000F901F9018951F920F92AA
S113059000903F000F92112400903B000F922F9384
S11305A03F938F939F93EF93FF93CF93DF931F9288
S11305B0CDB7DEB780E496E0FC018085898389812C
S11305C08823BCF48981882F90E080749927892B33
S11305D019F081E090E002C08FEF9FEF2091482056
S11305E030914920820F931F809348209093492093
S11305F016C08981882F90E080749927892B19F07F
S11306008FEF9FEF02C081E090E02091482030916D
S11306104920820F931F809348209093492080E4BF
S113062096E022E0FC01248700000F90DF91CF9137
S1130630FF91EF919F918F913F912F910F90009295
S11306403B000F9000923F000F901F9018951F924F
S11306500F9200903F000F92112400903B000F92E4
S11306602F933F938F939F93EF93FF93CF93DF93B6
S11306701F92CDB7DEB780E896E0FC0180858983C0
S11306808981882F90E080719927892BB9F089811D
S1130690882F90E080729927892B19F08FEF9FEFB4
S11306A002C081E090E020914A2030914B20820FDB
S11306B0931F80934A2090934B2016C08981882FE2
S11306C090E080729927892B19F081E090E002C0B4
S11306D08FEF9FEF20914A2030914B20820F931F80
S11306E080934A2090934B2080E896E021E0FC011F
S11306F0248700000F90DF91CF91FF91EF919F919C
S11307008F913F912F910F9000923B000F90009298
S11307103F000F901F9018951F920F9200903F007A
S11307200F92112400903B000F922F933F938F93CD
S11307309F93EF93FF93CF93DF931F92CDB7DEB7D1
S113074080E896E0FC01808589838981882F90E088
S113075080729927892BB9F08981882F90E0807164
S11307609927892B19F081E090E002C08FEF9FEF69
S113077020914A2030914B20820F931F80934A206E
S113078090934B2016C08981882F90E0807199271F
S1130790892B19F08FEF9FEF02C081E090E0209148
S11307A04A2030914B20820F931F80934A209093CC
S11307B04B2080E896E022E0FC01248700000F90A3
S11307C0DF91CF91FF91EF919F918F913F912F9165
S11307D00F9000923B000F9000923F000F901F90EB
S11307E01895CF93DF93CDB7DEB780EA90E020EA87
S11307F030E0F90122812260FC01228380EA96E044
S113080020EA36E0F90120812F61FC01208380EA8F
S113081096E0FC01108A80EA96E0FC01118A80EAE5
S113082096E0FC01128A80EA96E0FC01138A80EAD1
S113083096E028E1FC01248B80EA96E020EA36E089
S1130840F90124812061FC01248380E09BE023EFF3
S1130850FC01218380E09BE0FC01138280E09BE0AB
S1130860FC01148280E09BE02FE73CE0FC0126A31E
S113087037A380E09BE021E0FC01208380E496E044
S113088020E436E0F90120812F73FC01208380E409
S113089096E0FC01168A80E496E0FC01178A80E465
S11308A096E023E0FC01248780E496E020E436E02F
S11308B0F90122852064FC01228780E496E020E48B
S11308C036E0F90123852068FC01238780E496E063
S11308D020E436E0F9012185207F2A60FC0121878C
S11308E080E896E020E836E0F90120812F7CFC01C5
S11308F0208380E896E0FC01148A80E896E0FC01FD
S1130900158A80E896E023E0FC01248780E896E0DD
S113091020E836E0F90122852061FC01228780E885
S113092096E020E836E0F90123852062FC01238764
S113093080E896E020E836E0F9012185207F2A60EE
S1130940FC01218778940000DF91CF910895CF9323
S1130950DF93CDB7DEB780E496E020E2FC0121838B
S11309600000DF91CF910895CF93DF931F92CDB70D
S1130970DEB789838981882331F080E496E020E220
S1130980FC01258305C080E496E020E2FC01268377
S113099000000F90DF91CF9108958BEC809352006B
S11309A088E0809350008091510083FFFCCF82EC5B
S11309B08093550088E1809350008091510084FF1A
S11309C0FCCF88ED84BF84E08093400080E00895EC
S11309D0CF93DF93CDB7DEB71092552080E896E031
S11309E028E1FC01208B80E896E028E1FC01218BC2
S11309F080EA94E028E7FC01218380EA94E023E282
S1130A00FC01258380EA94E021E0FC0124830000BA
S1130A10DF91CF910895CF93DF931F92CDB7DEB7C7
S1130A2080EA94E0FC01848189838981882F90E0A5
S1130A3084709927892B21F084E08093562003C089
S1130A4083E08093562080EA94E029812860FC01A9
S1130A5024831092552000000F90DF91CF910895C8
S1130A60CF93DF9300D01F92CDB7DEB78091512092
S1130A708983809152208A8380EA94E0FC018481F6
S1130A80882F90E080719927892B59F080EA94E0AF
S1130A9023E0FC01238385E08093562010925520A7
S1130AA034C09091532089819817C0F420914D202F
S1130AB030914E2080915320882F90E0820F931F15
S1130AC0FC0180818B8380EA94E02B81FC012783E5
S1130AD0809153208F5F8093532017C090915420AE
S1130AE08A81981750F480914C2081608C8380EA2D
S1130AF094E02C81FC01268308C080EA94E023E082
S1130B00FC01238381E00E94D20500002496CDBF1E
S1130B10DEBFDF91CF910895CF93DF931F921F9291
S1130B20CDB7DEB7809154208032C0F480EA94E0DF
S1130B30FC018781898320914F203091502080913E
S1130B405420882F90E0820F931F2981FC01208379
S1130B50809154208F5F8093542008C080EA94E0F1
S1130B6023E0FC01238382E00E94D205809152207D
S1130B708A83909154208A81981730F480EA94E013
S1130B8022E0FC01238308C080EA94E027E0FC0112
S1130B90238381E00E94D20500000F900F90DF9123
S1130BA0CF910895CF93DF931F92CDB7DEB789839A
S1130BB08981809356201092552000000F90DF9178
S1130BC0CF9108951F920F9200903F000F9211242D
S1130BD000903B000F922F933F934F935F936F933B
S1130BE07F938F939F93AF93BF93EF93FF93CF9391
S1130BF0DF931F92CDB7DEB780EA94E0FC018481D5
S1130C0089838981882F90E088709927892B39F40A
S1130C108981882F90E084709927892B19F00E948C
S1130C200B0513C08981882F90E080749927892B44
S1130C3019F00E94300509C0898188231CF40E94A0
S1130C408C0503C086E00E94D205809155200000E7
S1130C500F90DF91CF91FF91EF91BF91AF919F9151
S1130C608F917F916F915F914F913F912F910F9051
S1130C7000923B000F9000923F000F901F90189538
S1130C80CF93DF93CDB7DEB72B97CDBFDEBF80E820
S1130C9096E028E0FC01218380E896E024E0FC0152
S1130CA0228380EA9AE0FC01138280EA9AE028E138
S1130CB0FC01248380EA9AE023E0FC01258340E0E0
S1130CC052EC61E070E0CE0101960E948E0680EA4B
S1130CD09AE02A813B81FC01268380EA9AE02981FB
S1130CE0422F4295407F2A813B81232F33272F7047
S1130CF0242BFC01278380E090E280937C20909356
S1130D007D2080E090E280937A2090937B20000005
S1130D102B96CDBFDEBFDF91CF910895CF92DF92A6
S1130D20EF92FF92CF93DF93CDB7DEB7E097CDBFBD
S1130D30DEBF8BA79CA74DA75EA76FA778AB88E201
S1130D409BE6AEE6BEE48FA398A7A9A7BAA788E25C
S1130D509BE6AEE6BEE489839A83AB83BC8389EFCA
S1130D608D83A8C18D81082E000C990BAA0BBB0B97
S1130D70BC01CD010E94B30ADC01CB019C01AD0191
S1130D8060E070E080E090E40E94D50BDC01CB01D0
S1130D908C879D87AE87BF878D8188230CF494C090
S1130DA020E030E040E851E46C857D858E859F85A8
S1130DB00E94680BDC01CB016C017D016DA57EA551
S1130DC08FA598A90E94B10ADC01CB019C01AD0159
S1130DD0C701B6010E94680BDC01CB019C01AD0187
S1130DE060E074E284EF9BE40E94100ADC01CB0112
S1130DF020E030E040E85FE3BC01CD010E949E09A1
S1130E00DC01CB01888B998BAA8BBB8B20E030E073
S1130E10A901688979898A899B890E940B0A882398
S1130E200CF442C120E030EF4FE755E4688979893A
S1130E308A899B890E94630B18160CF435C120E043
S1130E4030E040E05FE3688979898A899B890E9460
S1130E509F09DC01CB01BC01CD010E94820ADC01A7
S1130E60CB018E839F8320E030E040E851E46C8521
S1130E707D858E859F850E94680BDC01CB016C010A
S1130E807D018E819F810196CC01A0E0B0E0BC0180
S1130E90CD010E94B10ADC01CB019C01AD01C70167
S1130EA0B6010E94680BDC01CB019C01AD0160E03E
S1130EB074E284EF9BE40E94100ADC01CB01888772
S1130EC09987AA87BB8798C06DA57EA58FA598A989
S1130ED00E94B10ADC01CB0120E030E040E851E49B
S1130EE0BC01CD010E94680BDC01CB019C01AD016A
S1130EF060E074E284EF9BE40E94100ADC01CB0101
S1130F0020E030E040E85FE3BC01CD010E949E098F
S1130F10DC01CB012C853D854E855F85BC01CD016F
S1130F200E94100ADC01CB018C8B9D8BAE8BBF8B96
S1130F3020E030E0A9016C897D898E899F890E9417
S1130F400B0A88230CF4B2C020E030EF4FE755E4DD
S1130F506C897D898E899F890E94630B18160CF415
S1130F60A5C020E030E040E05FE36C897D898E8994
S1130F709F890E949F09DC01CB01BC01CD010E9425
S1130F80820ADC01CB018E839F838E819F81CC01F9
S1130F90A0E0B0E0BC01CD010E94B10ADC01CB01AC
S1130FA02C853D854E855F85BC01CD010E94680B73
S1130FB0DC01CB0120E030E040E85FE3BC01CD017F
S1130FC00E949F09DC01CB0120E030E040E851E4BD
S1130FD0BC01CD010E94680BDC01CB019C01AD0179
S1130FE060E074E284EF9BE40E94100ADC01CB0110
S1130FF088879987AA87BB876DA57EA58FA598A9A1
S11310000E94B10ADC01CB019C01AD0168857985A0
S11310108A859B850E949E09DC01CB01BF77888F5E
S1131020998FAA8FBB8F6DA57EA58FA598A90E94C5
S1131030B10ADC01CB019C01AD01688D798D8A8DEB
S11310409B8D0E94100ADC01CB018C8F9D8FAE8F8B
S1131050BF8F29813A814B815C81688D798D8A8D1E
S11310609B8D0E940B0A882314F5888D998DAA8D77
S1131070BB8D89839A83AB83BC838D8188A38E8146
S11310809F8189A39AA3888D998DAA8DBB8D8BA3EB
S11310909CA3ADA3BEA38C8D9D8DAE8DBF8D8FA360
S11310A098A7A9A7BAA703C0000001C000008D81BA
S11310B08F5F8D838D8188300CF454CE8BA59CA5D5
S11310C02BE0FE01B096DC0101900D922A95E1F728
S11310D08BA59CA5E096CDBFDEBFDF91CF91FF909D
S11310E0EF90DF90CF900895CF93DF9300D0CDB7EA
S11310F0DEB789836A837B8380EA9AE02981FC01D5
S11311002083000080EA9AE0FC018181882F90E02E
S113111080749927892BB1F380EA9AE020E4FC01DA
S1131120218380E090E02396CDBFDEBFDF91CF9195
S11311300895CF93DF931F921F92CDB7DEB78983B3
S11311409A83000080EA9AE0FC0181818823D4F725
S113115080EA9AE0FC018081882F90E00F900F9044
S1131160DF91CF910895CF93DF93CDB7DEB780E4BD
S113117098E0FC01118280E498E028E03DE3FC0162
S113118026A337A380E498E021E0FC01268380E4D1
S113119098E027E0FC0120830000DF91CF910895BF
S11311A0CF93DF93CDB7DEB72F97CDBFDEBF0E94BD
S11311B0CD040E9440060E94A70481E00E94B4046A
S11311C00E94E8040E94EF010E9415020E94E701B8
S11311D00E94F1030E94B30880EA90E021E0FC0140
S11311E02283789488E0898389810E943B0280E08D
S11311F090E0AAEFB3E48A839B83AC83BD8320E0B1
S113120030E04AEF55E46A817B818C819D810E94A4
S1131210680BDC01CB018E839F83A887B98720E00C
S113122030E040E85FE36E817F81888599850E9484
S11312300B0A88232CF481E090E08A879B873FC0C7
S113124020E03FEF4FE757E46E817F8188859985E1
S11312500E94630B18164CF520E030E040E251E4A4
S11312606A817B818C819D810E94680BDC01CB01AA
S1131270BC01CD010E94820ADC01CB018A879B87D5
S11312800FC080E293E08C879D878C859D850197B4
S1131290F1F78C879D878A859B8501978A879B8731
S11312A08A859B85892B69F714C06E817F81888527
S11312B099850E94820ADC01CB018A879B878A85F3
S11312C09B858E879F878E859F850197F1F78E87F3
S11312D09F878981883019F481E0898303C08981DB
S11312E0880F89836EE070E288E590E20E94DD1148
S11312F0892B21F481E08093572076CF6EE170E250
S113130088E590E20E94DD11892B19F41092572090
S11313106BCF88E590E2892F8F9388E590E28F93D5
S11313208FE290E2892F8F938FE290E28F930E9455
S11313302D120F900F900F900F9056CF5058BB273F
S1131340AA270E94B6090C94290B0E941B0B38F0A3
S11313500E94220B20F039F49F3F19F426F40C94D8
S1131360180B0EF4E095E7FB0C94120BE92F0E9486
S11313703A0B58F3BA17620773078407950720F0EE
S113138079F4A6F50C945C0B0EF4E0950B2EBA2FB1
S1131390A02D0B01B90190010C01CA01A001112477
S11313A0FF27591B99F0593F50F4503E68F11A1623
S11313B0F040A22F232F342F4427585FF3CF4695B4
S11313C037952795A795F0405395C9F77EF41F16D6
S11313D0BA0B620B730B840BBAF09150A1F0FF0FA0
S11313E0BB1F661F771F881FC2F70EC0BA0F621F8C
S11313F0731F841F48F4879577956795B795F7957C
S11314009E3F08F0B0CF9395880F08F09927EE0F10
S11314109795879508950E94EE0A08F481E008954F
S11314200E94240A0C94290B0E94220B58F00E945B
S11314301B0B40F029F45F3F29F00C94120B51115F
S11314400C945D0B0C94180B0E943A0B68F39923CF
S1131450B1F3552391F3951B550BBB27AA276217AC
S11314607307840738F09F5F5F4F220F331F441FB9
S1131470AA1FA9F335D00E2E3AF0E0E832D09150ED
S11314805040E695001CCAF72BD0FE2F29D0660FDA
S1131490771F881FBB1F261737074807AB07B0E81D
S11314A009F0BB0B802DBF01FF2793585F4F3AF023
S11314B09E3F510578F00C94120B0C945D0B5F3F2A
S11314C0E4F3983ED4F3869577956795B795F795A9
S11314D09F5FC9F7880F911D9695879597F9089591
S11314E0E1E0660F771F881FBB1F6217730784072D
S11314F0BA0720F0621B730B840BBA0BEE1F88F73C
S1131500E09508950E94420B88F09F5798F0B92FF8
S11315109927B751B0F0E1F0660F771F881F991F24
S11315201AF0BA95C9F714C0B13091F00E945C0B5F
S1131530B1E008950C945C0B672F782F8827B85F6F
S113154039F0B93FCCF3869577956795B395D9F77C
S11315503EF490958095709561957F4F8F4F9F4F86
S11315600895E89409C097FB3EF490958095709592
S113157061957F4F8F4F9F4F9923A9F0F92F96E9DB
S1131580BB279395F695879577956795B795F11150
S1131590F8CFFAF4BB0F11F460FF1BC06F5F7F4FED
S11315A08F4F9F4F16C0882311F096E911C07723FF
S11315B021F09EE8872F762F05C0662371F096E808
S11315C0862F70E060E02AF09A95660F771F881FD7
S11315D0DAF7880F9695879597F90895990F00087B
S11315E0550FAA0BE0E8FEEF16161706E807F907F1
S11315F0C0F012161306E407F50798F0621B730B8C
S1131600840B950B39F40A2661F0232B242B252B0C
S113161021F408950A2609F4A140A6958FEF811DAF
S1131620811D089597F99F6780E870E060E0089550
S11316309FEF80EC089500240A94161617061806E6
S11316400906089500240A941216130614060506C2
S11316500895092E0394000C11F4882352F0BB0F53
S113166040F4BF2B11F460FF04C06F5F7F4F8F4FB6
S11316709F4F089557FD9058440F551F59F05F3FF1
S113168071F04795880F97FB991F61F09F3F79F0A0
S113169087950895121613061406551FF2CF469522
S11316A0F1DF08C0161617061806991FF1CF8695A4
S11316B07105610508940895E894BB276627772788
S11316C0CB0197F908950E94EE0A08F48FEF08956C
S11316D00E947B0B0C94290B0E941B0B38F00E9478
S11316E0220B20F0952311F00C94120B0C94180B80
S11316F011240C945D0B0E943A0B70F3959FC1F377
S1131700950F50E0551F629FF001729FBB27F00DAB
S1131710B11D639FAA27F00DB11DAA1F649F662700
S1131720B00DA11D661F829F2227B00DA11D621F4F
S1131730739FB00DA11D621F839FA00D611D221F09
S1131740749F3327A00D611D231F849F600D211DED
S1131750822F762F6A2F11249F5750409AF0F1F070
S113176088234AF0EE0FFF1FBB1F661F771F881FD9
S113177091505040A9F79E3F510580F00C94120BF4
S11317800C945D0B5F3FE4F3983ED4F38695779514
S11317906795B795F795E7959F5FC1F7FE2B880F7F
S11317A0911D9695879597F90895FA01EE0FFF1FFD
S11317B0309621053105A1F16115710561F4803878
S11317C0BFE39B0749F168949038810561F0803844
S11317D0BFEF9B0741F099234AF5FF3FE10531052F
S11317E0210519F1E8940894E795D901AA2329F46D
S11317F0AB2FBE2FF85FD0F310C0FF5F70F4A69537
S1131800E0F7F73950F019F0FF3A38F49F779F93D7
S11318100DD00F9007FC9058089546F00C94180BC7
S113182060E070E080E89FE308954FE79F775F935F
S11318304F933F932F930E94D00C2F913F914F9140
S11318405F910E94680B0C942D0C29F416F00C94F3
S1131850120B0C945C0B0C94180B0E94420BA8F313
S11318609638A0F707F80F92E8942BE33AEA48EB8E
S11318705FE70E947E0B0F920F920F924DB75EB7F7
S11318800F920E94180DECEFF1E00E945F0C4F9153
S11318905F91EF91FF91E595EE1FFF1F49F0FE5711
S11318A0E0684427EE0F441FFA95E1F74195550B84
S11318B00E94920C0F9007FE0C94860C0895DF93FF
S11318C0CF931F930F93FF92EF92DF927B018C01D2
S11318D0689406C0DA2EEF010E947B0BFE01E894A7
S11318E0A5912591359145915591A6F3EF010E945B
S11318F0B609FE019701A801DA9469F7DF90EF9029
S1131900FF900F911F91CF91DF9108959B01AC013E
S113191060E070E080E89FE30C94100A0C94120BD2
S11319200C944C0D0E94420BD8F39923C9F3940FE5
S1131930511DA3F39150504094F059F0882332F094
S1131940660F771F881F91505040C1F79E3F510585
S11319502CF7880F911D9695879597F908955F3F09
S1131960ACF0983E9CF0BB27869577956795B79524
S113197008F4B1609395C1F7BB0F58F711F460FFF9
S1131980E8CF6F5F7F4F8F4F9F4FE3CF0C945D0B7A
S113199016F00C944C0D0C94180B68940C94120BC8
S11319A00E94420BA8F39923C1F3AEF3DF93CF93C4
S11319B01F930F93FF92C92FDD2788232AF02197C5
S11319C0660F771F881FDAF720E030E040E85FEB0E
S11319D09FE3883920F0803E38F021968F770E946B
S11319E09F09E4E2F2E004C00E949F09E1E5F2E00D
S11319F00E945F0C8B01BE01EC01FB2E6F57710935
S1131A007595771F880B990B0E94B30A28E132E77A
S1131A1041E35FE30E947B0BAF2D9801AE01FF9081
S1131A200F911F91CF91DF910E94B6090C94290B5D
S1131A30FA01DC01AA0FBB1F9B01AC01BF5728F4BC
S1131A40222733274427507820C0B75190F4AB2F76
S1131A500024469537952795011CA395D2F30020C1
S1131A6071F0220F331F441FB395DAF30ED00C9498
S1131A709E0961307105A0E88A07B94630F49B01DC
S1131A80AC016627772788279078309621F0208349
S1131A9031834283538308959F3F31F0915020F462
S1131AA0879577956795B795880F911D9695879536
S1131AB097F908952F923F924F925F926F927F927F
S1131AC08F929F92AF92BF92CF92DF92EF92FF924A
S1131AD00F931F93CF93DF93CDB7DEB76097CDBF3E
S1131AE0DEBF7C011B016A01FC011682178283811F
S1131AF081FF44C39E012F5F3F4F3901F70193815A
S1131B00F10193FD859193FF81911F01882309F4CD
S1131B1031C3853239F493FD859193FF81911F017F
S1131B20853239F4B70190E00E94F1115601650144
S1131B30E5CF10E0512C912CFFE1F915D8F08B3250
S1131B4079F038F4803279F08332A1F4F92DF06120
S1131B502EC08D3261F0803369F4292D21602DC0AF
S1131B60392D3260932E892D8460982E2AC0E92D58
S1131B70E86015C097FC2DC020ED280F2A3088F4AA
S1131B8096FE06C03AE0139F200D1124122F19C0AF
S1131B908AE0589E200D1124522EE92DE0629E2EDB
S1131BA010C08E3231F496FCE5C2F92DF0649F2EFC
S1131BB008C08C3621F4292D2068922E02C0883664
S1131BC041F4F10193FD859193FF81911F018111EE
S1131BD0B3CF9BEB980F933020F4992D9061805EE6
S1131BE007C09BE9980F933008F066C1992D9F7E3A
S1131BF096FF16E09F73992E853619F49064992EFA
S1131C0008C0863621F4392F3068932E02C0111192
S1131C10115097FE07C01C3350F444244394410EE2
S1131C2027E00BC0183038F027E017E005C027E0A4
S1131C309CE3492E02C0212F412C560184E0A80EBA
S1131C40B11CF6016081718182819381042DA3010D
S1131C500E94FA106C01F981FC87F0FF02C0F3FFC7
S1131C6006C091FC06C092FE06C000E205C00DE26B
S1131C7003C00BE201C000E08C858C7019F00111E7
S1131C805AC29BC297FE10C04C0CFC85F4FF04C0E2
S1131C908A81813309F44A94141474F528E02415D4
S1131CA078F588E0482E2CC096FC2AC0812F90E05D
S1131CB08C159D059CF03CEFC3163FEFD30674F0E2
S1131CC0892D8068982E0AC0E2E0F0E0EC0FFD1F39
S1131CD0E10FF11D8081803319F411501111F4CFFB
S1131CE097FE0EC044244394410E812F90E0C81601
S1131CF0D9062CF41C1904C04424439401C010E0F8
S1131D0097FE06C01C141D0434F4C601019605C0D8
S1131D1085E090E002C081E090E00111019611237A
S1131D2031F0212F30E02F5F3F4F820F931F252D7D
S1131D3030E08217930714F4581A01C0512C892DEE
S1131D40897049F4552039F0B70180E290E00E948F
S1131D50F1115A94F7CF002329F0B701802F90E0B6
S1131D600E94F11193FC09C0552039F0B70180E3BA
S1131D7090E00E94F1115A94F7CF97FE4CC04601AF
S1131D80D7FE02C0812C912CC60188199909F30150
S1131D90E80FF91FED87FE879601241931092F8773
S1131DA0388B012F10E01195019511093FEF83162F
S1131DB0930629F4B7018EE290E00E94F111C81451
S1131DC0D9044CF08F8598898815990524F4ED85FC
S1131DD0FE85818101C080E3F1E08F1A91082D8591
S1131DE03E852F5F3F4F2D873E87801691062CF04E
S1131DF0B70190E00E94F111D9CFC814D90441F47D
S1131E009A81963320F4953319F43C8534FF81E3A9
S1131E10B70190E04EC08A81813319F09C859F7E82
S1131E209C87B70190E00E94F111111105C094FC48
S1131E3018C085E690E017C0B7018EE290E00E94DA
S1131E40F1111E5F82E001E0080FF301E80FF11DBC
S1131E508081B70190E00E94F111802F0113F3CF2C
S1131E60E6CF85E490E0B7010E94F111D7FC06C0EB
S1131E70C114D10441F4EC85E4FF05C0D194C194AC
S1131E80D1088DE201C08BE2B70190E00E94F1110C
S1131E9080E32AE0C216D1042CF08F5FFAE0CF1A57
S1131EA0D108F7CFB70190E00E94F111B701C60144
S1131EB0C0960E94F11154C1833631F0833779F012
S1131EC0833509F056C020C0560132E0A30EB11C80
S1131ED0F6018081898301E010E0630112C056019C
S1131EE0F2E0AF0EB11CF601C080D18096FE03C0B3
S1131EF0612F70E002C06FEF7FEFC6010E94E61110
S1131F008C01F92DFF7714C0560122E0A20EB11CFA
S1131F10F601C080D18096FE03C0612F70E002C03C
S1131F206FEF7FEFC6010E94D2118C01F92DF0688A
S1131F309F2EF3FD1AC0852D90E008171907A8F409
S1131F40B70180E290E00E94F1115A94F4CFF601B7
S1131F5097FC859197FE81916F01B70190E00E94F3
S1131F60F11151105A94015011090115110579F715
S1131F70F7C0843611F0893661F5560197FE09C021
S1131F8024E0A20EB11CF6016081718182819381EB
S1131F900AC0F2E0AF0EB11CF60160817181072E18
S1131FA0000C880B990BF92DFF769F2E97FF09C023
S1131FB090958095709561957F4F8F4F9F4FF068F6
S1131FC09F2E2AE030E0A3010E944112C82EC618B9
S1131FD03FC0092D853721F40F7E2AE030E01DC073
S1131FE0097F8F3691F018F4883559F0C3C08037D3
S1131FF019F0883711F0BEC0006104FF09C0046005
S113200007C094FE08C0066006C028E030E005C0A2
S113201020E130E002C020E132E0560107FF09C0B0
S113202084E0A80EB11CF6016081718182819381E4
S113203008C0F2E0AF0EB11CF6016081718180E04E
S113204090E0A3010E944112C82EC6180F77902E6B
S113205096FE0BC0092D0E7FC11650F494FE0AC0E3
S113206092FC08C0092D0E7E05C0DC2C092D03C08E
S1132070DC2C01C0D12E04FF0DC0FE01EC0DF11DBE
S11320808081803311F4097E09C002FF06C0D39415
S1132090D39404C0802F867809F0D39403FD11C033
S11320A000FF06C01C2DD51480F4150D1D190DC09C
S11320B0D51458F4B70180E290E00E94F111D39452
S11320C0F7CFD51410F45D1801C0512C04FF10C0D3
S11320D0B70180E390E00E94F11102FF17C001FDF7
S11320E003C088E790E002C088E590E0B7010CC027
S11320F0802F867859F001FF02C08BE201C080E294
S113210007FD8DE2B70190E00E94F111C11638F489
S1132110B70180E390E00E94F1111150F7CFCA9407
S1132120F301EC0DF11D8081B70190E00E94F111E3
S1132130C110F5CF15C0F4E0F51560F584E0581A28
S113214093FE1FC0011127C02C8523FF2AC006E877
S113215012E0392D3071932EF8018491811124C03D
S1132160552009F4E4CCB70180E290E00E94F1111B
S11321705A94F6CFF7018681978126C08FEF9FEF9F
S113218023C0B70180E290E00E94F1115A945110EB
S1132190F8CFD8CF512CB701802F90E00E94F111D5
S11321A0D3CF0AE812E0D5CF91108052B70190E066
S11321B00E94F1110F5F1F4FCFCF23E0251510F4BC
S11321C083E0BDCF512CC0CF6096CDBFDEBFDF9181
S11321D0CF911F910F91FF90EF90DF90CF90BF9020
S11321E0AF909F908F907F906F905F904F903F90B3
S11321F02F900895283008F027E03327DA01990F4B
S1132200311D87FD916000966105710539F43260D6
S11322102E5F3D9330E32A95E1F708959F3F30F018
S113222080387105610509F03C5F3C5F3D93913056
S113223008F08068911DDF93CF931F930F93FF9253
S1132240EF92192F987F9695E92F96959695E90F19
S1132250FF27E851FD4F99273327EE24FF24A701D8
S1132260E70105900894079428F4360FE71EF81E3A
S1132270491F511D660F771F881F991F0694A1F7E8
S11322800590079428F4E70EF81E491F561FC11D38
S1132290770F881F991F661F0694A1F7059007946E
S11322A028F4F80E491F561FC71FD11D880F991F08
S11322B0661F771F0694A1F70590079420F4490F31
S11322C0561FC71FD81F990F661F771F881F0694B4
S11322D0A9F784911095177041F0D695C795579535
S11322E04795F794E7941A95C1F7EEE8F2E06894FD
S11322F01590159135916591959105907FE27395AF
S1132300E118F10A430B560BC90BD009C0F7E10CD5
S1132310F11E431F561FC91FD01D7EF4703311F4E4
S11323208A95E6CFE894015030F0080F0AF40027AC
S1132330021708F4202F2395022F7A3328F079E32B
S11323407D932A95E9F710C07D932A9589F6069422
S113235097956795379517951794E118F10A430BEC
S1132360560BC90BD00998F023957E9173957A3357
S113237008F070E37C932013B8F77E9170617D932D
S113238030F0839571E37D9370E32A95E1F711248E
S1132390EF90FF900F911F91CF91DF91992787FDC7
S11323A090950895FC010590615070400110D8F794
S11323B0809590958E0F9F1F0895FB01DC018D91F0
S11323C0019080190110D9F3990B0895FC01615013
S11323D0704001900110D8F7809590958E0F9F1F43
S11323E008950F931F93CF93DF93FB01238121FD66
S11323F003C08FEF9FEF2CC022FF16C04681578188
S1132400248135814217530744F4A081B1819D0191
S11324102F5F3F4F208331838C93268137812F5F39
S11324203F4F2683378314C08B01EC01FB010084EA
S1132430F185E02D1995892BE1F6D80116968D9139
S11324409C911797019616968D939C931797CE019E
S1132450DF91CF911F910F910895CF93DF93CDB763
S1132460DEB7AE014A5F5F4FFA0161917191AF012E
S113247080917C2090917D200E945A0DDF91CF9114
S11324800895FA01AA27283051F1203181F1E89406
S11324906F936E7F6E5F7F4F8F4F9F4FAF4FB1E053
S11324A03ED0B4E03CD0670F781F891F9A1FA11D4E
S11324B0680F791F8A1F911DA11D6A0F711D811D4F
S11324C0911DA11D20D009F468943F912AE0269F14
S11324D011243019305D3193DEF6CF010895462F73
S11324E04770405D4193B3E00FD0C9F7F6CF462F54
S11324F04F70405D4A3318F0495D31FD40524193BD
S113250002D0A9F7EACFB4E0A69597958795779579
S11325106795BA95C9F700976105710508959B0100
S1132520AC010A2E06945795479537952795BA9589
S1132530C9F7620F731F841F951FA01D0895F89497
S1052540FFCFC7
S113254200000003000000007408990800006C6F8A
S11325526F706C696368745F6C696E6B73006C6F27
S11325626F706C696368745F726563687473004F3B
S11325726E62656B656E6420636F6D6D616E646F10
S10B25823A2025730D0A000044
S9030000FC
