:100000000C9489010C94AA010C9400020C945D02DA
:100010000C94AA010C94AA010C94AA010C94AA01B4
:100020000C94AA010C94AA010C94AA010C94AA01A4
:100030000C94AA010C94AA010C94AA010C94AA0194
:100040000C94AA010C94AA010C94AA010C94AA0184
:100050000C94AA010C94AA010C94AA010C94AA0174
:100060000C94AA010C94AA010C94AA010C94AA0164
:100070000C94AA010C94AA010C94AA010C94AA0154
:100080000C94AA010C94AA010C94AA010C94AA0144
:100090000C94AA010C94AA010C94AA010C94AA0134
:1000A0000C94AA010C94AA010C94AA010C94BE020F
:1000B0000C9423030C94AA010C946E060C94AA01D0
:1000C0000C94AA010C94AA010C94AA010C94AA0104
:1000D0000C94AA010C94AA010C94AA010C94AA01F4
:1000E0000C94AA010C94AA010C94AA010C94AA01E4
:1000F0000C94AA010C94AA010C94AA010C94AA01D4
:100100000C94AA010C94AA010C94AA010C94AA01C3
:100110000C94AA010C94AA010C94AA010C94AA01B3
:100120000C94AA010C94AA010C94AA010C94AA01A3
:100130000C94AA010C94AA010C94AA010C94AA0193
:100140000C94AA010C94AA010C94AA010C94AA0183
:100150000C94AA010C94AA010C94AA010C94AA0173
:100160000C94AA010C94AA010C94AA010C94AA0163
:100170000C94AA010C94AA010C94AA010C94AA0153
:100180000C94AA010C94AA010C94AA010C94AA0143
:100190000C94AA010C94AA010C94AA010C94AA0133
:1001A0000C94AA010C94AA010C94AA010C94AA0123
:1001B0000C94AA010C94AA010C94AA010C94AA0113
:1001C0000C94AA010C94AA010C94AA010C94AA0103
:1001D0000C94AA010C94AA010C94AA010C94AA01F3
:1001E0000C94AA010C94AA010C94AA010C94AA01E3
:1001F0000C94AA010C94AA010C94AA010C94020775
:100200000C9427076E616E00696E660000407A10DC
:10021000F35A00A0724E18090010A5D4E80000E8B7
:100220007648170000E40B54020000CA9A3B000015
:1002300000E1F505000080969800000040420F00A4
:100240000000A08601000000102700000000E80365
:10025000000000006400000000000A000000000030
:100260000100000000002C76D888DC674F0823DFEF
:10027000C1DFAE59E1B1B796E5E3E453C63AE651C2
:10028000997696E8E6C28426EB898C9B62ED407CE9
:100290006FFCEFBC9C9F40F2BAA56FA5F490055A85
:1002A0002AF75C936B6CF9676DC11BFCE0E40D47AA
:1002B000FEF520E6B500D0ED902E030094357705CD
:1002C0000080841E080000204E0A000000C80C3385
:1002D0003333330F986E12831141EF8D2114893B14
:1002E000E65516CFFEE6DB18D1844B381BF77C1D94
:1002F000901DA4BBE424203284725E228100C9F1E7
:1003000024ECA1E53D276364696E6F7073757858BE
:100310005B0011241FBECFEFCDBFDFE9DEBF00E0E1
:100320000CBF10E2A0E0B0E2EAE1F6E200E00BBFB1
:1003300002C007900D92AA38B107D9F720E2AAE8C7
:10034000B0E201C01D92A33CB207E1F70E945C0736
:100350000C940B130C940000CF93DF93CDB7DEB752
:100360000000DF91CF910895CF93DF93CDB7DEB733
:1003700080E296E028EFFC01228380E296E028E507
:10038000FC01238B80E296E028E5FC01248B80E2CF
:1003900096E028E5FC01258B80E296E028E5FC014B
:1003A000268B80E296E028E5FC01278B0000DF9198
:1003B000CF910895CF93DF93CDB7DEB780E296E07B
:1003C00027E0FC01218380E096E020E8FC01218306
:1003D00080E296E020E4FC01208B80E296E020E4BD
:1003E000FC01218B80E296E020E4FC01228B80E07E
:1003F00096E020E4FC01278B0000DF91CF91089567
:100400001F920F9200903F000F92112400903B002A
:100410000F922F933F938F939F93EF93FF93CF93DD
:10042000DF931F92CDB7DEB780E496E0FC018085B4
:1004300089838981882F90E080749927892B99F08E
:10044000898188231CF48FEF9FEF02C081E090E048
:1004500020918A2030918B20820F931F80938A20D5
:1004600090938B2012C0898188231CF481E090E056
:1004700002C08FEF9FEF20918A2030918B20820F56
:10048000931F80938A2090938B2080E496E021E054
:10049000FC01248700000F90DF91CF91FF91EF9135
:1004A0009F918F913F912F910F9000923B000F9061
:1004B00000923F000F901F9018951F920F9200908E
:1004C0003F000F92112400903B000F922F933F9317
:1004D0008F939F93EF93FF93CF93DF931F92CDB7AB
:1004E000DEB780E496E0FC018085898389818823DA
:1004F000BCF48981882F90E080749927892B19F0AA
:1005000081E090E002C08FEF9FEF20918A20309130
:100510008B20820F931F80938A2090938B2016C08C
:100520008981882F90E080749927892B19F08FEFAB
:100530009FEF02C081E090E020918A2030918B20D3
:10054000820F931F80938A2090938B2080E496E003
:1005500022E0FC01248700000F90DF91CF91FF91F2
:10056000EF919F918F913F912F910F9000923B00BF
:100570000F9000923F000F901F9018951F920F92BE
:1005800000903F000F92112400903B000F922F9398
:100590003F938F939F93EF93FF93CF93DF931F929C
:1005A000CDB7DEB780E896E0FC018085898389813C
:1005B000882F90E080719927892BB9F08981882F45
:1005C00090E080729927892B19F08FEF9FEF02C07E
:1005D00081E090E020918C2030918D20820F931F3C
:1005E00080938C2090938D2016C08981882F90E075
:1005F00080729927892B19F081E090E002C08FEF7B
:100600009FEF20918C2030918D20820F931F80933B
:100610008C2090938D2080E896E021E0FC012487D7
:1006200000000F90DF91CF91FF91EF919F918F91FB
:100630003F912F910F9000923B000F9000923F004E
:100640000F901F9018951F920F9200903F000F92ED
:10065000112400903B000F922F933F938F939F9311
:10066000EF93FF93CF93DF931F92CDB7DEB780E870
:1006700096E0FC01808589838981882F90E08072D3
:100680009927892BB9F08981882F90E0807199276B
:10069000892B19F081E090E002C08FEF9FEF20914D
:1006A0008C2030918D20820F931F80938C2090930B
:1006B0008D2016C08981882F90E080719927892B21
:1006C00019F08FEF9FEF02C081E090E020918C2025
:1006D00030918D20820F931F80938C2090938D20DA
:1006E00080E896E022E0FC01248700000F90DF9173
:1006F000CF91FF91EF919F918F913F912F910F900B
:1007000000923B000F9000923F000F901F901895B1
:10071000CF93DF93CDB7DEB780EA90E020EA30E0F8
:10072000F90122812260FC01228380EA96E020EA1E
:1007300036E0F90120812F61FC01208380EA96E0F8
:10074000FC01108A80EA96E0FC01118A80EA96E0BA
:10075000FC01128A80EA96E0FC01138A80EA96E0A6
:1007600028E1FC01248B80EA96E020EA36E0F901DA
:1007700024812061FC01248380E09BE023EFFC01C5
:10078000218380E09BE0FC01138280E09BE0FC0180
:10079000148280E09BE02FE73CE0FC0126A337A316
:1007A00080E09BE021E0FC01208380E496E020E4EF
:1007B00036E0F90120812F73FC01208380E496E06C
:1007C000FC01168A80E496E0FC01178A80E496E03A
:1007D00023E0FC01248780E496E020E436E0F90180
:1007E00022852064FC01228780E496E020E436E044
:1007F000F90123852068FC01238780E496E020E44A
:1008000036E0F9012185207F2A60FC01218780E8FC
:1008100096E020E836E0F90120812F7CFC0120835E
:1008200080E896E0FC01148A80E896E0FC01158AD5
:1008300080E896E023E0FC01248780E896E020E849
:1008400036E0F90122852061FC01228780E896E0EC
:1008500020E836E0F90123852062FC01238780E847
:1008600096E020E836E0F9012185207F2A60FC012E
:10087000218778940000DF91CF910895CF93DF9383
:10088000CDB7DEB72897CDBFDEBF8D839E836F8344
:1008900078878D819E81893B9B4024F088EB9BE08B
:1008A0008D839E838D819E818834944F24F488E4C7
:1008B00094EF8D839E838F819885893B9B4024F0A4
:1008C00088EB9BE08F8398878F8198858834944F3D
:1008D00024F488E494EF8F8398878D819E819923F7
:1008E0001CF49195819591099C01990F440B550B2E
:1008F0008FE79CE0DC010E94BF0DDC01CB0128EBFF
:100900003BE040E050E0BC01CD010E948E0DDA01D9
:10091000C90189839A838F81988599231CF49195C5
:10092000819591099C01990F440B550B8FE79CE031
:10093000DC010E94BF0DDC01CB0128EB3BE040E075
:1009400050E0BC01CD010E948E0DDA01C9018B83FC
:100950009C838D819E81181619066CF480E09BE0C3
:10096000FC0110A611A680E09BE029813A81FC01E0
:1009700022A733A71BC08D819E8199236CF480E050
:100980009BE029813A81FC0120A731A780E09BE010
:10099000FC0112A613A60AC080E09BE0FC0110A691
:1009A00011A680E09BE0FC0112A613A68F8198851A
:1009B00099236CF080E09BE02B813C81FC0124A713
:1009C00035A780E09BE0FC0116A617A61BC08F810F
:1009D000988599236CF480E09BE0FC0114A615A691
:1009E00080E09BE02B813C81FC0126A737A70AC051
:1009F00080E09BE0FC0114A615A680E09BE0FC01D2
:100A000016A617A600002896CDBFDEBFDF91CF91B6
:100A10000895CF93DF93CDB7DEB72597CDBFDEBF67
:100A20008FE390E0FC0180818983F89480918A2093
:100A300090918B208A839B8380918C2090918D2034
:100A40008C839D838FE390E02981FC0120838A8140
:100A50009B81AC81BD81BC01CD012596CDBFDEBFA0
:100A6000DF91CF910895CF93DF93CDB7DEB780E4C8
:100A700096E020E2FC0121830000DF91CF910895F0
:100A8000CF93DF931F92CDB7DEB789838981882307
:100A900031F080E496E020E2FC01258305C080E48B
:100AA00096E020E2FC01268300000F90DF91CF91B9
:100AB00008958BEC8093520088E0809350008091E1
:100AC000510083FFFCCF82EC8093550088E1809336
:100AD00050008091510084FFFCCF88ED84BF84E0FA
:100AE0008093400080E00895CF93DF93CDB7DEB7C9
:100AF0001092972080E896E028E1FC01208B80E8A6
:100B000096E028E1FC01218B80EA94E028E7FC01D3
:100B1000218380EA94E023E2FC01258380EA94E0CB
:100B200021E0FC0124830000DF91CF910895CF9351
:100B3000DF931F92CDB7DEB780EA94E0FC01848199
:100B400089838981882F90E084709927892B21F0EF
:100B500084E08093982003C083E08093982080EA0B
:100B600094E029812860FC012483109297200000E2
:100B70000F90DF91CF910895CF93DF9300D01F9214
:100B8000CDB7DEB7809193208983809194208A83AA
:100B900080EA94E0FC018481882F90E0807199279D
:100BA000892B59F080EA94E023E0FC01238385E05F
:100BB000809398201092972034C09091952089813D
:100BC0009817C0F420918F2030919020809195202B
:100BD000882F90E0820F931FFC0180818B8380EA35
:100BE00094E02B81FC012783809195208F5F809377
:100BF000952017C0909196208A81981750F4809183
:100C00008E2081608C8380EA94E02C81FC01268315
:100C100008C080EA94E023E0FC01238381E00E9485
:100C20005E0600002496CDBFDEBFDF91CF91089510
:100C3000CF93DF931F921F92CDB7DEB7809196209E
:100C40008032C0F480EA94E0FC018781898320919E
:100C500091203091922080919620882F90E0820FF1
:100C6000931F2981FC012083809196208F5F8093C0
:100C7000962008C080EA94E023E0FC01238382E010
:100C80000E945E06809194208A83909196208A81AA
:100C9000981730F480EA94E022E0FC01238308C036
:100CA00080EA94E027E0FC01238381E00E945E0655
:100CB00000000F900F90DF91CF910895CF93DF93B5
:100CC0001F92CDB7DEB789838981809398201092D7
:100CD000972000000F90DF91CF9108951F920F92FF
:100CE00000903F000F92112400903B000F922F9331
:100CF0003F934F935F936F937F938F939F93AF93A4
:100D0000BF93EF93FF93CF93DF931F92CDB7DEB7DF
:100D100080EA94E0FC01848189838981882F90E0B6
:100D200088709927892B39F48981882F90E0847005
:100D30009927892B19F00E94970513C08981882F64
:100D400090E080749927892B19F00E94BC0509C096
:100D5000898188231CF40E94180603C086E00E9443
:100D60005E068091972000000F90DF91CF91FF9158
:100D7000EF91BF91AF919F918F917F916F915F9113
:100D80004F913F912F910F9000923B000F90009256
:100D90003F000F901F901895CF93DF93CDB7DEB72C
:100DA00080E896E028E0FC01218380E896E024E0DA
:100DB000FC01228380EA9AE0FC01138280EA9AE037
:100DC00028E1FC01248380EA9AE023E0FC012583EA
:100DD00080EA9AE025EEFC01268380EA9AE02CEB7B
:100DE000FC01278380E090E28093BF209093C02095
:100DF00080E090E28093BD209093BE200000DF91C0
:100E0000CF910895CF93DF9300D0CDB7DEB789831C
:100E10006A837B8380EA9AE02981FC0120830000B9
:100E200080EA9AE0FC018181882F90E08074992704
:100E3000892BB1F380EA9AE020E4FC01218380E071
:100E400090E02396CDBFDEBFDF91CF910895CF9381
:100E5000DF931F921F92CDB7DEB789839A8300007C
:100E600080EA9AE0FC0181818823D4F780EA9AE045
:100E7000FC018081882F90E00F900F90DF91CF913F
:100E80000895CF93DF93CDB7DEB70E9459050E9436
:100E9000CC060E94330581E00E9440050E94740543
:100EA0000E94B4010E94DA010E94AC010E948803F2
:100EB0000000DF91CF910895CF93DF93CDB7DEB7D8
:100EC0002E97CDBFDEBF0E94410780E090E0AAEFE1
:100ED000B3E489839A83AB83BC8320E030E04AEF9C
:100EE00055E469817A818B819C810E945909DC01DA
:100EF000CB018D839E83AF83B88720E030E040E84C
:100F00005FE36D817E818F8198850E94D30888235D
:100F10002CF481E090E089879A873FC020E03FEF82
:100F20004FE757E46D817E818F8198850E94540937
:100F300018164CF520E030E040E251E469817A81F6
:100F40008B819C810E945909DC01CB01BC01CD0140
:100F50000E94D808DC01CB0189879A870FC080E204
:100F600093E08B879C878B859C850197F1F78B8716
:100F70009C8789859A85019789879A8789859A852B
:100F8000892B69F714C06D817E818F8198850E94BD
:100F9000D808DC01CB0189879A8789859A858D8756
:100FA0009E878D859E850197F1F78D879E870E948C
:100FB000DA07FDCFCF93DF93CDB7DEB76297CDBF12
:100FC000DEBF80919920882309F049C089E390E22F
:100FD0000E94F40E8AE990E2892F8F938AE990E2C9
:100FE0008F9386E590E2892F8F9386E590E28F9329
:100FF0000E94240F0F900F900F900F90019779F59A
:1010000020919A2030919B2080919A2090919B2052
:10101000B9010E943E0480919A2090919B20292F33
:101020002F938F9389E590E2892F8F9389E590E242
:101030008F938CE990E2892F8F938CE990E28F93C4
:101040000E94380F0F900F900F900F900F900F90FD
:101050008CE990E20E94F40E81E0809399200E9436
:101060000905DC01CB018F87988BA98BBA8B298965
:101070003A898F859889432F4F932F93292F2F9348
:101080008F938BE690E2892F8F938BE690E28F937C
:101090008CE990E2892F8F938CE990E28F930E94E4
:1010A000380F8DB79EB70896CDBFDEBF8CE990E2B2
:1010B0000E94F40E80E090E0A8ECB2E489839A8369
:1010C000AB83BC8320E030E04AEF55E469817A814C
:1010D0008B819C810E945909DC01CB018D839E8309
:1010E000AF83B88720E030E040E85FE36D817E8128
:1010F0008F8198850E94D30888232CF481E090E0AA
:1011000089879A873FC020E03FEF4FE757E46D8122
:101110007E818F8198850E94540918164CF520E035
:1011200030E040E251E469817A818B819C810E94A8
:101130005909DC01CB01BC01CD010E94D808DC01BA
:10114000CB0189879A870FC080E293E08B879C87C9
:101150008B859C850197F1F78B879C8789859A857C
:10116000019789879A8789859A85892B69F714C0A1
:101170006D817E818F8198850E94D808DC01CB012A
:1011800089879A8789859A858D879E878D859E8593
:101190000197F1F78D879E8700006296CDBFDEBF75
:1011A000DF91CF9108950E94070908F481E0089526
:1011B0000E94330988F09F5798F0B92F9927B751AB
:1011C000B0F0E1F0660F771F881F991F1AF0BA95EB
:1011D000C9F714C0B13091F00E944D09B1E00895F3
:1011E0000C944D09672F782F8827B85F39F0B93FE5
:1011F000CCF3869577956795B395D9F73EF490959E
:101200008095709561957F4F8F4F9F4F0895990FEF
:101210000008550FAA0BE0E8FEEF16161706E807C0
:10122000F907C0F012161306E407F50798F0621BE1
:10123000730B840B950B39F40A2661F0232B242BB6
:10124000252B21F408950A2609F4A140A6958FEFD5
:10125000811D811D089557FD9058440F551F59F069
:101260005F3F71F04795880F97FB991F61F09F3F93
:1012700079F087950895121613061406551FF2CFBC
:101280004695F1DF08C0161617061806991FF1CF0C
:1012900086957105610508940895E894BB27662733
:1012A0007727CB0197F908950E94070908F48FEF7B
:1012B00008950E946C090C94DD090E94CF0938F052
:1012C0000E94D60920F0952311F00C94C6090C94C5
:1012D000CC0911240C944E090E942B0970F3959FA0
:1012E000C1F3950F50E0551F629FF001729FBB271D
:1012F000F00DB11D639FAA27F00DB11DAA1F649FB9
:101300006627B00DA11D661F829F2227B00DA11D6B
:10131000621F739FB00DA11D621F839FA00D611DF1
:10132000221F749F3327A00D611D231F849F600D12
:10133000211D822F762F6A2F11249F5750409AF03B
:10134000F1F088234AF0EE0FFF1FBB1F661F771FC7
:10135000881F91505040A9F79E3F510580F00C9492
:10136000C6090C944E095F3FE4F3983ED4F386958A
:1013700077956795B795F795E7959F5FC1F7FE2B32
:10138000880F911D9695879597F9089597F99F670E
:1013900080E870E060E008959FEF80EC08950024FD
:1013A0000A941616170618060906089500240A94CA
:1013B00012161306140605060895092E0394000C50
:1013C00011F4882352F0BB0F40F4BF2B11F460FFDF
:1013D00004C06F5F7F4F8F4F9F4F08952F923F92B2
:1013E0004F925F926F927F928F929F92AF92BF9235
:1013F000CF92DF92EF92FF920F931F93CF93DF93E1
:10140000CDB7DEB76097CDBFDEBF7C011B016A019F
:10141000FC0116821782838181FF44C39E012F5FE6
:101420003F4F3901F7019381F10193FD859193FFBE
:1014300081911F01882309F431C3853239F493FD6A
:10144000859193FF81911F01853239F4B70190E0B6
:101450000E94B80E56016501E5CF10E0512C912C89
:10146000FFE1F915D8F08B3279F038F4803279F059
:101470008332A1F4F92DF0612EC08D3261F08033FA
:1014800069F4292D21602DC0392D3260932E892DCC
:101490008460982E2AC0E92DE86015C097FC2DC005
:1014A00020ED280F2A3088F496FE06C03AE0139FFC
:1014B000200D1124122F19C08AE0589E200D1124EE
:1014C000522EE92DE0629E2E10C08E3231F496FC31
:1014D000E5C2F92DF0649F2E08C08C3621F4292D29
:1014E0002068922E02C0883641F4F10193FD859167
:1014F00093FF81911F018111B3CF9BEB980F933024
:1015000020F4992D9061805E07C09BE9980F93307D
:1015100008F066C1992D9F7E96FF16E09F73992E65
:10152000853619F49064992E08C0863621F4392F37
:101530003068932E02C01111115097FE07C01C3362
:1015400050F444244394410E27E00BC0183038F087
:1015500027E017E005C027E09CE3492E02C0212FB9
:10156000412C560184E0A80EB11CF6016081718106
:1015700082819381042DA3010E94CA0D6C01F9811F
:10158000FC87F0FF02C0F3FF06C091FC06C092FE8C
:1015900006C000E205C00DE203C00BE201C000E09E
:1015A0008C858C7019F001115AC29BC297FE10C035
:1015B0004C0CFC85F4FF04C08A81813309F44A9401
:1015C000141474F528E0241578F588E0482E2CC012
:1015D00096FC2AC0812F90E08C159D059CF03CEF75
:1015E000C3163FEFD30674F0892D8068982E0AC089
:1015F000E2E0F0E0EC0FFD1FE10FF11D8081803390
:1016000019F411501111F4CF97FE0EC044244394E5
:10161000410E812F90E0C816D9062CF41C1904C085
:101620004424439401C010E097FE06C01C141D041E
:1016300034F4C601019605C085E090E002C081E067
:1016400090E001110196112331F0212F30E02F5F3E
:101650003F4F820F931F252D30E08217930714F41C
:10166000581A01C0512C892D897049F4552039F040
:10167000B70180E290E00E94B80E5A94F7CF0023A1
:1016800029F0B701802F90E00E94B80E93FC09C0AA
:10169000552039F0B70180E390E00E94B80E5A94CB
:1016A000F7CF97FE4CC04601D7FE02C0812C912C8B
:1016B000C60188199909F301E80FF91FED87FE8724
:1016C0009601241931092F87388B012F10E01195CD
:1016D000019511093FEF8316930629F4B7018EE2B5
:1016E00090E00E94B80EC814D9044CF08F859889F8
:1016F0008815990524F4ED85FE85818101C080E37C
:10170000F1E08F1A91082D853E852F5F3F4F2D8781
:101710003E87801691062CF0B70190E00E94B80E2B
:10172000D9CFC814D90441F49A81963320F4953363
:1017300019F43C8534FF81E3B70190E04EC08A8103
:10174000813319F09C859F7E9C87B70190E00E94B1
:10175000B80E111105C094FC18C085E690E017C0C2
:10176000B7018EE290E00E94B80E1E5F82E001E0B9
:10177000080FF301E80FF11D8081B70190E00E948E
:10178000B80E802F0113F3CFE6CF85E490E0B701C8
:101790000E94B80ED7FC06C0C114D10441F4EC85F8
:1017A000E4FF05C0D194C194D1088DE201C08BE261
:1017B000B70190E00E94B80E80E32AE0C216D1047F
:1017C0002CF08F5FFAE0CF1AD108F7CFB70190E085
:1017D0000E94B80EB701C601C0960E94B80E54C14F
:1017E000833631F0833779F0833509F056C020C055
:1017F000560132E0A30EB11CF6018081898301E01D
:1018000010E0630112C05601F2E0AF0EB11CF60108
:10181000C080D18096FE03C0612F70E002C06FEFE0
:101820007FEFC6010E94AD0E8C01F92DFF7714C029
:10183000560122E0A20EB11CF601C080D18096FEB6
:1018400003C0612F70E002C06FEF7FEFC6010E94FE
:10185000A20E8C01F92DF0689F2EF3FD1AC0852D84
:1018600090E008171907A8F4B70180E290E00E9401
:10187000B80E5A94F4CFF60197FC859197FE8191AA
:101880006F01B70190E00E94B80E51105A940150B8
:1018900011090115110579F7F7C0843611F0893661
:1018A00061F5560197FE09C024E0A20EB11CF601B5
:1018B00060817181828193810AC0F2E0AF0EB11C18
:1018C000F60160817181072E000C880B990BF92DB0
:1018D000FF769F2E97FF09C0909580957095619532
:1018E0007F4F8F4F9F4FF0689F2E2AE030E0A3017B
:1018F0000E94610FC82EC6183FC0092D853721F4FC
:101900000F7E2AE030E01DC0097F8F3691F018F479
:10191000883559F0C3C0803719F0883711F0BEC040
:10192000006104FF09C0046007C094FE08C006609F
:1019300006C028E030E005C020E130E002C020E130
:1019400032E0560107FF09C084E0A80EB11CF60181
:10195000608171818281938108C0F2E0AF0EB11C79
:10196000F6016081718180E090E0A3010E94610F27
:10197000C82EC6180F77902E96FE0BC0092D0E7F2D
:10198000C11650F494FE0AC092FC08C0092D0E7EC8
:1019900005C0DC2C092D03C0DC2C01C0D12E04FFB6
:1019A0000DC0FE01EC0DF11D8081803311F4097E24
:1019B00009C002FF06C0D394D39404C0802F867858
:1019C00009F0D39403FD11C000FF06C01C2DD514EF
:1019D00080F4150D1D190DC0D51458F4B70180E21F
:1019E00090E00E94B80ED394F7CFD51410F45D1890
:1019F00001C0512C04FF10C0B70180E390E00E94A9
:101A0000B80E02FF17C001FD03C088E790E002C0D6
:101A100088E590E0B7010CC0802F867859F001FF6F
:101A200002C08BE201C080E207FD8DE2B70190E0C9
:101A30000E94B80EC11638F4B70180E390E00E940E
:101A4000B80E1150F7CFCA94F301EC0DF11D80814F
:101A5000B70190E00E94B80EC110F5CF15C0F4E0B8
:101A6000F51560F584E0581A93FE1FC0011127C0D8
:101A70002C8523FF2AC004E012E0392D3071932E0B
:101A8000F8018491811124C0552009F4E4CCB701F8
:101A900080E290E00E94B80E5A94F6CFF70186815A
:101AA000978126C08FEF9FEF23C0B70180E290E0BF
:101AB0000E94B80E5A945110F8CFD8CF512CB701CC
:101AC000802F90E00E94B80ED3CF08E012E0D5CF6F
:101AD00091108052B70190E00E94B80E0F5F1F4F27
:101AE000CFCF23E0251510F483E0BDCF512CC0CF1C
:101AF0006096CDBFDEBFDF91CF911F910F91FF9018
:101B0000EF90DF90CF90BF90AF909F908F907F909D
:101B10006F905F904F903F902F900895A1E21A2E02
:101B2000AA1BBB1BFD010DC0AA1FBB1FEE1FFF1F81
:101B3000A217B307E407F50720F0A21BB30BE40BD1
:101B4000F50B661F771F881F991F1A9469F7609518
:101B50007095809590959B01AC01BD01CF010895D2
:101B6000A29FB001B39FC001A39F700D811D1124DE
:101B7000911DB29F700D811D1124911D08950E9429
:101B8000B00DA59F900DB49F900DA49F800D911D49
:101B900011240895283008F027E03327DA01990F3F
:101BA000311D87FD916000966105710539F4326041
:101BB0002E5F3D9330E32A95E1F708959F3F30F083
:101BC00080387105610509F03C5F3C5F3D939130C1
:101BD00008F08068911DDF93CF931F930F93FF92BE
:101BE000EF92192F987F9695E92F96959695E90F84
:101BF000FF27EA59FD4F99273327EE24FF24A70139
:101C0000E70105900894079428F4360FE71EF81EA4
:101C1000491F511D660F771F881F991F0694A1F752
:101C20000590079428F4E70EF81E491F561FC11DA2
:101C3000770F881F991F661F0694A1F705900794D8
:101C400028F4F80E491F561FC71FD11D880F991F72
:101C5000661F771F0694A1F70590079420F4490F9B
:101C6000561FC71FD81F990F661F771F881F06941E
:101C7000A9F784911095177041F0D695C79557959F
:101C80004795F794E7941A95C1F7ECE0F2E0689471
:101C90001590159135916591959105907FE2739519
:101CA000E118F10A430B560BC90BD009C0F7E10C40
:101CB000F11E431F561FC91FD01D7EF4703311F44F
:101CC0008A95E6CFE894015030F0080F0AF4002717
:101CD000021708F4202F2395022F7A3328F079E396
:101CE0007D932A95E9F710C07D932A9589F606948D
:101CF00097956795379517951794E118F10A430B57
:101D0000560BC90BD00998F023957E9173957A33C1
:101D100008F070E37C932013B8F77E9170617D9397
:101D200030F0839571E37D9370E32A95E1F71124F8
:101D3000EF90FF900F911F91CF91DF91992787FD31
:101D400090950895FC010590615070400110D8F7FE
:101D5000809590958E0F9F1F0895FC0161507040F3
:101D600001900110D8F7809590958E0F9F1F0895D0
:101D70000F931F93CF93DF93FB01238121FD03C0BA
:101D80008FEF9FEF2CC022FF16C046815781248120
:101D900035814217530744F4A081B1819D012F5F23
:101DA0003F4F208331838C93268137812F5F3F4FB4
:101DB0002683378314C08B01EC01FB010084F1857D
:101DC000E02D1995892BE1F6D80116968D919C91FD
:101DD0001797019616968D939C931797CE01DF91D6
:101DE000CF911F910F9108950F931F93CF93DF937E
:101DF000E091BF20F091C020238121FF1BC08C0106
:101E0000D0E0C0E0F80181918F016091BF20709116
:101E1000C020DB011896ED91FC911997882331F0D1
:101E20001995892B79F3DFEFCFEFECCF8AE0199585
:101E3000892B19F08FEF9FEF02C08D2F9C2FDF9120
:101E4000CF911F910F910895CF93DF93CDB7DEB758
:101E5000AE014A5F5F4FFA0161917191AF018091CC
:101E6000BD209091BE200E947811DF91CF910895FE
:101E70000F931F93CF93DF93CDB7DEB72E97CDBFD0
:101E8000DEBF0E891F8986E08C8309831A838FEF5A
:101E90009FE78D839E83AE01465E5F4F688D798D8F
:101EA000CE0101960E94EE09EF81F885E00FF11F47
:101EB00010822E96CDBFDEBFDF91CF911F910F9183
:101EC0000895FA01AA27283051F1203181F1E894D0
:101ED0006F936E7F6E5F7F4F8F4F9F4FAF4FB1E01D
:101EE0003ED0B4E03CD0670F781F891F9A1FA11D18
:101EF000680F791F8A1F911DA11D6A0F711D811D19
:101F0000911DA11D20D009F468943F912AE0269FDD
:101F100011243019305D3193DEF6CF010895462F3C
:101F20004770405D4193B3E00FD0C9F7F6CF462F1D
:101F30004F70405D4A3318F0495D31FD4052419386
:101F400002D0A9F7EACFB4E0A69597958795779543
:101F50006795BA95C9F700976105710508959B01CA
:101F6000AC010A2E06945795479537952795BA9553
:101F7000C9F7620F731F841F951FA01D089520FDD0
:101F800009C0FC0123FD05C022FF02C073836283E8
:101F900051834083089544FD17C046FD17C0AB012F
:101FA000BC01DA01FB01AA0FBB1FEE1FFF1F10943B
:101FB000D1F74A0F5B1F6E1F7F1FCB01BA01660F5F
:101FC000771F881F991F09C033E001C034E0660FF6
:101FD000771F881F991F3150D1F7620F711D811D26
:101FE000911D08950F931F93CF93DF938C01C80128
:101FF0000E94B112EC0197FD08C00E949D12892B2E
:10200000B1F7B801CE010E94EF12CE01DF91CF915E
:102010001F910F9108958F929F92AF92BF92EF926E
:10202000FF920F931F93CF93DF938C01D62F7A01EA
:10203000B22E0E94B1129C0133272B32310531F0B0
:102040002D32310561F48B2D8068B82ED15011F4FA
:1020500080E068C0C8010E94B11297FDF9CFCB2D76
:10206000CD7F2B2D207309F58033F9F4AA24AA948F
:10207000AD0E09F443C0C8010E94B11297FD3EC0E5
:102080009C012F7D33272835310549F4C264D25095
:10209000A9F1C8010E94B11297FF07C02FC0B6FE78
:1020A00002C0C26001C0C261DA2D812C912C5401A2
:1020B00020ED280F283080F0C4FF04C0B8010E9432
:1020C000EF1219C02A3040F0C6FFF8CF2F7D3FEE47
:1020D000320F363098F727504C2FC501B4010E94BB
:1020E000CB0F4B015C01C260D15059F0C8010E9476
:1020F000B11297FFDDCFC1FD04C0AACF812C912C76
:102100005401C7FF08C0B094A09490948094811C9F
:10211000911CA11CB11C2C2FB501A401C7010E9468
:10212000BF0F81E0DF91CF911F910F91FF90EF9052
:10213000BF90AF909F908F9008955F926F927F9223
:102140008F929F92AF92BF92CF92DF92EF92FF92C7
:102150000F931F93CF93DF93CDB7DEB7A097CDBF7B
:10216000DEBF5C01962E7A01F9018E010F5F1F4FD1
:10217000680180E2D8011D928A95E9F7D50113968E
:102180008C9080E090E0612C712C30E061E070E098
:1021900083FC259183FE21918F01522E211103C0D2
:1021A00080E090E092C02E3511F4009751F1432F5A
:1021B00050E0481759073CF42D3559F12D3219F4E8
:1021C000772009F103C0772009F46AC0452D4695B0
:1021D00046954695D601A40FB11D452D47708B013C
:1021E00002C0000F111F4A95E2F7A8015C91452B30
:1021F0004C93651459F0561410F45394E7CF5A9445
:10220000E5CF31E004C07724739401C0712C0196AE
:10221000BFCF772019F08E8180628E83311103C089
:102220008824839417C0F6019E012F5D3F4F808163
:10223000809581932E173F07D1F7F2CFE114F10477
:1022400029F0D7018C93F70131967F019A94812C64
:102250009920F9F0C5010E94B11297FD18C0FC0148
:10226000FF2723E0F595E7952A95E1F7EC0DFD1D95
:10227000208130E0AC014770552702C03595279585
:102280004A95E2F720FDDACFB5010E94EF128110E6
:1022900087CFE114F10411F0D7011C92C80115C0D9
:1022A000422F469546954695D601A40FB11D422F63
:1022B00047708B0102C0000F111F4A95E2F7A80179
:1022C0005C91452B4C93622EA2CFA096CDBFDEBF72
:1022D000DF91CF911F910F91FF90EF90DF90CF9002
:1022E000BF90AF909F908F907F906F905F90089578
:1022F0005F926F927F928F929F92AF92BF92CF9296
:10230000DF92EF92FF920F931F93CF93DF936C01B5
:10231000EB015A01FC0116821782512CF601E38071
:10232000FE01E3FC8591E3FE8191182FEF018823E4
:1023300009F4EEC090E00E949D12892B21F0C601A5
:102340000E94F20FEBCF153241F4FE01E3FC159130
:10235000E3FE1191EF01153281F4C6010E94B11222
:1023600097FDD4C0412F50E09C0133272417350737
:10237000A9F2B6010E94EF12CBC01A3239F4E3FC85
:102380001591E3FE1191EF0101E001C000E0F12C95
:1023900020ED210F2A3080F402606F2D70E080E084
:1023A00090E040E20E94CB0FF62EFE01E3FC159177
:1023B000E3FE1191EF01ECCF01FF03C0F11003C068
:1023C000A7C0FF24FA94183619F01C3651F010C03B
:1023D000FE01E3FC1591E3FE1191EF01183641F483
:1023E00008600460FE01E3FC1591E3FE1191EF012A
:1023F000112309F48DC0612F70E086E093E00E9404
:10240000A612892B09F484C000FD07C0F501808065
:102410009180C50102965C0102C0812C912C1E3670
:1024200051F4F6014681578160E070E0202FC4012D
:102430000E94BF0F73CF1336A9F401FD02C0FF2421
:10244000F394C6010E94B11297FD60C081149104FB
:1024500029F0F4018083C40101964C01FA94F11033
:10246000F0CF50C01B3559F49E01A4016F2DC60159
:102470000E949D10EC01892B09F044C03EC0C601AA
:102480000E94F20F97FD42C01F3661F128F4143606
:1024900039F1193651F128C0133771F0153701F1B0
:1024A00023C08114910429F0F4016082C4010196D3
:1024B0004C01FA94FF2071F0C6010E94B1123C0158
:1024C00097FD08C00E949D12892B59F3B601C301E4
:1024D0000E94EF1281149104A9F0F401108212C03D
:1024E000006203C0006101C00064202FA4016F2DB1
:1024F000C6010E940B10811105C0F6018381807313
:1025000029F406C000FD0ACF539408CF552019F0D6
:10251000852D90E002C08FEF9FEFDF91CF911F914B
:102520000F91FF90EF90DF90CF90BF90AF909F9072
:102530008F907F906F905F90089591110C94081385
:10254000803219F089508550C8F70895FC01059034
:10255000061621F00020D9F7C00108953197CF0168
:102560000895CF93DF93EC012B8120FF33C026FF2A
:102570000AC02F7B2B838E819F8101968E839F8340
:102580008A8190E029C022FF0FC0E881F981808113
:10259000082E000C990B009719F420622B831AC0A7
:1025A0003196E883F9830EC0EA85FB85199597FF7C
:1025B00009C02B81019611F080E201C080E1822BDD
:1025C0008B8308C02E813F812F5F3F4F2E833F8337
:1025D000992702C08FEF9FEFDF91CF910895FB0104
:1025E000238120FF12C026FD10C08F3F3FEF9307CD
:1025F00061F082832F7D20642383268137812150DF
:10260000310926833783992708958FEF9FEF089527
:0A261000992788270895F894FFCF5A
:10261A000000000300000000020727070000436FC4
:10262A00756E7465723A25640D0055500D004C455F
:10263A0046540D00444F574E0D0052494748540D19
:10264A000043454E5445520D00456E746572207321
:10265A0070656564205B2D333030302C202B33308D
:10266A0030305D3A2000256400537065656420733C
:10267A00657420746F3A2025640D00456E636F649B
:10268A00657220413A2025642C20456E636F64658B
:0A269A007220423A2025640D000072
:00000001FF
