:100000000C9489010C94AA010C94AA010C94AA01E5
:100010000C94AA010C94AA010C94AA010C94AA01B4
:100020000C94AA010C94AA010C94AA010C94AA01A4
:100030000C94AA010C94AA010C945B050C94AA01DF
:100040000C94CF050C94AA010C94AA010C94AA015B
:100050000C94AA010C94AA010C94AA010C94AA0174
:100060000C94AA010C94AA010C94AA010C94AA0164
:100070000C94AA010C94AA010C94AA010C94AA0154
:100080000C94AA010C94AA010C94AA010C94AA0144
:100090000C94AA010C94AA010C94AA010C94AA0134
:1000A0000C94AA010C94AA010C94AA010C94AA0124
:1000B0000C94AA010C94AA010C94C5020C94AA01F8
:1000C0000C94AA010C94AA010C94AA010C94AA0104
:1000D0000C94AA010C94AA010C94AA010C94AA01F4
:1000E0000C94AA010C94AA010C94AA010C94AA01E4
:1000F0000C94AA010C94AA010C94AA010C94AA01D4
:100100000C94AA010C94AA010C94AA010C94AA01C3
:100110000C94AA010C94AA010C94AA010C94AA01B3
:100120000C94AA010C94AA010C94AA010C94AA01A3
:100130000C94AA010C94AA010C94AA010C94AA0193
:100140000C94AA010C94AA010C94AA010C94AA0183
:100150000C94AA010C94AA010C94AA010C94AA0173
:100160000C94AA010C94AA010C94AA010C94AA0163
:100170000C94AA010C94AA010C94AA010C94AA0153
:100180000C94AA010C94AA010C94AA010C94AA0143
:100190000C94AA010C94AA010C94AA010C94AA0133
:1001A0000C94AA010C94AA010C94AA010C94AA0123
:1001B0000C94AA010C94AA010C94AA010C94AA0113
:1001C0000C94AA010C94AA010C94AA010C94AA0103
:1001D0000C94AA010C94AA010C94AA010C94AA01F3
:1001E0000C94AA010C94AA010C94AA010C94AA01E3
:1001F0000C94AA010C94AA010C94AA010C94060375
:100200000C942E060C943A0D0C948D0E0C94120343
:100210006E616E00696E660000407A10F35A00A0AD
:10022000724E18090010A5D4E80000E876481700BF
:1002300000E40B54020000CA9A3B000000E1F505FF
:10024000000080969800000040420F000000A08649
:1002500001000000102700000000E803000000007B
:100260006400000000000A0000000000010000001F
:1002700000002C76D888DC674F0823DFC1DFAE5939
:10028000E1B1B796E5E3E453C63AE651997696E8CC
:10029000E6C28426EB898C9B62ED407C6FFCEFBC50
:1002A0009C9F40F2BAA56FA5F490055A2AF75C937B
:1002B0006B6CF9676DC11BFCE0E40D47FEF520E6B1
:1002C000B500D0ED902E0300943577050080841E94
:1002D000080000204E0A000000C80C333333330FEF
:1002E000986E12831141EF8D2114893BE65516CF8C
:1002F000FEE6DB18D1844B381BF77C1D901DA4BB98
:10030000E424203284725E228100C9F124ECA1E54C
:100310003D2711241FBECFEFCDBFDFE9DEBF00E0D8
:100320000CBF13E2A0E0B0E2EEEBFFE200E00BBF97
:1003300002C007900D92A03BB107D9F724E2A0EBD1
:10034000B3E201C01D92AC37B207E1F70E94F40C92
:100350000C94DD170C940000DC011092B323109272
:10036000B4239C919923B1F0FD01319680E49093E0
:10037000A00A9091A10A96FFFCCF8093A10A9F0149
:100380002A1B3B0B91919111F2CF2093B323309311
:10039000B42308950895FC011092B3231092B4235E
:1003A00090819923E1F0319620E030E080E4261737
:1003B00037071CF06115710569F49093A00A9091BC
:1003C000A10A96FFFCCF8093A10A2F5F3F4F919126
:1003D0009111EDCF2093B3233093B4230895089562
:1003E000CF92DF92EF92FF920F931F93CF93DF9301
:1003F0007C0180E197E28093B1239093B223109225
:10040000B023C5E0D0E0C12CE0E1F7E2A0E4DA2EB1
:100410000AE010E0C701BF010E94A412AB019B01DA
:10042000ADECBCEC0E94CC1296958795969587957D
:10043000969587959C01220F331F880F991F880F6F
:10044000991F880F991F820F931F9A01281B390B40
:10045000C901009711F4CC2059F0805D8093A00A67
:100460008091A10A86FFFCCFD092A10ACC24C3942C
:10047000CF01B8010E94B812FB01219759F6C09232
:10048000B0236093B1237093B223DF91CF911F917A
:100490000F91FF90EF90DF90CF9008958BEC8093B9
:1004A000520088E0809350008091510083FFFCCF80
:1004B00082EC8093550088E1809350008091510038
:1004C00084FFFCCF88ED84BF84E08093400080E00F
:1004D00008959091B9232091B8238091A40484FDBC
:1004E00008C08091B723891750F08091B6238217F6
:1004F000B8F083E08093A3041092B523089580910F
:10050000B723E091BC23F091BD23E80FF11D80815A
:100510008093A7048091B7238F5F8093B7230895BA
:100520008091BE2381608093A60408958091B623B4
:100530008032E0F48091A7049091B623E091BA2331
:10054000F091BB23E90FF11D80838091B6238F5F6B
:100550008093B6239091B8238091B623891788F0B1
:1005600087E08093A3041092B523089583E08093DD
:10057000A3041092B5239091B8238091B6238917D4
:1005800078F782E08093A30408951F920F920FB62C
:100590000F9211240BB60F922F933F934F935F93BB
:1005A0006F937F938F939F93AF93BF93EF93FF933B
:1005B0008091A404982F9C7039F486FD21C087FD9A
:1005C00022C01092B52307C08091A4048860809354
:1005D000A4041092B5238091B523FF91EF91BF91B0
:1005E000AF919F918F917F916F915F914F913F91CB
:1005F0002F910F900BBE0F900FBE0F901F9018956C
:100600000E946902E8CF0E949602E5CF8093A00A7B
:100610008091A10A86FFFCCF80E48093A10A80E04C
:1006200090E008958091A10A87FFFCCF8091A00AF5
:1006300090E00895E0E8F6E088E0818384E082833A
:10064000E0EAFAE0138288E1848383E0858385EE23
:1006500086838CEB8783E6E7F4E286E090E2828390
:1006600093838083918308950F931F93CF93DF9398
:10067000EC010E9465098091BF23811121C0E091A6
:100680007024F0917124CF0101968093C42390933C
:10069000C5231092C6231092C7238FEF9FE3809348
:1006A000C2239093C3231092C0231092C12383834B
:1006B000948380EC93E28183928381E08093BF23D3
:1006C000209709F464C0AE014C5F5F4F2396CE3F84
:1006D000DF4308F05CC0E091C423F091C523A4EC93
:1006E000B3E206C080819181009739F0DF01FC01FF
:1006F0002281338124173507A8F3C3E2E03CFC07CD
:1007000009F445C0CD91DC9111978E010C5F1F4F0C
:10071000808191818D939C93C901841B950B8930B5
:10072000910500F1BF01640F751FDB0112968D93D7
:100730009C9313974283538312962D913C91139768
:10074000A4ECB3E201C0DF01ED91FC91119782812D
:10075000938182179307B8F3EB01E883F9836D93D4
:100760007C939A018091142090911520821B930B09
:1007700080931420909315200E94450A01151105BD
:1007800041F0C801DF91CF911F910F9108950E9410
:10079000450A0E94790C00E010E0C801DF91CF917A
:1007A0001F910F910895CF93DF93009721F1EC01F2
:1007B00024970E9465094A815B81A4ECB3E201C0E1
:1007C000DF01ED91FC9111972281338124173507C8
:1007D000B8F3E883F983CD93DC9380911420909152
:1007E0001520480F591F4093142050931520DF9176
:1007F000CF910C94450ADF91CF910895FC010396A7
:10080000818392832FEF3FEF238334838583968305
:100810008783908710820895FC01108611860895C1
:10082000CF93DF939C01FB01DC011196CD91DC910C
:100830001297C283D3838C819D81848395838C811D
:100840009D81DC0112966D937C9313976C837D835D
:1008500020873187F90180818F5F8083DF91CF917D
:100860000895CF93DF93FC01A085B1852281338168
:1008700084819581E9018C839D8384819581EC013C
:100880002A833B8311962D913C911297E217F3072F
:1008900049F0108611868C9181508C938C91DF9158
:1008A000CF91089511968D939C931297F2CF31E1D9
:1008B000FC013083319722E220833197A3E3A083A8
:1008C000319760833197708331971082319710820E
:1008D000319760E8608331971082319762E06083DE
:1008E000319763E06083319764E06083319765E01E
:1008F0006083319766E06083319767E0608331976A
:1009000068E06083319769E06083319760E16083DC
:1009100031973083319732E13083319733E130833F
:10092000319734E13083319735E13083319736E1C7
:100930003083319737E13083319738E13083319715
:1009400039E13083319730E23083319731E23083BF
:1009500031972083319723E2208331974083319769
:100960005083319726E22083319727E22083319705
:1009700028E22083319729E22083319720E32083E6
:10098000319721E3208387970895E0E0F8E08FEF27
:100990009FEF80A791A781E0808390E49183868375
:1009A000878380E09DE786A397A3A0916624B091FA
:1009B0006724CD91CDBFDD91DEBFFF91EF91DF9137
:1009C000CF91BF91AF919F918F917F916F915F91E7
:1009D0004F913F912F911F910F91FF90EF90DF90DA
:1009E000CF90BF90AF909F908F907F906F905F90CF
:1009F0004F903F902F901F900F900FBE0F90089533
:100A000081E008950F920FB6F8940F921F9211246F
:100A10002F923F924F925F926F927F928F929F920E
:100A2000AF92BF92CF92DF92EF92FF920F931F93FC
:100A30002F933F934F935F936F937F938F939F93E6
:100A4000AF93BF93CF93DF93EF93FF93A09166246F
:100A5000B09167240DB60D920EB60D920E94D40A85
:100A6000A0916624B0916724CD91CDBFDD91DEBF0A
:100A7000FF91EF91DF91CF91BF91AF919F918F91B6
:100A80007F916F915F914F913F912F911F910F91A6
:100A9000FF90EF90DF90CF90BF90AF909F908F909E
:100AA0007F906F905F904F903F902F901F900F908E
:100AB0000FBE0F9008950F920FB6F8940F921F92E9
:100AC00011242F923F924F925F926F927F928F925A
:100AD0009F92AF92BF92CF92DF92EF92FF920F93CD
:100AE0001F932F933F934F935F936F937F938F93B6
:100AF0009F93AF93BF93CF93DF93EF93FF93A09117
:100B00006624B09167240DB60D920EB60D92209119
:100B100026083091270880916A2490916B24A09137
:100B20006C24B0916D24820F931FA11DB11D809381
:100B30006A2490936B24A0936C24B0936D240E943C
:100B40006B090E94D40AA0916624B0916724CD91CC
:100B5000CDBFDD91DEBFFF91EF91DF91CF91BF91CE
:100B6000AF919F918F917F916F915F914F913F9145
:100B70002F911F910F91FF90EF90DF90CF90BF903A
:100B8000AF909F908F907F906F905F904F903F902D
:100B90002F901F900F900FBE0F90189508950F92F1
:100BA0000FB6F8940F921F9211242F923F924F92FA
:100BB0005F926F927F928F929F92AF92BF92CF92ED
:100BC000DF92EF92FF920F931F932F933F934F93D8
:100BD0005F936F937F938F939F93AF93BF93CF93C5
:100BE000DF93EF93FF93A0916624B09167240DB635
:100BF0000D920EB60D928FEF9FEF80932808909381
:100C000029080E94D40AA0916624B0916724CD914E
:100C1000CDBFDD91DEBFFF91EF91DF91CF91BF910D
:100C2000AF919F918F917F916F915F914F913F9184
:100C30002F911F910F91FF90EF90DF90CF90BF9079
:100C4000AF909F908F907F906F905F904F903F906C
:100C50002F901F900F900FBE0F90189520C00FB6C9
:100C6000F8940F92E091E923F091EA23C681D781AD
:100C7000CE0102960E9431048091D9238150809345
:100C8000D9238091E32381508093E3230F900FBEFB
:100C90008F89988D0E94D303CE010E94D303809147
:100CA000E3238111DCCF80910C24823010F00E946C
:100CB00002050E94780CF3CFE091F823F091F9231C
:100CC0000580F681E02D0680F781E02D82819381F9
:100CD0008093CF239093D02308950F931F93CF93A6
:100CE0001092D323209120083091210880916A240A
:100CF00090916B24A0916C24B0916D24820F931F6E
:100D0000A11DB11D0091C8231091C9232091CA23B0
:100D10003091CB23081719072A073B07A0F4E0916D
:100D20006624F091672447A150A561A572A5401BD8
:100D3000510B620B730B480F591F6A1F7B1F47A390
:100D400050A761A772A78093C8239093C923A0934B
:100D5000CA23B093CB23E0916624F09167240788DF
:100D6000F08DE02D80819181A281B381853A954AF1
:100D7000A54AB54A09F44CC0609166247091672475
:100D80008091662490916724675E7F4F0E94980C43
:100D9000C091D6238C2F90E09C01220F331F220F8D
:100DA000331F220F331FF901E80FF91FE45FFB4DDA
:100DB000408141110CC0CC2311F0C150EBCF6CE845
:100DC0007BE08AE190E20E94C20CC150E3CF820F27
:100DD000931FDC01A45FBB4D1196ED91FC9112971E
:100DE0000280F381E02D1196ED93FC931297815FC1
:100DF0009B4DE817F90759F1868197818093662406
:100E000090936724C093D623CF911F910F9108959B
:100E100084819581A681B781853A954AA54AB54ACC
:100E200009F0AACF80859185A285B385853A954A38
:100E3000A54AB54A09F0A0CF84859585A685B785D2
:100E4000853A954AA54AB54A09F096CFA1CF0280C6
:100E5000F381E02D1196ED93FC931297CDCF5F9225
:100E60006F927F928F929F92AF92BF92CF92DF92BA
:100E7000EF92FF920F931F93CF93DF934C01EB01FF
:100E80005A013901502ECA010E9434038C01892B6A
:100E900009F4DEC080E390E00E9434036C01009707
:100EA00009F4D3C0DC0157960D931C9358972097F3
:100EB00009F4D0C0C801A50165EA70E00E94ED16F2
:100EC000F1E0AF1AB108D60157968D919C915897D1
:100ED000A80EB91EF60179969E01285F3F4FDE01EC
:100EE000899181938C91882319F0C217D307B9F7A0
:100EF000F60110A2052D0A3008F0A1C0D6015696C1
:100F00000C93569793960C93939794961C92E601A4
:100F10002296CE010E940C04C6010C960E940C047D
:100F2000F601C086D1868AE090E0801B9109848713
:100F30009587C28AD38A15A216A217A210A611A657
:100F400012A613A614A615A616A617A6A301B401E9
:100F5000C5010E945704D6018D939C93E114F104BE
:100F600019F0F701C082D1820FB6F8940F928091E8
:100F7000D9238F5F8093D923809166249091672431
:100F8000892B99F08091D523811118C0E0916624B6
:100F9000F0916724D60156968C919689891788F02E
:100FA000C0926624D09267240CC0C0926624D0926E
:100FB00067248091D923813009F456C0D601569612
:100FC0008C919091D1239F5F9093D123F60191A3AF
:100FD0009091D623981780F190E09C01220F331F47
:100FE000220F331F220F331F820F931FBE01845F16
:100FF0009B4D0E9410040F900FBE8091D523882333
:1010000051F0E0916624F09167249689D6015696B6
:101010008C919817B0F081E0DF91CF911F910F91E3
:10102000FF90EF90DF90CF90BF90AF909F908F9008
:101030007F906F905F9008958093D623CDCF09E085
:101040005DCF0E94020581E0E7CFC8010E94D30373
:101050008FEFE2CF60E673E08AE190E20E94C20C7B
:10106000F6018789908D27CF0CE014E256E6E52E35
:1010700054E2F52EC8010E94FE03075F1F4FE016E1
:10108000F106C1F783E094E20E94FE038AEF93E247
:101090000E94FE038DEE93E20E94FE0384EE93E233
:1010A0000E94FE038AED93E20E94FE0383E094E235
:1010B0008093F8239093F9238AEF93E28093F623A9
:1010C0009093F723F60186897CCFCF93DF93EC01D1
:1010D000892B09F43AC08091662490916724C8173F
:1010E000D90779F10FB6F8940F928A859B852091E4
:1010F000F8233091F9234091F6235091F7230F9074
:101100000FBE82179307A9F08417950791F023E289
:101110008A3D920751F023E2843E920771F0892BB9
:1011200061F081E0DF91CF9108958C899D89892BB1
:1011300099F082E0DF91CF91089584E0DF91CF9123
:10114000089580E0DF91CF9108956CE475E08AE125
:1011500090E20E94C20CBFCF8FA5813051F383E093
:10116000E1CF0F931F93CF93DF93EC010FB6F89469
:101170000F92892B09F462C08E010E5F1F4FC801C8
:101180000E9431048C899D89892B21F0CE010C9617
:101190000E943104B8018AED93E20E9410048FA5E9
:1011A000813021F10F900FBE8091D523882391F0DB
:1011B0000FB6F8940F92E091F823F091F923808113
:1011C00081112BC08FEF9FEF8093CF239093D0237B
:1011D0000F900FBE8091662490916724C817D9079D
:1011E00039F0DF91CF911F910F9108951FA6DACFAB
:1011F0008091D5238823A1F08091CC23882331F0DE
:1012000068EC76E08AE190E20E94C20C0E9402053E
:10121000DF91CF911F910F9108950E945C06D8CF66
:101220009091DA238091D923981799F08091CC235B
:10123000882349F081E08093D323D3CFC0916624E3
:10124000D091672499CFDF91CF911F910F910C948A
:101250006D061092662410926724C3CFEF92FF921E
:101260000F938DECE82E83E2F82E00E020E030E0D2
:1012700040E051E06EE270E28EE296E00E942F07BD
:10128000813079F08F3F21F00F91FF90EF9008951A
:1012900067E078E08AE190E20F91FF90EF900C9484
:1012A000C20CF8942FEF3FEF2093CF233093D0233D
:1012B0008093D5231092D7231092D8230E94CE0575
:1012C0000F91FF90EF900C94C5048091CC238F5F19
:1012D0008093CC230895DF92EF92FF920F931F9398
:1012E000CF93DF938091CC238111B9C0E090D723B5
:1012F000F090D8238FEFE81AF80AE092D723F09203
:10130000D823E114F10449F5E091F823F091F92391
:1013100080818111ABC08091F8239091F9232091B5
:10132000F6233091F7232093F8233093F923809309
:10133000F6239093F7238091D2238F5F8093D2235B
:10134000E091F823F091F9238081811196C08FEF0D
:101350009FEF8093CF239093D0238091CF239091C0
:10136000D023D12CE816F90608F453C0E091F823F5
:10137000F091F9238081882309F445C0E091F82396
:10138000F091F9230580F681E02DC681D7818A810D
:101390009B81E816F90608F473C08E010E5F1F4F9B
:1013A000C8010E9431048C899D89892B21F0CE01CE
:1013B0000C960E9431048E899091D623981710F4D0
:1013C0008093D62390E09C01220F331F220F331FFE
:1013D000220F331F820F931FB801845F9B4D0E9421
:1013E0001004E0916624F09167249E8986899817FD
:1013F00008F4BCCFDD24D394E091F823F091F923D5
:1014000080818111BBCF8FEF9FEF8093CF2390938B
:10141000D023E0916624F0916724868990E0FC0156
:10142000EE0FFF1FEE0FFF1FEE0FFF1F8E0F9F1F10
:10143000FC01E45FFB4D8081823010F0DD24D39409
:101440008091D323882311F0DD24D3948D2DDF9157
:10145000CF911F910F91FF90EF90DF9008958091B1
:10146000D4238F5F8093D423D12CEACF66E67AE031
:101470008AE190E20E94C20C4ECF0E945C066DCFC2
:101480008093CF239093D023C4CFFF920F931F93C9
:10149000CF93DF938091CC23882309F477C00FB6D4
:1014A000F8940F928091CC2381508093CC2380912B
:1014B000CC23811162C08091D923882309F45DC0B7
:1014C000C0E0D0E0FF24F3948091ED238823A1F1C4
:1014D000E091F223F091F323C681D781CE010C96DF
:1014E0000E9431048E010E5F1F4FC8010E9431041B
:1014F0008E899091D623981710F48093D62390E08C
:101500009C01220F331F220F331F220F331F820F24
:10151000931FB801845F9B4D0E941004E0916624E4
:10152000F09167249E898689981770F2F092D323F0
:101530008091ED238111CCCFCD2B69F0E091F82380
:10154000F091F923808181112CC08FEF9FEF809360
:10155000CF239093D023C091D423CC2351F0D1E05A
:101560000E946B098111D093D323C150C9F7109207
:10157000D4238091D323811110C080E00F900FBE3F
:10158000DF91CF911F910F91FF9008956CE678E065
:101590008AE190E20E94C20C82CF0E94020581E0A3
:1015A000EDCF0E945C06D7CF8091CC23811102C081
:1015B0000C946D0681E08093D3230895FF920F93DE
:1015C0001F93CF93DF938C01EB01F42E892B09F449
:1015D00064C008831983C80149968A839B83D80114
:1015E00056968C9156978E8357968D919C915897CD
:1015F0008C879D8791968C9191978C8393968C91F3
:1016000093978F8397968D919D910D90BC91A02D6E
:1016100088879987AA87BB87253009F443C08091C2
:101620006624909167240817190709F440C02D8398
:10163000233021F1FF20D1F0D8015796ED91FC9194
:1016400058978081853AA9F5319680E090E0DC01D9
:101650000196A11DB11D2191253AD1F38E879F8757
:10166000DF91CF911F910F91FF9008951E861F86E5
:10167000DF91CF911F910F91FF9008958091CC231E
:101680008F5F8093CC23F80184899589892B11F091
:1016900082E08D830E94450ACDCF0091662410918F
:1016A000672497CFC8010E9465088D83C3CF1D8230
:1016B000C1CF80E090E0D2CF8F929F92AF92BF9245
:1016C000CF92DF92EF92FF920F931F93CF93DF930E
:1016D0005C018B01D42FDB011196ED91FC911297E7
:1016E0000280F381E02D1196ED93FC9312977B011C
:1016F000B3E0EB0EF11CEE15FF05E1F1C680D780DB
:10170000C0E016C086809780B501B0E1CB9F600D28
:10171000711D11242D2F41E0C4010E94DE0ACF5F0C
:10172000C814D904C9F0D8011196ED91FC91129713
:101730000280F381E02DD8011196ED93FC9312976E
:10174000EE16FF06F9F61596ED91FC911697119697
:10175000ED93FC931297D6CF8C2FDF91CF911F91F1
:101760000F91FF90EF90DF90CF90BF90AF909F9040
:101770008F9008950280F381E02DC0CFEF92FF9209
:101780000F931F93CF93DF938C017A018091CC2329
:101790008F5F8093CC238091D923681708F466C0AB
:1017A000CAE0D0E004C080E0D80FCC23F9F0C150EB
:1017B0006C2F70E0CB01880F991F880F991F880F3D
:1017C000991F680F791FFB01E45FFB4D808188231F
:1017D00051F341E0BF01C80120E1D29F800D911D6E
:1017E00011240E945C0BD80FC111E1CFE091F823C6
:1017F000F091F923808181113BC080E0D80FE09106
:10180000F623F091F7238081811145C080E0D80F45
:101810008091E42381114FC080E0D80F8091DA23BA
:1018200081115AC080E0D80FE114F104A9F0209191
:1018300020083091210880916A2490916B24A09116
:101840006C24B0916D24820F931FA11DB11DF7016F
:1018500080839183A283B3830E94450A8D2FDF91F9
:10186000CF911F910F91FF90EF900895D0E0F4CFAA
:1018700042E0BF01C801E0E1DE9F800D911D11240F
:101880000E945C0BD80FE091F623F091F723808142
:10189000882309F4BBCF42E0BF01C801F0E1DF9F1C
:1018A000800D911D11240E945C0BD80F8091E423C0
:1018B000882309F4B1CF44E064EE73E2C80120E16B
:1018C000D29F800D911D11240E945C0BD80F809136
:1018D000DA23882309F4A6CF43E06AED73E2C80156
:1018E000E0E1DE9F800D911D11240E945C0B9BCFD7
:1018F0000895F8948DE590E20E94AC0180E8809311
:101900000106809305062FEF33EC99E0215030401B
:101910009040E1F700C00000809306062FEF33EC03
:1019200099E0215030409040E1F700C00000E9CF3D
:10193000EB01F89480E8809301068FE790E20E9423
:10194000AC016AE070E0CE010E94CB018AE590E232
:101950000E94AC0180E8809305062FEF33ED90E301
:10196000215030409040E1F700C00000809306060F
:101970002FEF33ED90E3215030409040E1F700C06D
:101980000000E9CF8C01EB01F89480E88093010618
:1019900087E990E20E94AC0164E670E0C8010E9411
:1019A000CB0187EA90E20E94AC01CE010E94F001D7
:1019B0008AE590E20E94AC0180E8809305062FEF53
:1019C00033EC99E0215030409040E1F700C0000036
:1019D000809306062FEF33ED90E321503040904086
:1019E000E1F700C00000E9CFCF93DF931F921F9271
:1019F000CDB7DEB78AE090E089839A8380E090E4F7
:101A00000E94DB128093702490937124892B89F1BA
:101A10000E944E020E941A030E94F60E81E00E946C
:101A2000FA0E87E08093A20078942FEF89EF90E080
:101A3000215080409040E1F700C0000080916E246A
:101A400090916F248093260B9093270B8091162002
:101A5000909117208093260B9093270B0E94E20E03
:101A60000E942E0980E090E00F900F90DF91CF91BF
:101A70000895FFCFFC0144855585FB0124853585FC
:101A80004217530740F081E090E02417350708F42F
:101A9000089580E008958FEF9FEF08955F926F9211
:101AA0007F928F929F92AF92BF92CF92DF92EF92EE
:101AB000FF920F931F93CF93DF93CDB7DEB7C05440
:101AC000D140CDBFDEBF40E050E064E1CE010196E1
:101AD0000E94BE0B882E912C2AE33DE040E150E0AD
:101AE000B401CE0101960E94431482EB90E20E9461
:101AF0004F178FEB90E20E944F171F921F921F9279
:101B00001F928CEC90E29F938F930E943B171F9241
:101B10001F928FE08F931FEF1F938BEE90E29F93A6
:101B20008F930E943B171F921F9280E18F931F9209
:101B300088E091E29F938F930E943B171F921F9220
:101B40008FE18F931F9382E291E29F938F930E9484
:101B50003B171F921F9280E28F931F928AE391E2BC
:101B60009F938F930E943B1780E090E29F938F9307
:101B700082E591E29F938F930E943B17CDBFDEBF1A
:101B80008FEA93E29F938F938BE691E29F938F93DB
:101B90000E943B1780EB93E29F938F9382E891E240
:101BA0009F938F930E943B178BE794E29F938F93B1
:101BB0008AE991E29F938F930E943B178091712451
:101BC0008F93809170248F9380EB91E29F938F93FA
:101BD0000E943B17CDBFDEBF8114910409F452C0AF
:101BE00000E010E0512C9CE3A92E92E2B92E2DE4E6
:101BF000C22E22E2D22E34E6E32E32E2F32E4BE75F
:101C0000642E42E2742E02951295107F1027007FF9
:101C10001027E1E0F0E0EC0FFD1F0E0F1F1FF80191
:101C200083818F9382818F93BF92AF920E943B17E3
:101C3000F80185858F9384858F93DF92CF920E94E0
:101C40003B17F80181818F9380818F93FF92EF92F0
:101C50000E943B17F80180819181FC013297059722
:101C600020813181820F931F9F938F937F926F9278
:101C70000E943B175394052D10E0CDBFDEBF081521
:101C800019050CF280917024909171248150904C30
:101C90009F938F9389EC91E29F938F930E943B17C0
:101CA0008091702490917124905C9F938F9380EE2B
:101CB00091E29F938F930E943B171F921F920FE90F
:101CC0000F931FEF1F9382E092E29F938F930E94E6
:101CD0003B171F921F920F931F9385E292E29F93EF
:101CE0008F930E943B178FEB90E20E944F17CDBF5E
:101CF000DEBFC05CDE4FCDBFDEBFDF91CF911F9155
:101D00000F91FF90EF90DF90CF90BF90AF909F909A
:101D10008F907F906F905F900895CF93DF931F9285
:101D20001F92CDB7DEB780E992E20E944F178BEB8E
:101D300092E20E944F178EE694E29F938F9380ED7C
:101D400092E29F938F930E943B1786E190E29F93CC
:101D50008F9387EE92E29F938F930E943B178EEFB3
:101D600092E20E944F17CE0101969F938F9387E2D4
:101D700093E29F938F930E943B1788E694E29F9390
:101D80008F9387E493E29F938F930E943B1788E1A0
:101D900090E29F938F9387E693E29F938F930E94A5
:101DA0003B1788E993E20E944F170E944E0D80E096
:101DB00090E00E94B108CDBFDEBF0F900F90DF9181
:101DC000CF910895EF92FF920F93E12CF12C01E057
:101DD00020E030E040E054E06CEA73E28DE89EE001
:101DE0000E942F070F91FF90EF90089580E280935B
:101DF00041060895811104C080E28093460608954B
:101E000080E28093450608952F923F924F925F9211
:101E10006F927F928F929F92AF92BF92CF92DF92FA
:101E2000EF92FF920F931F93CF93DF93CDB7DEB75F
:101E30006097CDBFDEBF7C011B016A01FC011682E9
:101E40001782838181FF44C39E012F5F3F4F390179
:101E5000F7019381F10193FD859193FF81911F011A
:101E6000882309F431C3853239F493FD859193FFBA
:101E700081911F01853239F4B70190E00E94FF166D
:101E800056016501E5CF10E0512C912CFFE1F915C9
:101E9000D8F08B3279F038F4803279F08332A1F4C3
:101EA000F92DF0612EC08D3261F0803369F4292D57
:101EB00021602DC0392D3260932E892D8460982E9B
:101EC0002AC0E92DE86015C097FC2DC020ED280F31
:101ED0002A3088F496FE06C03AE0139F200D1124A4
:101EE000122F19C08AE0589E200D1124522EE92D80
:101EF000E0629E2E10C08E3231F496FCE5C2F92DC0
:101F0000F0649F2E08C08C3621F4292D2068922E73
:101F100002C0883641F4F10193FD859193FF8191D0
:101F20001F018111B3CF9BEB980F933020F4992DB3
:101F30009061805E07C09BE9980F933008F066C1FE
:101F4000992D9F7E96FF16E09F73992E853619F482
:101F50009064992E08C0863621F4392F3068932E6C
:101F600002C01111115097FE07C01C3350F44424D5
:101F70004394410E27E00BC0183038F027E017E0FB
:101F800005C027E09CE3492E02C0212F412C5601B9
:101F900084E0A80EB11CF601608171818281938179
:101FA000042DA3010E940A166C01F981FC87F0FF41
:101FB00002C0F3FF06C091FC06C092FE06C000E21C
:101FC00005C00DE203C00BE201C000E08C858C70FF
:101FD00019F001115AC29BC297FE10C04C0CFC852F
:101FE000F4FF04C08A81813309F44A94141474F50F
:101FF00028E0241578F588E0482E2CC096FC2AC0ED
:10200000812F90E08C159D059CF03CEFC3163FEFAF
:10201000D30674F0892D8068982E0AC0E2E0F0E0C3
:10202000EC0FFD1FE10FF11D8081803319F4115079
:102030001111F4CF97FE0EC044244394410E812F1A
:1020400090E0C816D9062CF41C1904C0442443940B
:1020500001C010E097FE06C01C141D0434F4C60134
:10206000019605C085E090E002C081E090E001119A
:102070000196112331F0212F30E02F5F3F4F820F67
:10208000931F252D30E08217930714F4581A01C0CE
:10209000512C892D897049F4552039F0B70180E21F
:1020A00090E00E94FF165A94F7CF002329F0B70161
:1020B000802F90E00E94FF1693FC09C0552039F054
:1020C000B70180E390E00E94FF165A94F7CF97FE85
:1020D0004CC04601D7FE02C0812C912CC601881944
:1020E0009909F301E80FF91FED87FE87960124197E
:1020F00031092F87388B012F10E0119501951109B7
:102100003FEF8316930629F4B7018EE290E00E9418
:10211000FF16C814D9044CF08F8598898815990545
:1021200024F4ED85FE85818101C080E3F1E08F1A02
:1021300091082D853E852F5F3F4F2D873E87801666
:1021400091062CF0B70190E00E94FF16D9CFC81479
:10215000D90441F49A81963320F4953319F43C85DF
:1021600034FF81E3B70190E04EC08A81813319F0DA
:102170009C859F7E9C87B70190E00E94FF161111FD
:1021800005C094FC18C085E690E017C0B7018EE248
:1021900090E00E94FF161E5F82E001E0080FF3014D
:1021A000E80FF11D8081B70190E00E94FF16802F9B
:1021B0000113F3CFE6CF85E490E0B7010E94FF164C
:1021C000D7FC06C0C114D10441F4EC85E4FF05C07E
:1021D000D194C194D1088DE201C08BE2B70190E0A7
:1021E0000E94FF1680E32AE0C216D1042CF08F5F14
:1021F000FAE0CF1AD108F7CFB70190E00E94FF169E
:10220000B701C601C0960E94FF1654C1833631F053
:10221000833779F0833509F056C020C0560132E08B
:10222000A30EB11CF6018081898301E010E06301F7
:1022300012C05601F2E0AF0EB11CF601C080D18091
:1022400096FE03C0612F70E002C06FEF7FEFC60102
:102250000E94F4168C01F92DFF7714C0560122E07C
:10226000A20EB11CF601C080D18096FE03C0612F82
:1022700070E002C06FEF7FEFC6010E94E2168C0192
:10228000F92DF0689F2EF3FD1AC0852D90E00817F8
:102290001907A8F4B70180E290E00E94FF165A9453
:1022A000F4CFF60197FC859197FE81916F01B701FC
:1022B00090E00E94FF1651105A9401501109011527
:1022C000110579F7F7C0843611F0893661F55601AA
:1022D00097FE09C024E0A20EB11CF6016081718155
:1022E000828193810AC0F2E0AF0EB11CF6016081D9
:1022F0007181072E000C880B990BF92DFF769F2E0C
:1023000097FF09C090958095709561957F4F8F4F8D
:102310009F4FF0689F2E2AE030E0A3010E947F17B4
:10232000C82EC6183FC0092D853721F40F7E2AE03C
:1023300030E01DC0097F8F3691F018F4883559F0D0
:10234000C3C0803719F0883711F0BEC0006104FFA8
:1023500009C0046007C094FE08C0066006C028E0FB
:1023600030E005C020E130E002C020E132E056015B
:1023700007FF09C084E0A80EB11CF60160817181DD
:102380008281938108C0F2E0AF0EB11CF60160813A
:10239000718180E090E0A3010E947F17C82EC618CB
:1023A0000F77902E96FE0BC0092D0E7FC11650F4AC
:1023B00094FE0AC092FC08C0092D0E7E05C0DC2CDC
:1023C000092D03C0DC2C01C0D12E04FF0DC0FE017D
:1023D000EC0DF11D8081803311F4097E09C002FFEC
:1023E00006C0D394D39404C0802F867809F0D39488
:1023F00003FD11C000FF06C01C2DD51480F4150D7F
:102400001D190DC0D51458F4B70180E290E00E9468
:10241000FF16D394F7CFD51410F45D1801C0512CDA
:1024200004FF10C0B70180E390E00E94FF1602FF96
:1024300017C001FD03C088E790E002C088E590E086
:10244000B7010CC0802F867859F001FF02C08BE2E3
:1024500001C080E207FD8DE2B70190E00E94FF1607
:10246000C11638F4B70180E390E00E94FF161150C6
:10247000F7CFCA94F301EC0DF11D8081B70190E014
:102480000E94FF16C110F5CF15C0F4E0F51560F5F8
:1024900084E0581A93FE1FC0011127C02C8523FF2A
:1024A0002AC000E112E0392D3071932EF801849199
:1024B000811124C0552009F4E4CCB70180E290E0FA
:1024C0000E94FF165A94F6CFF7018681978126C0A5
:1024D0008FEF9FEF23C0B70180E290E00E94FF16CC
:1024E0005A945110F8CFD8CF512CB701802F90E0DB
:1024F0000E94FF16D3CF04E112E0D5CF9110805295
:10250000B70190E00E94FF160F5F1F4FCFCF23E06F
:10251000251510F483E0BDCF512CC0CF6096CDBF00
:10252000DEBFDF91CF911F910F91FF90EF90DF9071
:10253000CF90BF90AF909F908F907F906F905F9063
:102540004F903F902F900895AA1BBB1B51E107C0ED
:10255000AA1FBB1FA617B70710F0A61BB70B881F33
:10256000991F5A95A9F780959095BC01CD010895C2
:1025700097FB072E16F4009407D077FD09D00E9430
:10258000A41207FC05D03EF4909581959F4F0895C5
:10259000709561957F4F0895A29FB001B39FC001D0
:1025A000A39F700D811D1124911DB29F700D811D7F
:1025B0001124911D08950F931F93CF93DF938230C1
:1025C000910510F482E090E0E0917424F09175247C
:1025D00020E030E0A0E0B0E0309719F14081518177
:1025E0000281138148175907C8F08417950769F4C9
:1025F000109731F012960C93129713961C9327C0E4
:10260000009374241093752422C02115310519F00C
:102610004217530718F49A01BD01EF01DF01F801D9
:10262000DBCF21153105F9F0281B390B243031059A
:1026300080F48A819B816115710521F0FB01828301
:10264000938304C08093742490937524FE01329682
:1026500044C0FE01E20FF31F819391932250310990
:10266000288339833AC02091722430917324232B1C
:1026700041F4209102203091032020937224309362
:10268000732420910020309101202115310541F45F
:102690002DB73EB74091042050910520241B350BE7
:1026A000E0917224F0917324E217F307A0F42E1B3B
:1026B0003F0B2817390778F0AC014E5F5F4F2417A6
:1026C000350748F04E0F5F1F4093722450937324D8
:1026D0008193919302C0E0E0F0E0CF01DF91CF91D0
:1026E0001F910F910895CF93DF93009709F481C054
:1026F000FC01329712821382A0917424B091752448
:10270000109781F420813181820F931F20917224D0
:10271000309173242817390751F5E0937224F09310
:10272000732467C0ED0120E030E0CE17DF0740F4EE
:102730004A815B819E0141155105F1F0EA01F5CF17
:10274000C283D38340815181840F951FC817D90755
:1027500059F488819981840F951F02968083918313
:102760008A819B81828393832115310529F4E0932B
:102770007424F09375243DC0E901EA83FB834991F9
:102780005991C40FD51FEC17FD0761F48081918129
:10279000840F951F0296E901888399838281938132
:1027A0008A839B83E0E0F0E012968D919C911397D1
:1027B000009719F0FD01DC01F7CF8D919C911197E5
:1027C0009D012E5F3F4F820F931F20917224309105
:1027D00073242817390769F4309729F41092742468
:1027E0001092752402C012821382A0937224B093B7
:1027F0007324DF91CF910895DC01FB018C919081CE
:102800009D9381934150510914161506BCF3089508
:10281000CF92DF92EF92FF920F931F93CF93DF93AC
:102820007C016B01D42FC52F8901F90119956D2FFA
:102830007C2F97FF10C0C601F801199597FF02C0C1
:10284000C60118C06D2F7C2FC701F801199597FD9F
:102850000FC0C7010FC0C601F80119951816190657
:102860007CF36D2F7C2FC701F801199597FDF1CFEF
:102870008D2F9C2FDF91CF911F910F91FF90EF90A3
:10288000DF90CF9008952F923F924F925F926F9278
:102890007F928F929F92AF92BF92CF92DF92EF92F0
:1028A000FF920F931F93CF93DF93CDB7DEB72A9795
:1028B000CDBFDEBF8C017B0149875A87690129851D
:1028C0003A85200F311F29833A8337E0E316F1045C
:1028D00070F569807A8049855A85E49E5001E59EAD
:1028E000B00CF49EB00C1124A00EB11E6A147B042F
:1028F00008F07AC173010E151F0528F089859A85A5
:10290000680E791EF3CF4701E985FA858E1A9F0A72
:10291000B701C401F6011995181619067CF7498507
:102920005A85B401C7010E94FC137401E4CFC701AA
:102930009695879529853A85829F5001839FB00C93
:10294000929FB00C1124A00EB11EA7014150510955
:102950004B835C8357E0E516F10409F44CC08B818E
:102960009C81829F3001839F700C929F700C112478
:10297000600E711E99E2E916F104A8F1C70143E067
:10298000969587954A95E1F7829F4001839F900C29
:10299000929F900C11241401220C331CA801420DAB
:1029A000531DB801680D791D9601C8010E940814D5
:1029B0002C01A501480D591D91948194910896010F
:1029C000B501C501880D991D0E9408145C01B30171
:1029D000680D791D9601A301C301821993090E9414
:1029E00008143C0101C028019601A301B501C201F0
:1029F0000E9408145C0149855A85B501C8010E94EE
:102A0000FC1369807A802B813C8149855A85249FFB
:102A1000F001259FF00D349FF00D1124ED83FE830E
:102A20005F01A00EB11E460D571D4B835C8325012F
:102A3000130119821A828B809C8089859A85881A55
:102A4000990AA814B90408F450C0B801C401F601E9
:102A5000199518161906C4F1892B71F449855A8500
:102A6000B401C1010E94FC1389859A85280E391E84
:102A7000E1E0F0E0E983FA832B813C8149855A85C6
:102A8000240F351F2B833C83D6CFB801C501F60137
:102A90001995950149855A85241B350B2F83388755
:102AA00097FD16C0892B71F449855A85B201C5017D
:102AB0000E94FC1329853A85421A530A41E050E0EE
:102AC00049835A83AF80B884A814B904F0F60DC0C6
:102AD00049855A85B501C4010E94FC13AF80B884B2
:102AE00041E050E049835A83C7CF89819A81892B7D
:102AF00009F44FC06D807E8029853A85620E731E71
:102B0000600E711E7401E218F308A101401B510B05
:102B1000E416F5060CF4A7011416150634F4B401F6
:102B2000641B750BC8010E94FC13A2014A195B09C2
:102B30005A01A3014419550989859A85481B590BE7
:102B4000A416B50608F4A5011416150634F4B3014D
:102B5000641B750BC4010E94FC13E985FA85EE1510
:102B6000FF0548F4C701BF010E94A4129601AF01FE
:102B7000C8010E94431429853A852A153B05A0F512
:102B800083010A191B09C501B9010E94A4127B0126
:102B900096CEE985FA85EE9E5001EF9EB00CFE9E22
:102BA000B00C1124A00EB11E6A147B04E8F473016A
:102BB0000E151F0528F089859A85680E791EF4CFB9
:102BC0004701E985FA858E1A9F0AB701C401F6010B
:102BD0001995181619067CF749855A85B401C7015D
:102BE0000E94FC137401E4CF2A96CDBFDEBFDF91B3
:102BF000CF911F910F91FF90EF90DF90CF90BF90FA
:102C0000AF909F908F907F906F905F904F903F908C
:102C10002F900895283008F027E03327DA01990F24
:102C2000311D87FD916000966105710539F43260B0
:102C30002E5F3D9330E32A95E1F708959F3F30F0F2
:102C400080387105610509F03C5F3C5F3D93913030
:102C500008F08068911DDF93CF931F930F93FF922D
:102C6000EF92192F987F9695E92F96959695E90FF3
:102C7000FF27EE58FD4F99273327EE24FF24A701A5
:102C8000E70105900894079428F4360FE71EF81E14
:102C9000491F511D660F771F881F991F0694A1F7C2
:102CA0000590079428F4E70EF81E491F561FC11D12
:102CB000770F881F991F661F0694A1F70590079448
:102CC00028F4F80E491F561FC71FD11D880F991FE2
:102CD000661F771F0694A1F70590079420F4490F0B
:102CE000561FC71FD81F990F661F771F881F06948E
:102CF000A9F784911095177041F0D695C79557950F
:102D00004795F794E7941A95C1F7E8E1F2E06894E3
:102D10001590159135916591959105907FE2739588
:102D2000E118F10A430B560BC90BD009C0F7E10CAF
:102D3000F11E431F561FC91FD01D7EF4703311F4BE
:102D40008A95E6CFE894015030F0080F0AF4002786
:102D5000021708F4202F2395022F7A3328F079E305
:102D60007D932A95E9F710C07D932A9589F60694FC
:102D700097956795379517951794E118F10A430BC6
:102D8000560BC90BD00998F023957E9173957A3331
:102D900008F070E37C932013B8F77E9170617D9307
:102DA00030F0839571E37D9370E32A95E1F7112468
:102DB000EF90FF900F911F91CF91DF91992787FDA1
:102DC00090950895FC010590615070400110D8F76E
:102DD000809590958E0F9F1F0895DC0101C06D9323
:102DE00041505040E0F70895FC016150704001905F
:102DF0000110D8F7809590958E0F9F1F08950F931F
:102E00001F93CF93DF93FB01238121FD03C08FEF3D
:102E10009FEF2CC022FF16C0468157812481358147
:102E20004217530744F4A081B1819D012F5F3F4FAA
:102E3000208331838C93268137812F5F3F4F2683F8
:102E4000378314C08B01EC01FB010084F185E02D78
:102E50001995892BE1F6D80116968D919C911797BB
:102E6000019616968D939C931797CE01DF91CF9183
:102E70001F910F910895CF93DF93CDB7DEB7AE01C9
:102E80004A5F5F4FFA0161917191AF01809178249F
:102E9000909179240E94040FDF91CF9108950F93B0
:102EA0001F93CF93DF93E0917824F09179242381CD
:102EB00021FF1BC08C01D0E0C0E0F80181918F019F
:102EC0006091782470917924DB011896ED91FC9142
:102ED0001997882331F01995892B79F3DFEFCFEF1C
:102EE000ECCF8AE01995892B19F08FEF9FEF02C084
:102EF0008D2F9C2FDF91CF911F910F910895FA0193
:102F0000AA27283051F1203181F1E8946F936E7F28
:102F10006E5F7F4F8F4F9F4FAF4FB1E03ED0B4E019
:102F20003CD0670F781F891F9A1FA11D680F791F5A
:102F30008A1F911DA11D6A0F711D811D911DA11D6B
:102F400020D009F468943F912AE0269F112430197B
:102F5000305D3193DEF6CF010895462F4770405D16
:102F60004193B3E00FD0C9F7F6CF462F4F70405DC5
:102F70004A3318F0495D31FD4052419302D0A9F720
:102F8000EACFB4E0A6959795879577956795BA951A
:102F9000C9F700976105710508959B01AC010A2EE0
:102FA00006945795479537952795BA95C9F7620FB7
:0E2FB000731F841F951FA01D0895F894FFCF76
:102FBE0000007C2420000000000300000000060337
:102FCE0012030000FF3F32000A002E2E2F467265BC
:102FDE006552544F532F7461736B732E63004944C3
:102FEE004C45000925630925750925750925750DBB
:102FFE000A0009256C750909256C7525250D0A0031
:10300E0009256C7509093C3125250D0A00455252DA
:10301E004F523A206D656D6F727920616C6C6F63E3
:10302E006174696F6E206661696C65640D0A005388
:10303E005441434B206F766572666C6F7720696ED4
:10304E00207461736B200041737365727420696E16
:10305E002066696C6520002C206C696E65206E728E
:10306E0020004D454D4F5259204D41503A0D002DE7
:10307E002D2D2D2D2D2D2D2D2D2D0D00494F207249
:10308E0065676973746572732073746172743A093B
:10309E0009093078253034780D0A00494F207265C1
:1030AE006769737465727320656E643A0909093035
:1030BE0078253034780D0A00454550524F4D207317
:1030CE00746172743A090909093078253034780D23
:1030DE000A00454550524F4D20656E643A09090964
:1030EE00093078253034780D0A005352414D207343
:1030FE00746172743A090909093078253034780DF3
:10310E000A00092E444154412073746172743A09C5
:10311E0009093078253034780D0A00092E444154BF
:10312E004120656E643A0909093078253034780DEE
:10313E000A00092E4253532073746172743A0909BE
:10314E00093078253034780D0A00092E4253532069
:10315E00656E643A0909093078253034780D0A0015
:10316E00092E484541502073746172743A09090959
:10317E003078253034780D0A00092E48454150200C
:10318E00656E643A0909093078253034780D0A00E5
:10319E00092E42617265206D6574616C2053544135
:1031AE00434B20656E643A09093078253034780D2A
:1031BE000A00092E42617265206D6574616C2053A0
:1031CE005441434B2073746172743A093078253040
:1031DE0034780D0A005352414D2073746F703A09C2
:1031EE000909093078253034780D0A0009546173C5
:1031FE006B206E616D653A2025730D0A0009095327
:10320E005441434B20656E643A09093078253034B9
:10321E00780D0A0009095443422073746172743A9E
:10322E0009093078253034780D0A000909544342D3
:10323E0020656E643A09093078253034780D0A001D
:10324E000D0A3D3D3D204F4546454E494E472034E3
:10325E0041202D20474548455547454E414444524F
:10326E00455353454E203D3D3D0D00476C6F626109
:10327E006C6520766172696162656C656E3A0D00EF
:10328E002020566172312061647265733A20307865
:10329E00253034580D0A00202056617232206164A8
:1032AE007265733A203078253034580D0A000D0AB5
:1032BE004C6F6B616C6520766172696162656C65DD
:1032CE006E20696E20576F726B65724D656D54611D
:1032DE00736B28293A0D00202056617234206164E8
:1032EE007265733A2030782530345820286C6F6B15
:1032FE0061616C290D0A00202056617235206164CF
:10330E007265733A203078253034582028737461F2
:10331E00746963290D0A002020566172362061649B
:10332E007265733A203078253034582028737461D2
:10333E00746963206765C3AF6E697469616C697384
:10334E0065657264290D0A000D0A47656865756723
:10335E00656E6D617070696E673A0D006D656D001A
:00000001FF
