:100000000C94C6010C94E7010C9432030C948F03FA
:100010000C94E7010C94E7010C94E7010C94E701C0
:100020000C94E7010C94E7010C94E7010C94E701B0
:100030000C94E7010C94E7010C94B20D0C94E701C9
:100040000C94320E0C94E7010C94E7010C94E70138
:100050000C94E7010C94E7010C94E7010C94E70180
:100060000C94E7010C94E7010C94E7010C94E70170
:100070000C94E7010C94E7010C94E7010C94E70160
:100080000C94E7010C94E7010C94E7010C94E70150
:100090000C94E7010C94E7010C94E7010C94E70140
:1000A0000C94E7010C94E7010C94E7010C94F00325
:1000B0000C9455040C94E7010C94F5050C94E7019D
:1000C0000C94E7010C94E7010C94E7010C94E70110
:1000D0000C94E7010C94E7010C94E7010C94E70100
:1000E0000C94E7010C94E7010C94E7010C94E701F0
:1000F0000C94E7010C94E7010C94E7010C94E701E0
:100100000C94E7010C94E7010C94E7010C94E701CF
:100110000C94E7010C94E7010C94E7010C94E701BF
:100120000C94E7010C94E7010C94E7010C94E701AF
:100130000C94E7010C94E7010C94E7010C94E7019F
:100140000C94E7010C94E7010C94E7010C94E7018F
:100150000C94E7010C94E7010C94E7010C94E7017F
:100160000C94E7010C94E7010C94E7010C94E7016F
:100170000C94E7010C94E7010C94E7010C94E7015F
:100180000C94E7010C94E7010C94E7010C94E7014F
:100190000C94E7010C94E7010C94E7010C94E7013F
:1001A0000C94E7010C94E7010C94E7010C94E7012F
:1001B0000C94E7010C94E7010C94E7010C94E7011F
:1001C0000C94E7010C94E7010C94E7010C94E7010F
:1001D0000C94E7010C94E7010C94E7010C94E701FF
:1001E0000C94E7010C94E7010C94E7010C94E701EF
:1001F0000C94E7010C94E7010C94E7010763423685
:10020000B79BD8A71A39685618AEBAAB558C1D3CA7
:10021000B7CC5763BD6DEDFD753EF6177231BF006B
:100220000000803F08000000BE922449123EABAAA5
:10023000AA2ABECDCCCC4C3E00000080BEABAAAA00
:10024000AA3E00000000BF000000803F0000000048
:1002500000084178D3BB4387D1133D190E3CC3BD81
:100260004282AD2B3E68EC8276BED98FE1A93E4C2E
:1002700080EFFFBE01C4FF7F3F00000000000C9430
:10028000B3130C94AC080C9487086E616E00696E11
:10029000660000407A10F35A00A0724E1809001050
:1002A000A5D4E80000E87648170000E40B540200EB
:1002B00000CA9A3B000000E1F50500008096980016
:1002C000000040420F000000A0860100000010273F
:1002D00000000000E80300000000640000000000CF
:1002E0000A00000000000100000000002C76D88801
:1002F000DC674F0823DFC1DFAE59E1B1B796E5E314
:10030000E453C63AE651997696E8E6C28426EB892C
:100310008C9B62ED407C6FFCEFBC9C9F40F2BAA5C9
:100320006FA5F490055A2AF75C936B6CF9676DC161
:100330001BFCE0E40D47FEF520E6B500D0ED902E65
:100340000300943577050080841E080000204E0AC3
:10035000000000C80C333333330F986E1283114101
:10036000EF8D2114893BE65516CFFEE6DB18D184CC
:100370004B381BF77C1D901DA4BBE42420328472F3
:100380005E228100C9F124ECA1E53D2711241FBEA6
:10039000CFEFCDBFDFE9DEBF00E00CBF10E2A0E091
:1003A000B0E2EAE3F5E400E00BBF02C007900D9273
:1003B000A23BB107D9F721E2A2EBB0E201C01D9246
:1003C000A338B207E1F70E94AF170C949B220C945C
:1003D0000000CF93DF93CDB7DEB70000DF91CF9160
:1003E0000895CF93DF93CDB7DEB780E296E028EF94
:1003F000FC01228380E296E028E5FC01238B80E269
:1004000096E028E5FC01248B80E296E028E5FC01DB
:10041000258B80E296E028E5FC01268B80E296E0C1
:1004200028E5FC01278B0000DF91CF910895CF9341
:10043000DF931F921F92CDB7DEB789839A8389819C
:100440009A8160E070E00E942B0200000F900F90F4
:10045000DF91CF910895CF93DF9300D01F92CDB756
:10046000DEB789839A836B837C831092B2201092CB
:10047000B32026C080EA9AE029813A81F9012081DF
:10048000FC012083000080EA9AE0FC018181882F32
:1004900090E080749927892BB1F380EA9AE020E4F8
:1004A000FC01218389819A81019689839A838091B5
:1004B000B2209091B32001968093B2209093B32004
:1004C00089819A81FC018081882369F02091B22082
:1004D0003091B3208B819C81281739075CF28B8186
:1004E0009C81892B39F200002496CDBFDEBFDF91BD
:1004F000CF910895CF93DF931F921F92CDB7DEB7B0
:1005000089839A8380E197E28093B4209093B52009
:100510001092B62073C08091B4209091B5209C01B8
:1005200089819A81B9010E94B41FCB01AC019A0163
:10053000ADECBCEC0E94DC1F96958795969587954F
:1005400096958795880F991F9C01220F331F220FC4
:10055000331F820F931F9A01281B390BC901892B66
:1005600021F48091B6208823D9F1E0EAFAE0809165
:10057000B4209091B5209C0189819A81B9010E9493
:10058000B41FCB01AC019A01ADECBCEC0E94DC1FA6
:10059000969587959695879596958795880F991F37
:1005A0009C01220F331F220F331F820F931F9A01CA
:1005B000281B390BC901805D8083000080EA9AE026
:1005C000FC018181882F90E080749927892BB1F3F9
:1005D00080EA9AE020E4FC01218381E08093B62048
:1005E0008091B4209091B5202AE030E0B9010E94BA
:1005F000C81FCB018093B4209093B5208091B42084
:100600009091B520181619060CF485CF00000F90B4
:100610000F90DF91CF910895CF93DF93CDB7DEB7E1
:1006200080E296E027E0FC01218380E096E020E86C
:10063000FC01218380E296E020E4FC01208B80E233
:1006400096E020E4FC01218B80E296E020E4FC01AE
:10065000228B80E096E020E4FC01278B0000DF91F4
:10066000CF9108951F920F9200903F000F92112496
:1006700000903B000F922F933F938F939F93EF93A4
:10068000FF93CF93DF931F92CDB7DEB780E496E060
:10069000FC01808589838981882F90E08074992767
:1006A000892B99F0898188231CF48FEF9FEF02C07A
:1006B00081E090E02091B7203091B820820F931F05
:1006C0008093B7209093B82012C0898188231CF4AE
:1006D00081E090E002C08FEF9FEF2091B720309132
:1006E000B820820F931F8093B7209093B82080E4A6
:1006F00096E021E0FC01248700000F90DF91CF916C
:10070000FF91EF919F918F913F912F910F900092C8
:100710003B000F9000923F000F901F9018951F9282
:100720000F9200903F000F92112400903B000F9217
:100730002F933F938F939F93EF93FF93CF93DF93E9
:100740001F92CDB7DEB780E496E0FC0180858983F7
:1007500089818823BCF48981882F90E0807499274F
:10076000892B19F081E090E002C08FEF9FEF20917C
:10077000B7203091B820820F931F8093B7209093B9
:10078000B82016C08981882F90E080749927892B22
:1007900019F08FEF9FEF02C081E090E02091B72029
:1007A0003091B820820F931F8093B7209093B82088
:1007B00080E496E022E0FC01248700000F90DF91A6
:1007C000CF91FF91EF919F918F913F912F910F903A
:1007D00000923B000F9000923F000F901F901895E1
:1007E0001F920F9200903F000F92112400903B0047
:1007F0000F922F933F938F939F93EF93FF93CF93FA
:10080000DF931F92CDB7DEB780E896E0FC018085CC
:1008100089838981882F90E080719927892BB9F08D
:100820008981882F90E080729927892B19F08FEFAA
:100830009FEF02C081E090E02091B9203091BA2072
:10084000820F931F8093B9209093BA2016C089819C
:10085000882F90E080729927892B19F081E090E031
:1008600002C08FEF9FEF2091B9203091BA20820F04
:10087000931F8093B9209093BA2080E896E021E0FE
:10088000FC01248700000F90DF91CF91FF91EF9141
:100890009F918F913F912F910F9000923B000F906D
:1008A00000923F000F901F9018951F920F9200909A
:1008B0003F000F92112400903B000F922F933F9323
:1008C0008F939F93EF93FF93CF93DF931F92CDB7B7
:1008D000DEB780E896E0FC01808589838981882FD6
:1008E00090E080729927892BB9F08981882F90E058
:1008F00080719927892B19F081E090E002C08FEF79
:100900009FEF2091B9203091BA20820F931F8093DE
:10091000B9209093BA2016C08981882F90E0807109
:100920009927892B19F08FEF9FEF02C081E090E0AB
:100930002091B9203091BA20820F931F8093B92063
:100940009093BA2080E896E022E0FC012487000022
:100950000F90DF91CF91FF91EF919F918F913F91F8
:100960002F910F9000923B000F9000923F000F904C
:100970001F901895CF93DF93CDB7DEB780E496E054
:1009800020E2FC0121830000DF91CF910895CF93F5
:10099000DF931F92CDB7DEB789838981882331F039
:1009A00080E496E020E2FC01258305C080E496E027
:1009B00020E2FC01268300000F90DF91CF91089583
:1009C0008BEC8093520088E080935000809151001E
:1009D00083FFFCCF82EC8093550088E18093500028
:1009E0008091510084FFFCCF88ED84BF84E0809328
:1009F000400080E00895CF93DF93CDB7DEB710922B
:100A0000C42080E896E028E1FC01208B80E896E095
:100A100028E1FC01218B80EA94E028E7FC01218396
:100A200080EA94E023E2FC01258380EA94E021E05F
:100A3000FC0124830000DF91CF910895CF93DF93D1
:100A40001F92CDB7DEB780EA94E0FC0184818983F0
:100A50008981882F90E084709927892B21F084E088
:100A60008093C52003C083E08093C52080EA94E092
:100A700029812860FC0124831092C42000000F907B
:100A8000DF91CF910895CF93DF9300D01F92CDB720
:100A9000DEB78091C02089838091C1208A8380EA5B
:100AA00094E0FC018481882F90E080719927892B44
:100AB00059F080EA94E023E0FC01238385E08093F1
:100AC000C5201092C42034C09091C220898198170B
:100AD000C0F42091BC203091BD208091C220882F8D
:100AE00090E0820F931FFC0180818B8380EA94E069
:100AF0002B81FC0127838091C2208F5F8093C220CD
:100B000017C09091C3208A81981750F48091BB2020
:100B100081608C8380EA94E02C81FC01268308C0EC
:100B200080EA94E023E0FC01238381E00E94E50554
:100B300000002496CDBFDEBFDF91CF910895CF9303
:100B4000DF931F921F92CDB7DEB78091C320803212
:100B5000C0F480EA94E0FC01878189832091BE2063
:100B60003091BF208091C320882F90E0820F931F87
:100B70002981FC0120838091C3208F5F8093C32053
:100B800008C080EA94E023E0FC01238382E00E9415
:100B9000E5058091C1208A839091C3208A819817AE
:100BA00030F480EA94E022E0FC01238308C080EA6C
:100BB00094E027E0FC01238381E00E94E50500002A
:100BC0000F900F90DF91CF910895CF93DF931F92F5
:100BD000CDB7DEB7898389818093C5201092C42068
:100BE00000000F90DF91CF9108951F920F92009017
:100BF0003F000F92112400903B000F922F933F93E0
:100C00004F935F936F937F938F939F93AF93BF9314
:100C1000EF93FF93CF93DF931F92CDB7DEB780EAB8
:100C200094E0FC01848189838981882F90E0887019
:100C30009927892B39F48981882F90E0847099272E
:100C4000892B19F00E941E0513C08981882F90E01E
:100C500080749927892B19F00E94430509C0898166
:100C600088231CF40E949F0503C086E00E94E505CE
:100C70008091C42000000F90DF91CF91FF91EF9100
:100C8000BF91AF919F918F917F916F915F914F91A4
:100C90003F912F910F9000923B000F9000923F00E8
:100CA0000F901F901895CF93DF93CDB7DEB72B979A
:100CB000CDBFDEBF80E896E028E0FC01218380E81C
:100CC00096E024E0FC01228380EA9AE0FC01138292
:100CD00080EA9AE028E1FC01248380EA9AE023E09C
:100CE000FC01258340E052EC61E070E0CE0101960A
:100CF0000E94A10680EA9AE02A813B81FC012683BA
:100D000080EA9AE02981422F4295407F2A813B81E7
:100D1000232F33272F70242BFC01278386E090E2BA
:100D200080937F219093802186E090E280937D21C3
:100D300090937E2100002B96CDBFDEBFDF91CF9137
:100D40000895CF92DF92EF92FF92CF93DF93CDB7CA
:100D5000DEB7E097CDBFDEBF8BA79CA74DA75EA7F0
:100D60006FA778AB88E29BE6AEE6BEE48FA398A7B8
:100D7000A9A7BAA788E29BE6AEE6BEE489839A8378
:100D8000AB83BC8389EF8D83A8C18D81082E000CB5
:100D9000990BAA0BBB0BBC01CD010E946D19DC01A4
:100DA000CB019C01AD0160E070E080E090E40E9426
:100DB0008F1ADC01CB018C879D87AE87BF878D8121
:100DC00088230CF494C020E030E040E851E46C85C6
:100DD0007D858E859F850E94221ADC01CB016C01E6
:100DE0007D016DA57EA58FA598A90E946B19DC01D8
:100DF000CB019C01AD01C701B6010E94221ADC01A2
:100E0000CB019C01AD0160E074E284EF9BE40E94A1
:100E1000CA18DC01CB0120E030E040E85FE3BC0110
:100E2000CD010E945818DC01CB01888B998BAA8BCD
:100E3000BB8B20E030E0A901688979898A899B8988
:100E40000E94C51888230CF442C120E030EF4FE720
:100E500055E4688979898A899B890E941D1A181628
:100E60000CF435C120E030E040E05FE36889798927
:100E70008A899B890E945918DC01CB01BC01CD01F4
:100E80000E943C19DC01CB018E839F8320E030E07F
:100E900040E851E46C857D858E859F850E94221AED
:100EA000DC01CB016C017D018E819F810196CC011B
:100EB000A0E0B0E0BC01CD010E946B19DC01CB01C8
:100EC0009C01AD01C701B6010E94221ADC01CB01D1
:100ED0009C01AD0160E074E284EF9BE40E94CA18BB
:100EE000DC01CB0188879987AA87BB8798C06DA54D
:100EF0007EA58FA598A90E946B19DC01CB0120E08B
:100F000030E040E851E4BC01CD010E94221ADC012E
:100F1000CB019C01AD0160E074E284EF9BE40E9490
:100F2000CA18DC01CB0120E030E040E85FE3BC01FF
:100F3000CD010E945818DC01CB012C853D854E85E2
:100F40005F85BC01CD010E94CA18DC01CB018C8BEE
:100F50009D8BAE8BBF8B20E030E0A9016C897D8931
:100F60008E899F890E94C51888230CF4B2C020E0A6
:100F700030EF4FE755E46C897D898E899F890E9407
:100F80001D1A18160CF4A5C020E030E040E05FE325
:100F90006C897D898E899F890E945918DC01CB015B
:100FA000BC01CD010E943C19DC01CB018E839F83E3
:100FB0008E819F81CC01A0E0B0E0BC01CD010E94F8
:100FC0006B19DC01CB012C853D854E855F85BC010D
:100FD000CD010E94221ADC01CB0120E030E040E884
:100FE0005FE3BC01CD010E945918DC01CB0120E078
:100FF00030E040E851E4BC01CD010E94221ADC013E
:10100000CB019C01AD0160E074E284EF9BE40E949F
:10101000CA18DC01CB0188879987AA87BB876DA591
:101020007EA58FA598A90E946B19DC01CB019C01BC
:10103000AD01688579858A859B850E945818DC01F9
:10104000CB01BF77888F998FAA8FBB8F6DA57EA5A7
:101050008FA598A90E946B19DC01CB019C01AD0101
:10106000688D798D8A8D9B8D0E94CA18DC01CB0119
:101070008C8F9D8FAE8FBF8F29813A814B815C8190
:10108000688D798D8A8D9B8D0E94C518882314F5F3
:10109000888D998DAA8DBB8D89839A83AB83BC8300
:1010A0008D8188A38E819F8189A39AA3888D998D34
:1010B000AA8DBB8D8BA39CA3ADA3BEA38C8D9D8D50
:1010C000AE8DBF8D8FA398A7A9A7BAA703C00000B4
:1010D00001C000008D818F5F8D838D8188300CF47D
:1010E00054CE8BA59CA52BE0FE01B096DC010190AF
:1010F0000D922A95E1F78BA59CA5E096CDBFDEBFAA
:10110000DF91CF91FF90EF90DF90CF900895CF9334
:10111000DF9300D0CDB7DEB789836A837B8380EA13
:101120009AE02981FC012083000080EA9AE0FC011A
:101130008181882F90E080749927892BB1F380EA10
:101140009AE020E4FC01218380E090E02396CDBF6B
:10115000DEBFDF91CF910895CF93DF931F921F924F
:10116000CDB7DEB789839A83000080EA9AE0FC015C
:1011700081818823D4F780EA9AE0FC018081882F5E
:1011800090E00F900F90DF91CF910895CF93DF9370
:10119000CDB7DEB72E97CDBFDEBF8D879E871D8270
:1011A0001E820E94B7108091CE20882329F40E94CD
:1011B000210A81E08093CE208D859E85892B41F088
:1011C00084E090E02D853E85820F931F8D879E875A
:1011D0008D859E85892B09F4B8C08D859E858F3FAE
:1011E0009F4308F0B2C086EC90E28B839C83809191
:1011F000C6209091C72089839A830BC089819A81E8
:101200008B839C8389819A81FC0180819181898370
:101210009A8389819A81FC01228133818D859E8503
:101220002817390738F489819A81FC0180819181DE
:10123000892B21F789819A818A5C904209F485C0C3
:101240008B819C81FC012081318184E090E0820FC0
:10125000931F8D839E8389819A81FC012081318136
:101260008B819C81FC012083318389819A81FC01DF
:10127000228133818D859E85281B390B84E090E087
:10128000880F991F8217930708F04EC029813A8171
:101290008D859E85820F931F89879A8789819A8180
:1012A000FC01228133818D859E85281B390B898520
:1012B0009A85FC012283338389819A812D853E851D
:1012C000FC012283338389859A85FC018281938185
:1012D0008B879C8786EC90E28F83988707C08F81ED
:1012E0009885FC01808191818F8398878F81988573
:1012F000FC0180819181FC01228133818B859C8559
:101300002817390760F38F819885FC01208131818E
:1013100089859A85FC01208331838F819885298571
:101320003A85FC01208331832091142030911520CF
:1013300089819A81FC0182819381A901481B590B03
:10134000CA0180931420909315200E94C4108D81AF
:101350009E81892B11F40E948B148D819E812E9683
:10136000CDBFDEBFDF91CF910895CF93DF93CDB78F
:10137000DEB72A97CDBFDEBF89879A8789859A8590
:101380008B839C8389859A85892B09F453C084E0DB
:1013900090E09195819591092B813C81820F931F5B
:1013A0008B839C838B819C818D839E830E94B7104D
:1013B0008D819E81FC01828193818F83988786EC49
:1013C00090E289839A8307C089819A81FC01808198
:1013D000918189839A8389819A81FC01808191819D
:1013E000FC01228133818F8198852817390760F3AA
:1013F00089819A81FC01208131818D819E81FC014E
:101400002083318389819A812D813E81FC01208353
:1014100031838D819E81FC01228133818091142052
:1014200090911520820F931F809314209093152084
:101430000E94C41000002A96CDBFDEBFDF91CF917D
:101440000895CF93DF9300D01F92CDB7DEB7809180
:10145000772190917821019689839A8389819A8155
:101460008093C6209093C7201092C8201092C92064
:101470008FEF9FE38093CC209093CD201092CA20D1
:101480001092CB2089819A818B839C838B819C8154
:101490002FEF3FE3FC01228333838B819C812AEC75
:1014A00030E2FC012083318300002496CDBFDEBFF3
:1014B000DF91CF910895CF93DF931F921F92CDB705
:1014C000DEB789839A8389819A819C012D5F3F4F82
:1014D00089819A81FC012183328389819A812FEF4E
:1014E0003FEFFC012383348389819A819C012D5F26
:1014F0003F4F89819A81FC012583368389819A81B6
:101500009C012D5F3F4F89819A81FC0127833087A1
:1015100089819A81FC01108200000F900F90DF9169
:10152000CF910895CF93DF931F921F92CDB7DEB76F
:1015300089839A8389819A81FC0110861186000033
:101540000F900F90DF91CF910895CF93DF9300D04C
:1015500000D0CDB7DEB78B839C836D837E838B8178
:101560009C81FC018181928189839A838D819E81F6
:1015700029813A81FC012283338389819A81FC018C
:10158000248135818D819E81FC012483358389816D
:101590009A81FC01848195812D813E81FC01228309
:1015A000338389819A812D813E81FC012483358397
:1015B0008D819E812B813C81FC01208731878B812D
:1015C0009C81FC01808121E0280F8B819C81FC01A2
:1015D000208300002696CDBFDEBFDF91CF91089516
:1015E000CF93DF9300D01F92CDB7DEB78B839C8360
:1015F0008B819C81FC018085918589839A838B8175
:101600009C81FC01828193812B813C81F9012481A1
:101610003581FC01248335838B819C81FC0184818D
:1016200095812B813C81F90122813381FC01228348
:10163000338389819A81FC01218132818B819C8154
:101640002817390751F48B819C81FC012481358155
:1016500089819A81FC01218332838B819C81FC01E9
:101660001086118689819A81FC0180812FEF280FD5
:1016700089819A81FC01208389819A81FC01808182
:101680002496CDBFDEBFDF91CF910895CF93DF9336
:10169000CDB7DEB72897CDBFDEBF8B839C836D832C
:1016A0007E834F8358878B819C8121E1FC012083BD
:1016B0008B819C8101978B839C838B819C8122E20F
:1016C000FC0120838B819C8101978B839C838B8180
:1016D0009C8123E3FC0120838B819C8101978B8378
:1016E0009C838D819E8189839A8329818B819C81B2
:1016F000FC0120838B819C8101978B839C83898152
:101700009A81892F992789839A8329818B819C814A
:10171000FC0120838B819C8101978B839C83898131
:101720009A81892F992789839A8329818B819C812A
:10173000FC0120838B819C8101978B839C838B810F
:101740009C81FC0110828B819C8101978B839C83FF
:101750008B819C8120E8FC0120838B819C810197F7
:101760008B839C838B819C81FC0110828B819C816B
:1017700001978B839C838B819C8122E0FC012083D9
:101780008B819C8101978B839C838B819C8123E03F
:10179000FC0120838B819C8101978B839C838B81AF
:1017A0009C8124E0FC0120838B819C8101978B83A9
:1017B0009C838B819C8125E0FC0120838B819C8113
:1017C00001978B839C838B819C8126E0FC01208385
:1017D0008B819C8101978B839C838B819C8127E0EB
:1017E000FC0120838B819C8101978B839C838B815F
:1017F0009C8128E0FC0120838B819C8101978B8355
:101800009C838B819C8129E0FC0120838B819C81BE
:1018100001978B839C838B819C8120E1FC01208339
:101820008B819C8101978B839C838B819C8121E19F
:10183000FC0120838B819C8101978B839C838B810E
:101840009C8122E1FC0120838B819C8101978B8309
:101850009C838B819C8123E1FC0120838B819C8173
:1018600001978B839C838B819C8124E1FC012083E5
:101870008B819C8101978B839C838B819C8125E14B
:10188000FC0120838B819C8101978B839C838B81BE
:101890009C8126E1FC0120838B819C8101978B83B5
:1018A0009C838B819C8127E1FC0120838B819C811F
:1018B00001978B839C838B819C8128E1FC01208391
:1018C0008B819C8101978B839C838B819C8129E1F7
:1018D000FC0120838B819C8101978B839C838B816E
:1018E0009C8120E2FC0120838B819C8101978B836A
:1018F0009C838B819C8121E2FC0120838B819C81D4
:1019000001978B839C838B819C8122E2FC01208345
:101910008B819C8101978B839C838B819C8123E2AB
:10192000FC0120838B819C8101978B839C838F8119
:10193000988589839A8329818B819C81FC012083EE
:101940008B819C8101978B839C8389819A81892FCC
:10195000992789839A8329818B819C81FC0120832B
:101960008B819C8101978B839C838B819C8126E258
:10197000FC0120838B819C8101978B839C838B81CD
:101980009C8127E2FC0120838B819C8101978B83C2
:101990009C838B819C8128E2FC0120838B819C812C
:1019A00001978B839C838B819C8129E2FC0120839E
:1019B0008B819C8101978B839C838B819C8120E30D
:1019C000FC0120838B819C8101978B839C838B817D
:1019D0009C8121E3FC0120838B819C8101978B8377
:1019E0009C838B819C812896CDBFDEBFDF91CF91F8
:1019F0000895CF93DF93CDB7DEB70E94880DA091F5
:101A0000CF20B091D020CD91CDBFDD91DEBFFF9131
:101A1000EF91DF91CF91BF91AF919F918F917F9186
:101A20006F915F914F913F912F911F910F91FF9077
:101A3000EF90DF90CF90BF90AF909F908F907F906E
:101A40006F905F904F903F902F901F900F900FBE20
:101A50000F90089581E0DF91CF9108950F920FB616
:101A6000F8940F921F9211242F923F924F925F92FF
:101A70006F927F928F929F92AF92BF92CF92DF929E
:101A8000EF92FF920F931F932F933F934F935F9388
:101A90006F937F938F939F93AF93BF93CF93DF9376
:101AA000EF93FF93A091CF20B091D0200DB60D926F
:101AB0000EB60D920E945912A091CF20B091D02065
:101AC000CD91CDBFDD91DEBFFF91EF91DF91CF9141
:101AD000BF91AF919F918F917F916F915F914F9146
:101AE0003F912F911F910F91FF90EF90DF90CF903A
:101AF000BF90AF909F908F907F906F905F904F902E
:101B00003F902F901F900F900FBE0F9008950000F0
:101B1000CF93DF93CDB7DEB780E098E02FEF3FEFB4
:101B2000FC0120A731A780E098E021E0FC012083A0
:101B300080E098E020E4FC01218380E098E021E04F
:101B4000FC01268380E098E021E0FC01278380E00F
:101B500098E020E03DE7FC0126A337A30000DF91D9
:101B6000CF9108950F920FB6F8940F921F921124FF
:101B70002F923F924F925F926F927F928F929F929D
:101B8000AF92BF92CF92DF92EF92FF920F931F938B
:101B90002F933F934F935F936F937F938F939F9375
:101BA000AF93BF93CF93DF93EF93FF93A091CF2099
:101BB000B091D0200DB60D920EB60D9280E098E057
:101BC000FC0186A197A19C0140E050E08091732127
:101BD00090917421A0917521B0917621820F931F6D
:101BE000A41FB51F8093732190937421A093752136
:101BF000B09376210E9464110E945912A091CF20C7
:101C0000B091D020CD91CDBFDD91DEBFFF91EF919E
:101C1000DF91CF91BF91AF919F918F917F916F9104
:101C20005F914F913F912F911F910F91FF90EF90F6
:101C3000DF90CF90BF90AF909F908F907F906F90EC
:101C40005F904F903F902F901F900F900FBE0F907E
:101C500018950000CF93DF93CDB7DEB70000DF917A
:101C6000CF9108950F920FB6F8940F921F921124FE
:101C70002F923F924F925F926F927F928F929F929C
:101C8000AF92BF92CF92DF92EF92FF920F931F938A
:101C90002F933F934F935F936F937F938F939F9374
:101CA000AF93BF93CF93DF93EF93FF93A091CF2098
:101CB000B091D0200DB60D920EB60D9280E098E056
:101CC0002FEF3FEFFC0120A731A70E945912A091EE
:101CD000CF20B091D020CD91CDBFDD91DEBFFF915F
:101CE000EF91DF91CF91BF91AF919F918F917F91B4
:101CF0006F915F914F913F912F911F910F91FF90A5
:101D0000EF90DF90CF90BF90AF909F908F907F909B
:101D10006F905F904F903F902F901F900F900FBE4D
:101D20000F90189500008F929F92AF92BF92CF9222
:101D3000DF92EF92FF920F931F93CF93DF93CDB774
:101D4000DEB76097CDBFDEBF8E839F8368877987BC
:101D50004A875B872C873D870E87EF86F88A8A85BE
:101D60009B850E94C6088C839D838C819D81892BD5
:101D7000B9F080E390E00E94C60889839A83898144
:101D80009A81892B41F089819A812C813D81FC01C6
:101D9000278B308F07C08C819D810E94B50902C0BE
:101DA00019821A8289819A81892B09F18A859B85FA
:101DB000CC01A0E0B0E009811A814F8558892C85BB
:101DC0003D8568857985EE81FF81812C912C5801B4
:101DD0006A01EE8489019C01AD01CF010E940A0FC6
:101DE00089819A810E94F10F81E08B8302C08FEF7D
:101DF0008B838B816096CDBFDEBFDF91CF911F912A
:101E00000F91FF90EF90DF90CF90BF90AF909F9099
:101E10008F9008958F929F92AF92BF92CF92DF9250
:101E2000EF920F931F93CF93DF93CDB7DEB76497F5
:101E3000CDBFDEBF8C839D836E837F8328873987E8
:101E40004A875B870C871D87EE86CF86D88AA98A4A
:101E5000BA8A8B8A9C8A8E819F81892B31F460E6B5
:101E600073E086E190E20E94991628853985898978
:101E70009A89FC018789908DA90165EA70E00E942A
:101E8000EF2189899A89FC012789308D8885998578
:101E90000197820F931F8A839B83198221C08981B6
:101EA000882F90E02981222F30E04E815F81240F1E
:101EB000351FF901408129893A89820F931F49967C
:101EC000FC0140838981882F90E02E813F81820F21
:101ED000931FFC018081882339F089818F5F89837A
:101EE00089818830E0F201C0000089899A89FC016B
:101EF00010A28E858A3010F089E08E8789899A89B0
:101F00002E85FC01268B89899A892E85FC0123A3C5
:101F100089899A89FC0114A289899A8902960E946A
:101F2000920A89899A890C960E94920A89899A89CB
:101F300029893A89FC01208731878E85882F90E096
:101F40002AE030E0281B390B89899A89FC01248713
:101F5000358789899A8929893A89FC01228B338BB3
:101F600089899A89FC0115A216A289899A89FC019E
:101F700017A210A611A612A689899A89FC0113A698
:101F800014A615A616A689899A89FC0117A64C8560
:101F90005D852C813D818A819B81B9010E94460B20
:101FA0009C0189899A89FC01208331838F859889D6
:101FB000892B39F08F85988929893A89FC012083FA
:101FC000318300006496CDBFDEBFDF91CF911F91BA
:101FD0000F91EF90DF90CF90BF90AF909F908F9038
:101FE0000895CF93DF931F921F92CDB7DEB78983F9
:101FF0009A830FB6F8940F9280915D218F5F809342
:102000005D218091CF209091D020892B69F4898126
:102010009A818093CF209093D02080915D21813050
:10202000C9F40E94C61316C080916121882391F4DF
:102030008091CF209091D020FC01268989819A81BE
:10204000FC018689821730F089819A818093CF20A4
:102050009093D020809165218F5F8093652120919E
:10206000652189819A81FC0121A389819A81FC01E2
:10207000968980916021891730F489819A81FC01C9
:1020800086898093602189819A81AC014E5F5F4F80
:1020900089819A81FC018689282F30E0C901880F47
:1020A000991F880F991F880F991F820F931F8F52B6
:1020B0009F4DBA010E94A50A0F900FBE8091612129
:1020C000882371F08091CF209091D020FC01268947
:1020D00089819A81FC018689281710F40E942E0DAF
:1020E00000000F900F90DF91CF910895EF92FF9233
:1020F0000F93CF93DF931F92CDB7DEB70F2EF8E685
:10210000EF2EF1E2FF2EF02D00E020E030E040E085
:1021100051E06AE270E283EB93E10E94930E8983BF
:102120008981813099F4F8948FEF9FEF8093662135
:102130009093672181E08093612110925E2110923B
:102140005F210E942A0E0E94F90C09C089818F3FED
:1021500031F467E078E086E190E20E949916000091
:102160000F90DF91CF910F91FF90EF900895CF9353
:10217000DF93CDB7DEB780916A218F5F80936A21AC
:102180000000DF91CF910895CF93DF9300D01F928D
:10219000CDB7DEB719821A821B8280916A2188230B
:1021A00031F46CE678E086E190E20E9499160FB671
:1021B000F8940F9280916A21815080936A218091D6
:1021C0006A21882309F077C080915D21882309F472
:1021D00072C049C08091462190914721FC018681BF
:1021E000978189839A8389819A810C960E94F00A4B
:1021F00089819A8102960E94F00A89819A81FC0164
:10220000968980916021891730F489819A81FC0137
:1022100086898093602189819A81AC014E5F5F4FEE
:1022200089819A81FC018689282F30E0C901880FB5
:10223000991F880F991F880F991F820F931F8F5224
:102240009F4DBA010E94A50A89819A81FC012689C5
:102250008091CF209091D020FC018689281718F01A
:1022600081E08093632180914121882309F0B2CFDE
:1022700089819A81892B11F00E94531480916221E7
:102280008C838C81882379F00E946411882319F053
:1022900081E0809363218C8181508C838C818823A1
:1022A00099F71092622180916321882321F081E0C7
:1022B0008B830E942E0D0F900FBE8B812496CDBF75
:1022C000DEBFDF91CF910895CF93DF93CDB7DEB717
:1022D0002997CDBFDEBF198280916A21882309F03A
:1022E000D6C080915E2190915F2101968A839B8365
:1022F0008A819B8180935E2190935F218A819B815B
:10230000892B49F580913D2190913E21FC018081EE
:10231000882331F066E67AE086E190E20E94991621
:1023200080913D2190913E218C839D8380913F211E
:102330009091402180933D2190933E218C819D81FD
:1023400080933F2190934021809164218F5F8093FF
:1023500064210E94531480916621909167212A8103
:102360003B812817390708F478C080913D2190916E
:102370003E21FC018081882339F48FEF9FEF809309
:1023800066219093672169C080913D2190913E2103
:10239000FC0185819681FC01868197818E839F83D4
:1023A0008E819F81FC0182819381888799872A8110
:1023B0003B81888599852817390738F48885998560
:1023C000809366219093672148C08E819F810296F9
:1023D0000E94F00A8E819F81FC0184899589892B56
:1023E00029F08E819F810C960E94F00A8E819F8138
:1023F000FC01968980916021891730F48E819F813C
:10240000FC018689809360218E819F81AC014E5FA3
:102410005F4F8E819F81FC018689282F30E0C901A2
:10242000880F991F880F991F880F991F820F931F7C
:102430008F529F4DBA010E94A50A8E819F81FC0197
:1024400026898091CF209091D020FC018689281781
:1024500008F48BCF81E0898388CF8091CF20909141
:10246000D020FC018689282F30E0C901880F991FF0
:10247000880F991F880F991F820F931F8F529F4DAE
:10248000FC018081823040F081E0898305C0809129
:1024900062218F5F8093622180916321882311F0F4
:1024A00081E0898389812996CDBFDEBFDF91CF91FD
:1024B0000895AF92BF92CF92DF92EF92FF920F9367
:1024C0001F93CF93DF93CDB7DEB72997CDBFDEBF84
:1024D00080916A21882321F081E08093632134C1B7
:1024E0001092632180E098E0FC0180A191A19C0101
:1024F00040E050E08091732190917421A09175216A
:10250000B0917621820F931FA41FB51F80936F2176
:1025100090937021A0937121B093722120916F212B
:1025200030917021409171215091722180916B21E5
:1025300090916C21A0916D21B0916E21821793072B
:10254000A407B50750F56091CF207091D020FB0112
:1025500027A130A541A552A5E0906F21F0907021F0
:10256000009171211091722180916B2190916C21C9
:10257000A0916D21B0916E2157016801A81AB90A86
:10258000CA0ADB0AD601C501820F931FA41FB51F1B
:10259000FB0187A390A7A1A7B2A780916F2190917B
:1025A0007021A0917121B091722180936B21909341
:1025B0006C21A0936D21B0936E218091CF209091DA
:1025C000D020FC018789908D8A839B8385EA95EAD8
:1025D000DC018C839D83AE83BF838A819B81FC0158
:1025E00020813181428153818C819D81AE81BF8167
:1025F000281739074A075B0799F58A819B8104965A
:10260000FC0120813181428153818C819D81AE8189
:10261000BF81281739074A075B0711F58A819B811B
:102620000896FC0120813181428153818C819D81FA
:10263000AE81BF81281739074A075B0789F48A8171
:102640009B810C96FC0120813181428153818C81D8
:102650009D81AE81BF81281739074A075B0771F05A
:102660008091CF209091D0209C01275E3F4F809198
:10267000CF209091D020B9010E948B1580916021CC
:1026800089830CC08981882331F46CE87BE086E182
:1026900090E20E9499168981815089838981282F2F
:1026A00030E0C901880F991F880F991F880F991F63
:1026B000820F931F8F529F4DFC018081882311F35D
:1026C0008981282F30E0C901880F991F880F991F31
:1026D000880F991F820F931F8F529F4D888799876C
:1026E00088859985FC0181819281FC012281338159
:1026F00088859985FC012183328388859985FC0131
:10270000218132818885998503962817390769F4D4
:1027100088859985FC0181819281FC012281338128
:1027200088859985FC012183328388859985FC0100
:1027300081819281FC01868197818093CF20909343
:10274000D02089818093602100002996CDBFDEBF13
:10275000DF91CF911F910F91FF90EF90DF90CF907D
:10276000BF90AF900895CF93DF931F921F92CDB784
:10277000DEB789839A830E9408148091D120823029
:1027800010F00E942E0D0E948314F5CFCF93DF939B
:102790001F92CDB7DEB7198213C08981282F30E090
:1027A000C901880F991F880F991F880F991F820FE1
:1027B000931F8F529F4D0E945B0A89818F5F89838F
:1027C00089818A3050F38BE291E20E945B0A84E3B4
:1027D00091E20E945B0A81E491E20E945B0A8AE432
:1027E00091E20E945B0A84E591E20E945B0A8BE21F
:1027F00091E280933D2190933E2184E391E2809386
:102800003F219093402100000F90DF91CF910895D8
:10281000CF93DF931F921F92CDB7DEB721C00FB6C3
:10282000F8940F9280914F2190915021FC01868164
:10283000978189839A8389819A8102960E94F00AFE
:1028400080915D21815080935D2180915321815041
:10285000809353210F900FBE89819A810E943A1470
:10286000809153218823D9F600000F900F90DF91BB
:10287000CF910895CF93DF931F921F92CDB7DEB70C
:1028800089839A8389819A81FC018789908D0E942E
:10289000B50989819A810E94B50900000F900F90B7
:1028A000DF91CF910895CF93DF931F921F92CDB701
:1028B000DEB780913D2190913E21FC0180818823EB
:1028C00039F48FEF9FEF809366219093672115C0B5
:1028D00080913D2190913E21FC0185819681FC01F2
:1028E0008681978189839A8389819A81FC0182817B
:1028F0009381809366219093672100000F900F9041
:10290000DF91CF910895CF93DF93CDB7DEB700006D
:10291000DF91CF910895CF93DF93CDB7DEB76C975A
:10292000CDBFDEBFF89489E590E20E94170280E0F7
:1029300096E020E8FC01218380E096E020E8FC019D
:10294000258380E090E0A8ECB2E489839A83AB838E
:10295000BC8320E030E04AEF55E469817A818B81C5
:102960009C810E94221ADC01CB018B8B9C8BAD8B4E
:10297000BE8B20E030E040E85FE36B897C898D8985
:102980009E890E94C51888232CF481E090E08F8BEB
:10299000988F3FC020E03FEF4FE757E46B897C8979
:1029A0008D899E890E941D1A18164CF520E030E092
:1029B00040E251E469817A818B819C810E94221AD4
:1029C000DC01CB01BC01CD010E943C19DC01CB0133
:1029D0008F8B988F0FC080E293E0898F9A8F898DBB
:1029E0009A8D0197F1F7898F9A8F8F89988D01972A
:1029F0008F8B988F8F89988D892B69F714C06B897D
:102A00007C898D899E890E943C19DC01CB018F8BCA
:102A1000988F8F89988D8B8F9C8F8B8D9C8D019734
:102A2000F1F78B8F9C8F80E096E020E8FC012683F5
:102A300080E090E0A8ECB2E48D839E83AF83B887FA
:102A400020E030E04AEF55E46D817E818F819885EA
:102A50000E94221ADC01CB0189879A87AB87BC8749
:102A600020E030E040E85FE369857A858B859C85CE
:102A70000E94C51888232CF481E090E08D879E8702
:102A80003FC020E03FEF4FE757E469857A858B85AB
:102A90009C850E941D1A18164CF520E030E040E29B
:102AA00051E46D817E818F8198850E94221ADC011C
:102AB000CB01BC01CD010E943C19DC01CB018D870B
:102AC0009E870FC080E293E08F87988B8F859889CF
:102AD0000197F1F78F87988B8D859E8501978D875C
:102AE0009E878D859E85892B69F714C069857A85B7
:102AF0008B859C850E943C19DC01CB018D879E87CC
:102B00008D859E85898B9A8B89899A890197F1F7A2
:102B1000898B9A8B11CFCF93DF93CDB7DEB7A09778
:102B2000CDBFDEBF8D8F9E8F6F8F78A3F89480E02E
:102B300096E020E8FC0121838BE790E20E941702D7
:102B40008F8D98A16AE070E00E942B0283E990E2E9
:102B50000E94170280E096E020E8FC01258380E0D7
:102B600090E0AAEFB3E489839A83AB83BC8320E02F
:102B700030E04AEF55E469817A818B819C810E9423
:102B8000221ADC01CB018B8B9C8BAD8BBE8B20E0A2
:102B900030E040E85FE36B897C898D899E890E94E3
:102BA000C51888232CF481E090E08F8B988F3FC06C
:102BB00020E03FEF4FE757E46B897C898D899E8940
:102BC0000E941D1A18164CF520E030E040E251E456
:102BD00069817A818B819C810E94221ADC01CB0160
:102BE000BC01CD010E943C19DC01CB018F8B988F79
:102BF0000FC080E293E0898F9A8F898D9A8D01971B
:102C0000F1F7898F9A8F8F89988D01978F8B988F85
:102C10008F89988D892B69F714C06B897C898D8980
:102C20009E890E943C19DC01CB018F8B988F8F8984
:102C3000988D8B8F9C8F8B8D9C8D0197F1F78B8F4F
:102C40009C8F80E096E020E8FC01268380E090E005
:102C5000AAEFB3E48D839E83AF83B88720E030E092
:102C60004AEF55E46D817E818F8198850E94221AFA
:102C7000DC01CB0189879A87AB87BC8720E030E0F5
:102C800040E85FE369857A858B859C850E94C5183D
:102C900088232CF481E090E08D879E873FC020E060
:102CA0003FEF4FE757E469857A858B859C850E94C5
:102CB0001D1A18164CF520E030E040E251E46D8119
:102CC0007E818F8198850E94221ADC01CB01BC0194
:102CD000CD010E943C19DC01CB018D879E870FC07E
:102CE00080E293E08F87988B8F8598890197F1F721
:102CF0008F87988B8D859E8501978D879E878D8583
:102D00009E85892B69F714C069857A858B859C859A
:102D10000E943C19DC01CB018D879E878D859E85A5
:102D2000898B9A8B89899A890197F1F7898B9A8B7C
:102D300011CFCF93DF93CDB7DEB7A097CDBFDEBF66
:102D40008D8F9E8F6F8F78A3F89480E096E020E8B7
:102D5000FC01218386E990E20E9417028D8D9E8DF1
:102D600064E670E00E942B0286EA90E20E9417025D
:102D70008F8D98A10E947A0283E990E20E94170247
:102D800080E096E020E8FC01258380E090E0A8EC5C
:102D9000B2E489839A83AB83BC8320E030E04AEFBE
:102DA00055E469817A818B819C810E94221ADC0121
:102DB000CB018B8B9C8BAD8BBE8B20E030E040E851
:102DC0005FE36B897C898D899E890E94C518882361
:102DD0002CF481E090E08F8B988F3FC020E03FEF94
:102DE0004FE757E46B897C898D899E890E941D1A63
:102DF00018164CF520E030E040E251E469817A8118
:102E00008B819C810E94221ADC01CB01BC01CD0187
:102E10000E943C19DC01CB018F8B988F0FC080E2A0
:102E200093E0898F9A8F898D9A8D0197F1F7898F19
:102E30009A8F8F89988D01978F8B988F8F89988D16
:102E4000892B69F714C06B897C898D899E890E94C2
:102E50003C19DC01CB018F8B988F8F89988D8B8FDC
:102E60009C8F8B8D9C8D0197F1F78B8F9C8F80E0D1
:102E700096E020E8FC01268380E090E0AAEFB3E42E
:102E80008D839E83AF83B88720E030E04AEF55E41E
:102E90006D817E818F8198850E94221ADC01CB0191
:102EA00089879A87AB87BC8720E030E040E85FE302
:102EB00069857A858B859C850E94C51888232CF4AA
:102EC00081E090E08D879E873FC020E03FEF4FE795
:102ED00057E469857A858B859C850E941D1A181692
:102EE0004CF520E030E040E251E46D817E818F813D
:102EF00098850E94221ADC01CB01BC01CD010E9401
:102F00003C19DC01CB018D879E870FC080E293E0E6
:102F10008F87988B8F8598890197F1F78F87988B8A
:102F20008D859E8501978D879E878D859E85892BB2
:102F300069F714C069857A858B859C850E943C1948
:102F4000DC01CB018D879E878D859E85898B9A8B31
:102F500089899A890197F1F7898B9A8B11CFCF9341
:102F6000DF93CDB7DEB72E97CDBFDEBF80E090E414
:102F70000E94EB1F80937721909378218091772195
:102F800090917821892B09F4FFCF0E94E0040E94E0
:102F900053060E94FB040E94F1010E940C030E9450
:102FA000BA040E94E90181E00E94C70480EA90E02F
:102FB00027E0FC012283789480E090E0A0E2B1E475
:102FC00089839A83AB83BC8320E030E04AEF55E4E9
:102FD00069817A818B819C810E94221ADC01CB015C
:102FE0008D839E83AF83B88720E030E040E85FE3C5
:102FF0006D817E818F8198850E94C51888232CF46D
:1030000081E090E089879A873FC020E03FEF4FE75B
:1030100057E46D817E818F8198850E941D1A181654
:103020004CF520E030E040E251E469817A818B8107
:103030009C810E94221ADC01CB01BC01CD010E94BF
:103040003C19DC01CB0189879A870FC080E293E0AD
:103050008B879C878B859C850197F1F78B879C8755
:1030600089859A85019789879A8789859A85892B89
:1030700069F714C06D817E818F8198850E943C190B
:10308000DC01CB0189879A8789859A858D879E8700
:103090008D859E850197F1F78D879E870E9476101A
:1030A00080E090E02E96CDBFDEBFDF91CF910895F6
:1030B0005058BB27AA270E9470180C94E3190E944D
:1030C000D51938F00E94DC1920F039F49F3F19F42B
:1030D00026F40C94D2190EF4E095E7FB0C94CC196D
:1030E000E92F0E94F41958F3BA176207730784078F
:1030F000950720F079F4A6F50C94161A0EF4E095D5
:103100000B2EBA2FA02D0B01B90190010C01CA01A1
:10311000A0011124FF27591B99F0593F50F4503E4C
:1031200068F11A16F040A22F232F342F4427585F3E
:10313000F3CF469537952795A795F0405395C9F756
:103140007EF41F16BA0B620B730B840BBAF091500E
:10315000A1F0FF0FBB1F661F771F881FC2F70EC0AD
:10316000BA0F621F731F841F48F487957795679580
:10317000B795F7959E3F08F0B0CF9395880F08F06C
:103180009927EE0F9795879508950E94A81908F43E
:1031900081E008950E94DE180C94E3190E94DC1966
:1031A00058F00E94D51940F029F45F3F29F00C94A3
:1031B000CC1951110C94171A0C94D2190E94F419BD
:1031C00068F39923B1F3552391F3951B550BBB2756
:1031D000AA2762177307840738F09F5F5F4F220F9B
:1031E000331F441FAA1FA9F335D00E2E3AF0E0E892
:1031F00032D091505040E695001CCAF72BD0FE2FDC
:1032000029D0660F771F881FBB1F2617370748076F
:10321000AB07B0E809F0BB0B802DBF01FF27935827
:103220005F4F3AF09E3F510578F00C94CC190C9406
:10323000171A5F3FE4F3983ED4F386957795679528
:10324000B795F7959F5FC9F7880F911D969587955C
:1032500097F90895E1E0660F771F881FBB1F62177B
:1032600073078407BA0720F0621B730B840BBA0B39
:10327000EE1F88F7E09508950E94FC1988F09F578B
:1032800098F0B92F9927B751B0F0E1F0660F771F8A
:10329000881F991F1AF0BA95C9F714C0B13091F080
:1032A0000E94161AB1E008950C94161A672F782F11
:1032B0008827B85F39F0B93FCCF386957795679545
:1032C000B395D9F73EF490958095709561957F4FB1
:1032D0008F4F9F4F0895E89409C097FB3EF4909557
:1032E0008095709561957F4F8F4F9F4F9923A9F0DF
:1032F000F92F96E9BB279395F6958795779567956E
:10330000B795F111F8CFFAF4BB0F11F460FF1BC0B1
:103310006F5F7F4F8F4F9F4F16C0882311F096E944
:1033200011C0772321F09EE8872F762F05C06623F2
:1033300071F096E8862F70E060E02AF09A95660FAB
:10334000771F881FDAF7880F9695879597F9089564
:10335000990F0008550FAA0BE0E8FEEF16161706A6
:10336000E807F907C0F012161306E407F50798F00E
:10337000621B730B840B950B39F40A2661F0232B27
:10338000242B252B21F408950A2609F4A140A695A3
:103390008FEF811D811D089597F99F6780E870E088
:1033A00060E008959FEF80EC089500240A941616BB
:1033B000170618060906089500240A941216130623
:1033C000140605060895092E0394000C11F48823B1
:1033D00052F0BB0F40F4BF2B11F460FF04C06F5FCD
:1033E0007F4F8F4F9F4F089557FD9058440F551FA3
:1033F00059F05F3F71F04795880F97FB991F61F077
:103400009F3F79F087950895121613061406551FED
:10341000F2CF4695F1DF08C0161617061806991F59
:10342000F1CF86957105610508940895E894BB274E
:1034300066277727CB0197F908950E94A81908F409
:103440008FEF08950E94351A0C94E3190E94D51944
:1034500038F00E94DC1920F0952311F00C94CC195F
:103460000C94D21911240C94171A0E94F41970F3B9
:10347000959FC1F3950F50E0551F629FF001729F19
:10348000BB27F00DB11D639FAA27F00DB11DAA1F28
:10349000649F6627B00DA11D661F829F2227B00D75
:1034A000A11D621F739FB00DA11D621F839FA00D00
:1034B000611D221F749F3327A00D611D231F849F50
:1034C000600D211D822F762F6A2F11249F575040A7
:1034D0009AF0F1F088234AF0EE0FFF1FBB1F661F22
:1034E000771F881F91505040A9F79E3F510580F0EB
:1034F0000C94CC190C94171A5F3FE4F3983ED4F364
:10350000869577956795B795F795E7959F5FC1F78E
:10351000FE2B880F911D9695879597F90895FA01CE
:10352000EE0FFF1F309621053105A1F161157105E0
:1035300061F48038BFE39B0749F1689490388105B6
:1035400061F08038BFEF9B0741F099234AF5FF3FB8
:10355000E1053105210519F1E8940894E795D901B1
:10356000AA2329F4AB2FBE2FF85FD0F310C0FF5F62
:1035700070F4A695E0F7F73950F019F0FF3A38F4F7
:103580009F779F930DD00F9007FC9058089546F0B9
:103590000C94D21960E070E080E89FE308954FE753
:1035A0009F775F934F933F932F930E948A1B2F9196
:1035B0003F914F915F910E94221A0C94E71A29F4CF
:1035C00016F00C94CC190C94161A0C94D2190E9473
:1035D000FC19A8F39638A0F707F80F92E8942BE3AC
:1035E0003AEA48EB5FE70E94381A0F920F920F9267
:1035F0004DB75EB70F920E94D21BECEFF1E00E9434
:10360000191B4F915F91EF91FF91E595EE1FFF1F01
:1036100049F0FE57E0684427EE0F441FFA95E1F7A2
:103620004195550B0E944C1B0F9007FE0C94401BBC
:103630000895DF93CF931F930F93FF92EF92DF9242
:103640007B018C01689406C0DA2EEF010E94351AC6
:10365000FE01E894A5912591359145915591A6F3E8
:10366000EF010E947018FE019701A801DA9469F732
:10367000DF90EF90FF900F911F91CF91DF91089510
:103680009B01AC0160E070E080E89FE30C94CA18F5
:103690000C94CC190C94061C0E94FC19D8F39923A5
:1036A000C9F3940F511DA3F39150504094F059F079
:1036B000882332F0660F771F881F91505040C1F762
:1036C0009E3F51052CF7880F911D9695879597F988
:1036D00008955F3FACF0983E9CF0BB2786957795A8
:1036E0006795B79508F4B1609395C1F7BB0F58F78C
:1036F00011F460FFE8CF6F5F7F4F8F4F9F4FE3CF95
:103700000C94171A16F00C94061C0C94D219689499
:103710000C94CC190E94FC19A8F39923C1F3AEF3C1
:10372000DF93CF931F930F93FF92C92FDD27882339
:103730002AF02197660F771F881FDAF720E030E024
:1037400040E85FEB9FE3883920F0803E38F0219617
:103750008F770E945918E4E2F2E004C00E945918E1
:10376000E1E5F2E00E94191B8B01BE01EC01FB2E8A
:103770006F5771097595771F880B990B0E946D190A
:1037800028E132E741E35FE30E94351AAF2D98014B
:10379000AE01FF900F911F91CF91DF910E947018A1
:1037A0000C94E319FA01DC01AA0FBB1F9B01AC01C9
:1037B000BF5728F4222733274427507820C0B75119
:1037C00090F4AB2F0024469537952795011CA395BF
:1037D000D2F3002071F0220F331F441FB395DAF3A8
:1037E0000ED00C94581861307105A0E88A07B946CC
:1037F00030F49B01AC0166277727882790783096B4
:1038000021F0208331834283538308959F3F31F019
:10381000915020F4879577956795B795880F911DFE
:103820009695879597F908952F923F924F925F92C0
:103830006F927F928F929F92AF92BF92CF92DF92C0
:10384000EF92FF920F931F93CF93DF93CDB7DEB725
:103850006097CDBFDEBF7C011B016A01FC011682AF
:103860001782838181FF44C39E012F5F3F4F39013F
:10387000F7019381F10193FD859193FF81911F01E0
:10388000882309F431C3853239F493FD859193FF80
:1038900081911F01853239F4B70190E00E94012225
:1038A00056016501E5CF10E0512C912CFFE1F9158F
:1038B000D8F08B3279F038F4803279F08332A1F489
:1038C000F92DF0612EC08D3261F0803369F4292D1D
:1038D00021602DC0392D3260932E892D8460982E61
:1038E0002AC0E92DE86015C097FC2DC020ED280FF7
:1038F0002A3088F496FE06C03AE0139F200D11246A
:10390000122F19C08AE0589E200D1124522EE92D45
:10391000E0629E2E10C08E3231F496FCE5C2F92D85
:10392000F0649F2E08C08C3621F4292D2068922E39
:1039300002C0883641F4F10193FD859193FF819196
:103940001F018111B3CF9BEB980F933020F4992D79
:103950009061805E07C09BE9980F933008F066C1C4
:10396000992D9F7E96FF16E09F73992E853619F448
:103970009064992E08C0863621F4392F3068932E32
:1039800002C01111115097FE07C01C3350F444249B
:103990004394410E27E00BC0183038F027E017E0C1
:1039A00005C027E09CE3492E02C0212F412C56017F
:1039B00084E0A80EB11CF60160817181828193813F
:1039C000042DA3010E940C216C01F981FC87F0FFFA
:1039D00002C0F3FF06C091FC06C092FE06C000E2E2
:1039E00005C00DE203C00BE201C000E08C858C70C5
:1039F00019F001115AC29BC297FE10C04C0CFC85F5
:103A0000F4FF04C08A81813309F44A94141474F5D4
:103A100028E0241578F588E0482E2CC096FC2AC0B2
:103A2000812F90E08C159D059CF03CEFC3163FEF75
:103A3000D30674F0892D8068982E0AC0E2E0F0E089
:103A4000EC0FFD1FE10FF11D8081803319F411503F
:103A50001111F4CF97FE0EC044244394410E812FE0
:103A600090E0C816D9062CF41C1904C044244394D1
:103A700001C010E097FE06C01C141D0434F4C601FA
:103A8000019605C085E090E002C081E090E0011160
:103A90000196112331F0212F30E02F5F3F4F820F2D
:103AA000931F252D30E08217930714F4581A01C094
:103AB000512C892D897049F4552039F0B70180E2E5
:103AC00090E00E9401225A94F7CF002329F0B70119
:103AD000802F90E00E94012293FC09C0552039F00C
:103AE000B70180E390E00E9401225A94F7CF97FE3D
:103AF0004CC04601D7FE02C0812C912CC60188190A
:103B00009909F301E80FF91FED87FE879601241943
:103B100031092F87388B012F10E01195019511097C
:103B20003FEF8316930629F4B7018EE290E00E94DE
:103B30000122C814D9044CF08F85988988159905FD
:103B400024F4ED85FE85818101C080E3F1E08F1AC8
:103B500091082D853E852F5F3F4F2D873E8780162C
:103B600091062CF0B70190E00E940122D9CFC81431
:103B7000D90441F49A81963320F4953319F43C85A5
:103B800034FF81E3B70190E04EC08A81813319F0A0
:103B90009C859F7E9C87B70190E00E9401221111B5
:103BA00005C094FC18C085E690E017C0B7018EE20E
:103BB00090E00E9401221E5F82E001E0080FF30105
:103BC000E80FF11D8081B70190E00E940122802F53
:103BD0000113F3CFE6CF85E490E0B7010E94012204
:103BE000D7FC06C0C114D10441F4EC85E4FF05C044
:103BF000D194C194D1088DE201C08BE2B70190E06D
:103C00000E94012280E32AE0C216D1042CF08F5FCB
:103C1000FAE0CF1AD108F7CFB70190E00E94012255
:103C2000B701C601C0960E94012254C1833631F00B
:103C3000833779F0833509F056C020C0560132E051
:103C4000A30EB11CF6018081898301E010E06301BD
:103C500012C05601F2E0AF0EB11CF601C080D18057
:103C600096FE03C0612F70E002C06FEF7FEFC601C8
:103C70000E94F6218C01F92DFF7714C0560122E035
:103C8000A20EB11CF601C080D18096FE03C0612F48
:103C900070E002C06FEF7FEFC6010E94E4218C014B
:103CA000F92DF0689F2EF3FD1AC0852D90E00817BE
:103CB0001907A8F4B70180E290E00E9401225A940B
:103CC000F4CFF60197FC859197FE81916F01B701C2
:103CD00090E00E94012251105A94015011090115DF
:103CE000110579F7F7C0843611F0893661F5560170
:103CF00097FE09C024E0A20EB11CF601608171811B
:103D0000828193810AC0F2E0AF0EB11CF60160819E
:103D10007181072E000C880B990BF92DFF769F2ED1
:103D200097FF09C090958095709561957F4F8F4F53
:103D30009F4FF0689F2E2AE030E0A3010E943D22B1
:103D4000C82EC6183FC0092D853721F40F7E2AE002
:103D500030E01DC0097F8F3691F018F4883559F096
:103D6000C3C0803719F0883711F0BEC0006104FF6E
:103D700009C0046007C094FE08C0066006C028E0C1
:103D800030E005C020E130E002C020E132E0560121
:103D900007FF09C084E0A80EB11CF60160817181A3
:103DA0008281938108C0F2E0AF0EB11CF601608100
:103DB000718180E090E0A3010E943D22C82EC618C8
:103DC0000F77902E96FE0BC0092D0E7FC11650F472
:103DD00094FE0AC092FC08C0092D0E7E05C0DC2CA2
:103DE000092D03C0DC2C01C0D12E04FF0DC0FE0143
:103DF000EC0DF11D8081803311F4097E09C002FFB2
:103E000006C0D394D39404C0802F867809F0D3944D
:103E100003FD11C000FF06C01C2DD51480F4150D44
:103E20001D190DC0D51458F4B70180E290E00E942E
:103E30000122D394F7CFD51410F45D1801C0512C92
:103E400004FF10C0B70180E390E00E94012202FF4E
:103E500017C001FD03C088E790E002C088E590E04C
:103E6000B7010CC0802F867859F001FF02C08BE2A9
:103E700001C080E207FD8DE2B70190E00E940122BF
:103E8000C11638F4B70180E390E00E94012211507E
:103E9000F7CFCA94F301EC0DF11D8081B70190E0DA
:103EA0000E940122C110F5CF15C0F4E0F51560F5B0
:103EB00084E0581A93FE1FC0011127C02C8523FFF0
:103EC0002AC00AE812E0392D3071932EF80184914E
:103ED000811124C0552009F4E4CCB70180E290E0C0
:103EE0000E9401225A94F6CFF7018681978126C05D
:103EF0008FEF9FEF23C0B70180E290E00E94012284
:103F00005A945110F8CFD8CF512CB701802F90E0A0
:103F10000E940122D3CF0EE812E0D5CF911080523B
:103F2000B70190E00E9401220F5F1F4FCFCF23E027
:103F3000251510F483E0BDCF512CC0CF6096CDBFC6
:103F4000DEBFDF91CF911F910F91FF90EF90DF9037
:103F5000CF90BF90AF909F908F907F906F905F9029
:103F60004F903F902F900895AA1BBB1B51E107C0B3
:103F7000AA1FBB1FA617B70710F0A61BB70B881FF9
:103F8000991F5A95A9F780959095BC01CD01089588
:103F900097FB072E16F4009407D077FD09D00E94F6
:103FA000B41F07FC05D03EF4909581959F4F08956E
:103FB000709561957F4F0895A29FB001B39FC00196
:103FC000A39F700D811D1124911DB29F700D811D45
:103FD0001124911D08950F931F93CF93DF93823087
:103FE000910510F482E090E0E0917B21F0917C213A
:103FF00020E030E0A0E0B0E0309719F1408151813D
:104000000281138148175907C8F08417950769F48E
:10401000109731F012960C93129713961C9327C0A9
:1040200000937B2110937C2122C02115310519F0CA
:104030004217530718F49A01BD01EF01DF01F8019F
:10404000DBCF21153105F9F0281B390B2430310560
:1040500080F48A819B816115710521F0FB018283C7
:10406000938304C080937B2190937C21FE01329640
:1040700044C0FE01E20FF31F819391932250310956
:10408000288339833AC02091792130917A21232BDA
:1040900041F4209102203091032020937921309324
:1040A0007A2120910020309101202115310541F421
:1040B0002DB73EB74091042050910520241B350BAD
:1040C000E0917921F0917A21E217F307A0F42E1BF9
:1040D0003F0B2817390778F0AC014E5F5F4F24176C
:1040E000350748F04E0F5F1F4093792150937A2196
:1040F0008193919302C0E0E0F0E0CF01DF91CF9196
:104100001F910F910895CF93DF93009709F481C019
:10411000FC01329712821382A0917B21B0917C2105
:10412000109781F420813181820F931F2091792192
:1041300030917A212817390751F5E0937921F093CE
:104140007A2167C0ED0120E030E0CE17DF0740F4B0
:104150004A815B819E0141155105F1F0EA01F5CFDD
:10416000C283D38340815181840F951FC817D9071B
:1041700059F488819981840F951F029680839183D9
:104180008A819B81828393832115310529F4E093F1
:104190007B21F0937C213DC0E901EA83FB834991B7
:1041A0005991C40FD51FEC17FD0761F480819181EF
:1041B000840F951F0296E9018883998382819381F8
:1041C0008A839B83E0E0F0E012968D919C91139797
:1041D000009719F0FD01DC01F7CF8D919C911197AB
:1041E0009D012E5F3F4F820F931F209179213091C7
:1041F0007A212817390769F4309729F410927B2126
:1042000010927C2102C012821382A0937921B09374
:104210007A21DF91CF910895283008F027E03327E5
:10422000DA01990F311D87FD9160009661057105D6
:1042300039F432602E5F3D9330E32A95E1F708951B
:104240009F3F30F080387105610509F03C5F3C5FAD
:104250003D93913008F08068911DDF93CF931F93B9
:104260000F93FF92EF92192F987F9695E92F9695CD
:104270009695E90FFF27E451FD4F99273327EE2448
:10428000FF24A701E70105900894079428F4360F4E
:10429000E71EF81E491F511D660F771F881F991FC3
:1042A0000694A1F70590079428F4E70EF81E491F1D
:1042B000561FC11D770F881F991F661F0694A1F70F
:1042C0000590079428F4F80E491F561FC71FD11DEB
:1042D000880F991F661F771F0694A1F70590079412
:1042E00020F4490F561FC71FD81F990F661F771F4D
:1042F000881F0694A9F784911095177041F0D69500
:10430000C79557954795F794E7941A95C1F7E2E951
:10431000F2E068941590159135916591959105900D
:104320007FE27395E118F10A430B560BC90BD009D4
:10433000C0F7E10CF11E431F561FC91FD01D7EF4AC
:10434000703311F48A95E6CFE894015030F0080FED
:104350000AF40027021708F4202F2395022F7A333E
:1043600028F079E37D932A95E9F710C07D932A958B
:1043700089F6069497956795379517951794E118E0
:10438000F10A430B560BC90BD00998F023957E9187
:1043900073957A3308F070E37C932013B8F77E911D
:1043A00070617D9330F0839571E37D9370E32A957E
:1043B000E1F71124EF90FF900F911F91CF91DF91C2
:1043C000992787FD90950895FC01059061507040F4
:1043D0000110D8F7809590958E0F9F1F0895DC01EE
:1043E00001C06D9341505040E0F70895FC016150C9
:1043F000704001900110D8F7809590958E0F9F1F07
:1044000008950F931F93CF93DF93FB01238121FD29
:1044100003C08FEF9FEF2CC022FF16C0468157814B
:10442000248135814217530744F4A081B1819D0155
:104430002F5F3F4F208331838C93268137812F5FFD
:104440003F4F2683378314C08B01EC01FB010084AE
:10445000F185E02D1995892BE1F6D80116968D91FD
:104460009C911797019616968D939C931797CE0162
:10447000DF91CF911F910F910895FA01AA2728305B
:1044800051F1203181F1E8946F936E7F6E5F7F4F21
:104490008F4F9F4FAF4FB1E03ED0B4E03CD0670F9D
:1044A000781F891F9A1FA11D680F791F8A1F911DF0
:1044B000A11D6A0F711D811D911DA11D20D009F440
:1044C00068943F912AE0269F11243019305D319382
:1044D000DEF6CF010895462F4770405D4193B3E06B
:1044E0000FD0C9F7F6CF462F4F70405D4A3318F012
:1044F000495D31FD4052419302D0A9F7EACFB4E0C3
:10450000A6959795879577956795BA95C9F700977A
:104510006105710508959B01AC010A2E069457951B
:10452000479537952795BA95C9F7620F731F841F72
:0A453000951FA01D0895F894FFCF19
:10453A00000083212000000000030000000087081B
:10454A00AC080000FF3F2E2E2F4672656552544F6D
:10455A00532F7461736B732E630049444C450009F1
:10456A0025630925750925750925750D0A0009258B
:10457A006C750909256C7525250D0A0009256C75C8
:10458A0009093C3125250D0A004552524F523A205D
:10459A006D656D6F727920616C6C6F636174696FA0
:1045AA006E206661696C65640D0A00535441434B81
:1045BA00206F766572666C6F7720696E20746173FE
:1045CA006B20000D0A0041737365727420696E20B6
:1045DA0066696C6520002C206C696E65206E7220FD
:0245EA000000CF
:00000001FF
