S01800004C696E65626F7454656D706C617465312E73726563D2
S11300000C94CA010C94EB010C9464030C94C1038A
S11300100C94EB010C94EB010C94EB010C94EB01AC
S11300200C94EB010C94EB010C94EB010C94EB019C
S11300300C94EB010C94EB010C94E40D0C94EB0187
S11300400C94640E0C94EB010C94EB010C94EB01F6
S11300500C94EB010C94EB010C94EB010C94EB016C
S11300600C94EB010C94EB010C94EB010C94EB015C
S11300700C94EB010C94EB010C94EB010C94EB014C
S11300800C94EB010C94EB010C94EB010C94EB013C
S11300900C94EB010C94EB010C94EB010C94EB012C
S11300A00C94EB010C94EB010C94EB010C942204E2
S11300B00C9487040C94EB010C9427060C94EB012C
S11300C00C94EB010C94EB010C94EB010C94EB01FC
S11300D00C94EB010C94EB010C94EB010C94EB01EC
S11300E00C94EB010C94EB010C94EB010C94EB01DC
S11300F00C94EB010C94EB010C94EB010C94EB01CC
S11301000C94EB010C94EB010C94EB010C94EB01BB
S11301100C94EB010C94EB010C94EB010C94EB01AB
S11301200C94EB010C94EB010C94EB010C94EB019B
S11301300C94EB010C94EB010C94EB010C94EB018B
S11301400C94EB010C94EB010C94EB010C94EB017B
S11301500C94EB010C94EB010C94EB010C94EB016B
S11301600C94EB010C94EB010C94EB010C94EB015B
S11301700C94EB010C94EB010C94EB010C94EB014B
S11301800C94EB010C94EB010C94EB010C94EB013B
S11301900C94EB010C94EB010C94EB010C94EB012B
S11301A00C94EB010C94EB010C94EB010C94EB011B
S11301B00C94EB010C94EB010C94EB010C94EB010B
S11301C00C94EB010C94EB010C94EB010C94EB01FB
S11301D00C94EB010C94EB010C94EB010C94EB01EB
S11301E00C94EB010C94EB010C94EB010C94EB01DB
S11301F00C94EB010C94EB010C94EB010763423675
S1130200B79BD8A71A39685618AEBAAB558C1D3CA3
S1130210B7CC5763BD6DEDFD753EF6177231BF0067
S11302200000803F08000000BE922449123EABAAA1
S1130230AA2ABECDCCCC4C3E00000080BEABAAAAFC
S1130240AA3E00000000BF000000803F0000000044
S113025000084178D3BB4387D1133D190E3CC3BD7D
S11302604282AD2B3E68EC8276BED98FE1A93E4C2A
S113027080EFFFBE01C4FF7F3F00000000000C942C
S113028024150C94121D0C94DE080C94B9080C94DB
S1130290401C6E616E00696E660000407A10F35A6D
S11302A000A0724E18090010A5D4E80000E87648B2
S11302B0170000E40B54020000CA9A3B000000E15E
S11302C0F505000080969800000040420F000000F1
S11302D0A08601000000102700000000E8030000D1
S11302E000006400000000000A000000000001009B
S11302F0000000002C76D888DC674F0823DFC1DFBC
S1130300AE59E1B1B796E5E3E453C63AE6519976BE
S113031096E8E6C28426EB898C9B62ED407C6FFCF8
S1130320EFBC9C9F40F2BAA56FA5F490055A2AF73A
S11303305C936B6CF9676DC11BFCE0E40D47FEF543
S113034020E6B500D0ED902E0300943577050080AB
S1130350841E080000204E0A000000C80C3333330A
S1130360330F986E12831141EF8D2114893BE655AA
S113037016CFFEE6DB18D1844B381BF77C1D901D8D
S1130380A4BBE424203284725E228100C9F124ECEF
S1130390A1E53D2711241FBECFEFCDBFDFE9DEBFAE
S11303A000E00CBF11E2A0E0B0E2E6E3F2E500E019
S11303B00BBF02C007900D92A23CB107D9F722E20D
S11303C0A2ECB1E201C01D92A439B207E1F70E9488
S11303D0011C0C9419290C940000CF93DF93CDB722
S11303E0DEB70000DF91CF910895CF93DF93CDB7AF
S11303F0DEB780E296E028EFFC01228380E296E0FB
S113040028E5FC01238B80E296E028E5FC01248B9F
S113041080E296E028E5FC01258B80E296E028E561
S1130420FC01268B80E296E028E5FC01278B000086
S1130430DF91CF910895CF93DF931F921F92CDB791
S1130440DEB789839A8389819A8160E070E00E9493
S11304502F0200000F900F90DF91CF910895CF935A
S1130460DF9300D01F92CDB7DEB789839A836B8365
S11304707C831092C2211092C32126C080EA9AE0A4
S113048029813A81F9012081FC012083000080EA5E
S11304909AE0FC018181882F90E080749927892B50
S11304A0B1F380EA9AE020E4FC01218389819A81F6
S11304B0019689839A838091C2219091C3210196E8
S11304C08093C2219093C32189819A81FC01808108
S11304D0882369F02091C2213091C3218B819C81B2
S11304E0281739075CF28B819C81892B39F2000033
S11304F02496CDBFDEBFDF91CF910895CF93DF93D4
S11305001F921F92CDB7DEB789839A8380E197E269
S11305108093C4219093C5211092C62173C0809109
S1130520C4219091C5219C0189819A81B9010E94BD
S11305304625CB01AC019A01ADECBCEC0E949025A0
S1130540969587959695879596958795880F991F83
S11305509C01220F331F220F331F820F931F9A0116
S1130560281B390BC901892B21F48091C6218823CA
S1130570D9F1E0EAFAE08091C4219091C5219C016F
S113058089819A81B9010E944625CB01AC019A0167
S1130590ADECBCEC0E949025969587959695879531
S11305A096958795880F991F9C01220F331F220F60
S11305B0331F820F931F9A01281B390BC901805DD9
S11305C08083000080EA9AE0FC018181882F90E01A
S11305D080749927892BB1F380EA9AE020E4FC0126
S11305E0218381E08093C6218091C4219091C5210B
S11305F02AE030E0B9010E945A25CB018093C4213E
S11306009093C5218091C4219091C5211816190693
S11306100CF485CF00000F900F90DF91CF910895D7
S1130620CF93DF93CDB7DEB780E296E027E0FC01FD
S1130630218380E096E020E8FC01218380E296E0BB
S113064020E4FC01208B80E296E020E4FC01218B75
S113065080E296E020E4FC01228B80E096E020E436
S1130660FC01278B0000DF91CF910895CF93DF9396
S11306701F92CDB7DEB7898380E296E020E236E0B0
S1130680F9012481322F387F29812770232BFC0123
S1130690248380E096E020E036E0F9012481422FB3
S11306A04F772981222F30E0287033272295329505
S11306B0307F3227207F3227242BFC012483000043
S11306C00F90DF91CF9108951F920F9200903F00F9
S11306D00F92112400903B000F922F933F938F931E
S11306E09F93EF93FF93CF93DF931F92CDB7DEB722
S11306F080E496E0FC01808589838981882F90E0DD
S113070080749927892B99F0898188231CF48FEFB1
S11307109FEF02C081E090E02091C7213091C82171
S1130720820F931F8093C7219093C82112C089819F
S113073088231CF481E090E002C08FEF9FEF2091AA
S1130740C7213091C821820F931F8093C7219093B2
S1130750C82180E496E021E0FC01248700000F908A
S1130760DF91CF91FF91EF919F918F913F912F91C5
S11307700F9000923B000F9000923F000F901F904B
S113078018951F920F9200903F000F921124009031
S11307903B000F922F933F938F939F93EF93FF937D
S11307A0CF93DF931F92CDB7DEB780E496E0FC01D0
S11307B08085898389818823BCF48981882F90E08E
S11307C080749927892B19F081E090E002C08FEFA3
S11307D09FEF2091C7213091C821820F931F8093EE
S11307E0C7219093C82116C08981882F90E0807416
S11307F09927892B19F08FEF9FEF02C081E090E0D9
S11308002091C7213091C821820F931F8093C72163
S11308109093C82180E496E022E0FC012487000044
S11308200F90DF91CF91FF91EF919F918F913F9125
S11308302F910F9000923B000F9000923F000F9079
S11308401F9018951F920F9200903F000F92112451
S113085000903B000F922F933F938F939F93EF93BE
S1130860FF93CF93DF931F92CDB7DEB780E896E076
S1130870FC01808589838981882F90E08071992784
S1130880892BB9F08981882F90E080729927892B70
S113089019F08FEF9FEF02C081E090E02091C92111
S11308A03091CA21820F931F8093C9219093CA214A
S11308B016C08981882F90E080729927892B19F0BE
S11308C081E090E002C08FEF9FEF2091C921309129
S11308D0CA21820F931F8093C9219093CA2180E873
S11308E096E021E0FC01248700000F90DF91CF9176
S11308F0FF91EF919F918F913F912F910F900092D3
S11309003B000F9000923F000F901F9018951F928C
S11309100F9200903F000F92112400903B000F9221
S11309202F933F938F939F93EF93FF93CF93DF93F3
S11309301F92CDB7DEB780E896E0FC0180858983FD
S11309408981882F90E080729927892BB9F0898159
S1130950882F90E080719927892B19F081E090E02D
S113096002C08FEF9FEF2091C9213091CA21820FDD
S1130970931F8093C9219093CA2116C08981882F1F
S113098090E080719927892B19F08FEF9FEF02C0B7
S113099081E090E02091C9213091CA21820F931FF8
S11309A08093C9219093CA2180E896E022E0FC015B
S11309B0248700000F90DF91CF91FF91EF919F91D9
S11309C08F913F912F910F9000923B000F900092D6
S11309D03F000F901F901895CF93DF93CDB7DEB7EC
S11309E080E496E020E2FC0121830000DF91CF91B6
S11309F00895CF93DF931F92CDB7DEB789838981A2
S1130A00882331F080E496E020E2FC01258305C0D0
S1130A1080E496E020E2FC01268300000F90DF9141
S1130A20CF9108958BEC8093520088E0809350001E
S1130A308091510083FFFCCF82EC8093550088E1C4
S1130A40809350008091510084FFFCCF88ED84BFD7
S1130A5084E08093400080E00895CF93DF93CDB786
S1130A60DEB71092D42180E896E028E1FC01208BC7
S1130A7080E896E028E1FC01218B80EA94E028E7F5
S1130A80FC01218380EA94E023E2FC01258380EACF
S1130A9094E021E0FC0124830000DF91CF910895CC
S1130AA0CF93DF931F92CDB7DEB780EA94E0FC01C9
S1130AB0848189838981882F90E084709927892B88
S1130AC021F084E08093D52103C083E08093D52175
S1130AD080EA94E029812860FC0124831092D421C7
S1130AE000000F90DF91CF910895CF93DF9300D052
S1130AF01F92CDB7DEB78091D02189838091D12117
S1130B008A8380EA94E0FC018481882F90E08071DC
S1130B109927892B59F080EA94E023E0FC01238390
S1130B2085E08093D5211092D42134C09091D221B4
S1130B3089819817C0F42091CC213091CD218091E6
S1130B40D221882F90E0820F931FFC0180818B8338
S1130B5080EA94E02B81FC0127838091D2218F5F6E
S1130B608093D22117C09091D3218A81981750F491
S1130B708091CB2181608C8380EA94E02C81FC01FC
S1130B80268308C080EA94E023E0FC01238381E00B
S1130B900E94170600002496CDBFDEBFDF91CF91DF
S1130BA00895CF93DF931F921F92CDB7DEB7809144
S1130BB0D3218032C0F480EA94E0FC0187818983E8
S1130BC02091CE213091CF218091D321882F90E0A4
S1130BD0820F931F2981FC0120838091D3218F5F91
S1130BE08093D32108C080EA94E023E0FC012383AE
S1130BF082E00E9417068091D1218A839091D321AB
S1130C008A81981730F480EA94E022E0FC0123837F
S1130C1008C080EA94E027E0FC01238381E00E947D
S1130C20170600000F900F90DF91CF910895CF9396
S1130C30DF931F92CDB7DEB7898389818093D52155
S1130C401092D42100000F90DF91CF9108951F924C
S1130C500F9200903F000F92112400903B000F92DE
S1130C602F933F934F935F936F937F938F939F93B0
S1130C70AF93BF93EF93FF93CF93DF931F92CDB7BF
S1130C80DEB780EA94E0FC01848189838981882F1E
S1130C9090E088709927892B39F48981882F90E016
S1130CA084709927892B19F00E94500513C08981FB
S1130CB0882F90E080749927892B19F00E9475057C
S1130CC009C0898188231CF40E94D10503C086E0F1
S1130CD00E9417068091D42100000F90DF91CF91DC
S1130CE0FF91EF91BF91AF919F918F917F916F9100
S1130CF05F914F913F912F910F9000923B000F9085
S1130D0000923F000F901F901895CF93DF93CDB7BB
S1130D10DEB72B97CDBFDEBF80E896E028E0FC016C
S1130D20218380E896E024E0FC01228380EA9AE0B3
S1130D30FC01138280EA9AE028E1FC01248380EA22
S1130D409AE023E0FC01258340E052EC61E070E08E
S1130D50CE0101960E94D30680EA9AE02A813B8163
S1130D60FC01268380EA9AE02981422F4295407F44
S1130D702A813B81232F33272F70242BFC012783C7
S1130D8086E090E2809390229093912286E090E214
S1130D9080938E2290938F2200002B96CDBFDEBFCE
S1130DA0DF91CF910895CF92DF92EF92FF92CF938C
S1130DB0DF93CDB7DEB7E097CDBFDEBF8BA79CA78F
S1130DC04DA75EA76FA778AB88E29BE6AEE6BEE4CC
S1130DD08FA398A7A9A7BAA788E29BE6AEE6BEE4CC
S1130DE089839A83AB83BC8389EF8D83A8C18D816A
S1130DF0082E000C990BAA0BBB0BBC01CD010E9461
S1130E00FF1EDC01CB019C01AD0160E070E080E0DD
S1130E1090E40E942120DC01CB018C879D87AE8762
S1130E20BF878D8188230CF494C020E030E040E833
S1130E3051E46C857D858E859F850E94B41FDC01FD
S1130E40CB016C017D016DA57EA58FA598A90E949B
S1130E50FD1EDC01CB019C01AD01C701B6010E945E
S1130E60B41FDC01CB019C01AD0160E074E284EFAE
S1130E709BE40E945C1EDC01CB0120E030E040E8F2
S1130E805FE3BC01CD010E94EA1DDC01CB01888B2C
S1130E90998BAA8BBB8B20E030E0A9016889798902
S1130EA08A899B890E94571E88230CF442C120E042
S1130EB030EF4FE755E4688979898A899B890E94D4
S1130EC0AF1F18160CF435C120E030E040E05FE3BA
S1130ED0688979898A899B890E94EB1DDC01CB0191
S1130EE0BC01CD010E94CE1EDC01CB018E839F8309
S1130EF020E030E040E851E46C857D858E859F8557
S1130F000E94B41FDC01CB016C017D018E819F81A5
S1130F100196CC01A0E0B0E0BC01CD010E94FD1E11
S1130F20DC01CB019C01AD01C701B6010E94B41FD5
S1130F30DC01CB019C01AD0160E074E284EF9BE431
S1130F400E945C1EDC01CB0188879987AA87BB8736
S1130F5098C06DA57EA58FA598A90E94FD1EDC01F1
S1130F60CB0120E030E040E851E4BC01CD010E9417
S1130F70B41FDC01CB019C01AD0160E074E284EF9D
S1130F809BE40E945C1EDC01CB0120E030E040E8E1
S1130F905FE3BC01CD010E94EA1DDC01CB012C857D
S1130FA03D854E855F85BC01CD010E945C1EDC0140
S1130FB0CB018C8B9D8BAE8BBF8B20E030E0A901E5
S1130FC06C897D898E899F890E94571E88230CF421
S1130FD0B2C020E030EF4FE755E46C897D898E89FB
S1130FE09F890E94AF1F18160CF4A5C020E030E0C2
S1130FF040E05FE36C897D898E899F890E94EB1DA7
S1131000DC01CB01BC01CD010E94CE1EDC01CB0171
S11310108E839F838E819F81CC01A0E0B0E0BC01D0
S1131020CD010E94FD1EDC01CB012C853D854E8542
S11310305F85BC01CD010E94B41FDC01CB0120E01F
S113104030E040E85FE3BC01CD010E94EB1DDC0110
S1131050CB0120E030E040E851E4BC01CD010E9426
S1131060B41FDC01CB019C01AD0160E074E284EFAC
S11310709BE40E945C1EDC01CB0188879987AA87C8
S1131080BB876DA57EA58FA598A90E94FD1EDC01D6
S1131090CB019C01AD01688579858A859B850E9479
S11310A0EA1DDC01CB01BF77888F998FAA8FBB8F94
S11310B06DA57EA58FA598A90E94FD1EDC01CB011C
S11310C09C01AD01688D798D8A8D9B8D0E945C1E7B
S11310D0DC01CB018C8F9D8FAE8FBF8F29813A812C
S11310E04B815C81688D798D8A8D9B8D0E94571E02
S11310F0882314F5888D998DAA8DBB8D89839A8355
S1131100AB83BC838D8188A38E819F8189A39AA39D
S1131110888D998DAA8DBB8D8BA39CA3ADA3BEA3F3
S11311208C8D9D8DAE8DBF8D8FA398A7A9A7BAA7CF
S113113003C0000001C000008D818F5F8D838D810D
S113114088300CF454CE8BA59CA52BE0FE01B09600
S1131150DC0101900D922A95E1F78BA59CA5E09600
S1131160CDBFDEBFDF91CF91FF90EF90DF90CF90A6
S11311700895CF93DF9300D0CDB7DEB789836A8318
S11311807B8380EA9AE02981FC012083000080EAC5
S11311909AE0FC018181882F90E080749927892B43
S11311A0B1F380EA9AE020E4FC01218380E090E03E
S11311B02396CDBFDEBFDF91CF910895CF93DF9308
S11311C01F921F92CDB7DEB789839A83000080EA0D
S11311D09AE0FC0181818823D4F780EA9AE0FC013B
S11311E08081882F90E00F900F90DF91CF91089528
S11311F0CF93DF93CDB7DEB72E97CDBFDEBF8D87FC
S11312009E871D821E820E9464118091DE218823A4
S113121029F40E94530A81E08093DE218D859E8506
S1131220892B41F084E090E02D853E85820F931F49
S11312308D879E878D859E85892B09F4B8C08D8501
S11312409E858F3F9F4308F0B2C086ED91E28B8369
S11312509C838091D6219091D72189839A830BC056
S113126089819A818B839C8389819A81FC01808105
S1131270918189839A8389819A81FC0122813381B6
S11312808D859E852817390738F489819A81FC0158
S113129080819181892B21F789819A818A5D91428C
S11312A009F485C08B819C81FC012081318184E01B
S11312B090E0820F931F8D839E8389819A81FC0124
S11312C0208131818B819C81FC0120833183898140
S11312D09A81FC01228133818D859E85281B390BDF
S11312E084E090E0880F991F8217930708F04EC09E
S11312F029813A818D859E85820F931F89879A87DC
S113130089819A81FC01228133818D859E85281BE8
S1131310390B89859A85FC012283338389819A81DB
S11313202D853E85FC012283338389859A85FC01C2
S1131330828193818B879C8786ED91E28F83988746
S113134007C08F819885FC01808191818F83988764
S11313508F819885FC0180819181FC0122813381F8
S11313608B859C852817390760F38F819885FC014C
S11313702081318189859A85FC01208331838F8185
S1131380988529853A85FC01208331832091142096
S11313903091152089819A81FC0182819381A90170
S11313A0481B590BCA0180931420909315200E9466
S11313B071118D819E81892B11F40E94B6188D8143
S11313C09E812E96CDBFDEBFDF91CF910895CF933E
S11313D0DF93CDB7DEB72A97CDBFDEBF89879A8763
S11313E089859A858B839C8389859A85892B09F4C1
S11313F053C084E090E09195819591092B813C81C3
S1131400820F931F8B839C838B819C818D839E830E
S11314100E9464118D819E81FC01828193818F835E
S1131420988786ED91E289839A8307C089819A819E
S1131430FC018081918189839A8389819A81FC014D
S113144080819181FC01228133818F8198852817C5
S1131450390760F389819A81FC01208131818D8172
S11314609E81FC012083318389819A812D813E8173
S1131470FC01208331838D819E81FC012281338193
S11314808091142090911520820F931F8093142033
S1131490909315200E94711100002A96CDBFDEBFE3
S11314A0DF91CF910895CF93DF9300D01F92CDB7F2
S11314B0DEB78091882290918922019689839A834C
S11314C089819A818093D6219093D7211092D82133
S11314D01092D9218FEF9FE38093DC219093DD213B
S11314E01092DA211092DB2189819A818B839C836B
S11314F08B819C812FEF3FE3FC01228333838B811B
S11315009C812AED31E2FC01208331830000249682
S1131510CDBFDEBFDF91CF910895CF93DF931F92AC
S11315201F92CDB7DEB789839A8389819A819C0102
S11315302D5F3F4F89819A81FC0121833283898108
S11315409A812FEF3FEFFC012383348389819A81B1
S11315509C012D5F3F4F89819A81FC01258336834D
S113156089819A819C012D5F3F4F89819A81FC0179
S11315702783308789819A81FC01108200000F90B3
S11315800F90DF91CF910895CF93DF931F921F9215
S1131590CDB7DEB789839A8389819A81FC0110864D
S11315A0118600000F900F90DF91CF910895CF9393
S11315B0DF9300D000D0CDB7DEB78B839C836D83DF
S11315C07E838B819C81FC018181928189839A83B2
S11315D08D819E8129813A81FC0122833383898113
S11315E09A81FC01248135818D819E81FC012483B3
S11315F0358389819A81FC01848195812D813E8185
S1131600FC012283338389819A812D813E81FC01EF
S1131610248335838D819E812B813C81FC0120872D
S113162031878B819C81FC01808121E0280F8B8193
S11316309C81FC01208300002696CDBFDEBFDF9194
S1131640CF910895CF93DF9300D01F92CDB7DEB72B
S11316508B839C838B819C81FC018085918589830C
S11316609A838B819C81FC01828193812B813C81B3
S1131670F90124813581FC01248335838B819C818C
S1131680FC01848195812B813C81F9012281338184
S1131690FC012283338389819A81FC012181328177
S11316A08B819C812817390751F48B819C81FC0123
S11316B02481358189819A81FC01218332838B8144
S11316C09C81FC011086118689819A81FC018081AC
S11316D02FEF280F89819A81FC01208389819A81C7
S11316E0FC0180812496CDBFDEBFDF91CF910895A8
S11316F0CF93DF93CDB7DEB72897CDBFDEBF8B8303
S11317009C836D837E834F8358878B819C8121E1E9
S1131710FC0120838B819C8101978B839C838B812B
S11317209C8122E2FC0120838B819C8101978B8325
S11317309C838B819C8123E3FC0120838B819C818E
S113174001978B839C838D819E8189839A832981D0
S11317508B819C81FC0120838B819C8101978B83ED
S11317609C8389819A81892F992789839A832981E6
S11317708B819C81FC0120838B819C8101978B83CD
S11317809C8389819A81892F992789839A832981C6
S11317908B819C81FC0120838B819C8101978B83AD
S11317A09C838B819C81FC0110828B819C8101979D
S11317B08B839C838B819C8120E8FC0120838B811B
S11317C09C8101978B839C838B819C81FC0110827B
S11317D08B819C8101978B839C838B819C8122E0EC
S11317E0FC0120838B819C8101978B839C838B815B
S11317F09C8123E0FC0120838B819C8101978B8356
S11318009C838B819C8124E0FC0120838B819C81BF
S113181001978B839C838B819C8125E0FC01208331
S11318208B819C8101978B839C838B819C8126E097
S1131830FC0120838B819C8101978B839C838B810A
S11318409C8127E0FC0120838B819C8101978B8301
S11318509C838B819C8128E0FC0120838B819C816B
S113186001978B839C838B819C8129E0FC012083DD
S11318708B819C8101978B839C838B819C8120E14C
S1131880FC0120838B819C8101978B839C838B81BA
S11318909C8121E1FC0120838B819C8101978B83B6
S11318A09C838B819C8122E1FC0120838B819C8120
S11318B001978B839C838B819C8123E1FC01208392
S11318C08B819C8101978B839C838B819C8124E1F8
S11318D0FC0120838B819C8101978B839C838B816A
S11318E09C8125E1FC0120838B819C8101978B8362
S11318F09C838B819C8126E1FC0120838B819C81CC
S113190001978B839C838B819C8127E1FC0120833D
S11319108B819C8101978B839C838B819C8128E1A3
S1131920FC0120838B819C8101978B839C838B8119
S11319309C8129E1FC0120838B819C8101978B830D
S11319409C838B819C8120E2FC0120838B819C8180
S113195001978B839C838B819C8121E2FC012083F2
S11319608B819C8101978B839C838B819C8122E258
S1131970FC0120838B819C8101978B839C838B81C9
S11319809C8123E2FC0120838B819C8101978B83C2
S11319909C838F81988589839A8329818B819C81FB
S11319A0FC0120838B819C8101978B839C8389819B
S11319B09A81892F992789839A8329818B819C8194
S11319C0FC0120838B819C8101978B839C838B8179
S11319D09C8126E2FC0120838B819C8101978B836F
S11319E09C838B819C8127E2FC0120838B819C81D9
S11319F001978B839C838B819C8128E2FC0120834B
S1131A008B819C8101978B839C838B819C8129E2B0
S1131A10FC0120838B819C8101978B839C838B8128
S1131A209C8120E3FC0120838B819C8101978B8323
S1131A309C838B819C8121E3FC0120838B819C818D
S1131A4001978B839C838B819C812896CDBFDEBFBD
S1131A50DF91CF910895CF93DF93CDB7DEB70E9486
S1131A60BA0DA091DF21B091E021CD91CDBFDD91E0
S1131A70DEBFFF91EF91DF91CF91BF91AF919F9125
S1131A808F917F916F915F914F913F912F911F9112
S1131A900F91FF90EF90DF90CF90BF90AF909F9009
S1131AA08F907F906F905F904F903F902F901F90FA
S1131AB00F900FBE0F90089581E0DF91CF910895AC
S1131AC00F920FB6F8940F921F9211242F923F9207
S1131AD04F925F926F927F928F929F92AF92BF923A
S1131AE0CF92DF92EF92FF920F931F932F933F9326
S1131AF04F935F936F937F938F939F93AF93BF9312
S1131B00CF93DF93EF93FF93A091DF21B091E02176
S1131B100DB60D920EB60D920E94CA13A091DF214C
S1131B20B091E021CD91CDBFDD91DEBFFF91EF916A
S1131B30DF91CF91BF91AF919F918F917F916F91E1
S1131B405F914F913F912F911F910F91FF90EF90D3
S1131B50DF90CF90BF90AF909F908F907F906F90C9
S1131B605F904F903F902F901F900F900FBE0F905B
S1131B7008950000CF93DF93CDB7DEB780E098E0FF
S1131B802FEF3FEFFC0120A731A780E098E021E090
S1131B90FC01208380E098E020E4FC01218380E0C4
S1131BA098E021E0FC01268380E098E021E0FC013C
S1131BB0278380E098E020E03DE7FC0126A337A3DB
S1131BC00000DF91CF9108950F920FB6F8940F9211
S1131BD01F9211242F923F924F925F926F927F92A5
S1131BE08F929F92AF92BF92CF92DF92EF92FF9229
S1131BF00F931F932F933F934F935F936F937F9311
S1131C008F939F93AF93BF93CF93DF93EF93FF9300
S1131C10A091DF21B091E0210DB60D920EB60D9288
S1131C2080E098E0FC0186A197A19C0140E050E08F
S1131C308091842290918522A0918622B09187225E
S1131C40820F931FA41FB51F809384229093852233
S1131C50A0938622B09387220E94D5120E94CA13B1
S1131C60A091DF21B091E021CD91CDBFDD91DEBF08
S1131C70FF91EF91DF91CF91BF91AF919F918F91A0
S1131C807F916F915F914F913F912F911F910F9190
S1131C90FF90EF90DF90CF90BF90AF909F908F9088
S1131CA07F906F905F904F903F902F901F900F9078
S1131CB00FBE0F9018950000CF93DF93CDB7DEB71A
S1131CC00000DF91CF9108950F920FB6F8940F9210
S1131CD01F9211242F923F924F925F926F927F92A4
S1131CE08F929F92AF92BF92CF92DF92EF92FF9228
S1131CF00F931F932F933F934F935F936F937F9310
S1131D008F939F93AF93BF93CF93DF93EF93FF93FF
S1131D10A091DF21B091E0210DB60D920EB60D9287
S1131D2080E098E02FEF3FEFFC0120A731A70E944D
S1131D30CA13A091DF21B091E021CD91CDBFDD91F7
S1131D40DEBFFF91EF91DF91CF91BF91AF919F9152
S1131D508F917F916F915F914F913F912F911F913F
S1131D600F91FF90EF90DF90CF90BF90AF909F9036
S1131D708F907F906F905F904F903F902F901F9027
S1131D800F900FBE0F90189500008F929F92AF9204
S1131D90BF92CF92DF92EF92FF920F931F93CF9354
S1131DA0DF93CDB7DEB76097CDBFDEBF8E839F8351
S1131DB0688779874A875B872C873D870E87EF86FC
S1131DC0F88A8A859B850E94F8088C839D838C8180
S1131DD09D81892BB9F080E390E00E94F808898303
S1131DE09A8389819A81892B41F089819A812C81F6
S1131DF03D81FC01278B308F07C08C819D810E941F
S1131E00E70902C019821A8289819A81892B09F112
S1131E108A859B85CC01A0E0B0E009811A814F85B9
S1131E2058892C853D8568857985EE81FF81812CD3
S1131E30912C58016A01EE8489019C01AD01CF0106
S1131E400E943C0F89819A810E94231081E08B8338
S1131E5002C08FEF8B838B816096CDBFDEBFDF9195
S1131E60CF911F910F91FF90EF90DF90CF90BF9093
S1131E70AF909F908F9008958F929F92AF92BF9250
S1131E80CF92DF92EF920F931F93CF93DF93CDB74F
S1131E90DEB76497CDBFDEBF8C839D836E837F8363
S1131EA0288739874A875B870C871D87EE86CF860C
S1131EB0D88AA98ABA8A8B8A9C8A8E819F81892B27
S1131EC031F460E673E087E190E20E94C41A288549
S1131ED0398589899A89FC018789908DA90165EAE8
S1131EE070E00E94A32789899A89FC012789308D93
S1131EF0888599850197820F931F8A839B83198212
S1131F0021C08981882F90E02981222F30E04E81E1
S1131F105F81240F351FF901408129893A89820F95
S1131F20931F4996FC0140838981882F90E02E817C
S1131F303F81820F931FFC018081882339F08981BE
S1131F408F5F898389818830E0F201C0000089892C
S1131F509A89FC0110A28E858A3010F089E08E8760
S1131F6089899A892E85FC01268B89899A892E85EF
S1131F70FC0123A389899A89FC0114A289899A897D
S1131F8002960E94C40A89899A890C960E94C40AFE
S1131F9089899A8929893A89FC01208731878E8524
S1131FA0882F90E02AE030E0281B390B89899A8930
S1131FB0FC012487358789899A8929893A89FC0112
S1131FC0228B338B89899A89FC0115A216A28989EF
S1131FD09A89FC0117A210A611A612A689899A89CA
S1131FE0FC0113A614A615A616A689899A89FC01D4
S1131FF017A64C855D852C813D818A819B81B90121
S11320000E94780B9C0189899A89FC012083318381
S11320108F859889892B39F08F85988929893A8900
S1132020FC012083318300006496CDBFDEBFDF91C5
S1132030CF911F910F91EF90DF90CF90BF90AF9011
S11320409F908F900895CF93DF931F921F92CDB7E7
S1132050DEB789839A830FB6F8940F9280916D222C
S11320608F5F80936D228091DF219091E021892BF5
S113207069F489819A818093DF219093E021809192
S11320806D228130C9F40E94371516C080917122E7
S1132090882391F48091DF219091E021FC0126892D
S11320A089819A81FC018689821730F089819A811D
S11320B08093DF219093E021809175228F5F80933C
S11320C075222091752289819A81FC0121A389813D
S11320D09A81FC01968980917022891730F4898154
S11320E09A81FC0186898093702289819A81AC014E
S11320F04E5F5F4F89819A81FC018689282F30E0E9
S1132100C901880F991F880F991F880F991F820F83
S1132110931F8F519E4DBA010E94D70A0F900FBE94
S113212080917122882371F08091DF219091E021C8
S1132130FC01268989819A81FC018689281710F47B
S11321400E94600D00000F900F90DF91CF910895D1
S1132150CF93DF93CDB7DEB72B97CDBFDEBF8A8792
S11321609B878A859B858A839B838A819B81892B14
S113217031F46CE475E087E190E20E94C41A809126
S1132180DF219091E0212A813B812817390711F43E
S1132190198252C00FB6F8940F928A819B81FC0178
S11321A0828593858C839D8380914D2290914E22CC
S11321B08E839F8380914F229091502288879987A4
S11321C00F900FBE2C813D818E819F812817390786
S11321D039F02C813D81888599852817390719F4B0
S11321E082E0898329C08C819D8184569242B1F416
S11321F08A819B81FC0184899589892B61F48A8178
S11322009B81FC0187A5813019F482E0898314C085
S113221083E0898311C082E089830EC08C819D8113
S11322208A55924221F08C819D81892B19F484E096
S1132230898302C081E0898389812B96CDBFDEBF6B
S1132240DF91CF910895EF92FF920F93CF93DF9395
S11322501F92CDB7DEB70F2EF8E7EF2EF2E2FF2E76
S1132260F02D00E020E030E040E051E06BE270E26D
S113227084E295E10E94C50E89838981813099F4B5
S1132280F8948FEF9FEF809376229093772281E0EA
S11322908093712210926E2210926F220E945C0E23
S11322A00E942B0D09C089818F3F31F467E078E0EB
S11322B087E190E20E94C41A00000F90DF91CF9151
S11322C00F91FF90EF900895CF93DF93CDB7DEB7D2
S11322D080917A228F5F80937A220000DF91CF91E0
S11322E00895CF93DF9300D01F92CDB7DEB7198244
S11322F01A821B8280917A22882331F46CE678E07A
S113230087E190E20E94C41A0FB6F8940F9280916C
S11323107A22815080937A2280917A22882309F04C
S113232077C080916D22882309F472C049C08091DE
S1132330562290915722FC018681978189839A8342
S113234089819A810C960E94220B89819A81029636
S11323500E94220B89819A81FC01968980917022C6
S1132360891730F489819A81FC01868980937022CF
S113237089819A81AC014E5F5F4F89819A81FC010A
S11323808689282F30E0C901880F991F880F991F6B
S1132390880F991F820F931F8F519E4DBA010E947F
S11323A0D70A89819A81FC0126898091DF21909145
S11323B0E021FC018689281718F081E080937322BC
S11323C080915122882309F0B2CF89819A81892B87
S11323D011F00E943A17809172228C838C81882399
S11323E079F00E94D512882319F081E0809373223A
S11323F08C8181508C838C81882399F7109272226E
S113240080917322882321F081E08B830E94600DE8
S11324100F900FBE8B812496CDBFDEBFDF91CF918D
S11324200895CF93DF93CDB7DEB72797CDBFDEBF37
S11324308B839C836D834E835F8319828AE08A83B6
S11324400E94641180916D229D81981708F4A4C0A4
S11324508A8181508A838A81282F30E0C901880FBC
S1132460991F880F991F880F991F820F931FBC0112
S11324706F517E4D8981882F90E082959295907F4F
S11324809827807F98272B813C81820F931F41E0FE
S11324900E945616982F8981890F89838A818823FF
S11324A0B9F660914D2270914E228981882F90E077
S11324B082959295907F9827807F98272B813C81E5
S11324C0820F931F42E00E945616982F8981890F2C
S11324D0898360914F22709150228981882F90E0E6
S11324E082959295907F9827807F98272B813C81B5
S11324F0820F931F42E00E945616982F8981890FFC
S113250089838981882F90E082959295907F98277E
S1132510807F98272B813C81820F931F44E06AE5DA
S113252072E20E945616982F8981890F89838981C6
S1132530882F90E082959295907F9827807F9827A6
S11325402B813C81820F931F43E064E672E20E9478
S11325505616982F8981890F89838E819F81892BB3
S1132560D9F080E098E0FC0180A191A19C0140E0B9
S113257050E08091842290918522A0918622B0918E
S11325808722820F931FA41FB51F2E813F81F9015B
S113259080839183A283B3830E94711189812796DA
S11325A0CDBFDEBFDF91CF910895CF93DF93CDB739
S11325B0DEB72997CDBFDEBF198280917A228823A6
S11325C009F0D6C080916E2290916F2201968A8381
S11325D09B838A819B8180936E2290936F228A8150
S11325E09B81892B49F580914D2290914E22FC01CB
S11325F08081882331F066E67AE087E190E20E94E8
S1132600C41A80914D2290914E228C839D83809197
S11326104F229091502280934D2290934E228C8190
S11326209D8180934F2290935022809174228F5FDA
S1132630809374220E943A17809176229091772297
S11326402A813B812817390708F478C080914D22EC
S113265090914E22FC018081882339F48FEF9FEF03
S1132660809376229093772269C080914D22909135
S11326704E22FC0185819681FC01868197818E839F
S11326809F838E819F81FC018281938188879987B2
S11326902A813B81888599852817390738F48885EC
S11326A09985809376229093772248C08E819F816A
S11326B002960E94220B8E819F81FC018489958958
S11326C0892B29F08E819F810C960E94220B8E818A
S11326D09F81FC01968980917022891730F48E8144
S11326E09F81FC018689809370228E819F81AC0139
S11326F04E5F5F4F8E819F81FC018689282F30E0D9
S1132700C901880F991F880F991F880F991F820F7D
S1132710931F8F519E4DBA010E94D70A8E819F81CB
S1132720FC0126898091DF219091E021FC018689BA
S1132730281708F48BCF81E0898388CF8091DF212B
S11327409091E021FC018689282F30E0C901880F8F
S1132750991F880F991F880F991F820F931F8F51FC
S11327609E4DFC018081823040F081E0898305C068
S1132770809172228F5F80937222809173228823CA
S113278011F081E0898389812996CDBFDEBFDF9175
S1132790CF910895AF92BF92CF92DF92EF92FF92C2
S11327A00F931F93CF93DF93CDB7DEB72997CDBF98
S11327B0DEBF80917A22882321F081E08093732206
S11327C034C11092732280E098E0FC0180A191A1B1
S11327D09C0140E050E08091842290918522A09158
S11327E08622B0918722820F931FA41FB51F809366
S11327F07F2290938022A0938122B0938222209101
S11328007F223091802240918122509182228091B6
S11328107B2290917C22A0917D22B0917E2282170E
S11328209307A407B50750F56091DF217091E0216B
S1132830FB0127A130A541A552A5E0907F22F0908D
S11328408022009181221091822280917B2290919A
S11328507C22A0917D22B0917E2257016801A81AA2
S1132860B90ACA0ADB0AD601C501820F931FA41F45
S1132870B51FFB0187A390A7A1A7B2A780917F22D0
S113288090918022A0918122B091822280937B2218
S113289090937C22A0937D22B0937E228091DF21AD
S11328A09091E021FC018789908D8A839B8385EA3E
S11328B095EADC018C839D83AE83BF838A819B81EF
S11328C0FC0120813181428153818C819D81AE81C3
S11328D0BF81281739074A075B0799F58A819B81CD
S11328E00496FC0120813181428153818C819D8138
S11328F0AE81BF81281739074A075B0711F58A8122
S11329009B810896FC0120813181428153818C8115
S11329109D81AE81BF81281739074A075B0789F477
S11329208A819B810C96FC012081318142815381F3
S11329308C819D81AE81BF81281739074A075B07C7
S113294071F08091DF219091E0219C01275E3F4F3F
S11329508091DF219091E021B9010E94B619809104
S1132960702289830CC08981882331F46CE87BE070
S113297087E190E20E94C41A898181508983898108
S1132980282F30E0C901880F991F880F991F880FDD
S1132990991F820F931F8F519E4DFC0180818823C4
S11329A011F38981282F30E0C901880F991F880FFE
S11329B0991F880F991F820F931F8F519E4D8887EF
S11329C0998788859985FC0181819281FC01228106
S11329D0338188859985FC01218332838885998593
S11329E0FC0121813281888599850396281739074E
S11329F069F488859985FC0181819281FC01228199
S1132A00338188859985FC01218332838885998562
S1132A10FC0181819281FC01868197818093DF2171
S1132A209093E02189818093702200002996CDBF84
S1132A30DEBFDF91CF911F910F91FF90EF90DF9058
S1132A40CF90BF90AF900895CF93DF931F921F92C2
S1132A50CDB7DEB789839A830E9479158091E121ED
S1132A60823010F00E94600D0E94AE18F5CFCF9313
S1132A70DF931F92CDB7DEB7198213C08981282F47
S1132A8030E0C901880F991F880F991F880F991F7B
S1132A90820F931F8F519E4D0E948D0A89818F5FF3
S1132AA0898389818A3050F38BE392E20E948D0AF4
S1132AB084E492E20E948D0A81E592E20E948D0AEA
S1132AC08AE592E20E948D0A84E692E20E948D0ACF
S1132AD08BE392E280934D2290934E2284E492E21F
S1132AE080934F229093502200000F90DF91CF915A
S1132AF00895CF93DF931F921F92CDB7DEB721C005
S1132B000FB6F8940F9280915F2290916022FC019D
S1132B108681978189839A8389819A8102960E940A
S1132B20220B80916D22815080936D2280916322CB
S1132B308150809363220F900FBE89819A810E94F5
S1132B402117809163228823D9F600000F900F90FB
S1132B50DF91CF910895CF93DF93CDB7DEB7289758
S1132B60CDBFDEBF8B839C836D837E834F83288799
S1132B708B819C81892B29F48091DF219091E02124
S1132B8002C08B819C8189839A838D819E81298156
S1132B903A81FC012083318389819A819C01275EDB
S1132BA03F4F8D819E81FC012283338389819A81E9
S1132BB0FC0126898D819E81FC01268389819A816D
S1132BC0FC012789308D8D819E81FC012487358706
S1132BD089819A81FC0121A18D819E81FC0124833C
S1132BE089819A81FC0123A18D819E81FC01278327
S1132BF089819A81FC0187A190A5A1A5B2A52D8107
S1132C003E81F90180879187A287B38788858530C3
S1132C1039F18091DF219091E02129813A812817AF
S1132C20390729F48D819E81FC01158222C08D8192
S1132C309E812885FC01258388858330D1F40E94F8
S1132C40641189819A81FC0184899589892B29F0F1
S1132C508D819E8122E0FC0125830E94711109C0AF
S1132C6089819A810E94A810282F8D819E81FC0160
S1132C7025838F81882371F089819A81FC0187895A
S1132C80908D0E94F6169C018D819E81FC01268701
S1132C90378705C08D819E81FC011686178600004A
S1132CA02896CDBFDEBFDF91CF910895CF93DF93F8
S1132CB0CDB7DEB72E97CDBFDEBF8A879B876C87E3
S1132CC07D874E8719828C859D85FC0180818823B0
S1132CD009F485C08C859D858A839B838A819B8129
S1132CE0FC0181819281FC01228133818A819B8153
S1132CF0FC01218332838A819B81FC012181328101
S1132D008A819B8103962817390769F48A819B81FC
S1132D10FC0181819281FC01228133818A819B8122
S1132D20FC01218332838A819B81FC018181928110
S1132D30FC01868197818C839D838C859D858E8300
S1132D409F838E819F81FC0181819281FC0122817C
S1132D5033818E819F81FC01218332838E819F8107
S1132D60FC01218132818E819F81039628173907C6
S1132D7069F48E819F81FC0181819281FC01228111
S1132D8033818E819F81FC01218332838E819F81D7
S1132D90FC0181819281FC018681978188879987D2
S1132DA08981882F90E082959295907F9827807FE3
S1132DB098272A853B85B901680F791F88859985ED
S1132DC02E8541E00E94AB1589818F5F8983288518
S1132DD039858C819D812817390709F0AECF898107
S1132DE02E96CDBFDEBFDF91CF910895CF93DF93B1
S1132DF000D000D0CDB7DEB78D839E8319821A82AE
S1132E001B821C8210C08D819E8101968D839E83BE
S1132E1089819A81AB81BC810196A11DB11D8983F1
S1132E209A83AB83BC838D819E81FC018081853A2A
S1132E3051F389819A812696CDBFDEBFDF91CF9170
S1132E400895CF93DF931F921F92CDB7DEB7898386
S1132E509A8389819A81FC018789908D0E94E70970
S1132E6089819A810E94E70900000F900F90DF91F9
S1132E70CF910895CF93DF931F921F92CDB7DEB702
S1132E8080914D2290914E22FC018081882339F457
S1132E908FEF9FEF809376229093772215C08091D5
S1132EA04D2290914E22FC0185819681FC01868100
S1132EB0978189839A8389819A81FC018281938194
S1132EC0809376229093772200000F900F90DF91E9
S1132ED0CF910895CF93DF9300D000D0CDB7DEB764
S1132EE08B839C836D837E832D813E818B819C812A
S1132EF0B9010E94B3278B819C810E94BA278983E0
S1132F009A830EC02B813C8189819A81820F931F01
S1132F1020E2FC01208389819A81019689839A8326
S1132F2089819A81079770F32B813C8189819A81E9
S1132F30820F931FFC0110822B813C8189819A812D
S1132F40820F931F2696CDBFDEBFDF91CF910895E8
S1132F50CF93DF93CDB7DEB72E97CDBFDEBF8D877E
S1132F609E878D859E85FC01108280916D228A83C7
S1132F7080916D22882F90E082959295907F98277A
S1132F80807F98270E94F8088B839C838B819C8187
S1132F90892B09F4DCC09E01275F3F4F8B819C8104
S1132FA0A9016A810E9411128A8389859A85AB8559
S1132FB0BC8524E630E040E050E0BC01CD010E9435
S1132FC06E25DA01C90189879A87AB87BC87898511
S1132FD09A85AB85BC85892B8A2B8B2B09F4B3C0CE
S1132FE01982ACC08981882F90E082959295907F58
S1132FF09827807F98272B813C81820F931FFC01A7
S113300080859185A285B38529853A854B855C8524
S1133010BC01CD010E946E25DA01C9018D839E8316
S1133020AF83B8878981882F90E082959295907FAD
S11330309827807F98272B813C81820F931FFC0166
S1133040228133818D859E85B9010E946A178D87FF
S11330509E878D819E81AF81B885892B8A2B8B2B8E
S1133060A1F18981882F90E082959295907F98278D
S1133070807F98272B813C81820F931FFC018085E0
S11330809185A285B38528852F932F812F932E8137
S11330902F932D812F932B2F2F932A2F2F93292F6B
S11330A02F938F938FE390E2892F8F938FE390E296
S11330B08F938E858F938D858F930E9492288DB7E1
S11330C09EB70C96CDBFDEBF2BC08981882F90E0C0
S11330D082959295907F9827807F98272B813C81B9
S11330E0820F931FFC0180859185A285B3852B2FC8
S11330F02F932A2F2F93292F2F938F938DE490E2D0
S1133100892F8F938DE490E28F938E858F938D8595
S11331108F930E9492288DB79EB70896CDBFDEBFCD
S11331208D859E850E94BA279C018D859E85820F80
S1133130931F8D879E8789818F5F898399818A8177
S1133140981708F44FCF8B819C810E94E7090000F7
S11331502E96CDBFDEBFDF91CF910895CF93DF933D
S1133160CDB7DEB70000DF91CF910895CF93DF9301
S1133170CDB7DEB76C97CDBFDEBFF8948AE590E299
S11331800E941B0280E096E020E8FC01218380E09D
S113319096E020E8FC01258380E090E0A8ECB2E40E
S11331A089839A83AB83BC8320E030E04AEF55E403
S11331B069817A818B819C810E94B41FDC01CB01DF
S11331C08B8B9C8BAD8BBE8B20E030E040E85FE3C3
S11331D06B897C898D899E890E94571E88232CF4D3
S11331E081E090E08F8B988F3FC020E03FEF4FE766
S11331F057E46B897C898D899E890E94AF1F1816BC
S11332004CF520E030E040E251E469817A818B8121
S11332109C810E94B41FDC01CB01BC01CD010E9442
S1133220CE1EDC01CB018F8B988F0FC080E293E020
S1133230898F9A8F898D9A8D0197F1F7898F9A8F4B
S11332408F89988D01978F8B988F8F89988D892B73
S113325069F714C06B897C898D899E890E94CE1E72
S1133260DC01CB018F8B988F8F89988D8B8F9C8FEE
S11332708B8D9C8D0197F1F78B8F9C8F80E096E06E
S113328020E8FC01268380E090E0A8ECB2E48D8382
S11332909E83AF83B88720E030E04AEF55E46D8128
S11332A07E818F8198850E94B41FDC01CB018987C0
S11332B09A87AB87BC8720E030E040E85FE369850C
S11332C07A858B859C850E94571E88232CF481E087
S11332D090E08D879E873FC020E03FEF4FE757E4A3
S11332E069857A858B859C850E94AF1F18164CF5DD
S11332F020E030E040E251E46D817E818F81988549
S11333000E94B41FDC01CB01BC01CD010E94CE1E82
S1133310DC01CB018D879E870FC080E293E08F870D
S1133320988B8F8598890197F1F78F87988B8D8576
S11333309E8501978D879E878D859E85892B69F74C
S113334014C069857A858B859C850E94CE1EDC011C
S1133350CB018D879E878D859E85898B9A8B8989E4
S11333609A890197F1F7898B9A8B11CFCF93DF93C9
S1133370CDB7DEB7A097CDBFDEBF8D8F9E8F6F8F89
S113338078A3F89480E096E020E8FC0121838CE7A0
S113339090E20E941B028F8D98A16AE070E00E9467
S11333A02F0284E990E20E941B0280E096E020E86C
S11333B0FC01258380E090E0AAEFB3E489839A833B
S11333C0AB83BC8320E030E04AEF55E469817A8125
S11333D08B819C810E94B41FDC01CB018B8B9C8B65
S11333E0AD8BBE8B20E030E040E85FE36B897C89E5
S11333F08D899E890E94571E88232CF481E090E0D9
S11334008F8B988F3FC020E03FEF4FE757E46B89E5
S11334107C898D899E890E94AF1F18164CF520E087
S113342030E040E251E469817A818B819C810E9481
S1133430B41FDC01CB01BC01CD010E94CE1EDC0116
S1133440CB018F8B988F0FC080E293E0898F9A8F86
S1133450898D9A8D0197F1F7898F9A8F8F89988D2D
S113346001978F8B988F8F89988D892B69F714C05A
S11334706B897C898D899E890E94CE1EDC01CB01DB
S11334808F8B988F8F89988D8B8F9C8F8B8D9C8D34
S11334900197F1F78B8F9C8F80E096E020E8FC0188
S11334A0268380E090E0AAEFB3E48D839E83AF830C
S11334B0B88720E030E04AEF55E46D817E818F814A
S11334C098850E94B41FDC01CB0189879A87AB875A
S11334D0BC8720E030E040E85FE369857A858B852E
S11334E09C850E94571E88232CF481E090E08D87F0
S11334F09E873FC020E03FEF4FE757E469857A8518
S11335008B859C850E94AF1F18164CF520E030E097
S113351040E251E46D817E818F8198850E94B41FC1
S1133520DC01CB01BC01CD010E94CE1EDC01CB012C
S11335308D879E870FC080E293E08F87988B8F855D
S113354098890197F1F78F87988B8D859E850197D0
S11335508D879E878D859E85892B69F714C0698523
S11335607A858B859C850E94CE1EDC01CB018D87DC
S11335709E878D859E85898B9A8B89899A890197E7
S1133580F1F7898B9A8B11CFCF93DF93CDB7DEB749
S1133590A097CDBFDEBF8D8F9E8F6F8F78A3F894D9
S11335A080E096E020E8FC01218387E990E20E9414
S11335B01B028D8D9E8D64E670E00E942F0287EAC7
S11335C090E20E941B028F8D98A10E947E0284E9E2
S11335D090E20E941B0280E096E020E8FC01258333
S11335E080E090E0A8ECB2E489839A83AB83BC8347
S11335F020E030E04AEF55E469817A818B819C8137
S11336000E94B41FDC01CB018B8B9C8BAD8BBE8BDA
S113361020E030E040E85FE36B897C898D899E89F6
S11336200E94571E88232CF481E090E08F8B988FA2
S11336303FC020E03FEF4FE757E46B897C898D89D9
S11336409E890E94AF1F18164CF520E030E040E23E
S113365051E469817A818B819C810E94B41FDC01D1
S1133660CB01BC01CD010E94CE1EDC01CB018F8BAE
S1133670988F0FC080E293E0898F9A8F898D9A8DFD
S11336800197F1F7898F9A8F8F89988D01978F8B86
S1133690988F8F89988D892B69F714C06B897C89E1
S11336A08D899E890E94CE1EDC01CB018F8B988F61
S11336B08F89988D8B8F9C8F8B8D9C8D0197F1F7C3
S11336C08B8F9C8F80E096E020E8FC01268380E0CD
S11336D090E0AAEFB3E48D839E83AF83B88720E0A4
S11336E030E04AEF55E46D817E818F8198850E9498
S11336F0B41FDC01CB0189879A87AB87BC8720E0A4
S113370030E040E85FE369857A858B859C850E947B
S1133710571E88232CF481E090E08D879E873FC05C
S113372020E03FEF4FE757E469857A858B859C85D8
S11337300E94AF1F18164CF520E030E040E251E43F
S11337406D817E818F8198850E94B41FDC01CB013D
S1133750BC01CD010E94CE1EDC01CB018D879E876A
S11337600FC080E293E08F87988B8F8598890197AB
S1133770F1F78F87988B8D859E8501978D879E871E
S11337808D859E85892B69F714C069857A858B851B
S11337909C850E94CE1EDC01CB018D879E878D8582
S11337A09E85898B9A8B89899A890197F1F7898BF0
S11337B09A8B11CFCF93DF93CDB7DEB70E9412055A
S11337C00E9485060E942D050E94F5010E941003A7
S11337D00E94EC040E94ED0181E00E94F90480E063
S11337E090E0DF91CF910895CF93DF93CDB7DEB70B
S11337F00E94251C0E94F71C80E090E0DF91CF918D
S11338000895CF93DF93CDB7DEB780E090E40E94B4
S11338109F25809388229093892280918822909179
S11338208922892B09F4FFCF80EA90E027E0FC018C
S1133830228378940E94DA1B0E94F41B0E942311B5
S113384080E090E0DF91CF910895EF92FF920F9383
S1133850CF93DF93CDB7DEB7E12CF12C01E020E06C
S113386030E040E051E062EB70E280E49CE10E94D1
S1133870C50E0000DF91CF910F91FF90EF90089556
S1133880CF93DF93CDB7DEB76197CDBFDEBF888B13
S1133890998B80911620813061F4809183228F5F0F
S11338A08093832280918322843080F0109283223B
S11338B00DC080918322882321F483E080938322A6
S11338C005C080918322815080938322809183223A
S11338D0282F30E081E090E002C0880F991F2A95DC
S11338E0E2F7898389810E94360380E090E0AAEFA1
S11338F0B3E48A839B83AC83BD8320E030E04AEF4A
S113390055E46A817B818C819D810E94B41FDC0116
S1133910CB018E839F83A887B98720E030E040E8FD
S11339205FE36E817F81888599850E94571E882375
S11339302CF481E090E08A879B873FC020E03FEF32
S11339404FE757E46E817F81888599850E94AF1F78
S113395018164CF520E030E040E251E46A817B81A6
S11339608C819D810E94B41FDC01CB01BC01CD017F
S11339700E94CE1EDC01CB018A879B870FC080E2A8
S113398093E08C879D878C859D850197F1F78C87C3
S11339909D878A859B8501978A879B878A859B85D6
S11339A0892B69F714C06E817F81888599850E946F
S11339B0CE1EDC01CB018A879B878A859B858E87F7
S11339C09F878E859F850197F1F78E879F8761CFAB
S11339D0CF93DF931F921F92CDB7DEB789839A836B
S11339E080E090E00F900F90DF91CF910895EF92D7
S11339F0FF920F93CF93DF93CDB7DEB7E12CF12C79
S1133A0001E020E030E040E053E06FEB70E282E15F
S1133A109DE10E94C50E0000DF91CF910F91FF90B0
S1133A20EF900895CF93DF93CDB7DEB7C753D2405D
S1133A30CDBFDEBF9E012A5C3D4FF9018083918397
S1133A40198288EC90E20E9462288CEE90E20E9437
S1133A50622888E091E20E94622885E291E20E9455
S1133A60622883E491E2892F8F9383E491E28F9318
S1133A700E9448280F900F9080919022909191225B
S1133A800E94E81C80918E2290918F220E94CE2762
S1133A908A839B838A819B810D9729F08A819B81EC
S1133AA00A9709F07AC08BE491E20E946228898126
S1133AB0882F90E09E012C5F3F4F820F931FFC01E3
S1133AC010828981882309F455C0CE0104966DE4DF
S1133AD071E20E94AA27892B41F48FEF809316206C
S1133AE083E591E20E94622845C0CE01049668E60F
S1133AF071E20E94AA27892B41F481E08093162069
S1133B008FE691E20E94622835C0CE01049665E8F2
S1133B1071E20E94AA27892BD9F48BE891E20E94D2
S1133B206228CE01C6960E94A817CE01C696292FF8
S1133B302F938F9387EA91E2892F8F9387EA91E2FB
S1133B408F930E9448280F900F900F900F9012C0EF
S1133B50CE010496292F2F938F938CEA91E2892F1B
S1133B608F938CEA91E28F930E9448280F900F90D4
S1133B700F900F90198283E491E2892F8F9383E44D
S1133B8091E28F930E9448280F900F908091902289
S1133B90909191220E94E81C1CC08981813308F015
S1133BA071CF898191E0980F9983882F90E04A81A1
S1133BB09E012C5F3F4F820F931FFC0140838A813B
S1133BC09B810E945C2880919022909191220E9476
S1133BD0E81C58CF5058BB27AA270E94021E0C94F9
S1133BE0751F0E94671F38F00E946E1F20F039F481
S1133BF09F3F19F426F40C94641F0EF4E095E7FB40
S1133C000C945E1FE92F0E94861F58F3BA176207AF
S1133C1073078407950720F079F4A6F50C94A81F80
S1133C200EF4E0950B2EBA2FA02D0B01B9019001D3
S1133C300C01CA01A0011124FF27591B99F0593F17
S1133C4050F4503E68F11A16F040A22F232F342F5F
S1133C504427585FF3CF469537952795A795F040AD
S1133C605395C9F77EF41F16BA0B620B730B840BC2
S1133C70BAF09150A1F0FF0FBB1F661F771F881F7A
S1133C80C2F70EC0BA0F621F731F841F48F48795D2
S1133C9077956795B795F7959E3F08F0B0CF9395C4
S1133CA0880F08F09927EE0F9795879508950E943D
S1133CB03A1F08F481E008950E94701E0C94751F49
S1133CC00E946E1F58F00E94671F40F029F45F3F66
S1133CD029F00C945E1F51110C94A91F0C94641FBD
S1133CE00E94861F68F39923B1F3552391F3951B22
S1133CF0550BBB27AA2762177307840738F09F5F09
S1133D005F4F220F331F441FAA1FA9F335D00E2E75
S1133D103AF0E0E832D091505040E695001CCAF7E2
S1133D202BD0FE2F29D0660F771F881FBB1F2617A5
S1133D3037074807AB07B0E809F0BB0B802DBF017C
S1133D40FF2793585F4F3AF09E3F510578F00C944B
S1133D505E1F0C94A91F5F3FE4F3983ED4F386954D
S1133D6077956795B795F7959F5FC9F7880F911D6C
S1133D709695879597F90895E1E0660F771F881F58
S1133D80BB1F621773078407BA0720F0621B730B0B
S1133D90840BBA0BEE1F88F7E09508950E948E1FDE
S1133DA088F09F5798F0B92F9927B751B0F0E1F0F8
S1133DB0660F771F881F991F1AF0BA95C9F714C0A8
S1133DC0B13091F00E94A81FB1E008950C94A81F8F
S1133DD0672F782F8827B85F39F0B93FCCF38695E1
S1133DE077956795B395D9F73EF49095809570953E
S1133DF061957F4F8F4F9F4F0895E89409C097FBBB
S1133E003EF490958095709561957F4F8F4F9F4FAD
S1133E109923A9F0F92F96E9BB279395F6958795F1
S1133E2077956795B795F111F8CFFAF4BB0F11F4B4
S1133E3060FF1BC06F5F7F4F8F4F9F4F16C088235B
S1133E4011F096E911C0772321F09EE8872F762F91
S1133E5005C0662371F096E8862F70E060E02AF0D2
S1133E609A95660F771F881FDAF7880F96958795BE
S1133E7097F90895990F0008550FAA0BE0E8FEEF93
S1133E8016161706E807F907C0F012161306E4071A
S1133E90F50798F0621B730B840B950B39F40A2613
S1133EA061F0232B242B252B21F408950A2609F4F1
S1133EB0A140A6958FEF811D811D089597F99F67F5
S1133EC080E870E060E008959FEF80EC089500249E
S1133ED00A941616170618060906089500240A946B
S1133EE012161306140605060895092E0394000CF1
S1133EF011F4882352F0BB0F40F4BF2B11F460FF80
S1133F0004C06F5F7F4F8F4F9F4F089557FD9058A8
S1133F10440F551F59F05F3F71F04795880F97FB89
S1133F20991F61F09F3F79F0879508951216130643
S1133F301406551FF2CF4695F1DF08C01616170672
S1133F401806991FF1CF86957105610508940895A7
S1133F50E894BB2766277727CB0197F908950E9439
S1133F603A1F08F48FEF08950E94C71F0C94751F21
S1133F700E94671F38F00E946E1F20F0952311F0F5
S1133F800C945E1F0C94641F11240C94A91F0E94AE
S1133F90861F70F3959FC1F3950F50E0551F629FE4
S1133FA0F001729FBB27F00DB11D639FAA27F00D8E
S1133FB0B11DAA1F649F6627B00DA11D661F829FB5
S1133FC02227B00DA11D621F739FB00DA11D621F9A
S1133FD0839FA00D611D221F749F3327A00D611DB7
S1133FE0231F849F600D211D822F762F6A2F112499
S1133FF09F5750409AF0F1F088234AF0EE0FFF1FCC
S1134000BB1F661F771F881F91505040A9F79E3F22
S1134010510580F00C945E1F0C94A91F5F3FE4F3DC
S1134020983ED4F3869577956795B795F795E79578
S11340309F5FC1F7FE2B880F911D9695879597F981
S11340400895FA01EE0FFF1F309621053105A1F105
S11340506115710561F48038BFE39B0749F16894E9
S11340609038810561F08038BFEF9B0741F09923B8
S11340704AF5FF3FE1053105210519F1E89408945B
S1134080E795D901AA2329F4AB2FBE2FF85FD0F30B
S113409010C0FF5F70F4A695E0F7F73950F019F0FF
S11340A0FF3A38F49F779F930DD00F9007FC9058F8
S11340B0089546F00C94641F60E070E080E89FE38C
S11340C008954FE79F775F934F933F932F930E94F9
S11340D01C212F913F914F915F910E94B41F0C942A
S11340E0792029F416F00C945E1F0C94A81F0C94EC
S11340F0641F0E948E1FA8F39638A0F707F80F924A
S1134100E8942BE33AEA48EB5FE70E94CA1F0F9258
S11341100F920F924DB75EB70F920E946421ECEF9D
S1134120F1E00E94AB204F915F91EF91FF91E595F3
S1134130EE1FFF1F49F0FE57E0684427EE0F441FAF
S1134140FA95E1F74195550B0E94DE200F9007FE8A
S11341500C94D2200895DF93CF931F930F93FF9273
S1134160EF92DF927B018C01689406C0DA2EEF0196
S11341700E94C71FFE01E894A591259135914591B0
S11341805591A6F3EF010E94021EFE019701A801BA
S1134190DA9469F7DF90EF90FF900F911F91CF9120
S11341A0DF9108959B01AC0160E070E080E89FE33B
S11341B00C945C1E0C945E1F0C9498210E948E1F1C
S11341C0D8F39923C9F3940F511DA3F39150504090
S11341D094F059F0882332F0660F771F881F9150AE
S11341E05040C1F79E3F51052CF7880F911D9695BD
S11341F0879597F908955F3FACF0983E9CF0BB27F4
S1134200869577956795B79508F4B1609395C1F74E
S1134210BB0F58F711F460FFE8CF6F5F7F4F8F4FEC
S11342209F4FE3CF0C94A91F16F00C9498210C9483
S1134230641F68940C945E1F0E948E1FA8F3992338
S1134240C1F3AEF3DF93CF931F930F93FF92C92F64
S1134250DD2788232AF02197660F771F881FDAF756
S113426020E030E040E85FEB9FE3883920F0803EB7
S113427038F021968F770E94EB1DE4E2F2E004C04F
S11342800E94EB1DE1E5F2E00E94AB208B01BE0130
S1134290EC01FB2E6F5771097595771F880B990BED
S11342A00E94FF1E28E132E741E35FE30E94C71F3B
S11342B0AF2D9801AE01FF900F911F91CF91DF9127
S11342C00E94021E0C94751FFA01DC01AA0FBB1F89
S11342D09B01AC01BF5728F4222733274427507889
S11342E020C0B75190F4AB2F0024469537952795FD
S11342F0011CA395D2F3002071F0220F331F441F39
S1134300B395DAF30ED00C94EA1D61307105A0E880
S11343108A07B94630F49B01AC01662777278827C2
S11343209078309621F0208331834283538308951B
S11343309F3F31F0915020F4879577956795B79515
S1134340880F911D9695879597F908952F923F921E
S11343504F925F926F927F928F929F92AF92BF9291
S1134360CF92DF92EF92FF920F931F93CF93DF933D
S1134370CDB7DEB76097CDBFDEBF7C011B016A01FC
S1134380FC0116821782838181FF44C39E012F5F43
S11343903F4F3901F7019381F10193FD859193FF1B
S11343A081911F01882309F431C3853239F493FDC7
S11343B0859193FF81911F01853239F4B70190E013
S11343C00E940C2856016501E5CF10E0512C912C78
S11343D0FFE1F915D8F08B3279F038F4803279F0B6
S11343E08332A1F4F92DF0612EC08D3261F0803357
S11343F069F4292D21602DC0392D3260932E892D29
S11344008460982E2AC0E92DE86015C097FC2DC061
S113441020ED280F2A3088F496FE06C03AE0139F58
S1134420200D1124122F19C08AE0589E200D11244A
S1134430522EE92DE0629E2E10C08E3231F496FC8D
S1134440E5C2F92DF0649F2E08C08C3621F4292D85
S11344502068922E02C0883641F4F10193FD8591C3
S113446093FF81911F018111B3CF9BEB980F933080
S113447020F4992D9061805E07C09BE9980F9330DA
S113448008F066C1992D9F7E96FF16E09F73992EC2
S1134490853619F49064992E08C0863621F4392F94
S11344A03068932E02C01111115097FE07C01C33BF
S11344B050F444244394410E27E00BC0183038F0E4
S11344C027E017E005C027E09CE3492E02C0212F16
S11344D0412C560184E0A80EB11CF6016081718163
S11344E082819381042DA3010E94C0266C01F9816D
S11344F0FC87F0FF02C0F3FF06C091FC06C092FEE9
S113450006C000E205C00DE203C00BE201C000E0FA
S11345108C858C7019F001115AC29BC297FE10C091
S11345204C0CFC85F4FF04C08A81813309F44A945D
S1134530141474F528E0241578F588E0482E2CC06E
S113454096FC2AC0812F90E08C159D059CF03CEFD1
S1134550C3163FEFD30674F0892D8068982E0AC0E5
S1134560E2E0F0E0EC0FFD1FE10FF11D80818033EC
S113457019F411501111F4CF97FE0EC04424439442
S1134580410E812F90E0C816D9062CF41C1904C0E2
S11345904424439401C010E097FE06C01C141D047B
S11345A034F4C601019605C085E090E002C081E0C4
S11345B090E001110196112331F0212F30E02F5F9B
S11345C03F4F820F931F252D30E08217930714F479
S11345D0581A01C0512C892D897049F4552039F09D
S11345E0B70180E290E00E940C285A94F7CF002390
S11345F029F0B701802F90E00E940C2893FC09C099
S1134600552039F0B70180E390E00E940C285A94B9
S1134610F7CF97FE4CC04601D7FE02C0812C912CE7
S1134620C60188199909F301E80FF91FED87FE8780
S11346309601241931092F87388B012F10E0119529
S1134640019511093FEF8316930629F4B7018EE211
S113465090E00E940C28C814D9044CF08F859889E6
S11346608815990524F4ED85FE85818101C080E3D8
S1134670F1E08F1A91082D853E852F5F3F4F2D87DE
S11346803E87801691062CF0B70190E00E940C281A
S1134690D9CFC814D90441F49A81963320F49533C0
S11346A019F43C8534FF81E3B70190E04EC08A8160
S11346B0813319F09C859F7E9C87B70190E00E940E
S11346C00C28111105C094FC18C085E690E017C0B1
S11346D0B7018EE290E00E940C281E5F82E001E0A8
S11346E0080FF301E80FF11D8081B70190E00E94EB
S11346F00C28802F0113F3CFE6CF85E490E0B701B7
S11347000E940C28D7FC06C0C114D10441F4EC85E6
S1134710E4FF05C0D194C194D1088DE201C08BE2BD
S1134720B70190E00E940C2880E32AE0C216D1046D
S11347302CF08F5FFAE0CF1AD108F7CFB70190E0E1
S11347400E940C28B701C601C0960E940C2854C1CF
S1134750833631F0833779F0833509F056C020C0B1
S1134760560132E0A30EB11CF6018081898301E079
S113477010E0630112C05601F2E0AF0EB11CF60165
S1134780C080D18096FE03C0612F70E002C06FEF3D
S11347907FEFC6010E94C3278C01F92DFF7714C057
S11347A0560122E0A20EB11CF601C080D18096FE13
S11347B003C0612F70E002C06FEF7FEFC6010E945B
S11347C098278C01F92DF0689F2EF3FD1AC0852DD2
S11347D090E008171907A8F4B70180E290E00E945E
S11347E00C285A94F4CFF60197FC859197FE819199
S11347F06F01B70190E00E940C2851105A940150A7
S113480011090115110579F7F7C0843611F08936BD
S113481061F5560197FE09C024E0A20EB11CF60111
S113482060817181828193810AC0F2E0AF0EB11C74
S1134830F60160817181072E000C880B990BF92D0C
S1134840FF769F2E97FF09C090958095709561958E
S11348507F4F8F4F9F4FF0689F2E2AE030E0A301D7
S11348600E94BB28C82EC6183FC0092D853721F4E5
S11348700F7E2AE030E01DC0097F8F3691F018F4D6
S1134880883559F0C3C0803719F0883711F0BEC09D
S1134890006104FF09C0046007C094FE08C00660FC
S11348A006C028E030E005C020E130E002C020E18D
S11348B032E0560107FF09C084E0A80EB11CF601DE
S11348C0608171818281938108C0F2E0AF0EB11CD6
S11348D0F6016081718180E090E0A3010E94BB2811
S11348E0C82EC6180F77902E96FE0BC0092D0E7F8A
S11348F0C11650F494FE0AC092FC08C0092D0E7E25
S113490005C0DC2C092D03C0DC2C01C0D12E04FF12
S11349100DC0FE01EC0DF11D8081803311F4097E80
S113492009C002FF06C0D394D39404C0802F8678B4
S113493009F0D39403FD11C000FF06C01C2DD5144B
S113494080F4150D1D190DC0D51458F4B70180E27B
S113495090E00E940C28D394F7CFD51410F45D187E
S113496001C0512C04FF10C0B70180E390E00E9405
S11349700C2802FF17C001FD03C088E790E002C0C5
S113498088E590E0B7010CC0802F867859F001FFCC
S113499002C08BE201C080E207FD8DE2B70190E026
S11349A00E940C28C11638F4B70180E390E00E94FD
S11349B00C281150F7CFCA94F301EC0DF11D80813E
S11349C0B70190E00E940C28C110F5CF15C0F4E0A7
S11349D0F51560F584E0581A93FE1FC0011127C035
S11349E02C8523FF2AC002E912E0392D3071932E61
S11349F0F8018491811124C0552009F4E4CCB70155
S1134A0080E290E00E940C285A94F6CFF701868148
S1134A10978126C08FEF9FEF23C0B70180E290E01B
S1134A200E940C285A945110F8CFD8CF512CB701BA
S1134A30802F90E00E940C28D3CF06E912E0D5CF56
S1134A4091108052B70190E00E940C280F5F1F4F15
S1134A50CFCF23E0251510F483E0BDCF512CC0CF78
S1134A606096CDBFDEBFDF91CF911F910F91FF9074
S1134A70EF90DF90CF90BF90AF909F908F907F90FA
S1134A806F905F904F903F902F900895AA1BBB1B8F
S1134A9051E107C0AA1FBB1FA617B70710F0A61B3A
S1134AA0B70B881F991F5A95A9F780959095BC015B
S1134AB0CD01089597FB072E16F4009407D077FDD7
S1134AC009D00E94462507FC05D03EF490958195B7
S1134AD09F4F0895709561957F4F0895A1E21A2E16
S1134AE0AA1BBB1BFD010DC0AA1FBB1FEE1FFF1F8E
S1134AF0A217B307E407F50720F0A21BB30BE40BDE
S1134B00F50B661F771F881F991F1A9469F7609524
S1134B107095809590959B01AC01BD01CF010895DE
S1134B20A29FB001B39FC001A39F700D811D1124EA
S1134B30911DB29F700D811D1124911D08950F9335
S1134B401F93CF93DF938230910510F482E090E0BD
S1134B50E0918C22F0918D2220E030E0A0E0B0E0E2
S1134B60309719F140815181028113814817590707
S1134B70C8F08417950769F4109731F012960C93D6
S1134B80129713961C9327C000938C2210938D22A6
S1134B9022C02115310519F04217530718F49A0160
S1134BA0BD01EF01DF01F801DBCF21153105F9F07B
S1134BB0281B390B2430310580F48A819B816115CF
S1134BC0710521F0FB018283938304C080938C22BE
S1134BD090938D22FE01329644C0FE01E20FF31F32
S1134BE08193919322503109288339833AC02091CB
S1134BF08A2230918B22232B41F420910220309180
S1134C00032020938A2230938B222091002030911C
S1134C1001202115310541F42DB73EB74091042000
S1134C2050910520241B350BE0918A22F0918B22B0
S1134C30E217F307A0F42E1B3F0B2817390778F06F
S1134C40AC014E5F5F4F2417350748F04E0F5F1FCE
S1134C5040938A2250938B228193919302C0E0E087
S1134C60F0E0CF01DF91CF911F910F910895CF9381
S1134C70DF93009709F481C0FC01329712821382FA
S1134C80A0918C22B0918D22109781F420813181E2
S1134C90820F931F20918A2230918B222817390783
S1134CA051F5E0938A22F0938B2267C0ED0120E056
S1134CB030E0CE17DF0740F44A815B819E01411545
S1134CC05105F1F0EA01F5CFC283D38340815181CC
S1134CD0840F951FC817D90759F488819981840FC7
S1134CE0951F0296808391838A819B81828393831B
S1134CF02115310529F4E0938C22F0938D223DC0D7
S1134D00E901EA83FB8349915991C40FD51FEC173C
S1134D10FD0761F480819181840F951F0296E9015A
S1134D2088839983828193818A839B83E0E0F0E086
S1134D3012968D919C911397009719F0FD01DC0157
S1134D40F7CF8D919C9111979D012E5F3F4F820F5C
S1134D50931F20918A2230918B222817390769F4F6
S1134D60309729F410928C2210928D2202C0128264
S1134D701382A0938A22B0938B22DF91CF9108955E
S1134D80283008F027E03327DA01990F311D87FD19
S1134D90916000966105710539F432602E5F3D9390
S1134DA030E32A95E1F708959F3F30F0803871058C
S1134DB0610509F03C5F3C5F3D93913008F08068E9
S1134DC0911DDF93CF931F930F93FF92EF92192FAF
S1134DD0987F9695E92F96959695E90FFF27EC50C5
S1134DE0FD4F99273327EE24FF24A701E7010590FF
S1134DF00894079428F4360FE71EF81E491F511D26
S1134E00660F771F881F991F0694A1F705900794D2
S1134E1028F4E70EF81E491F561FC11D770F881F7F
S1134E20991F661F0694A1F70590079428F4F80EBD
S1134E30491F561FC71FD11D880F991F661F771F53
S1134E400694A1F70590079420F4490F561FC71F35
S1134E50D81F990F661F771F881F0694A9F784919E
S1134E601095177041F0D695C79557954795F794C7
S1134E70E7941A95C1F7EAE9F2E068941590159160
S1134E8035916591959105907FE27395E118F10A4A
S1134E90430B560BC90BD009C0F7E10CF11E431F9D
S1134EA0561FC91FD01D7EF4703311F48A95E6CFC6
S1134EB0E894015030F0080F0AF40027021708F4B0
S1134EC0202F2395022F7A3328F079E37D932A95B6
S1134ED0E9F710C07D932A9589F60694979567950E
S1134EE0379517951794E118F10A430B560BC90B24
S1134EF0D00998F023957E9173957A3308F070E386
S1134F007C932013B8F77E9170617D9330F0839584
S1134F1071E37D9370E32A95E1F71124EF90FF90FC
S1134F200F911F91CF91DF91992787FD9095089557
S1134F30FC010590615070400110D8F78095909560
S1134F408E0F9F1F0895DC0101C06D9341505040A6
S1134F50E0F70895FB01DC018D91019080190110A7
S1134F60D9F3990B0895FB01DC0101900D92002007
S1134F70E1F70895FC0101900020E9F780959095F0
S1134F808E0F9F1F0895FC01615070400190011025
S1134F90D8F7809590958E0F9F1F0895CF93DF9338
S1134FA0EC012B8120FF33C026FF0AC02F7B2B830B
S1134FB08E819F8101968E839F838A8190E029C090
S1134FC022FF0FC0E881F9818081082E000C990B23
S1134FD0009719F420622B831AC03196E883F98371
S1134FE00EC0EA85FB85199597FF09C02B810196B0
S1134FF011F080E201C080E1822B8B8308C02E81F6
S11350003F812F5F3F4F2E833F83992702C08FEF4D
S11350109FEFDF91CF9108950F931F93CF93DF9369
S1135020FB01238121FD03C08FEF9FEF2CC022FFE2
S113503016C046815781248135814217530744F4B1
S1135040A081B1819D012F5F3F4F208331838C93D9
S1135050268137812F5F3F4F2683378314C08B010E
S1135060EC01FB010084F185E02D1995892BE1F613
S1135070D80116968D919C911797019616968D934B
S11350809C931797CE01DF91CF911F910F910895B3
S1135090CF93DF93CDB7DEB7AE014A5F5F4FFA011E
S11350A061917191AF0180919022909191220E941F
S11350B0A621DF91CF910895609190227091912261
S11350C00C940C280F931F93CF93DF93E0919022BD
S11350D0F0919122238121FF1BC08C01D0E0C0E01C
S11350E0F80181918F016091902270919122DB01EE
S11350F01896ED91FC911997882331F01995892B15
S113510079F3DFEFCFEFECCF8AE01995892B19F013
S11351108FEF9FEF02C08D2F9C2FDF91CF911F91B6
S11351200F9108950F931F93CF93DF93CDB7DEB7FD
S11351302E97CDBFDEBF0E891F8986E08C8309833D
S11351401A838FEF9FE78D839E83AE01465E5F4F88
S1135150688D798DCE0101960E94A621EF81F88594
S1135160E00FF11F10822E96CDBFDEBFDF91CF91ED
S11351701F910F910895FA01AA27283051F1203187
S113518081F1E8946F936E7F6E5F7F4F8F4F9F4FD7
S1135190AF4FB1E03ED0B4E03CD0670F781F891F19
S11351A09A1FA11D680F791F8A1F911DA11D6A0FE7
S11351B0711D811D911DA11D20D009F468943F919A
S11351C02AE0269F11243019305D3193DEF6CF0199
S11351D00895462F4770405D4193B3E00FD0C9F75F
S11351E0F6CF462F4F70405D4A3318F0495D31FDCC
S11351F04052419302D0A9F7EACFB4E0A69597951F
S1135200879577956795BA95C9F7009761057105F4
S113521008959B01AC010A2E06945795479537953E
S11352202795BA95C9F7620F731F841F951FA01D98
S10952300895F894FFCF7D
S11352360000942220000000000300000000B908CA
S1135246DE080000FF3F012E2E2F4672656552547C
S11352564F532F7461736B732E630049444C45009E
S11352660925630925750925750925750D0A00099A
S1135276256C750909256C7525250D0A0009256C0B
S11352867509093C3125250D0A004552524F523AFB
S1135296206D656D6F727920616C6C6F63617469E2
S11352A66F6E206661696C65640D0A005354414350
S11352B64B206F766572666C6F7720696E20746119
S11352C6736B20000D0A0041737365727420696E56
S11352D62066696C6520002C206C696E65206E72F0
S11352E6200052756E6E696E674C69676874005467
S11352F665726D696E616C004C6F6F706C69636882
S1135306747461736B20676573746172742E2043C1
S11353166F6D6D616E646F27733A0D0020206C69A2
S11353266E6B732020202D207269636874696E6722
S1135336206C696E6B730D0020207265636874734C
S113534620202D207269636874696E672072656314
S11353566874730D00202073746174732020202DEB
S113536620435055207374617469737469656B6561
S11353766E0D00496E7075743E20000D006C696EEA
S11353866B73003E3E3E205249434854494E473AC9
S1135396204C494E4B530D00726563687473003E8E
S11353A63E3E205249434854494E473A20524543CB
S11353B64854530D007374617473000D0A3D3D3DEA
S11353C620435055205354415449535449454B4561
S11353D64E203D3D3D0D0025730D0A003E3E3E2008
S11353E64F4E42454B454E443A20272573270D0A16
S10553F60000B1
S9030000FC
