S01800004C696E65626F7454656D706C617465312E73726563D2
S11300000C94CC010C94ED010C94A6030C94030401
S11300100C94ED010C94ED010C94ED010C94ED01A4
S11300200C94ED010C94ED010C94ED010C94ED0194
S11300300C94ED010C94ED010C94980E0C94ED01CC
S11300400C94180F0C94ED010C94ED010C94ED013B
S11300500C94ED010C94ED010C94ED010C94ED0164
S11300600C94ED010C94ED010C94ED010C94ED0154
S11300700C94ED010C94ED010C94ED010C94ED0144
S11300800C94ED010C94ED010C94ED010C94ED0134
S11300900C94ED010C94ED010C94ED010C94ED0124
S11300A00C94ED010C94ED010C94ED010C9464049A
S11300B00C94C9040C94ED010C9469060C94ED01A4
S11300C00C94ED010C94ED010C94ED010C94ED01F4
S11300D00C94ED010C94ED010C94ED010C94ED01E4
S11300E00C94ED010C94ED010C94ED010C94ED01D4
S11300F00C94ED010C94ED010C94ED010C94ED01C4
S11301000C94ED010C94ED010C94ED010C94ED01B3
S11301100C94ED010C94ED010C94ED010C94ED01A3
S11301200C94ED010C94ED010C94ED010C94ED0193
S11301300C94ED010C94ED010C94ED010C94ED0183
S11301400C94ED010C94ED010C94ED010C94ED0173
S11301500C94ED010C94ED010C94ED010C94ED0163
S11301600C94ED010C94ED010C94ED010C94ED0153
S11301700C94ED010C94ED010C94ED010C94ED0143
S11301800C94ED010C94ED010C94ED010C94ED0133
S11301900C94ED010C94ED010C94ED010C94ED0123
S11301A00C94ED010C94ED010C94ED010C94ED0113
S11301B00C94ED010C94ED010C94ED010C94ED0103
S11301C00C94ED010C94ED010C94ED010C94ED01F3
S11301D00C94ED010C94ED010C94ED010C94ED01E3
S11301E00C94ED010C94ED010C94ED010C94ED01D3
S11301F00C94ED010C94ED010C94ED01076342366F
S1130200B79BD8A71A39685618AEBAAB558C1D3CA3
S1130210B7CC5763BD6DEDFD753EF6177231BF0067
S11302200000803F08000000BE922449123EABAAA1
S1130230AA2ABECDCCCC4C3E00000080BEABAAAAFC
S1130240AA3E00000000BF000000803F0000000044
S113025000084178D3BB4387D1133D190E3CC3BD7D
S11302604282AD2B3E68EC8276BED98FE1A93E4C2A
S113027080EFFFBE01C4FF7F3F00000000000C942C
S1130280CA240C94DE1B0C949C250C9420090C9419
S1130290FB080C942C246E616E00696E66000040AD
S11302A07A10F35A00A0724E18090010A5D4E80081
S11302B000E87648170000E40B54020000CA9A3B99
S11302C0000000E1F505000080969800000040421F
S11302D00F000000A08601000000102700000000AD
S11302E0E803000000006400000000000A000000B1
S11302F000000100000000002C76D888DC674F085D
S113030023DFC1DFAE59E1B1B796E5E3E453C63A62
S1130310E651997696E8E6C28426EB898C9B62EDD9
S1130320407C6FFCEFBC9C9F40F2BAA56FA5F49093
S1130330055A2AF75C936B6CF9676DC11BFCE0E40A
S11303400D47FEF520E6B500D0ED902E0300943560
S113035077050080841E080000204E0A000000C8B3
S11303600C333333330F986E12831141EF8D211404
S1130370893BE65516CFFEE6DB18D1844B381BF7D4
S11303807C1D901DA4BBE424203284725E22810073
S1130390C9F124ECA1E53D2711241FBECFEFCDBF49
S11303A0DFE9DEBF00E00CBF12E2A0E0B0E2E8E863
S11303B0F4E600E00BBF02C007900D92A437B1072A
S11303C0D9F723E2A4E7B2E201C01D92A834B20730
S11303D0E1F70E94C7230C9442320C940000CF939F
S11303E0DF93CDB7DEB70000DF91CF910895CF93AF
S11303F0DF93CDB7DEB780E296E028EFFC012283DD
S113040080E296E028E5FC01238B80E296E028E573
S1130410FC01248B80E296E028E5FC01258B80E238
S113042096E028E5FC01268B80E296E028E5FC01B5
S1130430278B0000DF91CF910895CF93DF931F9214
S11304401F92CDB7DEB780E296E0FC0180858A83F7
S113045019828A81882F90E088709927892B19F056
S11304608981806189838A81882F90E080719927AE
S1130470892B19F08981886089838A81882F90E08B
S113048080729927892B19F08981846089838A81F4
S1130490882F90E080749927892B19F089818260D4
S11304A089838A8188231CF4898181608983898175
S11304B00F900F90DF91CF910895CF93DF931F9208
S11304C01F92CDB7DEB789839A8389819A8160E0D0
S11304D070E00E94710200000F900F90DF91CF91A5
S11304E00895CF93DF9300D01F92CDB7DEB78983F1
S11304F09A836B837C83109274221092752226C097
S113050080EA9AE029813A81F9012081FC01208363
S1130510000080EA9AE0FC018181882F90E08074D9
S11305209927892BB1F380EA9AE020E4FC01218326
S113053089819A81019689839A838091742290910A
S113054075220196809374229093752289819A81F1
S1130550FC018081882369F02091742230917522F6
S11305608B819C81281739075CF28B819C81892BB4
S113057039F200002496CDBFDEBFDF91CF910895FC
S1130580CF93DF931F921F92CDB7DEB789839A83EF
S113059080E197E2809376229093772210927822DA
S11305A073C080917622909177229C0189819A81EF
S11305B0B9010E94662ECB01AC019A01ADECBCECF2
S11305C00E94B02E969587959695879596958795D2
S11305D0880F991F9C01220F331F220F331F820F94
S11305E0931F9A01281B390BC901892B21F480918F
S11305F078228823D9F1E0EAFAE08091762290917A
S113060077229C0189819A81B9010E94662ECB01CF
S1130610AC019A01ADECBCEC0E94B02E9695879586
S11306209695879596958795880F991F9C01220F1B
S1130630331F220F331F820F931F9A01281B390B7C
S1130640C901805D8083000080EA9AE0FC01818119
S1130650882F90E080749927892BB1F380EA9AE07F
S113066020E4FC01218381E080937822809176222A
S1130670909177222AE030E0B9010E947A2ECB01D2
S1130680809376229093772280917622909177229C
S1130690181619060CF485CF00000F900F90DF9107
S11306A0CF910895CF93DF93CDB7DEB780E296E084
S11306B027E0FC01218380E096E020E8FC0121830F
S11306C080E296E020E4FC01208B80E296E020E4C6
S11306D0FC01218B80E296E020E4FC01228B80E087
S11306E096E020E4FC01278B0000DF91CF91089570
S11306F0CF93DF931F92CDB7DEB7898380E296E074
S113070020E236E0F9012481322F387F29812770D5
S1130710232BFC01248380E096E020E036E0F901FD
S11307202481422F4F772981222F30E028703327EC
S113073022953295307F3227207F3227242BFC01EB
S1130740248300000F90DF91CF9108951F920F92A0
S113075000903F000F92112400903B000F922F93C2
S11307603F938F939F93EF93FF93CF93DF931F92C6
S1130770CDB7DEB780E496E0FC018085898389816A
S1130780882F90E080749927892B99F08981882398
S11307901CF48FEF9FEF02C081E090E0209179225A
S11307A030917A22820F931F8093792290937A2238
S11307B012C0898188231CF481E090E002C08FEF8D
S11307C09FEF2091792230917A22820F931F809398
S11307D0792290937A2280E496E021E0FC01248738
S11307E000000F90DF91CF91FF91EF919F918F9136
S11307F03F912F910F9000923B000F9000923F0089
S11308000F901F9018951F920F9200903F000F9227
S1130810112400903B000F922F933F938F939F934B
S1130820EF93FF93CF93DF931F92CDB7DEB780E4AE
S113083096E0FC018085898389818823BCF48981C1
S1130840882F90E080749927892B19F081E090E03B
S113085002C08FEF9FEF2091792230917A22820F8C
S1130860931F8093792290937A2216C08981882FCE
S113087090E080749927892B19F08FEF9FEF02C0C5
S113088081E090E02091792230917A22820F931FA7
S11308908093792290937A2280E496E022E0FC010E
S11308A0248700000F90DF91CF91FF91EF919F91EA
S11308B08F913F912F910F9000923B000F900092E7
S11308C03F000F901F9018951F920F9200903F00C9
S11308D00F92112400903B000F922F933F938F931C
S11308E09F93EF93FF93CF93DF931F92CDB7DEB720
S11308F080E896E0FC01808589838981882F90E0D7
S113090080719927892BB9F08981882F90E08072B2
S11309109927892B19F08FEF9FEF02C081E090E0B7
S113092020917B2230917C22820F931F80937B2223
S113093090937C2216C08981882F90E08072992739
S1130940892B19F081E090E002C08FEF9FEF209196
S11309507B2230917C22820F931F80937B22909381
S11309607C2280E896E021E0FC01248700000F90BF
S1130970DF91CF91FF91EF919F918F913F912F91B3
S11309800F9000923B000F9000923F000F901F9039
S113099018951F920F9200903F000F92112400901F
S11309A03B000F922F933F938F939F93EF93FF936B
S11309B0CF93DF931F92CDB7DEB780E896E0FC01BA
S11309C0808589838981882F90E080729927892B7B
S11309D0B9F08981882F90E080719927892B19F0CB
S11309E081E090E002C08FEF9FEF20917B22309155
S11309F07C22820F931F80937B2290937C2216C0CB
S1130A008981882F90E080719927892B19F08FEFC5
S1130A109FEF02C081E090E020917B2230917C2204
S1130A20820F931F80937B2290937C2280E896E030
S1130A3022E0FC01248700000F90DF91CF91FF9109
S1130A40EF919F918F913F912F910F9000923B00D6
S1130A500F9000923F000F901F901895CF93DF9353
S1130A60CDB7DEB780E496E020E2FC0121830000EC
S1130A70DF91CF910895CF93DF931F92CDB7DEB767
S1130A8089838981882331F080E496E020E2FC01A7
S1130A90258305C080E496E020E2FC012683000063
S1130AA00F90DF91CF9108958BEC8093520088E0F2
S1130AB0809350008091510083FFFCCF82EC80939F
S1130AC0550088E1809350008091510084FFFCCF51
S1130AD088ED84BF84E08093400080E00895CF9344
S1130AE0DF93CDB7DEB71092862280E896E028E146
S1130AF0FC01208B80E896E028E1FC01218B80EA50
S1130B0094E028E7FC01218380EA94E023E2FC01DD
S1130B10258380EA94E021E0FC0124830000DF9136
S1130B20CF910895CF93DF931F92CDB7DEB780EABC
S1130B3094E0FC01848189838981882F90E084700A
S1130B409927892B21F084E08093872203C083E0D6
S1130B508093872280EA94E029812860FC01248321
S1130B601092862200000F90DF91CF910895CF93C9
S1130B70DF9300D01F92CDB7DEB7809182228983A4
S1130B80809183228A8380EA94E0FC018481882F07
S1130B9090E080719927892B59F080EA94E023E052
S1130BA0FC01238385E0809387221092862234C03F
S1130BB09091842289819817C0F420917E223091EB
S1130BC07F2280918422882F90E0820F931FFC0162
S1130BD080818B8380EA94E02B81FC0127838091C0
S1130BE084228F5F8093842217C0909185228A810A
S1130BF0981750F480917D2281608C8380EA94E080
S1130C002C81FC01268308C080EA94E023E0FC01E7
S1130C10238381E00E94590600002496CDBFDEBFE5
S1130C20DF91CF910895CF93DF931F921F92CDB799
S1130C30DEB7809185228032C0F480EA94E0FC0122
S1130C40878189832091802230918122809185221D
S1130C50882F90E0820F931F2981FC0120838091CB
S1130C6085228F5F8093852208C080EA94E023E088
S1130C70FC01238382E00E945906809183228A83A7
S1130C80909185228A81981730F480EA94E022E0DA
S1130C90FC01238308C080EA94E027E0FC0123835D
S1130CA081E00E94590600000F900F90DF91CF91D0
S1130CB00895CF93DF931F92CDB7DEB789838981DF
S1130CC0809387221092862200000F90DF91CF91AB
S1130CD008951F920F9200903F000F9211240090EC
S1130CE03B000F922F933F934F935F936F937F93A8
S1130CF08F939F93AF93BF93EF93FF93CF93DF9320
S1130D001F92CDB7DEB780EA94E0FC018481898329
S1130D108981882F90E088709927892B39F48981FB
S1130D20882F90E084709927892B19F00E949205EE
S1130D3013C08981882F90E080749927892B19F03A
S1130D400E94B70509C0898188231CF40E941306F8
S1130D5003C086E00E9459068091862200000F900D
S1130D60DF91CF91FF91EF91BF91AF919F918F91BF
S1130D707F916F915F914F913F912F910F900092CE
S1130D803B000F9000923F000F901F901895CF9357
S1130D90DF93CDB7DEB72B97CDBFDEBF80E896E0FB
S1130DA028E0FC01218380E896E024E0FC01228312
S1130DB080EA9AE0FC01138280EA9AE028E1FC01CF
S1130DC0248380EA9AE023E0FC01258340E052EC8E
S1130DD061E070E0CE0101960E94150780EA9AE076
S1130DE02A813B81FC01268380EA9AE02981422FF3
S1130DF04295407F2A813B81232F33272F70242B58
S1130E00FC01278386E090E280934423909345235A
S1130E1086E090E2809342239093432300002B9634
S1130E20CDBFDEBFDF91CF910895CF92DF92EF92D5
S1130E30FF92CF93DF93CDB7DEB7E097CDBFDEBF90
S1130E408BA79CA74DA75EA76FA778AB88E29BE60C
S1130E50AEE6BEE48FA398A7A9A7BAA788E29BE64B
S1130E60AEE6BEE489839A83AB83BC8389EF8D832A
S1130E70A8C18D81082E000C990BAA0BBB0BBC01D9
S1130E80CD010E941F28DC01CB019C01AD0160E073
S1130E9070E080E090E40E944129DC01CB018C8762
S1130EA09D87AE87BF878D8188230CF494C020E092
S1130EB030E040E851E46C857D858E859F850E94F5
S1130EC0D428DC01CB016C017D016DA57EA58FA525
S1130ED098A90E941D28DC01CB019C01AD01C7012A
S1130EE0B6010E94D428DC01CB019C01AD0160E075
S1130EF074E284EF9BE40E947C27DC01CB0120E0B8
S1130F0030E040E85FE3BC01CD010E940A27DC0128
S1130F10CB01888B998BAA8BBB8B20E030E0A90195
S1130F20688979898A899B890E94772788230CF4A8
S1130F3042C120E030EF4FE755E4688979898A8916
S1130F409B890E94CF2818160CF435C120E030E0AC
S1130F5040E05FE3688979898A899B890E940B272D
S1130F60DC01CB01BC01CD010E94EE27DC01CB01E9
S1130F708E839F8320E030E040E851E46C857D85DA
S1130F808E859F850E94D428DC01CB016C017D01F4
S1130F908E819F810196CC01A0E0B0E0BC01CD011F
S1130FA00E941D28DC01CB019C01AD01C701B601E3
S1130FB00E94D428DC01CB019C01AD0160E074E205
S1130FC084EF9BE40E947C27DC01CB01888799870E
S1130FD0AA87BB8798C06DA57EA58FA598A90E94F6
S1130FE01D28DC01CB0120E030E040E851E4BC01E5
S1130FF0CD010E94D428DC01CB019C01AD0160E04D
S113100074E284EF9BE40E947C27DC01CB0120E0A6
S113101030E040E85FE3BC01CD010E940A27DC0117
S1131020CB012C853D854E855F85BC01CD010E9499
S11310307C27DC01CB018C8B9D8BAE8BBF8B20E09E
S113104030E0A9016C897D898E899F890E94772768
S113105088230CF4B2C020E030EF4FE755E46C89EC
S11310607D898E899F890E94CF2818160CF4A5C00B
S113107020E030E040E05FE36C897D898E899F89C0
S11310800E940B27DC01CB01BC01CD010E94EE279D
S1131090DC01CB018E839F838E819F81CC01A0E0F4
S11310A0B0E0BC01CD010E941D28DC01CB012C85E0
S11310B03D854E855F85BC01CD010E94D428DC01AD
S11310C0CB0120E030E040E85FE3BC01CD010E94A9
S11310D00B27DC01CB0120E030E040E851E4BC0107
S11310E0CD010E94D428DC01CB019C01AD0160E05C
S11310F074E284EF9BE40E947C27DC01CB018887A7
S11311009987AA87BB876DA57EA58FA598A90E94FC
S11311101D28DC01CB019C01AD01688579858A8598
S11311209B850E940A27DC01CB01BF77888F998FAA
S1131130AA8FBB8F6DA57EA58FA598A90E941D2897
S1131140DC01CB019C01AD01688D798D8A8D9B8D6D
S11311500E947C27DC01CB018C8F9D8FAE8FBF8FCB
S113116029813A814B815C81688D798D8A8D9B8D33
S11311700E947727882314F5888D998DAA8DBB8DBD
S113118089839A83AB83BC838D8188A38E819F815D
S113119089A39AA3888D998DAA8DBB8D8BA39CA3BB
S11311A0ADA3BEA38C8D9D8DAE8DBF8D8FA398A74F
S11311B0A9A7BAA703C0000001C000008D818F5FFA
S11311C08D838D8188300CF454CE8BA59CA52BE0A7
S11311D0FE01B096DC0101900D922A95E1F78BA5F2
S11311E09CA5E096CDBFDEBFDF91CF91FF90EF903D
S11311F0DF90CF900895CF93DF9300D0CDB7DEB7C3
S113120089836A837B8380EA9AE02981FC012083B5
S1131210000080EA9AE0FC018181882F90E08074CC
S11312209927892BB1F380EA9AE020E4FC01218319
S113123080E090E02396CDBFDEBFDF91CF9108958B
S1131240CF93DF931F921F92CDB7DEB789839A8322
S1131250000080EA9AE0FC0181818823D4F780EAC7
S11312609AE0FC018081882F90E00F900F90DF912D
S1131270CF910895CF93DF93CDB7DEB72E97CDBF2F
S1131280DEBF8D879E871D821E820E94D4168091A8
S11312909022882329F40E94950A81E08093902269
S11312A08D859E85892B41F084E090E02D853E85D7
S11312B0820F931F8D879E878D859E85892B09F4C8
S11312C0B8C08D859E858F3F9F4308F0B2C088E8E3
S11312D092E28B839C8380918822909189228983D6
S11312E09A830BC089819A818B839C8389819A819B
S11312F0FC018081918189839A8389819A81FC018F
S1131300228133818D859E852817390738F4898198
S11313109A81FC0180819181892B21F789819A81AD
S11313208C58924209F485C08B819C81FC012081F8
S1131330318184E090E0820F931F8D839E838981A5
S11313409A81FC01208131818B819C81FC01208365
S1131350318389819A81FC01228133818D859E8527
S1131360281B390B84E090E0880F991F821793079C
S113137008F04EC029813A818D859E85820F931F86
S113138089879A8789819A81FC01228133818D859D
S11313909E85281B390B89859A85FC01228333831A
S11313A089819A812D853E85FC0122833383898539
S11313B09A85FC01828193818B879C8788E892E2DD
S11313C08F83988707C08F819885FC0180819181E4
S11313D08F8398878F819885FC0180819181FC019E
S11313E0228133818B859C852817390760F38F818F
S11313F09885FC012081318189859A85FC012083AF
S113140031838F81988529853A85FC012083318336
S1131410209114203091152089819A81FC018281C8
S11314209381A901481B590BCA01809314209093FE
S113143015200E94E1168D819E81892B11F40E9452
S11314407A208D819E812E96CDBFDEBFDF91CF9114
S11314500895CF93DF93CDB7DEB72A97CDBFDEBF14
S113146089879A8789859A858B839C8389859A85C0
S1131470892B09F453C084E090E0919581959109FA
S11314802B813C81820F931F8B839C838B819C8156
S11314908D839E830E94D4168D819E81FC0182815E
S11314A093818F83988788E892E289839A8307C01F
S11314B089819A81FC018081918189839A838981C0
S11314C09A81FC0180819181FC01228133818F8189
S11314D098852817390760F389819A81FC01208156
S11314E031818D819E81FC012083318389819A81A0
S11314F02D813E81FC01208331838D819E81FC01FD
S1131500228133818091142090911520820F931FA2
S113151080931420909315200E94E11600002A96CF
S1131520CDBFDEBFDF91CF910895CF93DF9300D07D
S11315301F92CDB7DEB780913C2390913D23019655
S113154089839A8389819A818093882290938922BE
S113155010928A2210928B228FEF9FE380938E2227
S113156090938F2210928C2210928D2289819A81DD
S11315708B839C838B819C812FEF3FE3FC0122832F
S113158033838B819C812CE832E2FC0120833183FC
S113159000002496CDBFDEBFDF91CF910895CF9395
S11315A0DF931F921F92CDB7DEB789839A83898117
S11315B09A819C012D5F3F4F89819A81FC0121838F
S11315C0328389819A812FEF3FEFFC012383348397
S11315D089819A819C012D5F3F4F89819A81FC0109
S11315E02583368389819A819C012D5F3F4F8981B0
S11315F09A81FC012783308789819A81FC011082BA
S113160000000F900F90DF91CF910895CF93DF9357
S11316101F921F92CDB7DEB789839A8389819A81FD
S1131620FC011086118600000F900F90DF91CF917E
S11316300895CF93DF9300D000D0CDB7DEB78B836E
S11316409C836D837E838B819C81FC01818192814B
S113165089839A838D819E8129813A81FC01228329
S1131660338389819A81FC01248135818D819E8116
S1131670FC012483358389819A81FC0184819581CD
S11316802D813E81FC012283338389819A812D81BE
S11316903E81FC01248335838D819E812B813C8195
S11316A0FC01208731878B819C81FC01808121E0B2
S11316B0280F8B819C81FC01208300002696CDBFDE
S11316C0DEBFDF91CF910895CF93DF93CDB7DEB71F
S11316D02897CDBFDEBF8D839E836F8378878F81EC
S11316E09885FC01808191818B839C838B819C8173
S11316F0019641F48D819E81FC01878190858983C7
S11317009A831AC08D819E81039689839A8307C028
S113171089819A81FC018281938189839A83898159
S11317209A81FC0182819381FC01208131818B812A
S11317309C818217930760F789819A81FC01228139
S113174033818F819885FC01228333838F8198852F
S1131750FC01828193812F813885FC0124833583A8
S11317608F81988529813A81FC012483358389817D
S11317709A812F813885FC01228333838F81988558
S11317802D813E81FC01208731878D819E81FC0162
S1131790808121E0280F8D819E81FC01208300003F
S11317A02896CDBFDEBFDF91CF910895CF93DF930D
S11317B000D01F92CDB7DEB78B839C838B819C8135
S11317C0FC018085918589839A838B819C81FC01AE
S11317D0828193812B813C81F90124813581FC0133
S11317E0248335838B819C81FC01848195812B81A9
S11317F03C81F90122813381FC0122833383898175
S11318009A81FC01218132818B819C8128173907BF
S113181051F48B819C81FC012481358189819A81D9
S1131820FC01218332838B819C81FC01108611860B
S113183089819A81FC0180812FEF280F89819A8107
S1131840FC01208389819A81FC0180812496CDBF8B
S1131850DEBFDF91CF910895CF93DF93CDB7DEB78D
S11318602897CDBFDEBF8B839C836D837E834F839C
S113187058878B819C8121E1FC0120838B819C8191
S113188001978B839C838B819C8122E2FC012083C2
S11318908B819C8101978B839C838B819C8123E327
S11318A0FC0120838B819C8101978B839C838D8198
S11318B09E8189839A8329818B819C81FC01208369
S11318C08B819C8101978B839C8389819A81892F49
S11318D0992789839A8329818B819C81FC012083A8
S11318E08B819C8101978B839C8389819A81892F29
S11318F0992789839A8329818B819C81FC01208388
S11319008B819C8101978B839C838B819C81FC01BF
S113191010828B819C8101978B839C838B819C811A
S113192020E8FC0120838B819C8101978B839C831D
S11319308B819C81FC0110828B819C8101978B831C
S11319409C838B819C8122E0FC0120838B819C8180
S113195001978B839C838B819C8123E0FC012083F2
S11319608B819C8101978B839C838B819C8124E058
S1131970FC0120838B819C8101978B839C838B81C9
S11319809C8125E0FC0120838B819C8101978B83C2
S11319909C838B819C8126E0FC0120838B819C812C
S11319A001978B839C838B819C8127E0FC0120839E
S11319B08B819C8101978B839C838B819C8128E004
S11319C0FC0120838B819C8101978B839C838B8179
S11319D09C8129E0FC0120838B819C8101978B836E
S11319E09C838B819C8120E1FC0120838B819C81E1
S11319F001978B839C838B819C8121E1FC01208353
S1131A008B819C8101978B839C838B819C8122E1B8
S1131A10FC0120838B819C8101978B839C838B8128
S1131A209C8123E1FC0120838B819C8101978B8322
S1131A309C838B819C8124E1FC0120838B819C818C
S1131A4001978B839C838B819C8125E1FC012083FE
S1131A508B819C8101978B839C838B819C8126E164
S1131A60FC0120838B819C8101978B839C838B81D8
S1131A709C8127E1FC0120838B819C8101978B83CE
S1131A809C838B819C8128E1FC0120838B819C8138
S1131A9001978B839C838B819C8129E1FC012083AA
S1131AA08B819C8101978B839C838B819C8120E219
S1131AB0FC0120838B819C8101978B839C838B8188
S1131AC09C8121E2FC0120838B819C8101978B8383
S1131AD09C838B819C8122E2FC0120838B819C81ED
S1131AE001978B839C838B819C8123E2FC0120835F
S1131AF08B819C8101978B839C838F8198858983BB
S1131B009A8329818B819C81FC0120838B819C8118
S1131B1001978B839C8389819A81892F9927898353
S1131B209A8329818B819C81FC0120838B819C81F8
S1131B3001978B839C838B819C8126E2FC0120830B
S1131B408B819C8101978B839C838B819C8127E271
S1131B50FC0120838B819C8101978B839C838B81E7
S1131B609C8128E2FC0120838B819C8101978B83DB
S1131B709C838B819C8129E2FC0120838B819C8145
S1131B8001978B839C838B819C8120E3FC012083C0
S1131B908B819C8101978B839C838B819C8121E326
S1131BA0FC0120838B819C8101978B839C838B8197
S1131BB09C812896CDBFDEBFDF91CF910895CF934E
S1131BC0DF93CDB7DEB70E946E0EA0919122B09143
S1131BD09222CD91CDBFDD91DEBFFF91EF91DF91D8
S1131BE0CF91BF91AF919F918F917F916F915F91B1
S1131BF04F913F912F911F910F91FF90EF90DF90A4
S1131C00CF90BF90AF909F908F907F906F905F9098
S1131C104F903F902F901F900F900FBE0F900895FC
S1131C2081E0DF91CF9108950F920FB6F8940F924F
S1131C301F9211242F923F924F925F926F927F9244
S1131C408F929F92AF92BF92CF92DF92EF92FF92C8
S1131C500F931F932F933F934F935F936F937F93B0
S1131C608F939F93AF93BF93CF93DF93EF93FF93A0
S1131C70A0919122B09192220DB60D920EB60D92C2
S1131C800E943A19A0919122B0919222CD91CDBF98
S1131C90DD91DEBFFF91EF91DF91CF91BF91AF91C5
S1131CA09F918F917F916F915F914F913F912F9170
S1131CB01F910F91FF90EF90DF90CF90BF90AF9066
S1131CC09F908F907F906F905F904F903F902F9058
S1131CD01F900F900FBE0F9008950000CF93DF93D5
S1131CE0CDB7DEB780E098E02FEF3FEFFC0120A7EF
S1131CF031A780E098E021E0FC01208380E098E0B7
S1131D0020E4FC01218380E098E021E0FC012683AB
S1131D1080E098E021E0FC01278380E098E020E067
S1131D203DE7FC0126A337A30000DF91CF9108957E
S1131D300F920FB6F8940F921F9211242F923F9294
S1131D404F925F926F927F928F929F92AF92BF92C7
S1131D50CF92DF92EF92FF920F931F932F933F93B3
S1131D604F935F936F937F938F939F93AF93BF939F
S1131D70CF93DF93EF93FF93A0919122B09192229E
S1131D800DB60D920EB60D9280E098E0FC0186A18E
S1131D9097A19C0140E050E0809138239091392331
S1131DA0A0913A23B0913B23820F931FA41FB51F28
S1131DB08093382390933923A0933A23B0933B2301
S1131DC00E9445180E943A19A0919122B091922242
S1131DD0CD91CDBFDD91DEBFFF91EF91DF91CF912A
S1131DE0BF91AF919F918F917F916F915F914F912F
S1131DF03F912F911F910F91FF90EF90DF90CF9023
S1131E00BF90AF909F908F907F906F905F904F9016
S1131E103F902F901F900F900FBE0F9018950000C9
S1131E20CF93DF93CDB7DEB70000DF91CF91089554
S1131E300F920FB6F8940F921F9211242F923F9293
S1131E404F925F926F927F928F929F92AF92BF92C6
S1131E50CF92DF92EF92FF920F931F932F933F93B2
S1131E604F935F936F937F938F939F93AF93BF939E
S1131E70CF93DF93EF93FF93A0919122B09192229D
S1131E800DB60D920EB60D9280E098E02FEF3FEF65
S1131E90FC0120A731A70E943A19A0919122B09188
S1131EA09222CD91CDBFDD91DEBFFF91EF91DF9105
S1131EB0CF91BF91AF919F918F917F916F915F91DE
S1131EC04F913F912F911F910F91FF90EF90DF90D1
S1131ED0CF90BF90AF909F908F907F906F905F90C6
S1131EE04F903F902F901F900F900FBE0F9018951A
S1131EF00000CF93DF93CDB7DEB72597CDBFDEBF0C
S1131F008B839C836D838B819C8189839A83898154
S1131F109A81892B31F463E071E087E190E20E94B9
S1131F2088220FB6F8940F9289819A81FC018081EE
S1131F30918129813A81F901238D422F50E0298131
S1131F403A81F901248D222F30E0429FB001439F52
S1131F50700D529F700D11249B01280F391F898128
S1131F609A81FC012483358389819A81FC01128E34
S1131F7089819A81FC012081318189819A81FC01C6
S1131F802283338389819A81FC0120813181898173
S1131F909A81FC01838D882F90E0BC016150710906
S1131FA089819A81FC01848D482F50E0649FC0018F
S1131FB0659F900D749F900D1124280F391F8981FE
S1131FC09A81FC012683378389819A812FEFFC0152
S1131FD0258F89819A812FEFFC01268F8D8188239B
S1131FE081F489819A81FC0180858823A1F089810B
S1131FF09A8108960E94C01A882369F00E94140EE0
S11320000AC089819A8108960E94CF0A89819A819F
S113201041960E94CF0A0F900FBE81E02596CDBF56
S1132020DEBFDF91CF9108950F931F93CF93DF937A
S1132030CDB7DEB72997CDBFDEBF8F8368874987C9
S11320408F81882331F466E771E087E190E20E9492
S113205088228885882319F419821A820FC08F81F7
S1132060482F50E08885282F30E0429FC001439FCD
S1132070900D529F900D112489839A8389819A81AE
S113208081960E943A098B839C838B819C81892B46
S1132090A1F08B819C818D839E838D819E8181960D
S11320A08D839E832B813C818D819E81890129852D
S11320B0AC0168858F810E9467108B819C81299671
S11320C0CDBFDEBFDF91CF911F910F9108950F9384
S11320D01F93CF93DF93CDB7DEB72797CDBFDEBF76
S11320E089836A834B835C832D830E831F838A8158
S11320F0882341F48E819F812E813F81FC012083BE
S1132100318307C08E819F812B813C81FC01208318
S113211031838E819F812981FC01238F8E819F8150
S11321202A81FC01248F8E819F8161E00E94790FB6
S11321308E819F812D81FC0120A300002796CDBFB5
S1132140DEBFDF91CF911F910F910895CF93DF935D
S1132150CDB7DEB72E97CDBFDEBF888799876A8754
S11321607B874C875D872E871982888599858A832A
S11321709B838A819B81892B31F461EF72E087E133
S113218090E20E9488228A859B85892B31F48A817A
S11321909B81FC01848D882319F481E090E002C0C6
S11321A080E090E0892B31F462EF72E087E190E205
S11321B00E9488228E85823031F48A819B81FC01C1
S11321C0838D813019F481E090E002C080E090E0DA
S11321D0892B31F463EF72E087E190E20E94882258
S11321E00FB6F8940F928A819B81FC01228D8A811B
S11321F09B81FC01838D281718F08E85823011F5A0
S11322002A853B858A819B814E85B9010E9454129F
S11322108C838A819B81FC018189882351F08A8186
S11322209B8141960E94C01A882341F00E94140E9B
S113223005C08C81882311F00E94140E0F900FBEEC
S113224081E060C08C859D85892B21F40F900FBEA1
S113225080E058C08981882331F4CE0105960E941C
S1132260351B81E089830F900FBE0E94D4160FB6F0
S1132270F8940F928A819B81FC01858D8F3F21F414
S11322808A819B81FC01158E8A819B81FC01868D4C
S11322908F3F21F48A819B81FC01168E0F900FBE23
S11322A09E01245F3F4FCE010596B9010E94521B47
S11322B0882309F58A819B810E94E8138823A1F071
S11322C02C853D858A819B810896B9010E94941AC8
S11322D08A819B810E946E130E94E116882309F073
S11322E07FCF0E94140E7CCF8A819B810E946E1343
S11322F00E94E11675CF8A819B810E946E130E9411
S1132300E11680E02E96CDBFDEBFDF91CF91089518
S1132310CF93DF93CDB7DEB72D97CDBFDEBF8887D0
S113232099876A877B874C875D8719828885998519
S11323308A839B838A819B81892B31F460E075E0D9
S113234087E190E20E9488228A859B85892B31F45B
S11323508A819B81FC01848D882319F481E090E0BB
S113236002C080E090E0892B31F464E075E087E1FD
S113237090E20E9488220FB6F8940F928A819B8182
S1132380FC01828D8C838C81882309F12A853B850D
S11323908A819B81B9010E941E138C812FEF280F23
S11323A08A819B81FC01228F8A819B81FC0180852B
S11323B0882349F08A819B8108960E94C01A882349
S11323C011F00E94140E0F900FBE81E067C08C853F
S11323D09D85892B21F40F900FBE80E05FC0898119
S11323E0882331F4CE0105960E94351B81E0898350
S11323F00F900FBE0E94D4160FB6F8940F928A81E4
S11324009B81FC01858D8F3F21F48A819B81FC0196
S1132410158E8A819B81FC01868D8F3F21F48A81F0
S11324209B81FC01168E0F900FBE9E01245F3F4FCF
S1132430CE010596B9010E94521B882309F58A81B1
S11324409B810E94CB138823A1F02C853D858A8132
S11324509B814196B9010E94941A8A819B810E94B2
S11324606E130E94E116882309F085CF0E94140E92
S113247082CF8A819B810E946E130E94E1167BCFDA
S11324808A819B810E946E130E94E1168A819B813E
S11324900E94CB13882309F46ECF80E02D96CDBF24
S11324A0DEBFDF91CF910895CF93DF93CDB7DEB731
S11324B02797CDBFDEBF8B839C836D837E834F8341
S11324C019828B819C81FC01828D8A838B819C8102
S11324D0FC01848D8823B1F48B819C81FC01808173
S11324E09181892B09F09CC08B819C81FC018481A2
S11324F095810E94241E89838B819C81FC01148216
S113250015828EC08F818823D9F58B819C81FC0133
S1132510848D482F50E08B819C81FC0182819381C2
S11325202D813E81B9010E94C3308B819C81FC01C5
S1132530228133818B819C81FC01848D882F90E0E2
S1132540280F391F8B819C81FC01228333838B816B
S11325509C81FC01228133818B819C81FC018481DB
S113256095812817390708F45BC08B819C81FC0195
S1132570208131818B819C81FC012283338350C073
S11325808B819C81FC01848D482F50E08B819C8140
S1132590FC01868197812D813E81B9010E94C3305F
S11325A08B819C81FC01268137818B819C81FC017C
S11325B0848D882F90E0919581959109280F391F7A
S11325C08B819C81FC01268337838B819C81FC0158
S11325D0268137818B819C81FC0180819181281720
S11325E03907A8F48B819C81FC01248135818B817E
S11325F09C81FC01848D882F90E0919581959109AF
S1132600280F391F8B819C81FC01268337838F819E
S1132610823031F48A81882319F08A8181508A8337
S11326208A8121E0280F8B819C81FC01228F898182
S11326302796CDBFDEBFDF91CF910895CF93DF936F
S113264000D01F92CDB7DEB789839A836B837C83D6
S113265089819A81FC01848D8823C9F189819A81B9
S1132660FC012681378189819A81FC01848D882F20
S113267090E0280F391F89819A81FC0126833783D2
S113268089819A81FC012681378189819A81FC01A3
S1132690848195812817390750F089819A81FC013A
S11326A02081318189819A81FC0126833783898144
S11326B09A81FC01848D482F50E089819A81FC0124
S11326C0268137818B819C81B9010E94C33000002F
S11326D02496CDBFDEBFDF91CF910895CF93DF93D2
S11326E000D01F92CDB7DEB78B839C830FB6F894CE
S11326F00F928B819C81FC01868D898312C08B8112
S11327009C81FC018189882381F08B819C81419685
S11327100E94C01A882311F00E94D31B8981815022
S11327208983898118165CF301C000008B819C8128
S11327302FEFFC01268F0F900FBE0FB6F8940F9267
S11327408B819C81FC01858D8A8312C08B819C8145
S1132750FC018085882381F08B819C8108960E94EE
S1132760C01A882311F00E94D31B8A8181508A8366
S11327708A8118165CF301C000008B819C812FEFC5
S1132780FC01258F0F900FBE00002496CDBFDEBF45
S1132790DF91CF910895CF93DF9300D0CDB7DEB70B
S11327A08A839B830FB6F8940F928A819B81FC01E4
S11327B0828D882319F481E0898301C019820F90E6
S11327C00FBE89812396CDBFDEBFDF91CF910895DF
S11327D0CF93DF9300D0CDB7DEB78A839B830FB648
S11327E0F8940F928A819B81FC01228D8A819B81BE
S11327F0FC01838D281719F481E0898301C01982B3
S11328000F900FBE89812396CDBFDEBFDF91CF919C
S113281008958F929F92AF92BF92CF92DF92EF92E0
S1132820FF920F931F93CF93DF93CDB7DEB76097DB
S1132830CDBFDEBF8E839F83688779874A875B8796
S11328402C873D870E87EF86F88A8A859B850E94B0
S11328503A098C839D838C819D81892BB9F080E317
S113286090E00E943A0989839A8389819A81892B0D
S113287041F089819A812C813D81FC01278B308F25
S113288007C08C819D810E94290A02C019821A8284
S113289089819A81892B09F18A859B85CC01A0E0E5
S11328A0B0E009811A814F8558892C853D8568855A
S11328B07985EE81FF81812C912C58016A01EE8487
S11328C089019C01AD01CF010E94801489819A8104
S11328D00E94671581E08B8302C08FEF8B838B810D
S11328E06096CDBFDEBFDF91CF911F910F91FF9016
S11328F0EF90DF90CF90BF90AF909F908F9008950E
S11329008F929F92AF92BF92CF92DF92EF920F93EA
S11329101F93CF93DF93CDB7DEB76497CDBFDEBFF0
S11329208C839D836E837F83288739874A875B875F
S11329300C871D87EE86CF86D88AA98ABA8A8B8AA5
S11329409C8A8E819F81892B31F460E673E08BE24F
S113295090E20E9488222885398589899A89FC0118
S11329608789908DA90165EA70E00E94CC3089893D
S11329709A89FC012789308D888599850197820F72
S1132980931F8A839B83198221C08981882F90E0B9
S11329902981222F30E04E815F81240F351FF901F8
S11329A0408129893A89820F931F4996FC0140830B
S11329B08981882F90E02E813F81820F931FFC0133
S11329C08081882339F089818F5F89838981883068
S11329D0E0F201C0000089899A89FC0110A28E8569
S11329E08A3010F089E08E8789899A892E85FC01C6
S11329F0268B89899A892E85FC0123A389899A8942
S1132A00FC0114A289899A8902960E94060B89897D
S1132A109A890C960E94060B89899A8929893A8990
S1132A20FC01208731878E85882F90E02AE030E0F2
S1132A30281B390B89899A89FC0124873587898960
S1132A409A8929893A89FC01228B338B89899A894D
S1132A50FC0115A216A289899A89FC0117A210A665
S1132A6011A612A689899A89FC0113A614A615A693
S1132A7016A689899A89FC0117A64C855D852C8147
S1132A803D818A819B81B9010E942C0C9C0189891A
S1132A909A89FC01208331838F859889892B39F0A9
S1132AA08F85988929893A89FC0120833183000024
S1132AB06496CDBFDEBFDF91CF911F910F91EF9050
S1132AC0DF90CF90BF90AF909F908F900895CF9359
S1132AD0DF931F921F92CDB7DEB789839A830FB617
S1132AE0F8940F9280911F238F5F80931F2380910E
S1132AF0912290919222892B69F489819A81809301
S1132B0091229093922280911F238130C9F40E94D4
S1132B10F11B16C080912323882391F48091912284
S1132B2090919222FC01268989819A81FC018689EF
S1132B30821730F089819A81809391229093922216
S1132B40809127238F5F80932723209127238981D6
S1132B509A81FC0121A389819A81FC019689809143
S1132B602223891730F489819A81FC018689809314
S1132B70222389819A81AC014E5F5F4F89819A81BA
S1132B80FC018689282F30E0C901880F991F880F1E
S1132B90991F880F991F820F931F8D569D4DBA015F
S1132BA00E94190B0F900FBE80912323882371F08C
S1132BB08091912290919222FC01268989819A81A7
S1132BC0FC018689281710F40E94140E00000F904F
S1132BD00F90DF91CF910895CF93DF9300D0CDB7BD
S1132BE0DEB78A839B8319828A819B81892BA1F01A
S1132BF080912C23882331F060E275E08BE290E22F
S1132C000E9488220E94D4168A819B8160E00E94DF
S1132C10FE1F0E94E11689838981882311F40E9492
S1132C20140E00002396CDBFDEBFDF91CF9108952F
S1132C30CF93DF93CDB7DEB72B97CDBFDEBF8A87A7
S1132C409B878A859B858A839B838A819B81892B29
S1132C5031F46CE475E08BE290E20E94882280916A
S1132C609122909192222A813B812817390711F4ED
S1132C70198252C00FB6F8940F928A819B81FC018D
S1132C80828593858C839D838091FF22909100237C
S1132C908E839F8380910123909102238887998753
S1132CA00F900FBE2C813D818E819F81281739079B
S1132CB039F02C813D81888599852817390719F4C5
S1132CC082E0898329C08C819D8186519342B1F42D
S1132CD08A819B81FC0184899589892B61F48A818D
S1132CE09B81FC0187A5813019F482E0898314C09B
S1132CF083E0898311C082E089830EC08C819D8129
S1132D008C50934221F08C819D81892B19F484E0AD
S1132D10898302C081E0898389812B96CDBFDEBF80
S1132D20DF91CF910895EF92FF920F93CF93DF93AA
S1132D301F92CDB7DEB70F2EFAE2EF2EF3E2FF2E8D
S1132D40F02D00E020E030E040E051E06FE370E27D
S1132D508EED9BE10E94091489838981813099F465
S1132D60F8948FEF9FEF809328239093292381E099
S1132D708093232310922023109221230E94100F6A
S1132D800E94DF0D09C089818F3F31F467E078E04C
S1132D908BE290E20E94882200000F90DF91CF9195
S1132DA00F91FF90EF900895CF93DF93CDB7DEB7E7
S1132DB080912C238F5F80932C230000DF91CF918F
S1132DC00895CF93DF9300D01F92CDB7DEB7198259
S1132DD01A821B8280912C23882331F46CE678E0DC
S1132DE08BE290E20E9488220FB6F8940F928091B1
S1132DF02C23815080932C2380912C23882309F049
S1132E0077C080911F23882309F472C049C0809140
S1132E10082390910923FC018681978189839A83F1
S1132E2089819A810C960E94D60B89819A81029697
S1132E300E94D60B89819A81FC0196898091222374
S1132E40891730F489819A81FC0186898093222331
S1132E5089819A81AC014E5F5F4F89819A81FC011F
S1132E608689282F30E0C901880F991F880F991F80
S1132E70880F991F820F931F8D569D4DBA010E9492
S1132E80190B89819A81FC01268980919122909164
S1132E909222FC018689281718F081E0809325236B
S1132EA080910323882309F0B2CF89819A81892BE9
S1132EB011F00E94F41D809124238C838C8188233B
S1132EC079F00E944518882319F081E08093252326
S1132ED08C8181508C838C81882399F710922423D0
S1132EE080912523882321F081E08B830E94140E96
S1132EF00F900FBE8B812496CDBFDEBFDF91CF91A3
S1132F000895CF93DF93CDB7DEB72797CDBFDEBF4C
S1132F108B839C836D834E835F8319828AE08A83CB
S1132F200E94D41680911F239D81981708F4A4C091
S1132F308A8181508A838A81282F30E0C901880FD1
S1132F40991F880F991F880F991F820F931FBC0127
S1132F506D567D4D8981882F90E082959295907F62
S1132F609827807F98272B813C81820F931F41E013
S1132F700E94101D982F8981890F89838A81882353
S1132F80B9F66091FF22709100238981882F90E027
S1132F9082959295907F9827807F98272B813C81FA
S1132FA0820F931F42E00E94101D982F8981890F80
S1132FB0898360910123709102238981882F90E095
S1132FC082959295907F9827807F98272B813C81CA
S1132FD0820F931F42E00E94101D982F8981890F50
S1132FE089838981882F90E082959295907F982794
S1132FF0807F98272B813C81820F931F44E06CE0F3
S113300073E20E94101D982F8981890F8983898119
S1133010882F90E082959295907F9827807F9827BB
S11330202B813C81820F931F43E066E173E20E948F
S1133030101D982F8981890F89838E819F81892B07
S1133040D9F080E098E0FC0180A191A19C0140E0CE
S113305050E08091382390913923A0913A23B09184
S11330603B23820F931FA41FB51F2E813F81F901BB
S113307080839183A283B3830E94E116898127967A
S1133080CDBFDEBFDF91CF910895CF93DF93CDB74E
S1133090DEB72997CDBFDEBF198280912C23882308
S11330A009F0D6C0809120239091212301968A8330
S11330B09B838A819B8180932023909321238A81FF
S11330C09B81892B49F58091FF2290910023FC017B
S11330D08081882331F066E67AE08BE290E20E94F8
S11330E088228091FF22909100238C839D8380917C
S11330F00123909102238093FF22909300238C81DB
S11331009D818093012390930223809126238F5FD6
S1133110809326230E94F41D8091282390912923D3
S11331202A813B812817390708F478C08091FF224F
S113313090910023FC018081882339F48FEF9FEF65
S1133140809328239093292369C08091FF22909132
S11331500023FC0185819681FC01868197818E8301
S11331609F838E819F81FC018281938188879987C7
S11331702A813B81888599852817390738F4888501
S11331809985809328239093292348C08E819F8119
S113319002960E94D60B8E819F81FC0184899589B9
S11331A0892B29F08E819F810C960E94D60B8E81EB
S11331B09F81FC01968980912223891730F48E81A6
S11331C09F81FC018689809322238E819F81AC019B
S11331D04E5F5F4F8E819F81FC018689282F30E0EE
S11331E0C901880F991F880F991F880F991F820F93
S11331F0931F8D569D4DBA010E94190B8E819F819C
S1133200FC0126898091912290919222FC01868969
S1133210281708F48BCF81E0898388CF809191228D
S113322090919222FC018689282F30E0C901880FF1
S1133230991F880F991F880F991F820F931F8D560E
S11332409D4DFC018081823040F081E0898305C07E
S1133250809124238F5F80932423809125238823C6
S113326011F081E0898389812996CDBFDEBFDF918A
S1133270CF910895AF92BF92CF92DF92EF92FF92D7
S11332800F931F93CF93DF93CDB7DEB72997CDBFAD
S1133290DEBF80912C23882321F081E080932523B5
S11332A034C11092252380E098E0FC0180A191A113
S11332B09C0140E050E08091382390913923A09103
S11332C03A23B0913B23820F931FA41FB51F809311
S11332D0312390933223A0933323B093342320914A
S11332E03123309132234091332350913423809100
S11332F02D2390912E23A0912F23B0913023821758
S11333009307A407B50750F560919122709192221A
S1133310FB0127A130A541A552A5E0903123F090EF
S11333203223009133231091342380912D239091E3
S11333302E23A0912F23B091302357016801A81A9E
S1133340B90ACA0ADB0AD601C501820F931FA41F5A
S1133350B51FFB0187A390A7A1A7B2A78091312332
S113336090913223A0913323B091342380932D2361
S113337090932E23A0932F23B093302380919122F6
S113338090919222FC018789908D8A839B8385EAA0
S113339095EADC018C839D83AE83BF838A819B8104
S11333A0FC0120813181428153818C819D81AE81D8
S11333B0BF81281739074A075B0799F58A819B81E2
S11333C00496FC0120813181428153818C819D814D
S11333D0AE81BF81281739074A075B0711F58A8137
S11333E09B810896FC0120813181428153818C812B
S11333F09D81AE81BF81281739074A075B0789F48D
S11334008A819B810C96FC01208131814281538108
S11334108C819D81AE81BF81281739074A075B07DC
S113342071F080919122909192229C01275E3F4FEE
S11334308091912290919222B9010E947A218091E7
S1133440222389830CC08981882331F46CE87BE0D2
S11334508BE290E20E94882289818150898389814C
S1133460282F30E0C901880F991F880F991F880FF2
S1133470991F820F931F8D569D4DFC0180818823D7
S113348011F38981282F30E0C901880F991F880F13
S1133490991F880F991F820F931F8D569D4D888702
S11334A0998788859985FC0181819281FC0122811B
S11334B0338188859985FC012183328388859985A8
S11334C0FC01218132818885998503962817390763
S11334D069F488859985FC0181819281FC012281AE
S11334E0338188859985FC01218332838885998578
S11334F0FC0181819281FC018681978180939122D4
S11335009093922289818093222300002996CDBF33
S1133510DEBFDF91CF911F910F91FF90EF90DF906D
S1133520CF90BF90AF900895CF93DF9300D01F92B8
S1133530CDB7DEB789839A836B837C8389819A8133
S1133540892B31F463EA7BE08BE290E20E948822CB
S113355080919122909192229C01245F3F4F898116
S11335609A81B9010E94640B8B819C8161E00E9465
S1133570FE1F00002496CDBFDEBFDF91CF910895DA
S1133580CF93DF93CDB7DEB72597CDBFDEBF8C8356
S11335909D838C819D81FC0185819681FC018681BE
S11335A097818A839B838A819B81892B31F46EEF77
S11335B07BE08BE290E20E9488228A819B810C96B8
S11335C00E94D60B80912C23882369F58A819B81E4
S11335D002960E94D60B8A819B81FC019689809178
S11335E02223891730F48A819B81FC018689809388
S11335F022238A819B81AC014E5F5F4F8A819B812C
S1133600FC018689282F30E0C901880F991F880F93
S1133610991F880F991F820F931F8D569D4DBA01D4
S11336200E94190B08C08A819B810C96BC0183E01F
S113363093E20E94190B8A819B81FC012689809167
S1133640912290919222FC018689821730F481E0C4
S1133650898381E08093252301C01982898125967D
S1133660CDBFDEBFDF91CF910895CF93DF931F923B
S11336701F92CDB7DEB789839A832091262389814F
S11336809A81FC0120832091202330912123898178
S11336909A81FC012183328300000F900F90DF9107
S11336A0CF910895CF93DF93CDB7DEB72997CDBFE0
S11336B0DEBF8E839F83688779878E819F81892B64
S11336C031F469E67CE08BE290E20E9488228885EE
S11336D09985892B31F46AE67CE08BE290E20E94C2
S11336E088220FB6F8940F92809120239091212381
S11336F08A839B838E819F81FC01818192812A81AF
S11337003B81A901481B590BCA018C839D83888581
S11337109985FC0180819181019611F419823AC046
S11337208E819F81FC01908180912623981769F0F6
S11337308E819F81FC01218132818A819B81821744
S1133740930718F081E0898325C088859985FC0159
S1133750208131818C819D8182179307A0F4888513
S11337609985FC01208131818C819D81281B390B35
S113377088859985FC01208331838E819F810E94F5
S1133780351B198207C088859985FC011082118236
S113379081E089830F900FBE89812996CDBFDEBF5A
S11337A0DF91CF910895CF93DF93CDB7DEB781E05A
S11337B0809325230000DF91CF910895CF93DF9369
S11337C01F921F92CDB7DEB789839A830E94331C60
S11337D080919322823010F00E94140E0E94722075
S11337E0F5CFCF93DF931F92CDB7DEB7198213C005
S11337F08981282F30E0C901880F991F880F991FEC
S1133800880F991F820F931F8D569D4D0E94CF0ADA
S113381089818F5F898389818A3050F38DEE92E2AA
S11338200E94CF0A86EF92E20E94CF0A83E093E2DD
S11338300E94CF0A8CE093E20E94CF0A86E193E2D1
S11338400E94CF0A8DEE92E28093FF229093002390
S113385086EF92E2809301239093022300000F905D
S1133860DF91CF910895CF93DF931F921F92CDB72D
S1133870DEB721C00FB6F8940F9280911123909176
S11338801223FC018681978189839A8389819A8195
S113389002960E94D60B80911F23815080931F2390
S11338A0809115238150809315230F900FBE898139
S11338B09A810E94DB1D809115238823D9F600008C
S11338C00F900F90DF91CF910895CF93DF93CDB7F1
S11338D0DEB72897CDBFDEBF8B839C836D837E8349
S11338E04F8328878B819C81892B29F48091912295
S11338F09091922202C08B819C8189839A838D81CD
S11339009E8129813A81FC012083318389819A81B6
S11339109C01275E3F4F8D819E81FC01228333836E
S113392089819A81FC0126898D819E81FC012683EF
S113393089819A81FC012789308D8D819E81FC01CA
S11339402487358789819A81FC0121A18D819E81FB
S1133950FC01248389819A81FC0123A18D819E81AC
S1133960FC01278389819A81FC0187A190A5A1A5E7
S1133970B2A52D813E81F90180879187A287B38703
S11339808885853039F18091912290919222298104
S11339903A812817390729F48D819E81FC0115820B
S11339A022C08D819E812885FC01258388858330F2
S11339B0D1F40E94D41689819A81FC018489958965
S11339C0892B29F08D819E8122E0FC0125830E94B0
S11339D0E11609C089819A810E941816282F8D81C9
S11339E09E81FC0125838F81882371F089819A81CE
S11339F0FC018789908D0E94B01D9C018D819E8160
S1133A00FC012687378705C08D819E81FC011686BF
S1133A10178600002896CDBFDEBFDF91CF910895B1
S1133A20CF93DF93CDB7DEB72E97CDBFDEBF8A87A6
S1133A309B876C877D874E8719828C859D85FC01C9
S1133A408081882309F485C08C859D858A839B8326
S1133A508A819B81FC0181819281FC0122813381D5
S1133A608A819B81FC01218332838A819B81FC01B1
S1133A70218132818A819B8103962817390769F451
S1133A808A819B81FC0181819281FC0122813381A5
S1133A908A819B81FC01218332838A819B81FC0181
S1133AA081819281FC01868197818C839D838C85A1
S1133AB09D858E839F838E819F81FC01818192816C
S1133AC0FC01228133818E819F81FC012183328319
S1133AD08E819F81FC01218132818E819F81039699
S1133AE02817390769F48E819F81FC0181819281B5
S1133AF0FC01228133818E819F81FC0121833283E9
S1133B008E819F81FC0181819281FC018681978154
S1133B10888799878981882F90E082959295907FF4
S1133B209827807F98272A853B85B901680F791FDC
S1133B30888599852E8541E00E94651C89818F5F67
S1133B408983288539858C819D812817390709F057
S1133B50AECF89812E96CDBFDEBFDF91CF91089580
S1133B60CF93DF9300D000D0CDB7DEB78D839E8393
S1133B7019821A821B821C8210C08D819E8101963B
S1133B808D839E8389819A81AB81BC810196A11D1D
S1133B90B11D89839A83AB83BC838D819E81FC0193
S1133BA08081853A51F389819A812696CDBFDEBF03
S1133BB0DF91CF910895CF93DF931F921F92CDB7DA
S1133BC0DEB789839A8389819A81FC018789908DE4
S1133BD00E94290A89819A810E94290A00000F9073
S1133BE00F90DF91CF910895CF93DF931F921F928F
S1133BF0CDB7DEB78091FF2290910023FC01808134
S1133C00882339F48FEF9FEF8093282390932923FF
S1133C1015C08091FF2290910023FC01858196813B
S1133C20FC018681978189839A8389819A81FC0129
S1133C3082819381809328239093292300000F90FD
S1133C400F90DF91CF910895CF93DF93CDB7DEB777
S1133C502597CDBFDEBF8C839D838C819D818A8314
S1133C609B8319828C819D81892B09F47CC080916E
S1133C709122909192222A813B812817390731F0B1
S1133C806EE77FE08BE290E20E9488228A819B812A
S1133C90FC0184A1882331F46FE77FE08BE290E29A
S1133CA00E9488228A819B81FC0184A12FEF280F26
S1133CB08A819B81FC0124A38A819B81FC01268942
S1133CC08A819B81FC0183A1281709F44CC08A8155
S1133CD09B81FC0184A1882309F045C08A819B81D2
S1133CE002960E94D60B8A819B81FC0123A18A81C2
S1133CF09B81FC01268B8A819B81FC018689882F0C
S1133D0090E02AE030E0281B390B8A819B81FC017A
S1133D10248735878A819B81FC019689809122239F
S1133D20891730F48A819B81FC0186898093222340
S1133D308A819B81AC014E5F5F4F8A819B81FC012C
S1133D408689282F30E0C901880F991F880F991F91
S1133D50880F991F820F931F8D569D4DBA010E94A3
S1133D60190B81E0898389812596CDBFDEBFDF9160
S1133D70CF910895CF93DF9300D000D0CDB7DEB7B5
S1133D808B839C836D837E832D813E818B819C817B
S1133D90B9010E94DC308B819C810E94E3308983CD
S1133DA09A830EC02B813C8189819A81820F931F53
S1133DB020E2FC01208389819A81019689839A8378
S1133DC089819A81079770F32B813C8189819A813B
S1133DD0820F931FFC0110822B813C8189819A817F
S1133DE0820F931F2696CDBFDEBFDF91CF9108953A
S1133DF0CF93DF93CDB7DEB72E97CDBFDEBF8D87D0
S1133E009E878D859E85FC01108280911F238A8365
S1133E1080911F23882F90E082959295907F982718
S1133E20807F98270E943A098B839C838B819C8195
S1133E30892B09F4DCC09E01275F3F4F8B819C8155
S1133E40A9016A810E9481178A8389859A85AB8535
S1133E50BC8524E630E040E050E0BC01CD010E9486
S1133E608E2EDA01C90189879A87AB87BC87898539
S1133E709A85AB85BC85892B8A2B8B2B09F4B3C01F
S1133E801982ACC08981882F90E082959295907FA9
S1133E909827807F98272B813C81820F931FFC01F8
S1133EA080859185A285B38529853A854B855C8576
S1133EB0BC01CD010E948E2EDA01C9018D839E833F
S1133EC0AF83B8878981882F90E082959295907FFF
S1133ED09827807F98272B813C81820F931FFC01B8
S1133EE0228133818D859E85B9010E94BA1E8D87FA
S1133EF09E878D819E81AF81B885892B8A2B8B2BE0
S1133F00A1F18981882F90E082959295907F9827DE
S1133F10807F98272B813C81820F931FFC01808531
S1133F209185A285B38528852F932F812F932E8188
S1133F302F932D812F932B2F2F932A2F2F93292FBC
S1133F402F938F9383E590E2892F8F9383E590E2FB
S1133F508F938E858F938D858F930E94BB318DB700
S1133F609EB70C96CDBFDEBF2BC08981882F90E011
S1133F7082959295907F9827807F98272B813C810A
S1133F80820F931FFC0180859185A285B3852B2F19
S1133F902F932A2F2F93292F2F938F9381E690E22B
S1133FA0892F8F9381E690E28F938E858F938D85F1
S1133FB08F930E94BB318DB79EB70896CDBFDEBFED
S1133FC08D859E850E94E3309C018D859E85820FA0
S1133FD0931F8D879E8789818F5F898399818A81C9
S1133FE0981708F44FCF8B819C810E94290A000006
S1133FF02E96CDBFDEBFDF91CF910895CF93DF938F
S1134000CDB7DEB72797CDBFDEBF8D839E836F8389
S1134010809120239091212389839A8380919122F6
S11340209091922202960E94D60B8D819E810196D8
S113403071F48F81882359F080919122909192227A
S11340400296BC0186E193E20E94190B44C02981C7
S11340503A818D819E81820F931F8B839C838091F3
S11340609122909192222B813C81FC012283338303
S11340702B813C8189819A812817390778F48091B2
S11340809122909192229C012E5F3F4F80910123B7
S113409090910223B9010E94640B1DC0809191226A
S11340A0909192229C012E5F3F4F8091FF2290912C
S11340B00023B9010E94640B809128239091292345
S11340C02B813C812817390730F48B819C818093A4
S11340D028239093292300002796CDBFDEBFDF91CC
S11340E0CF910895CF93DF93CDB7DEB70000DF9172
S11340F0CF910895CF93DF93CDB7DEB76C97CDBF43
S1134100DEBFF8948EE690E20E945D0280E096E0C5
S113411020E8FC01218380E096E020E8FC0125836F
S113412080E090E0A8ECB2E489839A83AB83BC83FB
S113413020E030E04AEF55E469817A818B819C81EB
S11341400E94D428DC01CB018B8B9C8BAD8BBE8B66
S113415020E030E040E85FE36B897C898D899E89AB
S11341600E94772788232CF481E090E08F8B988F2E
S11341703FC020E03FEF4FE757E46B897C898D898E
S11341809E890E94CF2818164CF520E030E040E2CA
S113419051E469817A818B819C810E94D428DC015D
S11341A0CB01BC01CD010E94EE27DC01CB018F8B3A
S11341B0988F0FC080E293E0898F9A8F898D9A8DB2
S11341C00197F1F7898F9A8F8F89988D01978F8B3B
S11341D0988F8F89988D892B69F714C06B897C8996
S11341E08D899E890E94EE27DC01CB018F8B988FED
S11341F08F89988D8B8F9C8F8B8D9C8D0197F1F778
S11342008B8F9C8F80E096E020E8FC01268380E081
S113421090E0A8ECB2E48D839E83AF83B88720E05E
S113422030E04AEF55E46D817E818F8198850E944C
S1134230D428DC01CB0189879A87AB87BC8720E02F
S113424030E040E85FE369857A858B859C850E9430
S1134250772788232CF481E090E08D879E873FC0E8
S113426020E03FEF4FE757E469857A858B859C858D
S11342700E94CF2818164CF520E030E040E251E4CB
S11342806D817E818F8198850E94D428DC01CB01C9
S1134290BC01CD010E94EE27DC01CB018D879E87F6
S11342A00FC080E293E08F87988B8F859889019760
S11342B0F1F78F87988B8D859E8501978D879E87D3
S11342C08D859E85892B69F714C069857A858B85D0
S11342D09C850E94EE27DC01CB018D879E878D850E
S11342E09E85898B9A8B89899A890197F1F7898BA5
S11342F09A8B11CFCF93DF93CDB7DEB7A097CDBF05
S1134300DEBF8D8F9E8F6F8F78A3F89480E096E048
S113431020E8FC01218380E990E20E945D028F8DF8
S113432098A16AE070E00E94710288EA90E20E941B
S11343305D0280E096E020E8FC01258380E090E0C7
S1134340AAEFB3E489839A83AB83BC8320E030E093
S11343504AEF55E469817A818B819C810E94D4283B
S1134360DC01CB018B8B9C8BAD8BBE8B20E030E0D2
S113437040E85FE36B897C898D899E890E94772759
S113438088232CF481E090E08F8B988F3FC020E04D
S11343903FEF4FE757E46B897C898D899E890E94A2
S11343A0CF2818164CF520E030E040E251E4698152
S11343B07A818B819C810E94D428DC01CB01BC01D1
S11343C0CD010E94EE27DC01CB018F8B988F0FC0AB
S11343D080E293E0898F9A8F898D9A8D0197F1F706
S11343E0898F9A8F8F89988D01978F8B988F8F895A
S11343F0988D892B69F714C06B897C898D899E8976
S11344000E94EE27DC01CB018F8B988F8F89988DCA
S11344108B8F9C8F8B8D9C8D0197F1F78B8F9C8F4D
S113442080E096E020E8FC01268380E090E0AAEF9B
S1134430B3E48D839E83AF83B88720E030E04AEFF6
S113444055E46D817E818F8198850E94D428DC019A
S1134450CB0189879A87AB87BC8720E030E040E8AE
S11344605FE369857A858B859C850E9477278823FD
S11344702CF481E090E08D879E873FC020E03FEFE1
S11344804FE757E469857A858B859C850E94CF2800
S113449018164CF520E030E040E251E46D817E8155
S11344A08F8198850E94D428DC01CB01BC01CD0109
S11344B00E94EE27DC01CB018D879E870FC080E22E
S11344C093E08F87988B8F8598890197F1F78F8771
S11344D0988B8D859E8501978D879E878D859E857A
S11344E0892B69F714C069857A858B859C850E9420
S11344F0EE27DC01CB018D879E878D859E85898B78
S11345009A8B89899A890197F1F7898B9A8B11CFB4
S1134510CF93DF93CDB7DEB7A097CDBFDEBF8D8F2E
S11345209E8F6F8F78A3F89480E096E020E8FC01DA
S113453021838BEA90E20E945D028D8D9E8D64E65C
S113454070E00E9471028BEB90E20E945D028F8DFD
S113455098A10E94C00288EA90E20E945D0280E075
S113456096E020E8FC01258380E090E0A8ECB2E42A
S113457089839A83AB83BC8320E030E04AEF55E41F
S113458069817A818B819C810E94D428DC01CB01D2
S11345908B8B9C8BAD8BBE8B20E030E040E85FE3DF
S11345A06B897C898D899E890E94772788232CF4C6
S11345B081E090E08F8B988F3FC020E03FEF4FE782
S11345C057E46B897C898D899E890E94CF281816AF
S11345D04CF520E030E040E251E469817A818B813E
S11345E09C810E94D428DC01CB01BC01CD010E9436
S11345F0EE27DC01CB018F8B988F0FC080E293E014
S1134600898F9A8F898D9A8D0197F1F7898F9A8F67
S11346108F89988D01978F8B988F8F89988D892B8F
S113462069F714C06B897C898D899E890E94EE2765
S1134630DC01CB018F8B988F8F89988D8B8F9C8F0A
S11346408B8D9C8D0197F1F78B8F9C8F80E096E08A
S113465020E8FC01268380E090E0AAEFB3E48D8398
S11346609E83AF83B88720E030E04AEF55E46D8144
S11346707E818F8198850E94D428DC01CB018987B3
S11346809A87AB87BC8720E030E040E85FE3698528
S11346907A858B859C850E94772788232CF481E07A
S11346A090E08D879E873FC020E03FEF4FE757E4BF
S11346B069857A858B859C850E94CF2818164CF5D0
S11346C020E030E040E251E46D817E818F81988565
S11346D00E94D428DC01CB01BC01CD010E94EE274D
S11346E0DC01CB018D879E870FC080E293E08F872A
S11346F0988B8F8598890197F1F78F87988B8D8593
S11347009E8501978D879E878D859E85892B69F768
S113471014C069857A858B859C850E94EE27DC010F
S1134720CB018D879E878D859E85898B9A8B898900
S11347309A890197F1F7898B9A8B11CFCF93DF93E5
S1134740CDB7DEB70E9454050E94C7060E946F05CC
S11347500E94F7010E9452030E942E050E94EF015D
S113476081E00E943B0580E090E0DF91CF910895C5
S1134770CF93DF93CDB7DEB70E94AF240E9481258B
S11347800E94EB2380E090E0DF91CF910895CF93D6
S1134790DF93CDB7DEB780E090E40E94BF2E809314
S11347A03C2390933D2380913C2390913D23892B7E
S11347B009F4FFCF80EA90E027E0FC01228378949B
S11347C00E949E230E94B8230E94931680E090E0EA
S11347D0DF91CF910895EF92FF920F93CF93DF93E0
S11347E0CDB7DEB740E061E085E00E94141080930D
S11347F0352390933623E12CF12C02E020E030E0C5
S113480040E051E066EC70E28CE294E20E9409140C
S11348100000DF91CF910F91FF90EF900895CF9317
S1134820DF931F921F92CDB7DEB789839A8380915D
S113483035239091362329813A8140E050E0B90133
S11348400E948811982F81E0913009F080E00F9048
S11348500F90DF91CF910895CF93DF93CDB7DEB75B
S11348602A97CDBFDEBF89879A8719820E941D02CD
S11348708A838981982F90958A8189238B838B8160
S1134880882F90E080719927892B71F080E18C83C7
S11348908091352390913623BE016C5F7F4F20E0D9
S11348A040E050E00E94A6108B81882F90E0887031
S11348B09927892B71F088E08D838091352390911D
S11348C03623BE016B5F7F4F20E040E050E00E9442
S11348D0A6108B81882F90E084709927892B71F022
S11348E084E08E838091352390913623BE016A5FE4
S11348F07F4F20E040E050E00E94A6108B81882F7B
S113490090E082709927892B71F082E08F838091E7
S1134910352390913623BE01695F7F4F20E040E04C
S113492050E00E94A6108B81882F90E08170992717
S1134930892B71F081E0888780913523909136230B
S1134940BE01685F7F4F20E040E050E00E94A61067
S11349508A81898384E690E00E94EC1587CFEF92E8
S1134960FF920F93CF93DF93CDB7DEB7E12CF12CF9
S113497001E020E030E040E051E062ED70E28AECDA
S113498094E20E9409140000DF91CF910F91FF90EF
S1134990EF900895CF93DF93CDB7DEB76197CDBF86
S11349A0DEBF888B998B80911620813061F48091D1
S11349B037238F5F8093372380913723843080F0AF
S11349C0109237230DC080913723882321F483E08C
S11349D08093372305C080913723815080933723F8
S11349E080913723282F30E081E090E002C0880FC7
S11349F0991F2A95E2F7898389810E94780380E0D0
S1134A0090E0AAEFB3E48A839B83AC83BD8320E068
S1134A1030E04AEF55E46A817B818C819D810E945C
S1134A20D428DC01CB018E839F83A887B98720E03B
S1134A3030E040E85FE36E817F81888599850E943C
S1134A40772788232CF481E090E08A879B873FC0F6
S1134A5020E03FEF4FE757E46E817F818885998599
S1134A600E94CF2818164CF520E030E040E251E4D3
S1134A706A817B818C819D810E94D428DC01CB01D9
S1134A80BC01CD010E94EE27DC01CB018A879B8704
S1134A900FC080E293E08C879D878C859D8501976C
S1134AA0F1F78C879D878A859B8501978A879B87E9
S1134AB08A859B85892B69F714C06E817F818885DF
S1134AC099850E94EE27DC01CB018A879B878A8522
S1134AD09B858E879F878E859F850197F1F78E87AB
S1134AE09F8761CFCF93DF931F921F92CDB7DEB71D
S1134AF089839A8380E090E00F900F90DF91CF91AB
S1134B000895EF92FF920F93CF93DF93CDB7DEB763
S1134B10E12CF12C01E020E030E040E053E06FEDC7
S1134B2070E28CE995E20E9409140000DF91CF91B4
S1134B300F91FF90EF900895CF93DF93CDB7DEB739
S1134B40C953D240CDBFDEBF9E01285C3D4FF90161
S1134B5080839183198288EE90E20E948B318CE0ED
S1134B6091E20E948B3188E291E20E948B3185E4CC
S1134B7091E20E948B3183E691E20E948B318CE8B2
S1134B8091E2892F8F938CE891E28F930E94713187
S1134B900F900F9080914423909145230E94722599
S1134BA080914223909143230E94F7308B839C830E
S1134BB08B819C810D9729F08B819C810A9709F048
S1134BC00CC184E991E20E948B318981882F90E0A5
S1134BD09E012B5F3F4F820F931FFC01108289813E
S1134BE0882309F4E7C0CE01059666E971E20E94C4
S1134BF0D330892B41F48FEF809316208CE991E216
S1134C000E948B31D7C0CE01059661EB71E20E9400
S1134C10D330892B41F481E08093162088EB91E214
S1134C200E948B31C7C0CE0105966EEC71E20E94E2
S1134C30D330892BD9F484ED91E20E948B31CE01DB
S1134C40C8960E94F81ECE01C896292F2F938F93E1
S1134C5080EF91E2892F8F9380EF91E28F930E94EE
S1134C6071310F900F900F900F90A4C0CE01059654
S1134C7065EF71E20E94D330892B09F089C01A8252
S1134C808AEF91E20E948B3174C08A818F5F8A839C
S1134C908A81882F90E0292F2F938F938CE192E2C1
S1134CA0892F8F938CE192E28F930E9471310F9040
S1134CB00F900F900F908FA9882F90E08071992703
S1134CC0892B59F089E292E2892F8F9389E292E24B
S1134CD08F930E9471310F900F908FA9882F90E0CD
S1134CE088709927892B59F08FE292E2892F8F934C
S1134CF08FE292E28F930E9471310F900F908FA9EF
S1134D00882F90E084709927892B59F085E392E2EB
S1134D10892F8F9385E392E28F930E9471310F90D4
S1134D200F908FA9882F90E082709927892B59F0D2
S1134D308BE392E2892F8F938BE392E28F930E940D
S1134D4071310F900F908FA9882F90E0817099276F
S1134D50892B59F082E492E2892F8F9382E492E2C4
S1134D608F930E9471310F900F9084E991E20E9419
S1134D708B31CE01C7960E940F24882309F085CF7A
S1134D808A818823B9F48CE492E20E948B3112C0A8
S1134D90CE010596292F2F938F938FE592E2892FC9
S1134DA08F938FE592E28F930E9471310F900F9051
S1134DB00F900F9019828CE891E2892F8F938CE8E1
S1134DC091E28F930E9471310F900F908091442350
S1134DD0909145230E9472251CC08981813308F07B
S1134DE0DFCE898191E0980F9983882F90E04B81E1
S1134DF09E012B5F3F4F820F931FFC0140838B81E9
S1134E009C810E94853180914423909145230E9486
S1134E107225C6CE5058BB27AA270E9422270C947D
S1134E2095280E94872838F00E948E2820F039F4B3
S1134E309F3F19F426F40C9484280EF4E095E7FBC4
S1134E400C947E28E92F0E94A62858F3BA1762070B
S1134E5073078407950720F079F4A6F50C94C82805
S1134E600EF4E0950B2EBA2FA02D0B01B901900181
S1134E700C01CA01A0011124FF27591B99F0593FC5
S1134E8050F4503E68F11A16F040A22F232F342F0D
S1134E904427585FF3CF469537952795A795F0405B
S1134EA05395C9F77EF41F16BA0B620B730B840B70
S1134EB0BAF09150A1F0FF0FBB1F661F771F881F28
S1134EC0C2F70EC0BA0F621F731F841F48F4879580
S1134ED077956795B795F7959E3F08F0B0CF939572
S1134EE0880F08F09927EE0F9795879508950E94EB
S1134EF05A2808F481E008950E9490270C9495287C
S1134F000E948E2858F00E94872840F029F45F3FC1
S1134F1029F00C947E2851110C94C9280C948428EF
S1134F200E94A62868F39923B1F3552391F3951BA6
S1134F30550BBB27AA2762177307840738F09F5FB6
S1134F405F4F220F331F441FAA1FA9F335D00E2E23
S1134F503AF0E0E832D091505040E695001CCAF790
S1134F602BD0FE2F29D0660F771F881FBB1F261753
S1134F7037074807AB07B0E809F0BB0B802DBF012A
S1134F80FF2793585F4F3AF09E3F510578F00C94F9
S1134F907E280C94C9285F3FE4F3983ED4F38695A9
S1134FA077956795B795F7959F5FC9F7880F911D1A
S1134FB09695879597F90895E1E0660F771F881F06
S1134FC0BB1F621773078407BA0720F0621B730BB9
S1134FD0840BBA0BEE1F88F7E09508950E94AE2863
S1134FE088F09F5798F0B92F9927B751B0F0E1F0A6
S1134FF0660F771F881F991F1AF0BA95C9F714C056
S1135000B13091F00E94C828B1E008950C94C828EA
S1135010672F782F8827B85F39F0B93FCCF386958E
S113502077956795B395D9F73EF4909580957095EB
S113503061957F4F8F4F9F4F0895E89409C097FB68
S11350403EF490958095709561957F4F8F4F9F4F5B
S11350509923A9F0F92F96E9BB279395F69587959F
S113506077956795B795F111F8CFFAF4BB0F11F462
S113507060FF1BC06F5F7F4F8F4F9F4F16C0882309
S113508011F096E911C0772321F09EE8872F762F3F
S113509005C0662371F096E8862F70E060E02AF080
S11350A09A95660F771F881FDAF7880F969587956C
S11350B097F90895990F0008550FAA0BE0E8FEEF41
S11350C016161706E807F907C0F012161306E407C8
S11350D0F50798F0621B730B840B950B39F40A26C1
S11350E061F0232B242B252B21F408950A2609F49F
S11350F0A140A6958FEF811D811D089597F99F67A3
S113510080E870E060E008959FEF80EC089500244B
S11351100A941616170618060906089500240A9418
S113512012161306140605060895092E0394000C9E
S113513011F4882352F0BB0F40F4BF2B11F460FF2D
S113514004C06F5F7F4F8F4F9F4F089557FD905856
S1135150440F551F59F05F3F71F04795880F97FB37
S1135160991F61F09F3F79F08795089512161306F1
S11351701406551FF2CF4695F1DF08C01616170620
S11351801806991FF1CF8695710561050894089555
S1135190E894BB2766277727CB0197F908950E94E7
S11351A05A2808F48FEF08950E94E7280C94952854
S11351B00E94872838F00E948E2820F0952311F051
S11351C00C947E280C94842811240C94C9280E94E1
S11351D0A62870F3959FC1F3950F50E0551F629F69
S11351E0F001729FBB27F00DB11D639FAA27F00D3C
S11351F0B11DAA1F649F6627B00DA11D661F829F63
S11352002227B00DA11D621F739FB00DA11D621F47
S1135210839FA00D611D221F749F3327A00D611D64
S1135220231F849F600D211D822F762F6A2F112446
S11352309F5750409AF0F1F088234AF0EE0FFF1F79
S1135240BB1F661F771F881F91505040A9F79E3FD0
S1135250510580F00C947E280C94C9285F3FE4F338
S1135260983ED4F3869577956795B795F795E79526
S11352709F5FC1F7FE2B880F911D9695879597F92F
S11352800895FA01EE0FFF1F309621053105A1F1B3
S11352906115710561F48038BFE39B0749F1689497
S11352A09038810561F08038BFEF9B0741F0992366
S11352B04AF5FF3FE1053105210519F1E894089409
S11352C0E795D901AA2329F4AB2FBE2FF85FD0F3B9
S11352D010C0FF5F70F4A695E0F7F73950F019F0AD
S11352E0FF3A38F49F779F930DD00F9007FC9058A6
S11352F0089546F00C94842860E070E080E89FE311
S113530008954FE79F775F934F933F932F930E94A6
S11353103C2A2F913F914F915F910E94D4280C9485
S1135320992929F416F00C947E280C94C8280C941E
S113533084280E94AE28A8F39638A0F707F80F92A5
S1135340E8942BE33AEA48EB5FE70E94EA280F92DD
S11353500F920F924DB75EB70F920E94842AECEF22
S1135360F1E00E94CB294F915F91EF91FF91E59578
S1135370EE1FFF1F49F0FE57E0684427EE0F441F5D
S1135380FA95E1F74195550B0E94FE290F9007FE0F
S11353900C94F2290895DF93CF931F930F93FF92F8
S11353A0EF92DF927B018C01689406C0DA2EEF0144
S11353B00E94E728FE01E894A59125913591459135
S11353C05591A6F3EF010E942227FE019701A8013F
S11353D0DA9469F7DF90EF90FF900F911F91CF91CE
S11353E0DF9108959B01AC0160E070E080E89FE3E9
S11353F00C947C270C947E280C94B82A0E94AE2826
S1135400D8F39923C9F3940F511DA3F3915050403D
S113541094F059F0882332F0660F771F881F91505B
S11354205040C1F79E3F51052CF7880F911D96956A
S1135430879597F908955F3FACF0983E9CF0BB27A1
S1135440869577956795B79508F4B1609395C1F7FC
S1135450BB0F58F711F460FFE8CF6F5F7F4F8F4F9A
S11354609F4FE3CF0C94C92816F00C94B82A0C94DF
S1135470842868940C947E280E94AE28A8F399236B
S1135480C1F3AEF3DF93CF931F930F93FF92C92F12
S1135490DD2788232AF02197660F771F881FDAF704
S11354A020E030E040E85FEB9FE3883920F0803E65
S11354B038F021968F770E940B27E4E2F2E004C0D3
S11354C00E940B27E1E5F2E00E94CB298B01BE018B
S11354D0EC01FB2E6F5771097595771F880B990B9B
S11354E00E941F2828E132E741E35FE30E94E72896
S11354F0AF2D9801AE01FF900F911F91CF91DF91D5
S11355000E9422270C949528FA01DC01AA0FBB1FE4
S11355109B01AC01BF5728F4222733274427507836
S113552020C0B75190F4AB2F0024469537952795AA
S1135530011CA395D2F3002071F0220F331F441FE6
S1135540B395DAF30ED00C940A2761307105A0E804
S11355508A07B94630F49B01AC0166277727882770
S11355609078309621F020833183428353830895C9
S11355709F3F31F0915020F4879577956795B795C3
S1135580880F911D9695879597F908952F923F92CC
S11355904F925F926F927F928F929F92AF92BF923F
S11355A0CF92DF92EF92FF920F931F93CF93DF93EB
S11355B0CDB7DEB76097CDBFDEBF7C011B016A01AA
S11355C0FC0116821782838181FF44C39E012F5FF1
S11355D03F4F3901F7019381F10193FD859193FFC9
S11355E081911F01882309F431C3853239F493FD75
S11355F0859193FF81911F01853239F4B70190E0C1
S11356000E94353156016501E5CF10E0512C912CF3
S1135610FFE1F915D8F08B3279F038F4803279F063
S11356208332A1F4F92DF0612EC08D3261F0803304
S113563069F4292D21602DC0392D3260932E892DD6
S11356408460982E2AC0E92DE86015C097FC2DC00F
S113565020ED280F2A3088F496FE06C03AE0139F06
S1135660200D1124122F19C08AE0589E200D1124F8
S1135670522EE92DE0629E2E10C08E3231F496FC3B
S1135680E5C2F92DF0649F2E08C08C3621F4292D33
S11356902068922E02C0883641F4F10193FD859171
S11356A093FF81911F018111B3CF9BEB980F93302E
S11356B020F4992D9061805E07C09BE9980F933088
S11356C008F066C1992D9F7E96FF16E09F73992E70
S11356D0853619F49064992E08C0863621F4392F42
S11356E03068932E02C01111115097FE07C01C336D
S11356F050F444244394410E27E00BC0183038F092
S113570027E017E005C027E09CE3492E02C0212FC3
S1135710412C560184E0A80EB11CF6016081718110
S113572082819381042DA3010E94E02F6C01F981F1
S1135730FC87F0FF02C0F3FF06C091FC06C092FE96
S113574006C000E205C00DE203C00BE201C000E0A8
S11357508C858C7019F001115AC29BC297FE10C03F
S11357604C0CFC85F4FF04C08A81813309F44A940B
S1135770141474F528E0241578F588E0482E2CC01C
S113578096FC2AC0812F90E08C159D059CF03CEF7F
S1135790C3163FEFD30674F0892D8068982E0AC093
S11357A0E2E0F0E0EC0FFD1FE10FF11D808180339A
S11357B019F411501111F4CF97FE0EC044244394F0
S11357C0410E812F90E0C816D9062CF41C1904C090
S11357D04424439401C010E097FE06C01C141D0429
S11357E034F4C601019605C085E090E002C081E072
S11357F090E001110196112331F0212F30E02F5F49
S11358003F4F820F931F252D30E08217930714F426
S1135810581A01C0512C892D897049F4552039F04A
S1135820B70180E290E00E9435315A94F7CF00230B
S113583029F0B701802F90E00E94353193FC09C014
S1135840552039F0B70180E390E00E9435315A9435
S1135850F7CF97FE4CC04601D7FE02C0812C912C95
S1135860C60188199909F301E80FF91FED87FE872E
S11358709601241931092F87388B012F10E01195D7
S1135880019511093FEF8316930629F4B7018EE2BF
S113589090E00E943531C814D9044CF08F85988962
S11358A08815990524F4ED85FE85818101C080E386
S11358B0F1E08F1A91082D853E852F5F3F4F2D878C
S11358C03E87801691062CF0B70190E00E94353196
S11358D0D9CFC814D90441F49A81963320F495336E
S11358E019F43C8534FF81E3B70190E04EC08A810E
S11358F0813319F09C859F7E9C87B70190E00E94BC
S11359003531111105C094FC18C085E690E017C02C
S1135910B7018EE290E00E9435311E5F82E001E023
S1135920080FF301E80FF11D8081B70190E00E9498
S11359303531802F0113F3CFE6CF85E490E0B70132
S11359400E943531D7FC06C0C114D10441F4EC8562
S1135950E4FF05C0D194C194D1088DE201C08BE26B
S1135960B70190E00E94353180E32AE0C216D104E9
S11359702CF08F5FFAE0CF1AD108F7CFB70190E08F
S11359800E943531B701C601C0960E94353154C119
S1135990833631F0833779F0833509F056C020C05F
S11359A0560132E0A30EB11CF6018081898301E027
S11359B010E0630112C05601F2E0AF0EB11CF60113
S11359C0C080D18096FE03C0612F70E002C06FEFEB
S11359D07FEFC6010E94EC308C01F92DFF7714C0D3
S11359E0560122E0A20EB11CF601C080D18096FEC1
S11359F003C0612F70E002C06FEF7FEFC6010E9409
S1135A00B8308C01F92DF0689F2EF3FD1AC0852D56
S1135A1090E008171907A8F4B70180E290E00E940B
S1135A2035315A94F4CFF60197FC859197FE819114
S1135A306F01B70190E00E94353151105A94015022
S1135A4011090115110579F7F7C0843611F089366B
S1135A5061F5560197FE09C024E0A20EB11CF601BF
S1135A6060817181828193810AC0F2E0AF0EB11C22
S1135A70F60160817181072E000C880B990BF92DBA
S1135A80FF769F2E97FF09C090958095709561953C
S1135A907F4F8F4F9F4FF0689F2E2AE030E0A30185
S1135AA00E94E431C82EC6183FC0092D853721F461
S1135AB00F7E2AE030E01DC0097F8F3691F018F484
S1135AC0883559F0C3C0803719F0883711F0BEC04B
S1135AD0006104FF09C0046007C094FE08C00660AA
S1135AE006C028E030E005C020E130E002C020E13B
S1135AF032E0560107FF09C084E0A80EB11CF6018C
S1135B00608171818281938108C0F2E0AF0EB11C83
S1135B10F6016081718180E090E0A3010E94E4318C
S1135B20C82EC6180F77902E96FE0BC0092D0E7F37
S1135B30C11650F494FE0AC092FC08C0092D0E7ED2
S1135B4005C0DC2C092D03C0DC2C01C0D12E04FFC0
S1135B500DC0FE01EC0DF11D8081803311F4097E2E
S1135B6009C002FF06C0D394D39404C0802F867862
S1135B7009F0D39403FD11C000FF06C01C2DD514F9
S1135B8080F4150D1D190DC0D51458F4B70180E229
S1135B9090E00E943531D394F7CFD51410F45D18FA
S1135BA001C0512C04FF10C0B70180E390E00E94B3
S1135BB0353102FF17C001FD03C088E790E002C041
S1135BC088E590E0B7010CC0802F867859F001FF7A
S1135BD002C08BE201C080E207FD8DE2B70190E0D4
S1135BE00E943531C11638F4B70180E390E00E9479
S1135BF035311150F7CFCA94F301EC0DF11D8081BA
S1135C00B70190E00E943531C110F5CF15C0F4E022
S1135C10F51560F584E0581A93FE1FC0011127C0E2
S1135C202C8523FF2AC006E912E0392D3071932E0A
S1135C30F8018491811124C0552009F4E4CCB70102
S1135C4080E290E00E9435315A94F6CFF7018681C4
S1135C50978126C08FEF9FEF23C0B70180E290E0C9
S1135C600E9435315A945110F8CFD8CF512CB70136
S1135C70802F90E00E943531D3CF0AE912E0D5CFCE
S1135C8091108052B70190E00E9435310F5F1F4F91
S1135C90CFCF23E0251510F483E0BDCF512CC0CF26
S1135CA06096CDBFDEBFDF91CF911F910F91FF9022
S1135CB0EF90DF90CF90BF90AF909F908F907F90A8
S1135CC06F905F904F903F902F900895AA1BBB1B3D
S1135CD051E107C0AA1FBB1FA617B70710F0A61BE8
S1135CE0B70B881F991F5A95A9F780959095BC0109
