:100000000C9489010C94AA010C94AA010C94AA01E5
:100010000C94AA010C94AA010C94AA010C94AA01B4
:100020000C94AA010C94AA010C94AA010C94AA01A4
:100030000C94AA010C94AA010C948C050C94AA01AE
:100040000C9400060C94AA010C94AA010C94AA0129
:100050000C94AA010C94AA010C94AA010C94AA0174
:100060000C94AA010C94AA010C94AA010C94AA0164
:100070000C94AA010C94AA010C94AA010C94AA0154
:100080000C94AA010C94AA010C94AA010C94AA0144
:100090000C94AA010C94AA010C94AA010C94AA0134
:1000A0000C94AA010C94AA010C94AA010C94AA0124
:1000B0000C94AA010C94AA010C94C5020C94AA01F8
:1000C0000C94AA010C94AA010C94AA010C94AA0104
:1000D0000C94AA010C94AA010C94AA010C94AA01F4
:1000E0000C94AA010C94AA010C94AA010C94AA01E4
:1000F0000C94AA010C94AA010C94AA010C94AA01D4
:100100000C94AA010C94AA010C94AA010C94AA01C3
:100110000C94AA010C94AA010C94AA010C94AA01B3
:100120000C94AA010C94AA010C94AA010C94AA01A3
:100130000C94AA010C94AA010C94AA010C94AA0193
:100140000C94AA010C94AA010C94AA010C94AA0183
:100150000C94AA010C94AA010C94AA010C94AA0173
:100160000C94AA010C94AA010C94AA010C94AA0163
:100170000C94AA010C94AA010C94AA010C94AA0153
:100180000C94AA010C94AA010C94AA010C94AA0143
:100190000C94AA010C94AA010C94AA010C94AA0133
:1001A0000C94AA010C94AA010C94AA010C94AA0123
:1001B0000C94AA010C94AA010C94AA010C94AA0113
:1001C0000C94AA010C94AA010C94AA010C94AA0103
:1001D0000C94AA010C94AA010C94AA010C94AA01F3
:1001E0000C94AA010C94AA010C94AA010C94AA01E3
:1001F0000C94AA010C94AA010C94AA010C946B0B08
:100200000C9406030C946C0B0C945F060C94120374
:100210006E616E00696E660000407A10F35A00A0AD
:10022000724E18090010A5D4E80000E876481700BF
:1002300000E40B54020000CA9A3B000000E1F505FF
:10024000000080969800000040420F000000A08649
:1002500001000000102700000000E803000000007B
:100260006400000000000A0000000000010000001F
:1002700000002C76D888DC674F0823DFC1DFAE5939
:10028000E1B1B796E5E3E453C63AE651997696E8CC
:10029000E6C28426EB898C9B62ED407C6FFCEFBC50
:1002A0009C9F40F2BAA56FA5F490055A2AF75C937B
:1002B0006B6CF9676DC11BFCE0E40D47FEF520E6B1
:1002C000B500D0ED902E0300943577050080841E94
:1002D000080000204E0A000000C80C333333330FEF
:1002E000986E12831141EF8D2114893BE65516CF8C
:1002F000FEE6DB18D1844B381BF77C1D901DA4BB98
:10030000E424203284725E228100C9F124ECA1E54C
:100310003D2711241FBECFEFCDBFDFE9DEBF00E0D8
:100320000CBF10E2A0E0B0E2EEEBF4E200E00BBFA5
:1003300002C007900D92AE3DB107D9F721E2AEEDB4
:10034000B0E201C01D92AA3AB207E1F70E94430B46
:100350000C945D120C940000DC011092E1201092CC
:10036000E2209C919923B1F0FD01319680E49093B5
:10037000A00A9091A10A96FFFCCF8093A10A9F0149
:100380002A1B3B0B91919111F2CF2093E1203093E6
:10039000E22008950895FC011092E1201092E220DD
:1003A00090819923E1F0319620E030E080E4261737
:1003B00037071CF06115710569F49093A00A9091BC
:1003C000A10A96FFFCCF8093A10A2F5F3F4F919126
:1003D0009111EDCF2093E1203093E220089508950C
:1003E000CF92DF92EF92FF920F931F93CF93DF9301
:1003F0007C0180E197E28093DF209093E0201092CF
:10040000DE20C5E0D0E0C12CE0E1F7E2A0E4DA2E86
:100410000AE010E0C701BF010E94620FAB019B011F
:10042000ADECBCEC0E948A0F9695879596958795C2
:10043000969587959C01220F331F880F991F880F6F
:10044000991F880F991F820F931F9A01281B390B40
:10045000C901009711F4CC2059F0805D8093A00A67
:100460008091A10A86FFFCCFD092A10ACC24C3942C
:10047000CF01B8010E94760FFB01219759F6C09277
:10048000DE206093DF207093E020DF91CF911F91F9
:100490000F91FF90EF90DF90CF9008958BEC8093B9
:1004A000520088E0809350008091510083FFFCCF80
:1004B00082EC8093550088E1809350008091510038
:1004C00084FFFCCF88ED84BF84E08093400080E00F
:1004D00008959091E7202091E6208091A40484FD66
:1004E00008C08091E520891750F08091E4208217A0
:1004F000B8F083E08093A3041092E32008958091E4
:10050000E520E091EA20F091EB20E80FF11D8081D9
:100510008093A7048091E5208F5F8093E520089564
:100520008091EC2081608093A60408958091E4205E
:100530008032E0F48091A7049091E420E091E820DB
:10054000F091E920E90FF11D80838091E4208F5F15
:100550008093E4209091E6208091E420891788F030
:1005600087E08093A3041092E320089583E08093B2
:10057000A3041092E3209091E6208091E420891753
:1005800078F782E08093A30408951F920F920FB62C
:100590000F9211240BB60F922F933F934F935F93BB
:1005A0006F937F938F939F93AF93BF93EF93FF933B
:1005B0008091A404982F9C7039F486FD21C087FD9A
:1005C00022C01092E32007C08091A4048860809329
:1005D000A4041092E3208091E320FF91EF91BF915A
:1005E000AF919F918F917F916F915F914F913F91CB
:1005F0002F910F900BBE0F900FBE0F901F9018956C
:100600000E946902E8CF0E949602E5CF8093A00A7B
:100610008091A10A86FFFCCF80E48093A10A80E04C
:1006200090E008958091A10A87FFFCCF8091A00AF5
:1006300090E00895E0E8F6E088E0818384E082833A
:10064000E0EAFAE0138288E1848383E0858385EE23
:1006500086838CEB8783E4EAF1E286E090E2828392
:1006600093838083918308950F931F93CF93DF9398
:10067000EC010E9429098091ED20811121C0E091B7
:100680009E21F0919F21CF0101968093F2209093BB
:10069000F3201092F4201092F5208FEF9FE38093C7
:1006A000F0209093F1201092EE201092EF2083839F
:1006B00094838EEE90E28183928381E08093ED209B
:1006C000209709F464C0AE014C5F5F4F2396CE3F84
:1006D000DF4308F05CC0E091F220F091F320A2EF3C
:1006E000B0E206C080819181009739F0DF01FC0102
:1006F0002281338124173507A8F3C0E2EE3EFC07C0
:1007000009F445C0CD91DC9111978E010C5F1F4F0C
:10071000808191818D939C93C901841B950B8930B5
:10072000910500F1BF01640F751FDB0112968D93D7
:100730009C9313974283538312962D913C91139768
:10074000A2EFB0E201C0DF01ED91FC91119782812F
:10075000938182179307B8F3EB01E883F9836D93D4
:100760007C939A018091142090911520821B930B09
:1007700080931420909315200E94090A01151105F9
:1007800041F0C801DF91CF911F910F9108950E9410
:10079000090A0E94C80A00E010E0C801DF91CF9169
:1007A0001F910F910895CF93DF93009721F1EC01F2
:1007B00024970E9429094A815B81A2EFB0E201C01F
:1007C000DF01ED91FC9111972281338124173507C8
:1007D000B8F3E883F983CD93DC9380911420909152
:1007E0001520480F591F4093142050931520DF9176
:1007F000CF910C94090ADF91CF910895FC010396E3
:10080000818392832FEF3FEF238334838583968305
:100810008783908710820895FC01108611860895C1
:10082000CF93DF939C01FB01DC011196CD91DC910C
:100830001297C283D3838C819D81848395838C811D
:100840009D81DC0112966D937C9313976C837D835D
:1008500020873187F90180818F5F8083DF91CF917D
:100860000895CF93DF93EB01488159814F3F2FEFDC
:10087000520701F1DC01139601C0DF011296ED91E0
:10088000FC9113972081318142175307B0F7EA8317
:10089000FB83C483D583AC83BD831296CD93DC9355
:1008A000139788879987FC0120812F5F2083DF9130
:1008B000CF910895FC01A781B0851296ED91FC912E
:1008C0001397E5CFCF93DF93FC01A085B1852281FB
:1008D000338184819581E9018C839D838481958115
:1008E000EC012A833B8311962D913C911297E217DC
:1008F000F30749F0108611868C9181508C938C916E
:10090000DF91CF91089511968D939C931297F2CF1A
:1009100031E1FC013083319722E220833197A3E358
:10092000A08331976083319770833197108231971C
:100930001082319760E8608331971082319762E0CE
:100940006083319763E06083319764E0608331971F
:1009500065E06083319766E06083319767E060838C
:10096000319768E06083319769E06083319760E197
:10097000608331973083319732E13083319733E1AF
:100980003083319734E13083319735E130833197CB
:1009900036E13083319737E13083319738E1308366
:1009A000319739E13083319730E23083319731E24A
:1009B000308331972083319723E22083319740831E
:1009C00031975083319726E22083319727E22083A5
:1009D000319728E22083319729E22083319720E361
:1009E0002083319721E3208387970895E0E0F8E0A2
:1009F0008FEF9FEF80A791A781E0808390E49183A0
:100A00008683878380E09DE786A397A3A0919421A6
:100A1000B0919521CD91CDBFDD91DEBFFF91EF91DA
:100A2000DF91CF91BF91AF919F918F917F916F9106
:100A30005F914F913F912F911F910F91FF90EF90F8
:100A4000DF90CF90BF90AF909F908F907F906F90EE
:100A50005F904F903F902F901F900F900FBE0F9080
:100A6000089581E008950F920FB6F8940F921F92A7
:100A700011242F923F924F925F926F927F928F92AA
:100A80009F92AF92BF92CF92DF92EF92FF920F931D
:100A90001F932F933F934F935F936F937F938F9306
:100AA0009F93AF93BF93CF93DF93EF93FF93A09167
:100AB0009421B09195210DB60D920EB60D920E9423
:100AC000BD0AA0919421B0919521CD91CDBFDD912A
:100AD000DEBFFF91EF91DF91CF91BF91AF919F91D9
:100AE0008F917F916F915F914F913F912F911F91C6
:100AF0000F91FF90EF90DF90CF90BF90AF909F90BD
:100B00008F907F906F905F904F903F902F901F90AD
:100B10000F900FBE0F9008950F920FB6F8940F929A
:100B20001F9211242F923F924F925F926F927F9269
:100B30008F929F92AF92BF92CF92DF92EF92FF92ED
:100B40000F931F932F933F934F935F936F937F93D5
:100B50008F939F93AF93BF93CF93DF93EF93FF93C5
:100B6000A0919421B09195210DB60D920EB60D92E3
:100B7000209126083091270880919A2190919B21FD
:100B8000A0919C21B0919D21820F931FA11DB11DA9
:100B900080939A2190939B21A0939C21B0939D21B7
:100BA0000E942F090E94BD0AA0919421B091952125
:100BB000CD91CDBFDD91DEBFFF91EF91DF91CF9160
:100BC000BF91AF919F918F917F916F915F914F9165
:100BD0003F912F911F910F91FF90EF90DF90CF9059
:100BE000BF90AF909F908F907F906F905F904F904D
:100BF0003F902F901F900F900FBE0F901895089563
:100C00000F920FB6F8940F921F9211242F923F92D9
:100C10004F925F926F927F928F929F92AF92BF920C
:100C2000CF92DF92EF92FF920F931F932F933F93F8
:100C30004F935F936F937F938F939F93AF93BF93E4
:100C4000CF93DF93EF93FF93A0919421B0919521DF
:100C50000DB60D920EB60D928FEF9FEF8093280880
:100C6000909329080E94BD0AA0919421B0919521EA
:100C7000CD91CDBFDD91DEBFFF91EF91DF91CF919F
:100C8000BF91AF919F918F917F916F915F914F91A4
:100C90003F912F911F910F91FF90EF90DF90CF9098
:100CA000BF90AF909F908F907F906F905F904F908C
:100CB0003F902F901F900F900FBE0F90189520C05F
:100CC0000FB6F8940F92E0911721F0911821C68188
:100CD000D781CE0102960E94620480910721815043
:100CE00080930721809111218150809311210F90D1
:100CF0000FBE8F89988D0E94D303CE010E94D3032B
:100D0000809111218111DCCF80913A21823010F045
:100D10000E9433050E94C70AF3CFE0912621F0918B
:100D200027210580F681E02D0680F781E02D828164
:100D300093818093FD209093FE200895FF920F935E
:100D40001F93CF93DF93EC01F62E009105211091B4
:100D50000621809194219091952102960E9462042F
:100D6000CF3F8FEFD807A9F1C00FD11FE091942199
:100D7000F0919521C283D383609194217091952144
:100D8000C017D107C8F080912621909127216E5F6E
:100D90007F4F0E9431048091FD209091FE20C81762
:100DA000D90720F4C093FD20D093FE20DF91CF918E
:100DB0001F910F91FF9008958091242190912521FA
:100DC0006E5F7F4FDF91CF911F910F91FF900C9439
:100DD0003104FF2049F260919421709195216E5F5A
:100DE0007F4F88E091E2DF91CF911F910F91FF90AB
:100DF0000C9410040F931F93CF9310920121209114
:100E000020083091210880919A2190919B21A091F6
:100E10009C21B0919D21820F931FA11DB11D0091B6
:100E2000F6201091F7202091F8203091F920081732
:100E300019072A073B07A0F4E0919421F09195212E
:100E400047A150A561A572A5401B510B620B730B06
:100E5000480F591F6A1F7B1F47A350A761A772A79E
:100E60008093F6209093F720A093F820B093F92078
:100E7000E0919421F09195210788F08DE02D8081FB
:100E80009181A281B381853A954AA54AB54A09F470
:100E90004CC0609194217091952180919421909102
:100EA0009521675E7F4F0E94E70AC09104218C2F35
:100EB00090E09C01220F331F220F331F220F331F9C
:100EC000F901E80FF91FE65CFE4D408141110CC0AD
:100ED000CC2311F0C150EBCF6CE87BE086E190E2CF
:100EE0000E94110BC150E3CF820F931FDC01A65C5F
:100EF000BE4D1196ED91FC9112970280F381E02D89
:100F00001196ED93FC931297835C9E4DE817F907B9
:100F100059F1868197818093942190939521C09374
:100F20000421CF911F910F91089584819581A6810D
:100F3000B781853A954AA54AB54A09F0AACF808576
:100F40009185A285B385853A954AA54AB54A09F0A7
:100F5000A0CF84859585A685B785853A954AA54A0B
:100F6000B54A09F096CFA1CF0280F381E02D11960A
:100F7000ED93FC931297CDCF5F926F927F928F92F9
:100F80009F92AF92BF92CF92DF92EF92FF920F9318
:100F90001F93CF93DF934C01EB015A013901502E7F
:100FA000CA010E9434038C01892B09F4DEC080E35E
:100FB00090E00E9434036C01009709F4D3C0DC0177
:100FC00057960D931C935897209709F4D0C0C801E9
:100FD000A50165EA70E00E949D11F1E0AF1AB10829
:100FE000D60157968D919C915897A80EB91EF6017F
:100FF00079969E01285F3F4FDE01899181938C9104
:10100000882319F0C217D307B9F7F60110A2052DEE
:101010000A3008F0A1C0D60156960C9356979396C5
:101020000C93939794961C92E6012296CE010E940F
:101030000C04C6010C960E940C04F601C086D186F1
:101040008AE090E0801B910984879587C28AD38AC1
:1010500015A216A217A210A611A612A613A614A6D0
:1010600015A616A617A6A301B401C5010E948804FF
:10107000D6018D939C93E114F10419F0F701C0821D
:10108000D1820FB6F8940F92809107218F5F8093E1
:1010900007218091942190919521892B99F080913D
:1010A0000321811118C0E0919421F0919521D6017E
:1010B00056968C919689891788F0C0929421D09287
:1010C00095210CC0C0929421D09295218091072146
:1010D000813009F456C0D60156968C919091FF202C
:1010E0009F5F9093FF20F60191A3909104219817A0
:1010F00080F190E09C01220F331F220F331F220F3B
:10110000331F820F931FBE01865C9E4D0E94100408
:101110000F900FBE80910321882351F0E09194211C
:10112000F09195219689D60156968C919817B0F03A
:1011300081E0DF91CF911F910F91FF90EF90DF90B1
:10114000CF90BF90AF909F908F907F906F905F9067
:10115000089580930421CDCF09E05DCF0E9433052F
:1011600081E0E7CFC8010E94D3038FEFE2CF60E6B2
:1011700073E086E190E20E94110BF6018789908D61
:1011800027CF0AE311E254E9E52E51E2F52EC8011A
:101190000E94FE03075F1F4FE016F106C1F781E3CF
:1011A00091E20E94FE0388E291E20E94FE038BE13D
:1011B00091E20E94FE0382E191E20E94FE0388E038
:1011C00091E20E94FE0381E391E2809326219093B5
:1011D000272188E291E28093242190932521F60132
:1011E00086897CCFEF92FF920F938BEFE82E80E2FF
:1011F000F82E00E020E030E040E051E06AE270E2EA
:101200008FE596E00E94BC07813079F08F3F21F096
:101210000F91FF90EF90089567E078E086E190E20B
:101220000F91FF90EF900C94110BF8942FEF3FEF7C
:101230002093FD203093FE208093032110920521FE
:10124000109206210E94FF050F91FF90EF900C94E1
:10125000F6048091FA208F5F8093FA200895DF9240
:10126000EF92FF920F931F93CF93DF938091FA2019
:101270008111B9C0E0900521F09006218FEFE81AA6
:10128000F80AE0920521F0920621E114F10449F5F3
:10129000E0912621F091272180818111ABC08091BE
:1012A00026219091272120912421309125212093DE
:1012B000262130932721809324219093252180910A
:1012C00000218F5F80930021E0912621F09127215A
:1012D0008081811196C08FEF9FEF8093FD209093C6
:1012E000FE208091FD209091FE20D12CE816F90679
:1012F00008F453C0E0912621F091272180818823B2
:1013000009F445C0E0912621F09127210580F6815E
:10131000E02DC681D7818A819B81E816F90608F401
:1013200073C08E010E5F1F4FC8010E9462048C893A
:101330009D89892B21F0CE010C960E9462048E8932
:1013400090910421981710F48093042190E09C015F
:10135000220F331F220F331F220F331F820F931FC1
:10136000B801865C9E4D0E941004E0919421F0919A
:1013700095219E898689981708F4BCCFDD24D394E3
:10138000E0912621F091272180818111BBCF8FEF41
:101390009FEF8093FD209093FE20E0919421F091A7
:1013A0009521868990E0FC01EE0FFF1FEE0FFF1FD5
:1013B000EE0FFF1F8E0F9F1FFC01E65CFE4D80812C
:1013C000823010F0DD24D39480910121882311F024
:1013D000DD24D3948D2DDF91CF911F910F91FF903C
:1013E000EF90DF900895809102218F5F809302211A
:1013F000D12CEACF66E67AE086E190E20E94110BFA
:101400004ECF0E948D066DCF8093FD209093FE20DD
:10141000C4CFFF920F931F93CF93DF938091FA2055
:10142000882309F477C00FB6F8940F928091FA20C0
:1014300081508093FA208091FA20811162C08091BE
:101440000721882309F45DC0C0E0D0E0FF24F394B5
:1014500080911B218823A1F1E0912021F09121218D
:10146000C681D781CE010C960E9462048E010E5F68
:101470001F4FC8010E9462048E8990910421981721
:1014800010F48093042190E09C01220F331F220F5F
:10149000331F220F331F820F931FB801865C9E4DAE
:1014A0000E941004E0919421F09195219E898689F3
:1014B000981770F2F092012180911B218111CCCFFD
:1014C000CD2B69F0E0912621F091272180818111B7
:1014D0002CC08FEF9FEF8093FD209093FE20C09152
:1014E0000221CC2351F0D1E00E942F098111D09329
:1014F0000121C150C9F7109202218091012181116F
:1015000010C080E00F900FBEDF91CF911F910F911F
:10151000FF9008956CE678E086E190E20E94110B5E
:1015200082CF0E94330581E0EDCF0E948D06D7CF98
:10153000CF93DF93EC01892B29F40E943305DF91CF
:10154000CF9108958091FA20811110C08091FA20E6
:101550008F5F8093FA2060E0CE010E949E060E9479
:10156000090A882351F3DF91CF91089560E275E075
:1015700086E190E20E94110BE9CF8091FA2081115F
:1015800002C00C94FA0681E0809301210895089529
:10159000F89489E590E20E94AC0180E8809301060E
:1015A000809305062FEF33EC99E0215030409040B6
:1015B000E1F700C00000809306062FEF33EC99E0BE
:1015C000215030409040E1F700C00000E9CFEB012E
:1015D000F89480E8809301068BE790E20E94AC01CA
:1015E0006AE070E0CE010E94CB0185EC90E20E949F
:1015F000AC0180E8809305062FEF33ED90E3215096
:1016000030409040E1F700C00000809306062FEFC5
:1016100033ED90E3215030409040E1F700C00000EE
:10162000E9CF8C01EB01F89480E88093010683E90F
:1016300090E20E94AC0164E670E0C8010E94CB0118
:1016400083EA90E20E94AC01CE010E94F00185EC99
:1016500090E20E94AC0180E8809305062FEF33EC06
:1016600099E0215030409040E1F700C000008093A5
:1016700006062FEF33ED90E3215030409040E1F724
:1016800000C00000E9CF80E090E40E94990F8093B1
:101690009E2190939F21892BE9F00E944E020E9487
:1016A0001A030E94B40B81E00E94B80B87E080937C
:1016B000A20078942FEF89EF90E021508040904075
:1016C000E1F700C000000E94950B0E94F20880E044
:1016D00090E00895FFCFFFCFCEEAD0E2809196212F
:1016E00090919721A0919821B0919921803120E18A
:1016F0009207A207B207A1F0803220E29207A20768
:10170000B20771F0BF93AF939F938F93DF93CF9303
:101710000E94EB110F900F900F900F900F900F9071
:1017200081E090E00E94980AD9CFEF92FF920F9348
:10173000E12CF12C01E020E030E040E051E068ECE9
:1017400070E28BE69BE00E94BC0702E020E030E004
:1017500040E051E061ED70E28CE69BE00E94BC0746
:101760000F91FF90EF90089580E2809341060895D5
:10177000811104C080E280934606089580E2809340
:10178000450608952F923F924F925F926F927F92FB
:101790008F929F92AF92BF92CF92DF92EF92FF9281
:1017A0000F931F93CF93DF93CDB7DEB76097CDBF75
:1017B000DEBF7C011B016A01FC0116821782838156
:1017C00081FF44C39E012F5F3F4F3901F701938191
:1017D000F10193FD859193FF81911F01882309F405
:1017E00031C3853239F493FD859193FF81911F01B7
:1017F000853239F4B70190E00E94AF1156016501BE
:10180000E5CF10E0512C912CFFE1F915D8F08B3287
:1018100079F038F4803279F08332A1F4F92DF06157
:101820002EC08D3261F0803369F4292D21602DC0E6
:10183000392D3260932E892D8460982E2AC0E92D8F
:10184000E86015C097FC2DC020ED280F2A3088F4E1
:1018500096FE06C03AE0139F200D1124122F19C0E6
:101860008AE0589E200D1124522EE92DE0629E2E12
:1018700010C08E3231F496FCE5C2F92DF0649F2E33
:1018800008C08C3621F4292D2068922E02C088369B
:1018900041F4F10193FD859193FF81911F01811125
:1018A000B3CF9BEB980F933020F4992D9061805E1D
:1018B00007C09BE9980F933008F066C1992D9F7E71
:1018C00096FF16E09F73992E853619F49064992E31
:1018D00008C0863621F4392F3068932E02C01111CA
:1018E000115097FE07C01C3350F444244394410E1A
:1018F00027E00BC0183038F027E017E005C027E0DC
:101900009CE3492E02C0212F412C560184E0A80EF1
:10191000B11CF6016081718182819381042DA30144
:101920000E94BA106C01F981FC87F0FF02C0F3FF3E
:1019300006C091FC06C092FE06C000E205C00DE2A2
:1019400003C00BE201C000E08C858C7019F001111E
:101950005AC29BC297FE10C04C0CFC85F4FF04C019
:101960008A81813309F44A94141474F528E024150B
:1019700078F588E0482E2CC096FC2AC0812F90E094
:101980008C159D059CF03CEFC3163FEFD30674F019
:10199000892D8068982E0AC0E2E0F0E0EC0FFD1F70
:1019A000E10FF11D8081803319F411501111F4CF32
:1019B00097FE0EC044244394410E812F90E0C81638
:1019C000D9062CF41C1904C04424439401C010E02F
:1019D00097FE06C01C141D0434F4C601019605C010
:1019E00085E090E002C081E090E0011101961123B2
:1019F00031F0212F30E02F5F3F4F820F931F252DB5
:101A000030E08217930714F4581A01C0512C892D25
:101A1000897049F4552039F0B70180E290E00E94C6
:101A2000AF115A94F7CF002329F0B701802F90E02F
:101A30000E94AF1193FC09C0552039F0B70180E333
:101A400090E00E94AF115A94F7CF97FE4CC0460128
:101A5000D7FE02C0812C912CC60188199909F30187
:101A6000E80FF91FED87FE879601241931092F87AA
:101A7000388B012F10E01195019511093FEF831666
:101A8000930629F4B7018EE290E00E94AF11C814CA
:101A9000D9044CF08F8598898815990524F4ED8533
:101AA000FE85818101C080E3F1E08F1A91082D85C8
:101AB0003E852F5F3F4F2D873E87801691062CF085
:101AC000B70190E00E94AF11D9CFC814D90441F4F6
:101AD0009A81963320F4953319F43C8534FF81E3E1
:101AE000B70190E04EC08A81813319F09C859F7EBA
:101AF0009C87B70190E00E94AF11111105C094FCC2
:101B000018C085E690E017C0B7018EE290E00E9411
:101B1000AF111E5F82E001E0080FF301E80FF11D35
:101B20008081B70190E00E94AF11802F0113F3CFA5
:101B3000E6CF85E490E0B7010E94AF11D7FC06C064
:101B4000C114D10441F4EC85E4FF05C0D194C194E3
:101B5000D1088DE201C08BE2B70190E00E94AF1185
:101B600080E32AE0C216D1042CF08F5FFAE0CF1A8E
:101B7000D108F7CFB70190E00E94AF11B701C601BD
:101B8000C0960E94AF1154C1833631F0833779F08B
:101B9000833509F056C020C0560132E0A30EB11CB7
:101BA000F6018081898301E010E0630112C05601D3
:101BB000F2E0AF0EB11CF601C080D18096FE03C0EA
:101BC000612F70E002C06FEF7FEFC6010E94A41189
:101BD0008C01F92DFF7714C0560122E0A20EB11C32
:101BE000F601C080D18096FE03C0612F70E002C074
:101BF0006FEF7FEFC6010E9492118C01F92DF06802
:101C00009F2EF3FD1AC0852D90E008171907A8F440
:101C1000B70180E290E00E94AF115A94F4CFF60130
:101C200097FC859197FE81916F01B70190E00E942A
:101C3000AF1151105A94015011090115110579F78E
:101C4000F7C0843611F0893661F5560197FE09C058
:101C500024E0A20EB11CF601608171818281938122
:101C60000AC0F2E0AF0EB11CF60160817181072E4F
:101C7000000C880B990BF92DFF769F2E97FF09C05A
:101C800090958095709561957F4F8F4F9F4FF0682D
:101C90009F2E2AE030E0A3010E94FF11C82EC61833
:101CA0003FC0092D853721F40F7E2AE030E01DC0AA
:101CB000097F8F3691F018F4883559F0C3C080370A
:101CC00019F0883711F0BEC0006104FF09C004603C
:101CD00007C094FE08C0066006C028E030E005C0DA
:101CE00020E130E002C020E132E0560107FF09C0E8
:101CF00084E0A80EB11CF60160817181828193811C
:101D000008C0F2E0AF0EB11CF6016081718180E085
:101D100090E0A3010E94FF11C82EC6180F77902EE5
:101D200096FE0BC0092D0E7FC11650F494FE0AC01A
:101D300092FC08C0092D0E7E05C0DC2C092D03C0C5
:101D4000DC2C01C0D12E04FF0DC0FE01EC0DF11DF5
:101D50008081803311F4097E09C002FF06C0D3944C
:101D6000D39404C0802F867809F0D39403FD11C06A
:101D700000FF06C01C2DD51480F4150D1D190DC0D3
:101D8000D51458F4B70180E290E00E94AF11D394CB
:101D9000F7CFD51410F45D1801C0512C04FF10C00A
:101DA000B70180E390E00E94AF1102FF17C001FD70
:101DB00003C088E790E002C088E590E0B7010CC05E
:101DC000802F867859F001FF02C08BE201C080E2CB
:101DD00007FD8DE2B70190E00E94AF11C11638F403
:101DE000B70180E390E00E94AF111150F7CFCA9481
:101DF000F301EC0DF11D8081B70190E00E94AF115D
:101E0000C110F5CF15C0F4E0F51560F584E0581A5F
:101E100093FE1FC0011127C02C8523FF2AC000E1BB
:101E200012E0392D3071932EF8018491811124C074
:101E3000552009F4E4CCB70180E290E00E94AF1194
:101E40005A94F6CFF7018681978126C08FEF9FEFD6
:101E500023C0B70180E290E00E94AF115A94511064
:101E6000F8CFD8CF512CB701802F90E00E94AF114E
:101E7000D3CF04E112E0D5CF91108052B70190E0AA
:101E80000E94AF110F5F1F4FCFCF23E0251510F435
:101E900083E0BDCF512CC0CF6096CDBFDEBFDF91B8
:101EA000CF911F910F91FF90EF90DF90CF90BF9057
:101EB000AF909F908F907F906F905F904F903F90EA
:101EC0002F900895AA1BBB1B51E107C0AA1FBB1F7F
:101ED000A617B70710F0A61BB70B881F991F5A95B6
:101EE000A9F780959095BC01CD01089597FB072E29
:101EF00016F4009407D077FD09D00E94620F07FC0A
:101F000005D03EF4909581959F4F08957095619509
:101F10007F4F0895A29FB001B39FC001A39F700D92
:101F2000811D1124911DB29F700D811D1124911DE1
:101F300008950F931F93CF93DF938230910510F490
:101F400082E090E0E091A221F091A32120E030E036
:101F5000A0E0B0E0309719F14081518102811381F6
:101F600048175907C8F08417950769F4109731F09E
:101F700012960C93129713961C9327C00093A221DC
:101F80001093A32122C02115310519F042175307E0
:101F900018F49A01BD01EF01DF01F801DBCF211533
:101FA0003105F9F0281B390B2430310580F48A8182
:101FB0009B816115710521F0FB018283938304C02D
:101FC0008093A2219093A321FE01329644C0FE018A
:101FD000E20FF31F819391932250310928833983B3
:101FE0003AC02091A0213091A121232B41F42091CE
:101FF0000220309103202093A0213093A121209131
:102000000020309101202115310541F42DB73EB754
:102010004091042050910520241B350BE091A02114
:10202000F091A121E217F307A0F42E1B3F0B281714
:10203000390778F0AC014E5F5F4F2417350748F041
:102040004E0F5F1F4093A0215093A1218193919344
:1020500002C0E0E0F0E0CF01DF91CF911F910F913E
:102060000895CF93DF93009709F481C0FC01329764
:1020700012821382A091A221B091A321109781F422
:1020800020813181820F931F2091A0213091A121C5
:102090002817390751F5E093A021F093A12167C0DB
:1020A000ED0120E030E0CE17DF0740F44A815B818C
:1020B0009E0141155105F1F0EA01F5CFC283D383AA
:1020C00040815181840F951FC817D90759F4888121
:1020D0009981840F951F0296808391838A819B81C9
:1020E000828393832115310529F4E093A221F09393
:1020F000A3213DC0E901EA83FB8349915991C40FB3
:10210000D51FEC17FD0761F480819181840F951F25
:102110000296E90188839983828193818A839B83D4
:10212000E0E0F0E012968D919C911397009719F0E2
:10213000FD01DC01F7CF8D919C9111979D012E5FE0
:102140003F4F820F931F2091A0213091A12128178A
:10215000390769F4309729F41092A2211092A32133
:1021600002C012821382A093A021B093A121DF911B
:10217000CF910895283008F027E03327DA01990F2E
:10218000311D87FD916000966105710539F432605B
:102190002E5F3D9330E32A95E1F708959F3F30F09D
:1021A00080387105610509F03C5F3C5F3D939130DB
:1021B00008F08068911DDF93CF931F930F93FF92D8
:1021C000EF92192F987F9695E92F96959695E90F9E
:1021D000FF27EE58FD4F99273327EE24FF24A70150
:1021E000E70105900894079428F4360FE71EF81EBF
:1021F000491F511D660F771F881F991F0694A1F76D
:102200000590079428F4E70EF81E491F561FC11DBC
:10221000770F881F991F661F0694A1F705900794F2
:1022200028F4F80E491F561FC71FD11D880F991F8C
:10223000661F771F0694A1F70590079420F4490FB5
:10224000561FC71FD81F990F661F771F881F069438
:10225000A9F784911095177041F0D695C7955795B9
:102260004795F794E7941A95C1F7E8E1F2E068948E
:102270001590159135916591959105907FE2739533
:10228000E118F10A430B560BC90BD009C0F7E10C5A
:10229000F11E431F561FC91FD01D7EF4703311F469
:1022A0008A95E6CFE894015030F0080F0AF4002731
:1022B000021708F4202F2395022F7A3328F079E3B0
:1022C0007D932A95E9F710C07D932A9589F60694A7
:1022D00097956795379517951794E118F10A430B71
:1022E000560BC90BD00998F023957E9173957A33DC
:1022F00008F070E37C932013B8F77E9170617D93B2
:1023000030F0839571E37D9370E32A95E1F7112412
:10231000EF90FF900F911F91CF91DF91992787FD4B
:1023200090950895FC010590615070400110D8F718
:10233000809590958E0F9F1F0895DC0101C06D93CD
:1023400041505040E0F70895FC0161507040019009
:102350000110D8F7809590958E0F9F1F08950F93C9
:102360001F93CF93DF93FB01238121FD03C08FEFE8
:102370009FEF2CC022FF16C04681578124813581F2
:102380004217530744F4A081B1819D012F5F3F4F55
:10239000208331838C93268137812F5F3F4F2683A3
:1023A000378314C08B01EC01FB010084F185E02D23
:1023B0001995892BE1F6D80116968D919C91179766
:1023C000019616968D939C931797CE01DF91CF912E
:1023D0001F910F910895CF93DF93CDB7DEB7AE0174
:1023E0004A5F5F4FFA0161917191AF018091A6211F
:1023F0009091A7210E94C20BDF91CF910895FA011D
:10240000AA27283051F1203181F1E8946F936E7F33
:102410006E5F7F4F8F4F9F4FAF4FB1E03ED0B4E024
:102420003CD0670F781F891F9A1FA11D680F791F65
:102430008A1F911DA11D6A0F711D811D911DA11D76
:1024400020D009F468943F912AE0269F1124301986
:10245000305D3193DEF6CF010895462F4770405D21
:102460004193B3E00FD0C9F7F6CF462F4F70405DD0
:102470004A3318F0495D31FD4052419302D0A9F72B
:10248000EACFB4E0A6959795879577956795BA9525
:10249000C9F700976105710508959B01AC010A2EEB
:1024A00006945795479537952795BA95C9F7620FC2
:0E24B000731F841F951FA01D0895F894FFCF81
:1024BE000000AA2120000000000300000000060317
:1024CE0012030000FF3F2E2E2F4672656552544FA9
:1024DE00532F7461736B732E630049444C4500098E
:1024EE0025630925750925750925750D0A00092528
:1024FE006C750909256C7525250D0A0009256C7565
:10250E0009093C3125250D0A004552524F523A20F9
:10251E006D656D6F727920616C6C6F636174696F3C
:10252E006E206661696C65640D0A00535441434B1D
:10253E00206F766572666C6F7720696E207461739A
:10254E006B200041737365727420696E2066696C2E
:10255E006520002C206C696E65206E722000496E1D
:10256E0076616C696420446174612076616C756576
:10257E003A256C78200D0A0073656E647461736B76
:0E258E0000726563656976657461736B0000A9
:00000001FF
